:040000000200833245
:01000B0032C2
:0100130032BA
:01001B0032B2
:0100230032AA
:01002B0032A2
:01003300329A
:01003B003292
:03004300020FADFC
:01004B003282
:01005300327A
:01005B003272
:01006300326A
:01006B003262
:01007300325A
:03007B00020EF082
:0300E50002007E98
:05007E001200E880FE05
:1000E8001200F1120129020DADC2AF53BEFBE5BEED
:1000F80030E6FB53C680E5C620E6FB43BE04121A71
:10010800FF1210F8D2AF22E582FA600453A0F7225A
:1001180043A00822E582FA600453A0EF2243A0100E
:0101280022B4
:1022530000B80000B80018001818001850F850F81B
:1022630050F840D81070F870A870A8C82098402083
:102273004040204000180000180070708800F88863
:1022830088707088F80040704060306020702020B3
:10229300702080400000C0002020202020200080EB
:1022A30000008000A07028C02018708870F888F89B
:1022B30088F88090F880D8A8D8E8A8B8D8A87088FB
:1022C300A8F81820D83820F8B8A848B8A8E870A803
:1022D30048F8A8E8A87828C8281850A850F8A8F8FB
:1022E30050A870B8A8F800500000500080500000BB
:1022F300D00070D80020500050505050505000D89B
:102303007000502010E81008A838F898F8F8A8B81A
:10231300F028F0F828F8F8A870F8A8F8708850F8B2
:1023230088D8F88870F888F8708850F8A8D8F82802
:1023330000F82828708840F8A8F8F820F8F820F862
:1023430000F80000F800408078C080F8F810C8F862
:102353006098F88080788080F028F0F810F8F050CA
:1023630078F820F8708870F888F8F02810F8283882
:10237300704830F888F8F008D0F868B850A850B81A
:10238300A8E808F80808F808788078F880F8C030DA
:10239300C038C03878A078F840F8A850A8D820D81A
:1023A30028D02818E01820D820C8A89800F888005A
:1023B300F8882870A01820C088F80088F80018084A
:1023C300181008108080808080800008100018009A
:1023D300F028F0F828F8F8A870F8A8F8708850F8F2
:1023E30088D8F88870F888F8708850F8A8D8F82842
:1023F30000F82828708840F8A8F8F820F8F820F8A2
:1024030000F80000F800408078C080F8F810C8F8A1
:102413006098F88080788080F028F0F810F8F05009
:1024230078F820F8708870F888F8F02810F82838C1
:10243300704830F888F8F008D0F868B850A850B859
:10244300A8E808F80808F808788078F880F8C03019
:10245300C038C03878A078F840F8A850A8D820D859
:1024630028D02818E01820D820C8A8980070882001
:0E247300D80000F80000F80088700000D820A3
:016BAF0003E2
:10248100656E676C697368006765726D616E0000E7
:102491006C6563747572650000706F6469756D00B9
:1024A1000000636F6E7465737400006C746E677402
:1024B100616C6B00776F726B73686F70006F74681B
:1024C100657200000000636F6D6D756E697479004F
:1024D10063756C747572650000006861636B696E89
:1024E100670000006D616B696E6700000000736337
:1024F10069656E6365000000736F636965747900D7
:102501000000000B1E0C1E32374333204B65796EE1
:102511006F7465000000000000000000000000A1D1
:10252100000000000000000100576520636F6D6529
:1025310020696E20506561636500000000000000A5
:1025410000A10000000000000001000000000000E8
:10255100000000000000000000000000000000007A
:10256100000000A1000000000000000100000000C8
:10257100000000000000000000000000000000005A
:102581000000000000A100000000000000010000A8
:10259100000000000000000000000000000000003A
:1025A10000000000000000A1000000000000000188
:1025B100000000000000000000000000000000001A
:1025C100000000000000000000A100000000000069
:1025D1000001000150000C2D0D2D436F70797269BF
:1025E10067687420456E666F7263656D656E7420F1
:1025F10056732E0000000000000000004672656561
:10260100646F6D7300000000000000000000000016
:1026110000000000A1000000000000000100414393
:1026210054412C2049505245443320616E64206F3F
:1026310074686572207570636F6D696E6700000064
:10264100626174746C6573206F66207468652063C1
:1026510072757361646520616761696E73740000EE
:10266100000073686172696E67000000000000007D
:1026710000000000000000000000A10000000000B8
:10268100000001004A6572656D6965205A696D6DCA
:1026910065726D616E6E000000000000A100000017
:1026A1000000000001000250000E000F00566F6E86
:1026B100205A656E73757273756C612075656265FC
:1026C100722043656E73696C6961000000000068E7
:1026D100696E207A756D204B696E6465726E6574E2
:1026E10000000000000000A1000000000000000147
:1026F100004A61687265737275636B626C69636BC2
:102701002072756E6420756D20496E7465726E65F8
:102711007400005370657272656E2C2053656E648F
:10272100657A65697462656772656E7A756E6765EB
:102731006E00000000696D20496E7465726E6574EB
:1027410020756E64207665726D65696E746C69635F
:1027510068656E000000004A7567656E64736368A2
:1027610075747A207C20416C76617220432E482E4C
:102771004672657564650000000251001000110089
:1027810057686973746C65626C6F77696E67000076
:102791000000000000000000A10000000000000097
:1027A10001004C6963687420696E732044756E6B17
:1027B100656C2100000000000000A1000000000085
:1027C1000000010000000000000000000000000007
:1027D100000000000000000000000000A100000057
:1027E10000000000010000000000000000000000E7
:1027F1000000000000000000000000000000A10037
:1028010000000000000001000000000000000000C6
:1028110000000000000000000000000000000000B7
:10282100A100000000000000010000000000000005
:102831000000000000000000000000000000000097
:102841000000A1000000000000000100015100147F
:102851001E151E4461746120526574656E74696F42
:102861006E20696E2074686520455520666976651D
:102871000000000000796561727320616674657201
:102881002074686520446972656374697665000027
:10289100000000000000005768792074686520740A
:1028A100696D65206973206E6F7720746F2067658D
:1028B1007400000000000000006163746976650027
:1028C1000000000000000000000000000000000007
:1028D10000A10000000000000001004B6174617262
:1028E1007A796E6120537A796D69656C6577696370
:1028F1007A2C205061747269636B0000004272652A
:102901007965722C2052616C662042656E64726139
:1029110074682C206178656C0000000000000002E2
:102921005000000F010F50656E74616E6577732062
:1029310047616D652053686F770000000000A100BA
:102941000000000000000100596F7572206F707067
:102951006F6E656E74732077696C6C20626520728E
:102961006964646C65640000000061732077656CC4
:102971006C000000000000000000000000000000EA
:102981000000A100000000000000010000000000A4
:102991000000000000000000000000000000000036
:1029A10000000000A1000000000000000100000084
:1029B1000000000000000000000000000000000016
:1029C100000000000000A100000000000000010064
:1029D100416C69656E382C20417374726F00000080
:1029E1000000000000000000A10000000000000045
:1029F1000100010A100C2D0D2D436F6465206465E3
:102A01006F62667573636174696F6E20627900002D
:102A110000A10000000000000001006F7074696DEA
:102A2100697A6174696F6E000000000000000000A7
:102A3100000000A1000000000000000100000000F3
:102A41000000000000000000000000000000000085
:102A51000000000000A100000000000000010000D3
:102A61000000000000000000000000000000000065
:102A710000000000000000A10000000000000001B3
:102A81000000000000000000000000000000000045
:102A9100000000000000000000A100000000000094
:102AA1000001004272616E6B6F20537061736F6A37
:102AB1006576696300000000000000A100000000CD
:102AC10000000001000220100E000F00436F6E7421
:102AD100656D706F726172792050726F66696C6991
:102AE1006E67206F66205765620000000000557315
:102AF100657273000000000000000000000000008B
:102B0100000000000000A100000000000000010022
:102B11004F6E205573696E6720416E6F6E796D69D6
:102B21007A65727320616E64205374696C6C000065
:102B31000000476574204675636B65640000000002
:102B410000000000000000000000A10000000000E3
:102B51000000010000000000000000000000000073
:102B6100000000000000000000000000A1000000C3
:102B7100000000000100446F6D696E696B204865BB
:102B810072726D616E6E2C206C65786900000000B8
:102B9100000000000000000002201010001100459C
:102BA100696E732C207A7765692C206472656920BF
:102BB1002D20616C6C652073696E6400000000005B
:102BC100006461626569000000000000000000000F
:102BD100000000000000000000A100000000000053
:102BE100000100566F6E2064657220566F6C6B7326
:102BF1007A6165686C756E67207A756D2042756EB5
:102C01006465732D006D656C6465726567697374C5
:102C110065720000000000000000000000A100003B
:102C210000000000000100000000000000000000A2
:102C3100000000000000000000000000000000A1F2
:102C41000000000000000001004F6C6976657220F1
:102C510022556E69636F726E22204B6E6170700037
:102C61000000000000000000000000025110110FE0
:102C7100120F46726965646520736569206D697418
:102C810020457572656E20446174656E0000000018
:102C91000000000045696E20646174656E736368AD
:102CA10075747A72656368746C69636865722041D2
:102CB10075732D000000666C756720696E2065696B
:102CC1006E206B697263686C6963686573200000CC
:102CD1000000000000000000506172616C6C656CC6
:102CE100756E6976657273756D202D0000000000A8
:102CF100A100000000000000010000000000000031
:102D010000000000000000000000000000000000C2
:102D11000000A10000000000000001004A6F63688C
:102D2100696D2053656C7A65720000000000000037
:102D310000000000A100000000000000010001519E
:102D410010121E131E6861636B696E6720736D61DB
:102D510072742070686F6E657300000000A100003E
:102D610000000000000100657870616E64696E67A3
:102D7100207468652061747461636B207375726679
:102D810061636520616E6400007468656E20736F15
:102D91006D65000000000000000000000000000060
:102DA10000A1000000000000000100000000000080
:102DB1000000000000000000000000000000000012
:102DC100000000A100000000000000010000000060
:102DD10000000000000000000000000000000000F2
:102DE1000000000000A100000000000000010049F7
:102DF1006C6A612076616E20537072756E64656CC9
:102E010000000000000000A100000000000000011F
:102E110000012010141E151E4465736B746F702021
:102E21006F6E20746865204C696E75782E2E2E00A9
:102E31000000000000000000000028616E642042D4
:102E410053442C206F6620636F75727365290000EF
:102E51000000A1000000000000000100796F75274B
:102E6100726520646F696E6720697420636F6E6696
:102E7100757365643F2077656972643F0000737400
:102E810072616E67653F2077726F6E673F00000069
:102E9100000000000000A10000000000000001008F
:102EA1000000000000000000000000000000000021
:102EB1000000000000000000A10000000000000070
:102EC1000100646174656E776F6C6600000000003C
:102ED10000000000000000000000A1000000000050
:102EE10000000100020010152D162D526563656E5C
:102EF1007420616476616E63657320696E20495048
:102F010076360000000000000000000000696E73CA
:102F110065637572697469657300000000000000E3
:102F21000000000000A100000000000000010000FE
:102F31000000000000000000000000000000000090
:102F410000000000000000A10000000000000001DE
:102F51000000000000000000000000000000000070
:102F6100000000000000000000A1000000000000BF
:102F7100000100000000000000000000000000004F
:102F81000000000000000000000000A1000000009F
:102F9100000000010076616E486175736572000082
:102FA10000000000000000000000000000A100007F
:102FB1000000000000010002201017000000537003
:102FC100696E6E696E672074686520656C656374EF
:102FD100726F6E69630000000000000000000000D5
:102FE100576865656C0000000000000000000000EB
:102FF1000000000000000000A1000000000000002F
:1030010001005374696C6C2074686520626963798E
:10301100636C657320666F72207468652032317449
:103021006800000063656E7475727900000000002D
:10303100000000000000000000000000A1000000EE
:10304100000000000100000000000000000000007E
:103051000000000000000000000000000000A100CE
:10306100000000000000010000000000000000005E
:10307100000000000000000000000000000000004F
:10308100A10000000000000001000231200C2D0D04
:103091002D46726F6D20726F626F7420746F207293
:1030A1006F626F740000000000A1000000000000CA
:1030B100000100526573746F72696E6720637265F7
:1030C1006174697669747920696E207363686F6FC2
:1030D1006C00000000707570696C73207573696E07
:1030E1006720726F626F74696373000000A1000052
:1030F10000000000000100000000000000000000CE
:10310100000000000000000000000000000000A11D
:1031110000000000000000010000000000000000AD
:10312100000000000000000000000000000000009E
:1031310000A10000000000000001000000000000EC
:10314100000000000000000000000000000000007E
:10315100000000A10000000000000001000150205B
:103161000E000F004A5441472F53657269616C2F5D
:10317100464C4153482F50434220456D626564647B
:103181006564000000005265766572736520456EC6
:1031910067696E656572696E6720546F6F6C732025
:1031A100616E640000000000546563686E697175AA
:1031B1006573000000000000000000000000000036
:1031C100A1000000000000000100612064756D7025
:1031D100206F662073696D706C6520746F6F6C73FE
:1031E10020666F7220656D2D0000000062656464C9
:1031F100656420616E616C79736973206174206DFF
:10320100616E79206C6179657273000000000000C5
:1032110000000000000000000000000000000000AD
:10322100000000000000A1000000000000000100FB
:10323100032020100011004175746F6D6174696382
:10324100204964656E74696669636174696F6E2093
:103251006F660000000000000043727970746F67B0
:10326100726170686963205072696D69746976650D
:103271007320696E00000000000000536F667477D0
:103281006172650000000000000000000000000005
:10329100000000A10000000000000001000000008B
:1032A100000000000000000000000000000000001D
:1032B1000000000000A1000000000000000100006B
:1032C10000000000000000000000000000000000FD
:1032D10000000000000000A100000000000000014B
:1032E1000046656C69782047726F6562657274008B
:1032F100000000000000000000A10000000000002C
:10330100000100032020110F120F55534220616E5E
:1033110064206C696275736220666F722066756ED7
:1033210020616E64000000000000000070726F6692
:1033310069740000000000000000000000000000AF
:1033410000000000A1000000000000000100555332
:10335100423A20536F206D756368206D6F7265204E
:103361007468616E20612073657269616C00000090
:10337100706F7274207769746820706F776572005E
:103381000000000000000000A1000000000000009B
:10339100010000000000000000000000000000002B
:1033A10000000000000000000000A100000000007B
:1033B10000000100506574657220537475676500E3
:1033C100000000000000000000000000A10000005B
:1033D100000000000100023020152D162D436F67FB
:1033E1006E69746976652050737963686F6C6F6775
:1033F1007920666F720000000000000000000048A4
:1034010061636B6572730000000000000000000042
:1034110000000000000000A1000000000000000109
:1034210000427567732C206578706C6F6974732C1A
:1034310020616E64206F63636173696F6E616C00FC
:103441000000007061746368657300000000000093
:103451000000000000000000000000A100000000CA
:10346100000000010000000000000000000000005A
:1034710000000000000000000000000000A10000AA
:10348100000000000001005361690000000000001D
:10349100000000000000000000000000000000A18A
:1034A1000000000000000001000240010B1E0C1E84
:1034B10046696C65202D3E205072696E74202D3E48
:1034C10020456C656374726F6E6963730000000060
:1034D100000041206E65772063697263756974200D
:1034E100626F617264207072696E746572207769AF
:1034F1006C6C00006C6962657261746520796F752E
:103501002066726F6D207468652041726475696E02
:103511006F2D00000000496E647573747269616CEF
:1035210020436F6D706C6578000000000000A10001
:103531000000000000000100000000000000000089
:10354100000000000000000000000000000000007A
:10355100A10000000000000001004A6566662047E6
:103561006F756768000000000000000000000000A7
:103571000000A10000000000000001000130011264
:103581001E131E54686520436F6E636572740000DC
:103591000000000000000000000000A10000000089
:1035A10000000001006120646973636F6E636572DE
:1035B10074696E67206D6F6D656E7420666F722021
:1035C1006672656500000063756C74757265000054
:1035D100000000000000000000000000000000A149
:1035E10000000000000000010000000000000000D9
:1035F10000000000000000000000000000000000CA
:1036010000A1000000000000000100000000000017
:1036110000000000000000000000000000000000A9
:10362100000000A1000000000000000100436F72D3
:103631006579204365726F7673656B2C204A756CD2
:1036410069656E205175656E74696E000000000138
:103651001A01141E151E486967682D73706565642B
:1036610020686967682D73656375726974790000F4
:10367100000000000000000063727970746F6772CF
:10368100617068793A00000000000000000000004D
:10369100A1000000000000000100656E63727970F6
:1036A10074696E6720616E642061757468656E74FB
:1036B10069636174696E67000000000074686520C9
:1036C10077686F6C6520496E7465726E6574000071
:1036D10000000000A1000000000000000100000047
:1036E10000000000000000000000000000000000D9
:1036F100000000000000A100000000000000010027
:1037010044616E69656C204A2E204265726E737445
:1037110065696E0000000000A100000000000000CB
:103721000100022001152D162D446566656E736535
:10373100206973206E6F742064656164000000006D
:1037410000A1000000000000000100576879207707
:10375100652077696C6C2068617665206D6F726594
:1037610020736563757265000000000000636F6D72
:10377100707574657273202D20746F6D6F72726F26
:103781007700000000A1000000000000000100001F
:103791000000000000000000000000000000000028
:1037A10000000000000000A1000000000000000176
:1037B1000000000000000000000000000000000008
:1037C100000000000000000000A100000000000057
:1037D100000100416E647265617320426F676B0086
:1037E1000000000000000000000000A10000000037
:1037F100000000010001200117000000546865204D
:10380100696D706F7274616E6365206F6620726599
:1038110073697374696E67000000000000004578E9
:103821006365737369766520476F7665726E6D6542
:103831006E7400000000A100000000000000010003
:103841005375727665696C6C616E6365000000008A
:103851000000000000000000A100000000000000C6
:1038610001004A6F696E206D6520696E2065787070
:103871006F73696E6720616E64206368616C2D00EF
:10388100000000006C656E67696E672074686520D2
:10389100636F6E7374616E742076696F6C617469A5
:1038A1006F6E730000006F66206F7572207269671A
:1038B100687420746F20707269766163790000000A
:1038C1000000000000000000035001000F010F5331
:1038D10074616E69736C6177204C656D0000000046
:1038E10000000000000000A1000000000000000135
:1038F1000044657220656E7474C3A4757363687443
:10390100652057656C74766572626573736572655F
:1039110072000045696E20617564696F766973751F
:10392100656C6C6573204C6976652D4665617475AF
:103931007265000000412E4B726F6C696B6F77737B
:103941006B692C20432E4B75727A2C00000000000D
:1039510000000000000000492E4B7761736E69651D
:1039610077736B692C204A2E2D4D2E204C6F65628A
:10397100656C000000000000004B2E4B6974746CF4
:10398100657220756E64204D2E20526963687465DE
:1039910072000000000000000000000211110B1E67
:1039A1000C1E4469737472696275746564204650B3
:1039B1004741204E756D62657200000000000000F5
:1039C100000000004372756E6368696E6720466F80
:1039D1007220546865204D617373657300000000A7
:1039E100000000000000486F77207765206F627447
:1039F10061696E65642074686520657175697661B9
:103A01006C656E7400000000706F776572206F66E0
:103A11002061204465657020437261636B20666F8D
:103A21007220610000000000000066697374667511
:103A31006C206F6620646F6C6C617273202D206145
:103A41006E6420686F772E2E2E00000046656C692B
:103A51007820446F6D6B65000000000000000000DD
:103A610000000000A1000000000000000100022190
:103A7100110D000D1E4C79696E6720546F2054683A
:103A810065204E65696768626F757273000000009A
:103A91000000000000000046696573652045666608
:103AA100656B7465206D697420747261636B6572F6
:103AB1002D6C65737300000000426974546F72725B
:103AC100656E7400000000000000000000000000AE
:103AD10000A1000000000000000100000000000043
:103AE10000000000000000000000000000000000D5
:103AF100000000A100000000000000010000000023
:103B010000000000000000000000000000000000B4
:103B11000000000000A100000000000000010041C1
:103B21007374726F000000000000000000000000CC
:103B310000000000000000A10000000000000001E2
:103B4100000121110D2D0E0F4E6F64652E6A732039
:103B510061732061206E6574776F726B696E672087
:103B6100746F6F6C00000000000000000000000096
:103B71000000000000000000000000000000000044
:103B81000000A10000000000000001000000000092
:103B91000000000000000000000000000000000024
:103BA10000000000A1000000000000000100000072
:103BB1000000000000000000000000000000000004
:103BC100000000000000A100000000000000010052
:103BD10000000000000000000000000000000000E4
:103BE1000000000000000000A10000000000000033
:103BF100010046656C69782047656973656E646F7D
:103C010065726665720000000000A10000000000FE
:103C1100000001000120110E1E0F004C6F67696B3F
:103C2100736368616C74756E67656E206F686E652D
:103C310020456C656B74726F6E696B00006C6F6709
:103C4100697363686520536368616C74756E676539
:103C51006E206D697400000000000000000000503B
:103C61006E65756D6174696B0000000000000000F5
:103C710000000000000000A10000000000000001A1
:103C81000000000000000000000000000000000033
:103C9100000000000000000000A100000000000082
:103CA1000001000000000000000000000000000012
:103CB1000000000000000000000000A10000000062
:103CC100000000010041657065782C20786966006C
:103CD10000000000000000000000000000A1000042
:103CE10000000000000100013111100011004973B2
:103CF100207468652053534C697665727365206141
:103D0100207361666520706C6163653F000000008F
:103D1100416E20757064617465206F6E2045464662
:103D210027732053534C00000000000000000000E6
:103D310000004F627365727661746F7279207072E0
:103D41006F6A6563740000000000A10000000000BC
:103D51000000010000000000000000000000000061
:103D6100000000000000000000000000A1000000B1
:103D71000000000001000000000000000000000041
:103D81000000000000000000000000000000A10091
:103D91000000000000000100000000000000000021
:103DA1000000000000000000000000000000000012
:103DB100A1000000000000000100010011121E130B
:103DC1001E4C697465726172697363686572204122
:103DD10062656E640000000000A1000000000000A8
:103DE10000010000000000000000000000000000D1
:103DF1000000000000000000000000A10000000021
:103E010000000001000000000000000000000000B0
:103E110000000000000000000000000000A1000000
:103E21000000000000010000000000000000000090
:103E3100000000000000000000000000000000A1E0
:103E41000000000000000001000000000000000070
:103E51000000000000000000000000000000000061
:103E610000A1000000000000000100416E647265C5
:103E71006173204C65686E65722C2044722E206C33
:103E810061727300000000000000000000010311D6
:103E9100152D162D416476656E74757265732069F2
:103EA1006E204D617070696E67000000A100000016
:103EB10000000000010041666768616E697374610A
:103EC1006E20456C656374696F6E73000000A1001C
:103ED10000000000000001005468652073746F72D7
:103EE10079206F66203320557368616869646920A1
:103EF1006D617070696E67000000616E64207265AB
:103F0100706F7274696E672070726F6A6563747323
:103F11002E00000000000000000000000000000072
:103F21000000000000000000000000000000000090
:103F310000000000A10000000000000001000000DE
:103F41000000000000000000000000000000000070
:103F5100000000000000A1000000000000000100BE
:103F61000250111700000053656375726520636F7D
:103F71006D6D756E69636174696F6E732062656CD6
:103F81006F772074686500000068656172696E670B
:103F9100207468726573686F6C6400000000000033
:103FA10000A1000000000000000100496D70726F67
:103FB10076656420617070726F61636865732066F5
:103FC1006F72206175646974697665000073746548
:103FD10067616E6F677261706879000000000000B0
:103FE1000000000000A1000000000000000100002E
:103FF10000000000000000000000000000000000C0
:1040010000000000000000A100000000000000010D
:10401100004D6172637573204E75747A696E6765C0
:10402100722C205261696E657220506F6973656CE4
:104031000000000220210B1E0C1E4E65747A6D6576
:104041006469656E72656368742C204C6F62627975
:1040510069736D757320756E640000004B6F727229
:10406100757074696F6E00000000000000000000B0
:1040710000000000A10000000000000001005769DD
:1040810065207769726B7420646965204C6F626288
:104091007920766F6E000000000000000000000033
:1040A1004D656469656E6B6F6E7A65726E656E3FA4
:1040B1000000000000000000A1000000000000005E
:1040C10001000000000000000000000000000000EE
:1040D10000000000000000000000A100000000003E
:1040E1000000010054686F6D617320426172746851
:1040F100000000000000000000000000A10000001E
:104101000000000001000259210C2D0D1E4C6967B1
:1041110068746E696E672054616C6B73202D204446
:104121006179203200000000000000000000004B17
:104131006F7272757074696F6E000000000000008C
:1041410000000000000000A10000000000000001CC
:104151000034206D696E75746573206F6620666129
:104161006D6500000000000000A1000000000000DB
:10417100000100000000000000000000000000003D
:104181000000000000000000000000A1000000008D
:10419100000000010000000000000000000000001D
:1041A10000000000000000000000000000A100006D
:1041B100000000000001005376656E204775636BB7
:1041C100657300000000000000000000000000A175
:1041D1000000000000000001000106210E000F0098
:1041E1004920436F6E74726F6C20596F7572204352
:1041F1006F64650000000000A100000000000000E5
:10420100010041747461636B20566563746F72734E
:10421100205468726F7567682074686520457965F8
:10422100730000006F6620536F6674776172652DAD
:104231006261736564204661756C74000000000062
:1042410000000000000049736F6C6174696F6E00BB
:104251000000000000000000000000000000A100BC
:10426100000000000000010000000000000000004C
:10427100000000000000000000000000000000003D
:10428100A10000000000000001004D617468696137
:104291007320506179657200000000000000000089
:1042A1000000A10000000000000001000120211019
:1042B100001100412073686F727420706F6C697413
:1042C1006963616C20686973746F7279206F66002D
:1042D100000000000061636F75737469637300000F
:1042E10000000000000000000000000000A100002C
:1042F10000000000000100466F722077686F6D2C8E
:1043010020616E6420746F20646F20776861742C63
:10431100207468650000000000736369656E636561
:10432100206F6620736F756E6420776173206465FA
:1043310076656C6F70656400000000696E207468BA
:104341006520313774682063656E74757279000079
:10435100000000A10000000000000001004F6F6E8E
:1043610061204C6567616E6F766963000000000033
:104371000000000000A10000000000000001000298
:104381005021110F120F4461746120416E616C79EB
:1043910073697320696E20546572616269740000EB
:1043A100000000000000000045746865726E6574CD
:1043B100205472616666696300000000000000001D
:1043C100A1000000000000000100536F6C757469CA
:1043D1006F6E7320666F72206D6F6E69746F726994
:1043E1006E6720616E640000000000006C617766FA
:1043F100756C20696E74657263657074696F6E2087
:1044010077697468696E2061206C6F7400006F6653
:1044110020626974730000000000000000000000C9
:10442100000000000000A1000000000000000100E9
:104431004C617273205765696C6572000000000061
:104441000000000000000000A100000000000000CA
:104451000100022021121E131E546563686E696BF0
:10446100656E207A7572204964656E746966697A31
:10447100696572756E670000000000766F6E204EF0
:1044810065747A7765726B2D50726F746F6B6F6C98
:104491006C656E00000000000000000000000000DC
:1044A100000000000000000000000000000000000B
:1044B1000000000000A10000000000000001000059
:1044C10000000000000000000000000000000000EB
:1044D10000000000000000A1000000000000000139
:1044E10000000000000000000000000000000000CB
:1044F100000000000000000000A10000000000001A
:10450100000100466C6F7269616E204164616D73D8
:104511006B79000000000000000000A10000000015
:104521000000000100024121152D162D436F6E730D
:104531006F6C65204861636B696E67203230313082
:1045410000000000A1000000000000000100506C0C
:10455100617973746174696F6E20332C2058626FB6
:1045610078203336302C205769692C200000000058
:10457100445369000000000000000000000000003A
:104581000000000000000000A10000000000000089
:104591000100000000000000000000000000000019
:1045A10000000000000000000000A1000000000069
:1045B10000000100000000000000000000000000F9
:1045C100000000000000000000000000A100000049
:1045D10000000000010062757368696E672C206D30
:1045E100617263616E2C207376656E000000A1001C
:1045F10000000000000001000120020B1E0D1E43FF
:1046010043432D4A6168726573727565636B626CB1
:1046110069636B203230313000000000000000007F
:104621000000000000000000000000000000000089
:10463100000000000000000000A1000000000000D8
:104641000001000000000000000000000000000068
:104651000000000000000000000000A100000000B8
:104661000000000100000000000000000000000048
:1046710000000000000000000000000000A1000098
:1046810000000000000100412E426F676B2C2041A9
:104691002E4D75656C6C65722D4D616775686E2C5C
:1046A100000000000000000000432E4B75727A2CC0
:1046B10020462E5269656765720000000000000007
:1046C10000A1000000000000000100010302110F21
:1046D100130F4E65747A6E65757472616C697461DD
:1046E100657420756E6420516F53202D0000000009
:1046F1000000000065696E2057696465727370720D
:104701007563683F0000000000000000A100000088
:1047110000000000010046616B74656E20617566E2
:104721002064656E20546973636800000000A10075
:104731000000000000000100000000000000000077
:104741000000000000000000000000000000000068
:10475100A1000000000000000100000000000000B6
:104761000000000000000000000000000000000048
:104771000000A100000000000000010041616E6422
:104781007265617320426F676B2C204D61726B758E
:1047910073204265636B656461686C0000000253BD
:1047A10002141E151E4368697020616E6420504911
:1047B1004E2069732042726F6B656E00000000002D
:1047C1000000000000000056756C6E657261626940
:1047D1006C697469657320696E20746865000000F6
:1047E100000000000000000000454D562050726F8F
:1047F100746F636F6C000000000000000000000097
:1048010000A1000000000000000100000000000005
:104811000000000000000000000000000000000097
:10482100000000A1000000000000000100000000E5
:104831000000000000000000000000000000000077
:104841000000000000A10000000000000001005372
:10485100746576656E204A2E204D7572646F6368AB
:1048610000000000000000A10000000000000001A5
:1048710000012002152D162D466E6F72642D4A61BE
:1048810068726573727565636B626C69636B203204
:1048910030313000000000000000766F6E2041745E
:1048A1006F6D617573737469656720626973000068
:1048B1000000A10000000000000001005A77616EB5
:1048C1006773696E746567726174696F6E00000069
:1048D10000000000A1000000000000000100000035
:1048E10000000000000000000000000000000000C7
:1048F100000000000000A100000000000000010015
:1049010000000000000000000000000000000000A6
:104911000000000000000000A100000000000000F5
:10492100010046656C697820766F6E204C6569746C
:104931006E65722C204672616E6B205269656765E7
:1049410072000000015102170001004861636B65AC
:1049510072204A656F706172647900000000000086
:10496100000000A10000000000000001004E756D74
:10497100626572206775657373696E6720666F7211
:10498100206765656B7300000000000000000000F7
:104991000000000000000000000000000000000016
:1049A10000000000000000A1000000000000000164
:1049B10000000000000000000000000000000000F6
:1049C100000000000000000000A100000000000045
:1049D10000010000000000000000000000000000D5
:1049E1000000000000000000000000A10000000025
:1049F10000000001005261792C2053746566616EDC
:104A0100202753656327205A65686C000000000069
:104A1100000000000000000105120B1E0C1E4120C9
:104A2100437269746963616C204F7665727669655A
:104A310077206F6620313020796561727300000044
:104A41006F66205072697661637920456E68616E88
:104A510063696E6700000000A10000000000000013
:104A61000100546563686E6F6C6F67696573000060
:104A710000000000000000000000A1000000000094
:104A81000000010000000000000000000000000024
:104A9100000000000000000000000000A100000074
:104AA1000000000001000000000000000000000004
:104AB1000000000000000000000000000000A10054
:104AC1000000000000000100736564610000000047
:104AD10000000000000000000000000000000000D5
:104AE100A10000000000000001000350120D000DA4
:104AF1001E416C6C436F6C6F7572734172654265D8
:104B01006175746966756C000000000000000000AA
:104B1100000000696E746572616374697665206C6A
:104B21006967687420696E7374616C6C6174696F14
:104B31006E00000000696E737069726564206279AD
:104B410020626C696E6B656E6C69676874730000D6
:104B51000000000000000000000000000000000054
:104B6100000000000000000000000000000000A1A3
:104B71000000000000000001000000000000000033
:104B81000000000000000000000000000000000024
:104B910000A10000000000000001004672616E7A71
:104BA10020506C65747A2C206C696C616669736342
:104BB1006800000000000000000000000001011278
:104BC1000E1E0F0053495020686F6D652067617498
:104BD100657761797320756E6465722066697265A7
:104BE100000000000000536F7572636520726F75DD
:104BF10074696E672061747461636B732061707096
:104C01006C69656400000000746F20534950000016
:104C11000000000000000000000000000000000093
:104C2100A1000000000000000100000000000000E1
:104C31000000000000000000000000000000000073
:104C41000000A100000000000000010000000000C1
:104C51000000000000000000000000000000000053
:104C610000000000A1000000000000000100576FDB
:104C71006C6667616E67204265636B00000000002F
:104C8100000000000000A100000000000000010081
:104C9100012012100011004449592073796E746883
:104CA1006573697A65727320616E6420736F756EC6
:104CB10064000000000000000067656E65726174A9
:104CC1006F7273000000000000000000000000008F
:104CD10000A1000000000000000100576865726536
:104CE10020646F65732074686520736F756E64202E
:104CF100636F6D652066726F6D3F000000000000FC
:104D010000000000000000000000000000000000A2
:104D11000000000000A100000000000000010000F0
:104D21000000000000000000000000000000000082
:104D310000000000000000A10000000000000001D0
:104D41000053796C77657374657220532E000000EF
:104D5100000000000000000000A1000000000000B1
:104D6100000100023012121E131E494E44454354E5
:104D7100202D0000000000000000000000000000E5
:104D81000000A1000000000000000100616E20454C
:104D9100552D5375727665696C6C616E6365205033
:104DA100726F6A656374000000000000000000007B
:104DB10000000000000000000000000000000000F2
:104DC100000000000000A100000000000000010040
:104DD10000000000000000000000000000000000D2
:104DE1000000000000000000A10000000000000021
:104DF10001000000000000000000000000000000B1
:104E010000000000000000000000A1000000000000
:104E11000000010053796C766961204A6F686E6900
:104E2100676B00000000000000000000A10000000E
:104E3100000000000100025012141E151E44696793
:104E41006974616C65205370616C74756E67207054
:104E510065722047657365747A00000000000044A4
:104E6100617320496E7465726E657420756E64207D
:104E71006765736368616666656E650000000000C2
:104E810000736F7A69616C6520556E676C65696343
:104E9100686865697420696D20416C6C7461670094
:104EA100000000766F6E20457277657262736C6FD9
:104EB10073656E0000000000000000A1000000000A
:104EC10000000001004265746A65205363687761E0
:104ED100727A2C20446F7269732047657262696728
:104EE1002C0000000000004B61746872696E20455F
:104EF1006E676C657274000000000000000000A184
:104F0100000000000000000100015112152D162DB6
:104F1100546572726F72697374732057696E202DB4
:104F2100204578706C6F6974696E6700000000003D
:104F3100000054656C65636F6D6D756E69636174B6
:104F4100696F6E732044617461000000000000000D
:104F510000000000526574656E74696F6E3F000059
:104F6100000000000000000000000000A10000009F
:104F7100000000000100000000000000000000002F
:104F81000000000000000000000000000000A1007F
:104F910000000000000001004B61792048616D6153
:104FA100636865720000000000000000000000005E
:104FB100A100000000000000010053746566616EED
:104FC100204B61747A656E62656973736572000066
:104FD1000000A100000000000000010003401217C2
:104FE10000000046726F7A656E4361636865000078
:104FF1000000000000000000000000A1000000000F
:1050010000000001004D697469676174696E672071
:10501100636F6C642D626F6F742061747461636B74
:105021007320666F72000046756C6C2D4469736B5A
:105031002D456E6372797074696F6E20736F66743B
:1050410077617265000000000000000000000000B0
:10505100000000000000000000000000000000004F
:1050610000A100000000000000010000000000009D
:10507100000000000000000000000000000000002F
:10508100000000A10000000000000001004A756559
:105091007267656E20506162656C0000000000005F
:1050A1000000000000A1000000000000000100015C
:1050B10020220C2D0D2D4C696768746E696E672076
:1050C10054616C6B73202D20546167203300000004
:1050D10000000000000000007768657265206973B8
:1050E100206D7920636F6D6D756E6974793F000075
:1050F10000000000000000000000000000000000AF
:10510100000000000000000000000000000000009E
:105111000000A100000000000000010000000000EC
:10512100000000000000000000000000000000007E
:1051310000000000A10000000000000001000000CC
:10514100000000000000000000000000000000005E
:10515100000000000000A1000000000000000100AC
:105161005376656E204775636B6573000000000020
:105171000000000000000000A1000000000000008D
:105181000100010622100011005361666574792047
:105191006F6E20746865204F70656E2053656100E5
:1051A100000000000000000000000053616665205F
:1051B1006E617669676174696F6E207769746820C2
:1051C10074686520616964206F66000000616E206B
:1051D1006F70656E207365612063686172742E0063
:1051E1000000000000A1000000000000000100001C
:1051F10000000000000000000000000000000000AE
:1052010000000000000000A10000000000000001FB
:10521100000000000000000000000000000000008D
:10522100000000000000000000A1000000000000DC
:105231000001004265726E686172642046697363A1
:105241006865720000000000000000A1000000007D
:105251000000000100014022110F120F416E647223
:105261006F69642067656F6C6F636174696F6E202D
:105271007573696E6700000000000000000047536D
:105281004D206E6574776F726B00000000000000A6
:10529100000000000000A10000000000000001006B
:1052A100225768657265207761732057616C64725B
:1052B1006F69643F22000000000000000000000050
:1052C10000000000000000000000000000000000DD
:1052D10000000000000000000000A100000000002C
:1052E10000000100000000000000000000000000BC
:1052F100000000000000000000000000A10000000C
:1053010000000000010052656E617564204C696601
:10531100636869747A000000000000000000A100C9
:105321000000000000000100022022121E131E597D
:105331006F757220496E66726173747275637475EC
:1053410072652057696C6C000000000000000000CD
:10535100004B696C6C20596F750000000000000063
:10536100000000000000000000A10000000000009B
:10537100000100000000000000000000000000002B
:105381000000000000000000000000A1000000007B
:10539100000000010000000000000000000000000B
:1053A10000000000000000000000000000A100005B
:1053B10000000000000100000000000000000000EB
:1053C100000000000000000000000000000000A13B
:1053D10000000000000000010000000000000000CB
:1053E10000000000000000000000000000000000BC
:1053F10000A100000000000000010002502217007F
:1054010000002253706F696C6572732C20526576AF
:105411006572736520477265656E2C00000000009F
:1054210000000000444543454C2122206F72202298
:1054310057686174277320697420646F696E67000F
:105441000000000000006E6F773F220000000000A6
:105451000000000000000000000000000000A100AA
:10546100000000000000010054686F7567687473E4
:10547100206F6E20746865204175746F6D61746969
:105481006F6E20616E6400000000697473204875BE
:105491006D616E20496E7465726661636573206F1C
:1054A1006E00000000000000000000004169727001
:1054B1006C616E6573207C204265726E6420536955
:1054C100656B6572000000000000000000000340F1
:1054D100030B1E0C1E4F4D47205754462050444687
:1054E10000000000000000000000000000A100001A
:1054F100000000000001005768617420796F752079
:105501006469646E2774206B6E6F772061626F75BA
:105511007400000000000000004163726F6261745A
:10552100000000000000000000000000000000007A
:1055310000A10000000000000001000000000000C8
:10554100000000000000000000000000000000005A
:10555100000000A1000000000000000100000000A8
:10556100000000000000000000000000000000003A
:105571000000000000A10000000000000001004A3E
:10558100756C696120576F6C6600000000000000B7
:1055910000000000000000A1000000000000000168
:1055A100000120030C2D0D2D49636820736568658A
:1055B100206E696368742C2064617373207769724B
:1055C100206E69636874000000007A757374696DF8
:1055D1006D656E2077657264656E000000000000E5
:1055E1000000A100000000000000010044696520E6
:1055F100537072616368652064657320706F6C69B4
:105601007469736368656E000000000000005665F0
:10561100727261747320756E64207365696E657250
:1056210020526563687466657274692D000000001C
:1056310067756E67000000000000000000000000B8
:105641000000000000000000A100000000000000B8
:1056510001006D6168612F4D617274696E2048614E
:1056610061736500000000000000A100000000005F
:10567100000001000251030E000F005468726565BD
:10568100206A6F62732074686174206A6F75726E2C
:10569100616C697374730000000000000077696C2D
:1056A1006C20646F20696E203230353000000000BC
:1056B1000000000000A100000000000000010057F0
:1056C100687920667574757265206D6564696120FD
:1056D1006D6179206265206D6F72650000000000C8
:1056E10000706F77657266756C2028616E64206D3D
:1056F1006F726520737562766572736976652900CC
:105701000000007468616E206576657220626566CE
:105711006F72650000000000000000A100000000A1
:105721000000000100416E6E616C6565204E657779
:1057310069747A00000000000000000000A1000070
:105741000000000000010002500310001100486F2A
:10575100772074686520696E7465726E6574207354
:1057610065657320796F750000000000000000007E
:1057710064656D6F6E7374726174696E67207768AA
:1057810061742061637469766974696573000000EE
:1057910000006D6F73742049535073207365652049
:1057A100796F7520646F696E67206F6E207468650C
:1057B10000000000696E7465726E6574000000007F
:1057C100000000000000000000000000A100000037
:1057D10000000000010000000000000000000000C7
:1057E1000000000000000000000000000000A10017
:1057F10000000000000001004A65726F656E204DD7
:10580100617373617200000000000000000000007D
:10581100A1000000000000000100015003110F125F
:105821000F5365637572697479204E696768746D89
:10583100617265730000000000A10000000000001B
:105841000001000000000000000000000000000056
:105851000000000000000000000000A100000000A6
:105861000000000100000000000000000000000036
:1058710000000000000000000000000000A1000086
:105881000000000000010000000000000000000016
:10589100000000000000000000000000000000A166
:1058A10000000000000000010000000000000000F6
:1058B10000000000000000000000000000000000E7
:1058C10000A10000000000000001004672616E6B43
:1058D100205269656765722C20526F6E00000000CE
:1058E100000000A100000000000000010001010310
:1058F100121E131E41627363686C75737376657251
:10590100616E7374616C74756E6700000000000055
:105911000000000000000000000000000000000086
:105921000000000000000000000000000000A100D5
:105931000000000000000100000000000000000065
:105941000000000000000000000000000000000056
:10595100A1000000000000000100000000000000A4
:105961000000000000000000000000000000000036
:105971000000A10000000000000001000000000084
:105981000000000000000000000000000000000016
:1059910000000000A1000000000000000100000064
:1059A10000000000000000000000000000000000F6
:1059B100000000000000A100000000000000010044
:1059C1000100130B1E0C1E546F7220697320506569
:1059D1006163652C20536F6674776172652046722E
:1059E1006565646F6D00000000697320536C61761A
:1059F1006572792C2057696B6970656469612069EA
:105A0100732054727574680000000054686520703A
:105A11006F6C69746963616C207068696C6F736F16
:105A2100706879206F6620746865000000496E74A3
:105A310065726E6574000000000000000000000047
:105A41000000000000A100000000000000010000B3
:105A51000000000000000000000000000000000045
:105A610000000000000000A1000000000000000193
:105A7100004164616D0000000000000000000000B2
:105A8100000000000000000000A100000000000074
:105A91000001000250130D000D1E43796265726E04
:105AA100657469637320666F7220746865204D6147
:105AB100737365730000000000000000696D706C75
:105AC100616E74732C2073656E736F7279206578C3
:105AD10074656E73696F6E20616E64000000736996
:105AE1006C69636F6E202D20616C6C20666F722073
:105AF100796F752100000000000000000000000027
:105B01000000000000000000000000000000000094
:105B11000000000000000000A100000000000000E3
:105B21000100000000000000000000000000000073
:105B310000000000000000000000A10000000000C3
:105B41000000010000000000000000000000000053
:105B5100000000000000000000000000A1000000A3
:105B61000000000001000120130D2D0E0F4861639C
:105B71006B65727320616E6420436F6D707574651F
:105B81007220536369656E636500000000000000C8
:105B91000000000000000000000000000000000004
:105BA10000000000000000A1000000000000000152
:105BB10000000000000000000000000000000000E4
:105BC100000000000000000000A100000000000033
:105BD10000010000000000000000000000000000C3
:105BE1000000000000000000000000A10000000013
:105BF10000000001000000000000000000000000A3
:105C010000000000000000000000000000A10000F2
:105C1100000000000001005365726765792042723F
:105C2100617475730000000000000000000000A115
:105C31000000000000000001000120130E1E0F00F3
:105C410041206672616D65776F726B20666F72209D
:105C51006175746F6D61746564000000000000007F
:105C610000006172636869746563747572652D699A
:105C71006E646570656E64656E74000000000000FE
:105C81000000000067616467657420736561726379
:105C9100680000000000000000000000A1000000FA
:105CA1000000000001004343432065646974696F8B
:105CB1006E00000000000000000000000000A100D4
:105CC10000000000000001000000000000000000D2
:105CD10000000000000000000000000000000000C3
:105CE100A10000000000000001006B6F726E617581
:105CF10000000000000000000000000000000000A3
:105D01000000A100000000000000010003201310AA
:105D1100001100496E7465726E6174696F6E616C19
:105D2100204379626572204A75726973646963748C
:105D3100696F6E00004B696C6C20537769746368FE
:105D4100696E6720437962657273706163652C20A7
:105D5100437962657200004372696D696E616C20FE
:105D610050726F7365637574696F6E202600000051
:105D71000000000000000000004A75726973646948
:105D81006374696F6E20486F7070696E6700000000
:105D910000A1000000000000000100000000000060
:105DA10000000000000000000000000000000000F2
:105DB100000000A10000000000000001005469661D
:105DC10066616E795261640000000000000000000D
:105DD1000000000000A1000000000000000100011F
:105DE1002013110F12004E657773204B65792052F5
:105DF10065636F766572792041747461636B73209A
:105E01006F6E0000000000005243342F57455000D0
:105E11000000000000000000000000000000000081
:105E2100A1000000000000000100000000000000CF
:105E31000000000000000000000000000000000061
:105E41000000A100000000000000010000000000AF
:105E51000000000000000000000000000000000041
:105E610000000000A100000000000000010000008F
:105E71000000000000000000000000000000000021
:105E8100000000000000A10000000000000001006F
:105E91004D617274696E20567561676E6F75780019
:105EA1000000000000000000A10000000000000050
:105EB10001000220230C2D0D2D4C696768746E6959
:105EC1006E672054616C6B73202D204461792034FE
:105ED10000000000000000000000007768657265A6
:105EE100206973206D7920636F6D6D756E697479AA
:105EF1003F00000000000000000000000000000062
:105F01000000000000000000000000000000000090
:105F11000000000000A100000000000000010000DE
:105F21000000000000000000000000000000000070
:105F310000000000000000A10000000000000001BE
:105F41000000000000000000000000000000000050
:105F5100000000000000000000A10000000000009F
:105F61000001005376656E204775636B6573000011
:105F71000000000000000000000000A1000000007F
:105F81000000000100010623110F1200486176692B
:105F91006E672066756E20776974682052545000D0
:105FA10000000000A10000000000000001002257D5
:105FB100686F20697320737065616B696E673F3F1D
:105FC1003F2200000000000000000000000000006F
:105FD10000000000000000000000000000000000C0
:105FE1000000000000000000A1000000000000000F
:105FF100010000000000000000000000000000009F
:1060010000000000000000000000A10000000000EE
:10601100000001000000000000000000000000007E
:10602100000000000000000000000000A1000000CE
:106031000000000001006B6170656A6F6400000080
:106041000000000000000000000000000000A100AE
:1060510000000000000001000120FF00000000001E
:10606100000000000000000000000000000000002F
:1060710000000000000000A100000000000000017D
:10608100000000000000000000000000000000000F
:10609100000000000000000000A10000000000005E
:1060A10000010000000000000000000000000000EE
:1060B1000000000000000000000000A1000000003E
:1060C10000000001000000000000000000000000CE
:1060D10000000000000000000000000000A100001E
:1060E10000000000000100000000000000000000AE
:1060F100000000000000000000000000000000A1FE
:10610100000000000000000100000000000000008D
:10611100000000000000000000000000000000007E
:1061210000A1000000000000000100000000005E6E
:10613100000000005E0000000501050100030003EE
:1061410000147F147F14147F147F140E2E7F3A38AD
:10615100242A6B2A12172D775A7422152A54226881
:1061610059546B50304E4910700000070000000078
:1061710003000000005D220000003E410000225D9E
:10618100000000413E000028383E382808281E281B
:106191000808083E080808083E0808C0E00000009A
:1061A10080600000000008080800000808080000DE
:1061B10040000000006060000020001C0002403030
:1061C1000806017F7F5D7F7F3E4149413E00437F5D
:1061D100400000427F4000476371594F426151497D
:1061E10046636349697F22414949360812117E108D
:1061F100101C127F10474F4979794F494949307F27
:106201007F49797936494949300141791F0701614F
:10621100310D033F7F497F3F76494949764F4F49C9
:10622100737F464949493E0044000000006666000C
:106231000000C4E000000086660000081C36220051
:106241000008142200141414141414141414140047
:1062510022361C0800221408000303590F0F0601FF
:106261005109065D36556A6D3E4955551E7F09092E
:10627100097F7E0909097E7F4949417F7F49494953
:10628100367F634163633E414141227F4141225D4B
:106291007F4141413E7F6B4941083E494949417F28
:1062A1000B0109007E090901017F63496B733E41BE
:1062B10049493A7F0808087F7F0808087F00417F25
:1062C100410000417F4100706040607F30404040AC
:1062D1003F7F282254217F101C23407F40404040B3
:1062E1007F404040407E0F040F7E7F020C027F7F83
:1062F1000A14287F7F0608307F7F6341637F3E4118
:1063010041413E7F09090F0F7F090909067F63613A
:10631100335F3E4151617E7F19295F2F7F09192922
:10632100466F6F497B7B264949493201017F010153
:1063310001017F01017F6040607F3F4040403F0B92
:106341002C302C0B071860180727083408271F70FA
:1063510008701F412A142A416314081463030A7444
:106361000A030304780403436355432162514945F9
:1063710063007F414100007F41410002001C002079
:1063810001060830400041417F000041417F00008B
:10639100020102000402010204404040404040402A
:1063A10040404000000300000000010200747054EE
:1063B1003C7C20545454787F28446C7C7F44444472
:1063C100387C6C446C6C38444444287C6C44287F91
:1063D100384444447F7C7C541C4C38545454180435
:1063E100047F050000047E0505BC3CA4D8EC18A47C
:1063F100A4A47C7F08040C7C7F0404047800007D45
:10640100000000407D4000C0C0FD000040807D00D4
:10641100007F381044007F1028284400017E60402E
:1064210000013F40407C0C7C0C7C7C047804787C2F
:1064310008040C7C7C040404787C6C446C7C384437
:10644100444438FC18243C3CFC242424183C3C24BF
:1064510018FC18242424FC7C08040C047C04040487
:10646100081C5C547470485454542404047F6444DC
:1064710000043F44407C6040607C3C4040403C0024
:10648100281028000C1060100C2C5860582C1C602F
:1064910010601C28103810284428102844BC30A053
:1064A100D0FC1CA0A0A07C24546C54484464544CDF
:1064B100440008007F00000008364100007F000012
:0F64C10000007F0000007F000800413608000047
:016BB00005DF
:10012900A2AFE433FAC2AF751100751204E4F513F6
:1001390090F00075F000C002121F1CD0027B00EB8A
:1001490075F0D3A42403F582742535F0F583E4937F
:10015900FCBCFF02805A53040FBC010B90F001E074
:10016900700590F001EBF0EB75F0D3A42403F58250
:10017900742535F0F583E493FC53040FBC020B900E
:10018900F002E0700590F002EBF0EB75F0D3A424D7
:1001990003F582742535F0F583E493FC53040FBC11
:1001A900030B90F003E0700590F003EBF00B808FE8
:1001B90090F00BEBF090F003E0FCEBC39C90F007A0
:1001C900F090F002E0FBECC39B90F006F090F00198
:1001D900E0FCEBC39C90F005F090F004ECF090F09B
:1001E90008E4F090F009F090F00A7401F090F00C36
:1001F900E4F0EA24FF92AF22A2AFE433FAC2AFC01F
:1002090002121D89AB82D002BB2F02803EBB310393
:10021900020572BB3203020583BB3303020594BB9B
:1002290034030205A5BB3C03020438BB3E030202AA
:10023900FFBB5E028067BB70030205B6BB71030298
:1002490005D6BB90030205F702060A90F009E0FB08
:100259007C000BBB00010C90F00BE0FD8D117512B9
:10026900008B828C83C0021221E1AB82D00290F014
:1002790009EBF0E075F0D3A42403FB742535F0FCF9
:100289008B828C83A3E493FD90F00CF08B828C839A
:10029900E493FB90F008740F5BF002060A90F009F2
:1002A900E0FB7C0090F00BE0FD7E002BFBEE3CFCBC
:1002B900EB24FFF582EC34FFF5838D118E12C00219
:1002C9001221E1AB82D00290F009EBF0E075F0D396
:1002D900A42403FB742535F0FC8B828C83A3E4935F
:1002E900FD90F00CF08B828C83E493FB90F0087402
:1002F9000F5BF002060A90F009E0FB75F0D3A42425
:1003090003F582742535F0F583E493C4540FFC5347
:10031900040F7D008C828D83A3751103E4F512C04F
:1003290002C0031221E1AC82D003D0027D0090F01B
:1003390008E0FE2400F582E434F0F583E0FFF87963
:1003490000EBC398FBED99FD0BBB00010DEE2404F6
:10035900F582E434F0F583E0FE8E0875090085081E
:10036900118509128B828D83C002C004C007C000A9
:10037900C0011221E1AB82AD83D001D000D007D0FA
:1003890004D002EF2BFBEB75F0D3A42403F58274A0
:100399002535F0F583E493C4540FFDB50402803686
:1003A9008B057E00EDC398FDEE99FE8D828E83A3A9
:1003B900850811850912C002C004C007C000C00128
:1003C9001221E1AD82AE83D001D000D007D004D094
:1003D90002EF2DFB80B0EB75F0D3A42403FC742548
:1003E90035F0FD8C828D83A3E493FC90F00CE0FD45
:1003F900C3EC9D50328B047D00ECC398FCED99FD54
:100409008C828D83A3850811850912C002C007C09B
:1004190000C0011221E1AC82AD83D001D000D00728
:10042900D002EF2CFB80AF90F009EBF002060A90A6
:10043900F009E0FB75F0D3A42403F582742535F0A7
:10044900F583E493C4540FFC53040F7D008C828D13
:1004590083A3A3751103E4F512C002C0031221E1BD
:10046900AC82D003D0027D0090F008E0FE2400F5B4
:1004790082E434F0F583E0FFF87900EBC398FBEDF3
:1004890099FD0BBB00010DEE2404F582E434F0F56F
:1004990083E0FE8E087509008508118509128B8293
:1004A9008D83C002C004C007C000C0011221E1ABA6
:1004B90082AD83D001D000D007D004D002EF2BFB4E
:1004C900EB75F0D3A42403F582742535F0F583E4A4
:1004D90093C4540FFDB5040280368B057E00EDC32D
:1004E90098FDEE99FE8D828E83A3850811850912E8
:1004F900C002C004C007C000C0011221E1AD82AE34
:1005090083D001D000D007D004D002EF2DFB80B0FA
:10051900EB75F0D3A42403FC742535F0FD8C828D92
:1005290083A3E493FC90F00CE0FDC3EC9D50328B67
:10053900047D00ECC398FCED99FD8C828D83A38525
:100549000811850912C002C007C000C0011221E1CB
:10055900AC82AD83D001D000D007D002EF2CFB8054
:10056900AF90F009EBF002060A90F000E0FB90F082
:1005790009F090F008E4F002060A90F001E0FB901F
:10058900F009F090F0087401F0807690F002E0FB39
:1005990090F009F090F0087402F0806590F003E0A3
:1005A900FB90F009F090F0087403F0805490F00883
:1005B900E00490F0085403F090F008E02400F5827C
:1005C900E434F0F583E0FB90F009F0803490F00812
:1005D900E0240390F0085403F090F008E02400F5BB
:1005E90082E434F0F583E0FB90F009F0801390F099
:1005F90009E090F00A04F09001F4C002120DC1D094
:1006090002EA24FF92AF22A2AFE433FAC2AF90F01C
:100619000AE0FB90F009E0FCEBB50403020B6F75EF
:100629008200C0021211A07582001212BF7511005A
:100639007582001212A5D00290F009E075F0D3A4DA
:100649002403F582742535F0F583E493FB53030FF6
:100659007C000BBB00010CC002C003C00474A5C020
:10066900E0746AC0E0121F54E58124FCF58175111C
:100679000075826A1212A5D00290F009E075F0D3D4
:10068900A42403F582742535F0F583E493C4540F4B
:10069900FB53030F7C000BBB00010CC002C003C05D
:1006A9000474ACC0E0746AC0E0121F54E58124FCF4
:1006B900F5817582011212BF75110075821F121220
:1006C900A5D00290F009E075F0D3A42403FB7425AA
:1006D90035F0FC8B828C83A3E493FBBB0A00501397
:1006E900C00274B4C0E0746AC0E0121F54158115C9
:1006F90081D00290F009E075F0D3A42403FB74259E
:1007090035F0FC8B828C83A3E493FB7C00C002C090
:1007190003C00474B6C0E0746AC0E0121F54E581D6
:1007290024FCF581D00290F009E075F0D3A42403EC
:10073900FB742535F0FC8B828C83A3A3E493FBBB6C
:100749000A005013C00274B4C0E0746AC0E0121FFA
:100759005415811581D00290F009E075F0D3A424D5
:1007690003FB742535F0FC8B828C83A3A3E493FBF4
:100779007C00C002C003C00474BAC0E0746AC0E05F
:10078900121F54E58124FCF581D00290F009E0752F
:10079900F0D3A42403FB742535F0FC8B828C83A34E
:1007A900A3A3E493FBBB0A005013C00274B4C0E0D6
:1007B900746AC0E0121F5415811581D00290F009A6
:1007C900E075F0D3A42403FB742535F0FC8B828CEF
:1007D90083A3A3A3E493FB7C00C002C003C00474F9
:1007E900B6C0E0746AC0E0121F54E58124FCF581AB
:1007F900D00290F009E075F0D3A42403FB742535E9
:10080900F0FC8B828C83A3A3A3A3E493FBBB0A0014
:100819005013C00274B4C0E0746AC0E0121F5415CA
:10082900811581D00290F009E075F0D3A42403FB6F
:10083900742535F0FC8B828C83A3A3A3A3E493FBDB
:100849007C00C002C003C00474BEC0E0746AC0E08A
:10085900121F54E58124FCF5817582001212BFD064
:100869000290F009E075F0D3A42403FB742535F058
:10087900FC74052BFDE43CFE90F00FEDF0A3EEF0C7
:1008890074272BFDE43CFE90F011EDF0A3EEF0741B
:10089900492BFDE43CFE90F013EDF0A3EEF0746BF0
:1008A9002BFDE43CFE90F015EDF0A3EEF0748D2BDA
:1008B900FDE43CFE90F017EDF0A3EEF074AF2BFDD4
:1008C900E43CFE90F019EDF0A3EEF074D12BF58223
:1008D900E43CF583E493FB7C00BC06004003020979
:1008E9009FC3EC9B5061EC2C240FF582E434F0F5A6
:1008F90083E0FDA3E0FE7F808D828E838FF0C002AE
:10090900C003C0041221ADAD82AE83D004EECD2563
:10091900E0CD33CD25E0CD33FE3395E0FFF8748487
:10092900C39DFDE49EFEE49FFFE498A2E713EF1345
:10093900EE13ED13F582EC04F511C0041212A5D0E3
:1009490004D003D0028016EC04F511758200C002B0
:10095900C003C0041212A5D004D003D002EC2C2489
:100969000FF582E434F0F583E0FDA3E0FE7F80C05B
:1009790002C003C004C005C006C00774C1C0E0744A
:100989006AC0E0121F54E58124FBF581D004D0032D
:10099900D0020C0208E2751107758200C002C0037B
:1009A9001212A590F009E075F0D3A42403FC742574
:1009B90035F0FD74D22CF582E43DF583E493C3133D
:1009C900FC74075C75F009A42491FCE43424FD7ED1
:1009D90080C004C005C00674C1C0E0746AC0E012DA
:1009E9001F54E58124FBF5817511077582241212C4
:1009F900A574C4C0E0746AC0E0121F541581158142
:100A090090F009E075F0D3A42403FC742535F0FDBA
:100A190074D22CF582E43DF583E4935401C4035464
:100A2900F82481FCE43424FD90F00DECF0A3EDF002
:100A39007E808C828D838EF01221ADAC82E583CCD1
:100A490025E0CC33CC25E0CC33FD7424C39CF5825E
:100A5900E49DF583751102E4F512122217AC827434
:100A69002C2CF5827511071212A590F00DE0FDA34B
:100A7900E0FE7F80C005C006C00774C1C0E0746A8B
:100A8900C0E0121F54E58124FBF5817511077582B9
:100A9900541212A574C4C0E0746AC0E0121F541540
:100AA90081158190F009E075F0D3A42403FD742524
:100AB90035F0FE74D22DF582E43EF583E493C454F7
:100AC9000FFD74075D75F00AA424C7FDE43424FE04
:100AD90090F00DEDF0A3EEF07F808D828E838FF084
:100AE9001221ADE582FD2D25E0FD7427C39D245C0F
:100AF900F5827511071212A590F00DE0FCA3E0FD37
:100B09007E80C004C005C00674C1C0E0746AC0E03C
:100B1900121F54E58124FBF581752A02758208129A
:100B29001272D003EBC40354F8FB2408F582752A2A
:100B390001C003121272D00374092BF582752A02BF
:100B4900C003121272D003740A2BF582752A01129E
:100B59001272752A02758239121272D00290F00946
:100B6900E0FB90F00AF0EA24FF92AF2275820112AD
:100B790012BF9064D1E493FA7B01C3EB9A4003025C
:100B89000C60BB0A22751101758205C002C00312EF
:100B990012A574C6C0E0746AC0E0121F541581150D
:100BA90081D003D002806DBB1422751101758205B5
:100BB900C002C0031212A574C9C0E0746AC0E01271
:100BC9001F5415811581D003D0028048BB1E2275A0
:100BD9001103758213C002C0031212A574D1C0E0BB
:100BE900746AC0E0121F5415811581D003D00280A8
:100BF90023BB282075110575820BC002C003121290
:100C0900A574D4C0E0746AC0E0121F54158115811F
:100C1900D003D0027441C39BFC7544D07545648CE4
:100C2900437546008B82C002C003C0041216B590FA
:100C3900004B120DC1D004D0039064D1E493F53672
:100C49008C347535017537008B82C0031214F1D0CD
:100C590003D0020B020B837B007A009064D1E493EA
:100C6900FC14FD7441C39CFCC002C003C004C00550
:100C7900121D89AE82D005D004D003D002BE200156
:100C890022BB0002800ABB01028008BB020A80075E
:100C99000D80050D0C80010C7544D07545648C439D
:100CA9007546008D82C002C003C004C0051216B586
:100CB9007511077582671212A574DAC0E0746AC0EB
:100CC900E0121F5415811581900096120DC1D005AF
:100CD900D0049064D1E493F5368C347535017537B9
:100CE900008D82C004C0051214F1D005D0049064AF
:100CF900D0E4932DFE9064D1E493F5368C347535A8
:100D0900017537008E82C004C0051214F1D005D0D8
:100D1900049064D0E493F5358C3475360175370049
:100D29008D821214F1D003D002EB045403FB7066D8
:100D3900EA045401FA758200C002C0031212BFD03E
:100D490003D002EA702275110775820BC002C00335
:100D59001212A574DFC0E0746AC0E0121F54158135
:100D69001581D003D002802075110775820BC0024E
:100D7900C0031212A574E7C0E0746AC0E0121F54E0
:100D890015811581D003D002758201C002C00312FA
:100D990012BFD003D002C002C003121B35D003D04A
:100DA90002020C64120B75121B3512020112061095
:080DB900900019120DC180EF3A
:1064D0004732000000000000000000000000000043
:1064E00000000000000000000000000000000000AC
:1064F00000000000000000008080C0E0E0F0F0F844
:10650000F8FCFCFEFEFEFEFEFEFFFFFFFFFFFFFFAE
:10651000FEFEFEFEFCFC5C0201000000000000002C
:10652000000000000000000000000000000000006B
:1065300000000000000000000000000000000080DB
:1065400000C02000B08028F05C381E1A0E0C0C0C25
:10655000050929C549210154840CE600F0580201BF
:10656000000000000000000000000000000000002B
:10657000000000000000000000000000000000001B
:10658000000000000000008080C0E06030D00820E3
:10659000040004000202020206060A06C6E6E2F24F
:1065A000F2F8FCFC04000000000000000000000005
:1065B00000000000000000000000000000000000DB
:1065C000000000000080C0E0F0F8FCFEFFFFFFFFCD
:1065D000FFFFFFFFFFFFFFFFFFFFFFFFFFFFFFFFCB
:1065E000FFFFFFFFFFFFFFFFFF7F0F000000000026
:1065F000000000000000000000000000000000009B
:106600000000000000000000000000008040E030BA
:10661000D02C46A9401AE0D4AEDB8822474E8C0C21
:106620008C088C008C860E8343BBE6DFF8F7FCFFFA
:106630007F0B0000000000000000000000000000D0
:10664000000000000000000000000000000000004A
:106650000000000080C0E0F8F8FCFEFFFF7F3F1163
:10666000043F7DF8F0F0F0F0F0F0F8F0F8F07CBCCA
:10667000C4F9FFFFFFFFFF3F07000000000000001C
:10668000000000000000000000000000000000000A
:106690008080C0C0E0E0F0F8FCFFFFFFFFFFFFFFDD
:1066A000FFFFFFFFFFFFFFFFFFFFFFFFFFFFFFFFFA
:1066B000FFFFFFFFFFFFFFFFFF7F3F1F07030000FC
:1066C00000000000000000000000000000000000CA
:1066D00000000000000000800080006080F058385A
:1066E00025FA85BA2699CE41EAF5D6FBFBD5FFED12
:1066F000FAFFEDFEFEFEFEFAFEFEFFFFFEFFFFFFCD
:106700007F1F1F03020000000000000000000000C7
:1067100000000000000000000000000000000080F9
:10672000C0C0C0E0E0F0FCFE7F7F7FFFFFFFFFF70F
:10673000FBF9FCFCFEFEFFFFFEFEFDFDFDFDFDFD89
:10674000FDFCFEFFFFFFFF7F3F0F07010000000081
:106750000000000000000000000080C0C0E0F0F871
:10676000FCFCFEFFFFFFFFFFFFFFFFFFFFFFFFFF40
:10677000FFFFFFFFFFFFFFFFFFFFFFFFFFFFFFFF29
:10678000FFFFFFFFFF7F3F3F1F0F070701010000D3
:1067900000000000000000000000000000000000F9
:1067A0000080408040309824900499C284C3E0E384
:1067B000FCF5F6FAFBFFFDFCFEFEFFFFFFFFFFFF0F
:1067C000FFFFFFFFFFFFFFFFFFFFFFFF3F3F3F0F09
:1067D0000F0707010100000000000000000000009A
:1067E00000000000000000000080C0E0E0F0F8FCC5
:1067F000FEFEFFFFFFFFFFF3FBF9FDFCFCFEFFFFCA
:10680000FFFFFFFFFFFFFFFFFFFFFFFFFFFFFFFF98
:10681000FFFF7F7F3F1F1F0F0703010000000000E5
:106820000000000000000000000080C0FCFEFFFF30
:10683000FFFFFFFF7F7F3F3F1F1F0F0F0F07070F58
:106840001F3F7FFFFFFFFFFFFFFFFFFFFFFFFFFF78
:10685000FF1F070703030101000000000000000004
:106860000000000000000000000000000000000028
:10687000008040BC92E7E1F8F0FEF83E7E1F3E0F3C
:106880001F0F070F07070F0F1F3F7F7FFFFFFFFF40
:10689000FFFFFFFFFFFFFFBF170707030301010013
:1068A00000000000000000000000000000000000E8
:1068B00000000000000000000080C0ECFEFFFFFFB1
:1068C000FF7F7F3F3F1F1F0F0F0F070707071F3F68
:1068D0007FFFFFFFFFFFFFFFFFFFFFFFFFFF7F0FB8
:1068E0000703030101000000000000000000000099
:1068F0000000000000000000000000003C3E3F3FA0
:106900001F0F0F070303010000000000000000003C
:1069100000000000000080E0FFFFFFFFFFFFFFFF1F
:10692000FF7F1F0F030000000000000000000000B8
:106930000000000000000000000000000000000057
:10694000000000183E1F3F1F0F0F07030300000049
:106950000000000000000000000000000080A0AF68
:10696000FFFFFFFFFFFFFFFF7F0F0F020000000090
:106970000000000000000000000000000000000017
:10698000000000000000000000003C3C3E1F0F0F14
:1069900007030301010000000000000000000000E8
:1069A0000000000000C0F0FFFFFFFFFFFFFF7F3F80
:1069B0001F070100000000000000000000000000B0
:1069C00000000000000000000000000000000000C7
:1069D00000000000000000000000000000000000B7
:1069E0000000000000000000000201020203030397
:1069F000030303010100000000000000000000008C
:106A00000000000000000000000000000000000086
:106A10000000000000000000000000000000000076
:106A20000000000000000000000000000000000066
:106A30000002030303030303030303000000000039
:106A40000000000000000000000000000000000046
:106A50000000000000000000000000000000000036
:106A60000000000000000000000000000000000026
:106A700000000000000000020303030303030303FC
:106A800003030100000000000000000000000000FF
:106A900000000000000000000000000000000000F6
:106AA0000000000000444159202575005341414C2D
:106AB00020257500300025753A0025752D002575B7
:106AC000002573007C00574500574520434F4D4536
:106AD00000494E0050454143450032376333003C86
:0F6AE00053504143453E003C50524553533E00F6
:100DC100AA82AB838A048B051ABAFF011BEC4D6022
:100DD100187C007D007EB07F040CBC00010D1EBE9E
:100DE100FF011FEE4F70F280DB2285D50A85D40BFF
:100DF10090F01B7407F090F01C7407F090F01D74D4
:100E010007F090F01E7407F090F01F7407F090F057
:100E1100207407F090F0217404F090F022E4F09037
:100E2100F023F090F02474DFF090F02574BEF09080
:100E3100F026E4F090F0277407F090F0287420F089
:100E410090F0297442F0A2AFE433FAC2AFC00212AB
:100E51001AE7D00253BEFBE5BE30E5FBABC674F822
:100E61005BF5F0744445F0F5C6E5C630E6FB43BEDC
:100E71000453A8C053B8C0539AC0758A0053E8F709
:100E8100438D40439A10438C02D2AF85D50A85D455
:100E91000B43D6817B1B7CF08C0390F022EBF07B23
:100EA1001B7CF090F023EBF07B227CF08CD57B2235
:100EB1007CF08BD475D60143C70243BE0700000006
:100EC100E5BE54037003020ED275D70100438701BA
:100ED1000053C7FD850AD5850BD475D601E5BE3013
:100EE100E5FBC0021200F1D002EA24FF92AF22C05A
:100EF100E0C002538ABF53E8F7E5BEF452BED00208
:030F0100D0E0320B
:0900DC007525007526007527004A
:100F04008582C1E58630E1FB5386FD225380FB22B6
:100F140043800422AA82743F5AF5F0744045F0F5E8
:100F240082020F04AA82740F5AF5F074B045F0F5EA
:100F340082020F04AA82AB838B04740F5CF5F074F5
:100F44001045F0F582C002C003120F04D003D00292
:100F540053020F8A82020F045390FD900001120D78
:100F6400C1439002900001120DC1120F107582A2AC
:100F7400120F047582A1120F047582C0120F04753A
:100F84008224120F04758281120F04758222120FBB
:100F94000475822F120F047582AF120F047582A498
:100FA400120F047582A6020F04C020C0E0C0F0C076
:100FB40082C083C002C003C004C005C006C007C00D
:100FC40000C001C0D075D000A2AFE433FAC2AF5361
:100FD400C0FEE5D120E1030210D353D1FDC00212BB
:100FE4000F10D002AB257C000BBB00010CEC339539
:100FF400E0FDFE751109E4F512F513F5148B828CEE
:10100400838DF0EEC00212215EAB82D0028B25905C
:10101400F972E0FC7B0090F973E0FD7E004203EE80
:101024004204E5257041AD26FE8D828E83A37511A1
:1010340003E4F512C0021221E1AD828D267582000F
:10104400120F18D0027B2A7CF0E52660338B058CC6
:1010540006E4FFF874842DFDE43EFEE43FFFE4382B
:10106400F88D038E0480198B058C06E4FFF8740850
:101074002DFD74013EFEE43FFFE438F88D038E0439
:101084008C0590F972EDF090F973EBF07582A4C0C1
:1010940002120F04852582120F28852582120F283B
:1010A400900000120F38900000120F38120F14D065
:1010B4000243D6027B007C007D6E7E000BBB0001E8
:1010C4000C1DBDFF011EED4E70F243D70280037567
:1010D400D100EA24FF92AFD0D0D001D000D007D005
:1010E40006D005D004D003D002D083D082D0F0D073
:1010F400E0D02032A2AFE433FAC2AF90F98AE0F52F
:101104002175225375232275248075860075C23B90
:1011140075C5305380EFC002120F5C751100751253
:101124004875130990F02A75F000121F1C7B2A7C65
:10113400F08C0390F972EBF07B2A7CF090F973EB5E
:10114400F090F97474DFF090F97574C1F090F97649
:10115400E4F090F9777484F090F978740FF090F9D2
:10116400797448F043B8017B727CF98CD37B727C30
:10117400F98BD253D1FD120F10758200120F18751E
:101184008200120F28900000120F38120F14D002A0
:1011940043D60243D702EA24FF92AF22AA82A2AF27
:1011A400E433FBC2AF8A1175124875130990F02A13
:1011B40075F000C003121F1CD003EB24FF92AF2272
:1011C400AA82A2AFE433FBC2AFE528C423541FFCB8
:1011D4008C11751200751300751400900108E4F564
:1011E400F0C002C00312207AAC82AD83AEF0FFD00F
:1011F40003D002EC242AFCED34F0FDEA2CFCE43D9F
:10120400FA74075528F5F005F07401800225E0D53D
:10121400F0FBFDE52930E0118C828A83E0FEED428B
:10122400068C828A83EEF080118C828A83E0FEED44
:10123400F4FF52068C828A83EEF074842CFCE43A28
:10124400FAE52930E1118C828A83E0FEED42068CB6
:10125400828A83EEF080118C828A83E0FEEDF4FDB5
:1012640052068C828A83EEF0EB24FF92AF22AA828C
:101274007B008B047D007E007F00C3EC9484ED949E
:1012840000EE9400EF6480948050158A28852A2902
:101294008B82C002C0031211C4D003D0020B80D2CF
