:040000000200833245
:01000B0032C2
:0100130032BA
:01001B0032B2
:0100230032AA
:01002B0032A2
:01003300329A
:01003B003292
:0300430002017641
:01004B003282
:01005300327A
:03005B0002044557
:01006300326A
:01006B003262
:01007300325A
:03007B000206EC8E
:0300E80002007E95
:05007E001200EB80FE02
:0900EB001208CB121392021F60EF
:0C00DC00752100752200752300752900B5
:1000F4008582C1E58630E1FB5386FD225380FB22D5
:1001040043800422AA82743F5AF5F0744045F0F506
:10011400820200F4AA82740F5AF5F074B045F0F527
:10012400820200F4AA82AB838B04740F5CF5F07432
:100134001045F0F582C002C0031200F4D003D002CF
:1001440053020F8A820200F4AA82AB838A048B05CD
:100154001ABAFF011BEC4D60187C007D007EB07F55
:10016400040CBC00010D1EBEFF011FEE4F70F28097
:10017400DB22C020C0E0C0F0C082C083C002C00344
:10018400C004C005C006C007C000C001C0D075D0FF
:1001940000A2AFE433F526C2AF53C0FEE5D130E090
:1001A4006753D1FE90FADAE0FBFD7C0090FADBE0C5
:1001B400FEFF7A004CF524EA4DF52590FAD8E0FAD2
:1001C400A3E0FCFD620390FADAEBF07B00EE62023E
:1001D400EB620490FADBEAF043D60190FB26E0FAE6
:1001E400A3E0FB4A70030203007409C0E07402C078
:1001F400E090FB26E0C0E0A3E0C0E08524828525F2
:10020400838526F022020300E5D120E1030202FDEA
:1002140053D1FD120100AA217B000ABA00010BEBA5
:100224003395E0FCFD750909E4F50AF50BF50C8A34
:10023400828B838CF0ED122236AA828A2190FAE214
:10024400E0FB7A0090FAE3E0FC7D004AF524ED4BF4
:10025400F525E521703DAA22FB8A828B83A37509CB
:1002640003E4F50A1222B9AA828A227582001201D5
:10027400087A007BF08A248B25E522602FE4FCFDBC
:1002840074842AFAE43BFBE43CFCE43DFD8A248BC1
:10029400258019AA24AB25E4FCFD74082AFA74010C
:1002A4003BFBE43CFCE43DFD8A248B25AA2590FA23
:1002B400E2EAF0AA2490FAE3EAF07582A41200F4C8
:1002C40085218212011885218212011890000012E2
:1002D400012890000012012812010443D6027A007A
:1002E4007B007C6E7D000ABA00010B1CBCFF011D63
:1002F400EC4D70F243D702800375D100E52624FF4C
:1003040092AFD0D0D001D000D007D006D005D00411
:10031400D003D002D083D082D0F0D0E0D020328578
:10032400D52785D42890FAEA7407F090FAEB74077D
:10033400F090FAEC7407F090FAED7407F090FAEE8E
:100344007407F090FAEF7407F090FAF07404F090E8
:10035400FAF1E4F090FAF2F090FAF374DFF090FA24
:10036400F474BEF090FAF5E4F090FAF67407F090A5
:10037400FAF77420F090FAF87442F0A2AFE433FA7A
:10038400C2AF758200C002120A4B9001F412014CF4
:100394001201007582AC1200F47582AE1200F4757D
:1003A40082A51200F4120104D00253BEFBE5BE3054
:1003B400E5FBABC674F85BF5F0744445F0F5C6E5AF
:1003C400C630E6FB43BE0453B8F6758A0053E8F71B
:1003D400438D40439A10438C02D2AF85D52785D4F0
:1003E4002843D6817BEA7CFA8C0390FAF1EBF07B0C
:1003F400EA7CFA90FAF2EBF07BF17CFA8CD57BF193
:100404007CFA8BD475D60143C70243BE07000000B3
:10041400E5BE5403700302042575D7010043870128
:100424000053C7FD8527D58528D475D601E5BE3090
:10043400E5FBC2AFC0021208CBD002EA24FF92AFA0
:1004440022C0E0C082C083C002C003C004C005C093
:1004540006C007C000C001C0D075D00053C0F7E586
:10046400D820E0030206D053D8FE43D701AA2905B9
:1004740029EA60030206D3A2AFE433FAC2AF53FE03
:1004840003438002E590F4FB5303FC90FB01E0FC82
:1004940090FAF9E0FDEB6D420490FB01ECF090FA68
:1004A400F9EBF0EB0303543FF4FC43FD025380FDEE
:1004B400AD907E00EDF4FDEEF45305FCE4A2E713E9
:1004C400CD13CDA2E713CD13CDFEE580F4FF530782
:1004D400C07800EF4205E842068C077800EF520529
:1004E400E852068D0390FB02E0FD90FAFAE0FEEB81
:1004F4006E420590FB02EDF090FAFAEBF053FDFD2D
:1005040043FE045390FBAD907E00EDF4FDEEF453F6
:1005140005F8E4A2E713CD13CDA2E713CD13CDFE66
:10052400E580F4FF5307C07800EF4205E842067FF8
:1005340000EC5205EF52068D0390FB03E0FD90FAA8
:10054400FBE0FEEB6E420590FB03EDF090FAFBEB53
:10055400F053FEFB43FE085390F7AD907E00EDF49C
:10056400FDEEF45305F0E4A2E713CD13CDA2E71397
:10057400CD13CDFEE580F4F85300C07900E84205C0
:10058400E94206EC5205EF52068D0390FB04E0FDB0
:1005940090FAFCE0FEEB6E420590FB04EDF090FA5D
:1005A400FCEBF053FEF743FE105390EFAD907E004A
:1005B400EDF4FDEEF45305E0E4A2E713CD13CDA270
:1005C400E713CD13CDFEE580F4F85300C07900E8BD
:1005D4004205E94206EC5205EF52068D0390FB05F5
:1005E400E0FD90FAFDE0FEEB6E420590FB05EDF0B8
:1005F40090FAFDEBF053FEEF43FE205390DFAD90F5
:100604007E00EDF4FDEEF45305C0E4A2E713CD1330
:10061400CDA2E713CD13CDFEE580F4F85300C079E5
:1006240000E84205E94206EC5205EF52068D0390BC
:10063400FB06E0FD90FAFEE0FEEB6E420590FB0641
:10064400EDF090FAFEEBF053FEDF43FE405390BF13
:10065400AD907E00EDF4FDEEF4530580E4A2E713C3
:10066400CD13CDA2E713CD13CDFEE580F4F85300EE
:10067400C07900E84205E94206ED5204EE52078CC7
:100684000390FB07E0FC90FAFFE0FDEB6D42049061
:10069400FB07ECF090FAFFEBF053FEBF43FE8053F0
:1006A400907FE580F4FC74C05CFB90FB08E0FC9058
:1006B400FB00E0FDEB6D420490FB08ECF090FB00C6
:1006C400EBF053FE7FEA24FF92AF800375D800D08D
:1006D400D0D001D000D007D006D005D004D003D0AC
:1006E40002D083D082D0E032C0E0C002538ABF532C
:1006F400E8F7E5BEF452BED002D0E03290FB06E04B
:10070400FA90FAFEE0F45A5420F52A90FB05E0FB37
:1007140090FAFDE0F45B5408F52BA2AFE433FCC27D
:10072400AF7D007E00BE080040030207FBEE24F903
:10073400F582E434FAF583E0FFEE2401F582E43433
:10074400FBF583E0F85207EF70030207F5C3E49F5B
:10075400F85207BE0506BF20030207F5BE0406BF14
:1007640008030207F5ED2401F8E434FBF9ED240154
:10077400F582E434FBF583E0FBEFF45203888289CD
:1007840083EBF090FB06E0FA5302DF90FB06EAF0FD
:1007940090FB05E0FA5302F790FB05EAF0EDC40381
:1007A40054F8FAEF75F01DA4FFE5F0FBC403CFC4C1
:1007B4000354076FCF5407CF6FCF30E20244F8538E
:1007C40007077B00EF2AFAE52A600674402AFA80BC
:1007D40008E52B600474802AFAEC24FF92AFEA90B7
:1007E400232B93FABA9007C002120323D0028A8201
:1007F400220E8E05020729EC24FF92AF7582002297
:10080400AA82758200C002120108D0027B008B0408
:100814007D007E007F00C3EC9409ED9400EE94000B
:10082400EF648094805042C002C003120100D003E0
:100834008B82C003120118900000120128120104D7
:10084400D003D0027C847D008A82C002C003C0042D
:10085400C0051200F4D005D004D003D0021CBCFFA4
:10086400011DEC4D70E20B80A5225390FD90000118
:1008740012014C43900290000112014C12010075C8
:1008840082A21200F47582A11200F47582C01200D3
:10089400F47582241200F47582811200F4758222A8
:1008A4001200F475822F1200F47582AF1200F475F1
:1008B40082A41200F47582A60200F4AA83E5829051
:1008C400FB26F0A3EAF022C2AF90FB2AE0F52C75D8
:1008D4002DEB752E23752F8053BEFBE5BE30E6FB52
:1008E40053C680E5C620E6FB43BE0443B809750938
:1008F40000750A08E4F50B90FAF975F000121FF47C
:10090400750900750A08E4F50B90FB0175F00012F7
:100914001FF475F32875F40143FD1443FE0343FFEC
:100924001853FD3D75EB1075EC2475ED8075CB9A6D
:1009340075CDCB750900750A90750B0190F9487552
:10094400F000121FF47A487BF97C107DFA90FAD8F3
:10095400EC6AF0ED6BA3F07A487BF98B0290FADA3B
:10096400EAF07A487BF990FADBEAF090FADC74DF7B
:10097400F090FADD74EDF090FADEE4F090FADF74B2
:10098400C8F090FAE0E4F090FAE17449F07ADA7B86
:10099400FA8BD57ADA7BFA8AD453D1FE43D6017521
:1009A400860075C23B75C5305380EF12086E7582A0
:1009B40000120804750900750A48750B0990F000C7
:1009C40075F000121FF47A007BF08B0290FAE2EAD1
:1009D400F07A007BF090FAE3EAF090FAE474DFF046
:1009E40090FAE574C1F090FAE6E4F090FAE77484C2
:1009F400F090FAE8740FF090FAE97448F07AE27B28
:100A0400FA8BD37AE27BFA8AD253D1FD12010075B4
:100A14008200120108758200120118900000120170
:100A24002812010443D60243D702D2AF22E582FA48
:100A3400600453A0F72243A00822E582FA6004531D
:100A4400A0EF2243A01022AA82A2AFE433FBC2AFDC
:100A54008A09750A48750B0990F00075F000C00307
:100A6400121FF4D003EB24FF92AF22AA82A2AFE4B8
:100A740033FBC2AFE530C423541FFC8C09750A0054
:100A8400750B00750C00900108E4F5F0C002C0037A
:100A940012219FAC82AD83AEF0FFD003D002EC24D0
:100AA40000FCED34F0FDEA2CFCE43DFA740755300B
:100AB400F5F005F07401800225E0D5F0FBFDE53189
:100AC40030E0118C828A83E0FEED42068C828A83B8
:100AD400EEF080118C828A83E0FEEDF4FF52068CE6
:100AE400828A83EEF074842CFCE43AFAE53130E136
:100AF400118C828A83E0FEED42068C828A83EEF0BA
:100B040080118C828A83E0FEEDF4FD52068C828A89
:100B140083EEF0EB24FF92AF22AA827B008B047D4C
:100B2400007E007F00C3EC9484ED9400EE9400EF0B
:100B34006480948050158A308532318B82C002C023
:100B440003120A6FD003D0020B80D222AA82A2AF72
:100B5400E433FBC2AF90FB28E509F090FB29EAF0EF
:100B6400EB24FF92AF22AA82A2AFE433FBC2AFBA56
:100B740000028005BA0124801190FB2AE0F52C754F
:100B84002DEB752E23752F80802090FB2BE0F52C08
:100B9400752D99752E63752F80800F90FB2AE0F5D3
:100BA4002C752DEB752E23752F80EB24FF92AF222D
:100BB400858233A2AFE433F537C2AF90FB28E0FC63
:100BC4008C09750A00750B00750C00900108E4F59A
:100BD400F0C00412219FAD82AE83F8D004ED24004E
:100BE400FDEE34F0FE90FB29E0FF2DF534E43EF5F4
:100BF400357420B5330BE52C0490FB292FF0020D3E
:100C040095740DB5330890FB29E4F0020D95740A30
:100C1400B5330E90FB29E4F090FB28EC04F0020DB0
:100C240095C374A08533F063F08095F04003020D02
:100C340095C3E533648094FF4003020D95C00475A9
:100C44003600852C3A753B00A93AE53BF83395E02C
:100C5400FBFA7484C399F9E498F8E49BFBE49AFAE8
:100C64007D007E007C00C3EF99ED98EE9BEC6480E0
:100C74008AF063F08095F0D004400E90FB29E4F0F4
:100C840090FB28EC04F075360190FB28E0FA24F878
:100C9400500890FB28E4F0753601E536603290FB8D
:100CA40028E0FA8A09750A00750B00750C0090019A
:100CB40008E4F5F012219FAA82AB83FDEA2400FA2E
:100CC400EB34F0FB90FB29E0FC2AF534E43BF535EA
:100CD400E533FA3395E0FBEA24DFF582EB34FFF5E4
:100CE40083E52C75F002A4F50985F00A12213585F7
:100CF40082388583397C00C3EC952C5030EC253444
:100D0400FDE43535FE8C077800EF2538FFE83539EA
:100D1400F8EF252DFFE8352EF8A92F8F82888389D7
:100D2400F012229DFF8D828E83F00C80CA7C00C35A
:100D3400EC952C504D8C057E008D07EEF83395E034
:100D4400F9FA74842FFFE438F8E439F9E43AEF252A
:100D540034FFE83535F8ED2538FDEE3539FEE53A52
:100D64002DFDE53B3EFEED252DFDEE352EFEAA2F95
:100D74008D828E838AF012229DFD8F828883F00CEF
:100D840080ADE52C04FA90FB29E0FB90FB29EA2BCB
:100D9400F0E53724FF92AF22858240A2AFE433F519
:100DA40046C2AF7484C39540FCC3953D50028C3D4C
:100DB400AD3D7E007408C39DF54474019EF545AFB6
:100DC4003C7441C39FFCC3953E50028C3E74075F44
:100DD400FC8CF005F07401800225E0D5F0FB14FFD3
:100DE4007408C39CF8C3E53E98501AE53E2CF5F010
:100DF40005F07401800225E0D5F0FB14F4F94207F4
:100E0400753E008006E53EC398F53EE53EC4235496
:100E14001FF543E53CC423541FF98909750A00757D
:100E24000B00750C00900108E4F5F0C00712219F37
:100E3400A982AB83D007E92400F9EB34F0FBE54049
:100E440029FAE43BFB74842AF541E43BF542EFF4D0
:100E5400F8E53F52008A478B4885414985424A79E3
:100E640000C3E9953D5036854782854883E0FDEF10
:100E74005D48854782854883F0A3858247858348FA
:100E8400854982854A83E0FDEF5D48FD8549828579
:100E94004A83F0A385824985834A0980C4E54425B1
:100EA40047FAE5453548FBE5442549F541E545352F
:100EB4004AF5427D00C3ED954350488A068B008570
:100EC400414985424A7900C3E9953D501F8E828885
:100ED40083E53FF0A3AE82A883854982854A83E5F2
:100EE4003FF0A385824985834A0980DBE5442EFAD5
:100EF400E54538FBE5442549F541E545354AF542E4
:100F04000D80B27407553EFC604B8CF005F0740103
:100F1400800225E0D5F0FB14FFF4FCEF553FFDAE55
:100F240041AF427800C3E8953D502A8A828B83E022
:100F3400F9EC594D8A828B83F0A3AA82AB838E820B
:100F44008F83E0F9EC594DF98E828F83F0A3AE8242
:100F5400AF830880D0E54624FF92AF2285824FAB51
:100F64004CAC4D8B828C83E493FDFE7F008E00EFAE
:100F7400C825E0C833F9EE28F55DEF39F55EA2AF78
:100F8400E433F561C2AF8D567484C3954FF8C395AD
:100F940056500288568556657566007408C3956573
:100FA400F55F74019566F560E55DC39565F55DE5EE
:100FB4005E9566F55E8B828C83A3E493F55774414A
:100FC400C3954BF8C39557500288577407554BF592
:100FD4005B7408C3955BF56785675CC3E5579567E4
:100FE40050057557008007E557C39567F557E557D2
:100FF400C423541FF558E55754076002055874027A
:101004002BF550E43CF551ED2550F552E43551F5FE
:1010140053ED2552F554E43553F555E54BC42354AB
:101024001FFD8D09750A00750B00750C00900108F1
:10103400E4F5F012219FAD82AA83AEF0ED2400FD09
:10104400EA34F0FAE54F2DFBE43AFA74842BFCE41D
:101054003AFD855BF005F07401800225E0D5F0FBD4
:10106400FE14F56785506885516985526A85536B0E
:1010740085546C85556D8B6E8A6F8C708D71755A25
:1010840000C3E55A95564003021133E54E602385AB
:101094006882856983E493FFA38582688583698573
:1010A4005BF005F0EF800225E0D5F0FBFFF4F5627C
:1010B4008003856762856E82856F83E0FFE56252F7
:1010C40007856A82856B83E493F9A385826A8583A5
:1010D4006B855BF005F0E9800225E0D5F0FB420763
:1010E400856E82856F83EFF0A385826E85836F851D
:1010F4007082857183E0FFE5625207856C82856D9D
:1011040083E493F9A385826C85836D855BF005F098
:10111400E9800225E0D5F0FBF942078570828571EC
:1011240083EFF0A3858270858371055A021085E5EB
:1011340068C39565F550E5699566F551E56AC3950B
:1011440065F552E56B9566F553E56CC39565F55405
:10115400E56D9566F555E55F256EFBE560356FFA3F
:10116400E55F2570FCE5603571FD1EEEF4FF8E67CA
:10117400755900C3E5599558400302138B85507087
:1011840085517185526E85536F85546C85556D8B71
:101194006A8A6B8C688D69755A00C3E55A95564006
:1011A4000302124BE54E6023857082857183E493BC
:1011B400F9A3858270858371855CF005F0E980026E
:1011C400C313D5F0FBF9F4F56380028F63856A825B
:1011D400856B83E0F9E5635201856E82856F83E454
:1011E40093F8A385826E85836F855CF005F0E880B3
:1011F40002C313D5F0FB4201856A82856B83E9F053
:10120400A385826A85836B856882856983E0F8E5B6
:10121400635200856C82856D83E493F9A385826CA7
:1012240085836D855CF005F0E98002C313D5F0FB7E
:10123400F94200856882856983E8F0A38582688520
:101244008369055A02119EE55D2570F550E55E350A
:1012540071F551E55D256EF552E55E356FF553E5A3
:101264005D256CF554E55E356DF555E56AC3956508
:10127400FBE56B9566FAE568C39565FCE5699566DB
:10128400FDA850A95185527085537185546E8555BA
:101294006F8B6C8A6D8C6A8D6B755A00C3E55A9599
:1012A40056400302134DE54E601F88828983E49300
:1012B400FEA3A882A983855BF005F0EE800225E0F9
:1012C400D5F0FBFEF4F5648003856764C007856C84
:1012D40082856D83E0FEE5645206857082857183A4
:1012E400E493FFA3858270858371855BF005F0EF3D
:1012F400800225E0D5F0FB4206856C82856D83EE85
:10130400F0A385826C85836D856A82856B83E0FE9C
:10131400E5645206856E82856F83E493FFA385821C
:101324006E85836F855BF005F0EF800225E0D5F0D4
:10133400FB4206856A82856B83EEF0A385826A850B
:10134400836B055AD0070212A0E8C39565F550E9EE
:101354009566F551E570C39565F552E5719566F5A9
:1013640053E56EC39565F554E56F9566F555E55FF0
:10137400256CFBE560356DFAE55F256AFCE56035B3
:0E1384006BFD0559021177E56124FF92AF223F
:10232B000000906F706D6E6B796788633E2C3C205C
:10233B000071757769747265000068616A66647311
:10234B000000760062787A800000820008818400A9
:10235B0000002F005EA0000000000A006C000000CF
:10236B000000002B3D2E2122245F0039003F00206E
:10237B00003126322D23403300003A343B5C363596
:10238B000000280029383700000000000000300052
:10239B00000000000000000000000000270000000B
:1023AB000000004F504D4E4B59470043000000209A
:1023BB000051555749545245000048414A46445331
:1023CB000000560042585A000000000000000000B8
:1023DB000000000000000000000000004C000000A6
:066D5A000801000000002A
:1023EB0000B80000B80018001818001850F850F882
:1023FB0050F840D81070F870A870A8C820984020EA
:10240B004040204000180000180070708800F888C9
:10241B0088707088F8004070406030602070202019
:10242B00702080400000C000202020202020008051
:10243B0000008000A07028C02018708870F888F801
:10244B0088F88090F880D8A8D8E8A8B8D8A8708861
:10245B00A8F81820D83820F8B8A848B8A8E870A869
:10246B0048F8A8E8A87828C8281850A850F8A8F861
:10247B0050A870B8A8F80050000050008050000021
:10248B00D00070D80020500050505050505000D801
:10249B007000502010E81008A838F898F8F8A8B881
:1024AB00F028F0F828F8F8A870F8A8F8708850F819
:1024BB0088D8F88870F888F8708850F8A8D8F82869
:1024CB0000F82828708840F8A8F8F820F8F820F8C9
:1024DB0000F80000F800408078C080F8F810C8F8C9
:1024EB006098F88080788080F028F0F810F8F05031
:1024FB0078F820F8708870F888F8F02810F82838E9
:10250B00704830F888F8F008D0F868B850A850B880
:10251B00A8E808F80808F808788078F880F8C03040
:10252B00C038C03878A078F840F8A850A8D820D880
:10253B0028D02818E01820D820C8A89800F88800C0
:10254B00F8882870A01820C088F80088F8001808B0
:10255B001810081080808080808000081000180000
:10256B00F028F0F828F8F8A870F8A8F8708850F858
:10257B0088D8F88870F888F8708850F8A8D8F828A8
:10258B0000F82828708840F8A8F8F820F8F820F808
:10259B0000F80000F800408078C080F8F810C8F808
:1025AB006098F88080788080F028F0F810F8F05070
:1025BB0078F820F8708870F888F8F02810F8283828
:1025CB00704830F888F8F008D0F868B850A850B8C0
:1025DB00A8E808F80808F808788078F880F8C03080
:1025EB00C038C03878A078F840F8A850A8D820D8C0
:1025FB0028D02818E01820D820C8A8980070882068
:0E260B00D80000F80000F80088700000D82009
:016D6000032F
:10261900656E676C697368006765726D616E00004D
:102629006C6563747572650000706F6469756D001F
:102639000000636F6E7465737400006C746E677468
:10264900616C6B00776F726B73686F70006F746881
:10265900657200000000636F6D6D756E69747900B5
:1026690063756C747572650000006861636B696EEF
:10267900670000006D616B696E670000000073639D
:1026890069656E6365000000736F6369657479003D
:102699000000000B1E0C1E32374333204B65796E48
:1026A9006F7465000000000000000000000000A138
:1026B900000000000000000100576520636F6D6590
:1026C90020696E205065616365000000000000000C
:1026D90000A100000000000000010000000000004F
:1026E90000000000000000000000000000000000E1
:1026F900000000A10000000000000001000000002F
:1027090000000000000000000000000000000000C0
:102719000000000000A1000000000000000100000E
:1027290000000000000000000000000000000000A0
:1027390000000000000000A10000000000000001EE
:102749000000000000000000000000000000000080
:10275900000000000000000000A1000000000000CF
:102769000001000150000C2D0D2D436F7079726925
:1027790067687420456E666F7263656D656E742057
:1027890056732E00000000000000000046726565C7
:10279900646F6D730000000000000000000000007D
:1027A90000000000A10000000000000001004143FA
:1027B90054412C2049505245443320616E64206FA6
:1027C90074686572207570636F6D696E67000000CB
:1027D900626174746C6573206F6620746865206328
:1027E90072757361646520616761696E7374000055
:1027F900000073686172696E6700000000000000E4
:1028090000000000000000000000A100000000001E
:10281900000001004A6572656D6965205A696D6D30
:1028290065726D616E6E000000000000A10000007D
:102839000000000001000250000E000F00566F6EEC
:10284900205A656E73757273756C6120C3BC6265BD
:10285900722043656E73696C69610000000000684D
:10286900696E207A756D204B696E6465726E657448
:1028790000000000000000A10000000000000001AD
:10288900004A616872657372C3BC636B626C696389
:102899006B2072756E6420756D20496E7465726E59
:1028A9006574005370657272656E2C2053656E6491
:1028B900657A65697462656772656E7A756E676552
:1028C9006E00000000696D20496E7465726E657452
:1028D90020756E64207665726D65696E746C6963C6
:1028E90068656E000000004A7567656E6473636809
:1028F90075747A207C20416C76617220432E482EB3
:1029090046726575646500000002510010001100EF
:1029190057686973746C65626C6F77696E670000DC
:102929000000000000000000A100000000000000FD
:1029390001004C6963687420696E732044756E6B7D
:10294900656C2100000000000000A10000000000EB
:10295900000001000000000000000000000000006D
:10296900000000000000000000000000A1000000BD
:10297900000000000100000000000000000000004D
:102989000000000000000000000000000000A1009D
:10299900000000000000010000000000000000002D
:1029A900000000000000000000000000000000001E
:1029B900A10000000000000001000000000000006C
:1029C90000000000000000000000000000000000FE
:1029D9000000A100000000000000010001510014E6
:1029E9001E151E4461746120526574656E74696FA9
:1029F9006E20696E20746865204555206669766584
:102A09000000000000796561727320616674657267
:102A1900207468652044697265637469766500008D
:102A29000000000000000057687920746865207470
:102A3900696D65206973206E6F7720746F206765F3
:102A4900740000000000000000616374697665008D
:102A5900000000000000000000000000000000006D
:102A690000A10000000000000001004B61746172C8
:102A79007A796E6120537A796D69656C65776963D6
:102A89007A2C205061747269636B00000042726590
:102A99007965722C2052616C662042656E647261A0
:102AA9007468000000A1000000000000000100029D
:102AB9005000000F010F50656E74616E65777320C9
:102AC90047616D652053686F770000000000A10021
:102AD9000000000000000100596F7572206F7070CE
:102AE9006F6E656E74732077696C6C2062652072F5
:102AF9006964646C65640000000061732077656C2B
:102B09006C00000000000000000000000000000050
:102B19000000A1000000000000000100000000000A
:102B2900000000000000000000000000000000009C
:102B390000000000A10000000000000001000000EA
:102B4900000000000000000000000000000000007C
:102B5900000000000000A1000000000000000100CA
:102B6900416C69656E382C20417374726F000000E6
:102B79000000000000000000A100000000000000AB
:102B89000100010A100C2D0D2D436F646520646549
:102B99006F62667573636174696F6E206279000094
:102BA90000A10000000000000001006F7074696D51
:102BB900697A6174696F6E0000000000000000000E
:102BC900000000A10000000000000001000000005A
:102BD90000000000000000000000000000000000EC
:102BE9000000000000A1000000000000000100003A
:102BF90000000000000000000000000000000000CC
:102C090000000000000000A1000000000000000119
:102C190000000000000000000000000000000000AB
:102C2900000000000000000000A1000000000000FA
:102C39000001004272616E6B6F20537061736F6A9D
:102C49006576696300000000000000A10000000033
:102C590000000001000220100E000F00436F6E7487
:102C6900656D706F726172792050726F66696C69F7
:102C79006E67206F6620576562000000000055737B
:102C890065727300000000000000000000000000F1
:102C9900000000000000A100000000000000010089
:102CA9004F6E205573696E6720416E6F6E796D693D
:102CB9007A65727320616E64205374696C6C0000CC
:102CC9000000476574204675636B65640000000069
:102CD90000000000000000000000A100000000004A
:102CE90000000100000000000000000000000000DA
:102CF900000000000000000000000000A10000002A
:102D0900000000000100446F6D696E696B20486521
:102D190072726D616E6E2C206C657869000000001E
:102D29000000000000000000022010100011004502
:102D3900696E732C207A7765692C20647265692025
:102D49002D20616C6C652073696E640000000000C1
:102D59000064616265690000000000000000000075
:102D6900000000000000000000A1000000000000B9
:102D7900000100566F6E2064657220566F6C6B738C
:102D89007AC3A4686C756E67207A756D2042756E7A
:102D99006465732D006D656C64657265676973742C
:102DA90065720000000000000000000000A10000A2
:102DB9000000000000010000000000000000000009
:102DC900000000000000000000000000000000A159
:102DD9000000000000000001004F6C697665722058
:102DE90022556E69636F726E22204B6E617070009E
:102DF9000000000000000000000000025110110F47
:102E0900120F46726965646520736569206D69747E
:102E190020457572656E20446174656E000000007E
:102E29000000000045696E20646174656E73636813
:102E390075747A72656368746C6963686572204138
:102E490075732D000000666C756720696E206569D1
:102E59006E206B697263686C696368657320000032
:102E69000000000000000000506172616C6C656C2C
:102E7900756E6976657273756D202D00000000000E
:102E8900A100000000000000010000000000000097
:102E99000000000000000000000000000000000029
:102EA9000000A10000000000000001004A6F6368F3
:102EB900696D2053656C7A6572000000000000009E
:102EC90000000000A1000000000000000100015105
:102ED90010121E131E6861636B696E6720736D6142
:102EE90072742070686F6E657300000000A10000A5
:102EF90000000000000100657870616E64696E670A
:102F0900207468652061747461636B2073757266DF
:102F190061636520616E6400007468656E20736F7B
:102F29006D650000000000000000000000000000C6
:102F390000A10000000000000001000000000000E6
:102F49000000000000000000000000000000000078
:102F5900000000A1000000000000000100000000C6
:102F69000000000000000000000000000000000058
:102F79000000000000A100000000000000010000A6
:102F89000000000000000000000000000000000038
:102F990000000000000000A1000000000000000186
:102FA90000012010141E151E4465736B746F702088
:102FB9006F6E20746865204C696E75782E2E2E0010
:102FC9000000000000000000000028616E6420423B
:102FD90053442C206F6620636F7572736529000056
:102FE9000000A1000000000000000100796F7527B2
:102FF900726520646F696E6720697420636F6E66FD
:10300900757365643F2077656972643F0000737466
:1030190072616E67653F2077726F6E673F000000CF
:10302900000000000000A1000000000000000100F5
:103039000000000000000000000000000000000087
:103049000000000000000000A100000000000000D6
:103059000100000000000000000000000000000066
:1030690000000000000000000000A10000000000B6
:1030790000000100020010152D162D526563656EC2
:103089007420616476616E63657320696E204950AE
:1030990076360000000000000000000000696E7331
:1030A900656375726974696573000000000000004A
:1030B9000000000000A10000000000000001000065
:1030C90000000000000000000000000000000000F7
:1030D90000000000000000A1000000000000000145
:1030E90000000000000000000000000000000000D7
:1030F900000000000000000000A100000000000026
:1031090000010000000000000000000000000000B5
:103119000000000000000000000000A10000000005
:10312900000000010076616E4861757365720000E8
:1031390000000000000000000000000000A10000E5
:103149000000000000010002201017000000537069
:10315900696E6E696E672074686520656C65637455
:10316900726F6E696300000000000000000000003B
:10317900576865656C000000000000000000000051
:103189000000000000000000A10000000000000095
:1031990001005374696C6C207468652062696379F5
:1031A900636C657320666F722074686520323174B0
:1031B9006800000063656E74757279000000000094
:1031C900000000000000000000000000A100000055
:1031D90000000000010000000000000000000000E5
:1031E9000000000000000000000000000000A10035
:1031F90000000000000001000000000000000000C5
:1032090000000000000000000000000000000000B5
:10321900A10000000000000001000231200C2D0D6A
:103229002D46726F6D20726F626F7420746F2072F9
:103239006F626F740000000000A100000000000030
:10324900000100526573746F72696E67206372655D
:103259006174697669747920696E207363686F6F28
:103269006C00000000707570696C73207573696E6D
:103279006720726F626F74696373000000A10000B8
:103289000000000000010000000000000000000034
:10329900000000000000000000000000000000A184
:1032A9000000000000000001000000000000000014
:1032B9000000000000000000000000000000000005
:1032C90000A1000000000000000100000000000053
:1032D90000000000000000000000000000000000E5
:1032E900000000A1000000000000000100015020C2
:1032F9000E000F004A5441472F53657269616C2FC4
:10330900464C4153482F50434220456D62656464E1
:103319006564000000005265766572736520456E2C
:1033290067696E656572696E6720546F6F6C73208B
:10333900616E640000000000546563686E69717510
:10334900657300000000000000000000000000009C
:10335900A1000000000000000100612064756D708B
:10336900206F662073696D706C6520746F6F6C7364
:1033790020666F7220656D2D00000000626564642F
:10338900656420616E616C79736973206174206D65
:10339900616E79206C61796572730000000000002C
:1033A9000000000000000000000000000000000014
:1033B900000000000000A100000000000000010062
:1033C900032020100011004175746F6D61746963E9
:1033D900204964656E74696669636174696F6E20FA
:1033E9006F660000000000000043727970746F6717
:1033F900726170686963205072696D697469766574
:103409007320696E00000000000000536F66747736
:10341900617265000000000000000000000000006B
:10342900000000A1000000000000000100000000F1
:103439000000000000000000000000000000000083
:103449000000000000A100000000000000010000D1
:103459000000000000000000000000000000000063
:1034690000000000000000A10000000000000001B1
:103479000046656C69782047726F656265727400F1
:10348900000000000000000000A100000000000092
:10349900000100032020110F120F55534220616EC5
:1034A90064206C696275736220666F722066756E3E
:1034B90020616E64000000000000000070726F66F9
:1034C9006974000000000000000000000000000016
:1034D90000000000A1000000000000000100555399
:1034E900423A20536F206D756368206D6F726520B5
:1034F9007468616E20612073657269616C000000F7
:10350900706F7274207769746820706F77657200C4
:103519000000000000000000A10000000000000001
:103529000100000000000000000000000000000091
:1035390000000000000000000000A10000000000E1
:103549000000010050657465722053747567650049
:10355900000000000000000000000000A1000000C1
:10356900000000000100023020152D162D436F6761
:103579006E69746976652050737963686F6C6F67DB
:103589007920666F7200000000000000000000480A
:1035990061636B65727300000000000000000000A9
:1035A90000000000000000A1000000000000000170
:1035B90000427567732C206578706C6F6974732C81
:1035C90020616E64206F63636173696F6E616C0063
:1035D90000000070617463686573000000000000FA
:1035E9000000000000000000000000A10000000031
:1035F90000000001000000000000000000000000C1
:1036090000000000000000000000000000A1000010
:103619000000000000010053616900000000000083
:10362900000000000000000000000000000000A1F0
:103639000000000000000001000240010B1E0C1EEA
:1036490046696C65202D3E205072696E74202D3EAE
:1036590020456C656374726F6E69637300000000C6
:10366900000041206E657720636972637569742073
:10367900626F617264207072696E74657220776915
:103689006C6C00006C6962657261746520796F7594
:103699002066726F6D207468652041726475696E69
:1036A9006F2D00000000496E647573747269616C56
:1036B90020436F6D706C6578000000000000A10068
:1036C90000000000000001000000000000000000F0
:1036D90000000000000000000000000000000000E1
:1036E900A10000000000000001004A65666620474D
:1036F9006F7567680000000000000000000000000E
:103709000000A100000000000000010001300112CA
:103719001E131E54686520436F6E63657274000042
:103729000000000000000000000000A100000000EF
:1037390000000001006120646973636F6E63657244
:1037490074696E67206D6F6D656E7420666F722087
:103759006672656500000063756C747572650000BA
:10376900000000000000000000000000000000A1AF
:10377900000000000000000100000000000000003F
:103789000000000000000000000000000000000030
:1037990000A100000000000000010000000000007E
:1037A9000000000000000000000000000000000010
:1037B900000000A1000000000000000100436F723A
:1037C9006579204365726F7673656B2C204A756C39
:1037D90069656E205175656E74696E00000000019F
:1037E9001A01141E151E486967682D737065656492
:1037F90020686967682D736563757269747900005B
:10380900000000000000000063727970746F677235
:10381900617068793A0000000000000000000000B3
:10382900A1000000000000000100656E637279705C
:1038390074696E6720616E642061757468656E7461
:1038490069636174696E670000000000746865202F
:1038590077686F6C6520496E7465726E65740000D7
:1038690000000000A10000000000000001000000AD
:10387900000000000000000000000000000000003F
:10388900000000000000A10000000000000001008D
:1038990044616E69656C204A2E204265726E7374AC
:1038A90065696E0000000000A10000000000000032
:1038B90001000220011700000054686520696D703D
:1038C9006F7274616E6365206F66207265736973C8
:1038D90074696E6700000000000000457863657335
:1038E9007369766520476F7665726E6D656E7400D3
:1038F900000000A1000000000000000100537572E3
:103909007665696C6C616E636500000000000000FB
:103919000000000000A10000000000000001004AB2
:103929006F696E206D6520696E206578706F7369A7
:103939006E6720616E64206368616C2D0000000071
:10394900006C656E67696E672074686520636F6EC9
:103959007374616E742076696F6C6174696F6E73CC
:103969000000006F66206F757220726967687420A5
:10397900746F20707269766163790000000000003D
:103989000000000000035001000F010F5374616E25
:1039990069736C6177204C656D00000000000000C0
:1039A90000000000A10000000000000001004465C3
:1039B9007220656E7474C3A4757363687465205747
:1039C900656C747665726265737365726572000001
:1039D90045696E20617564696F76697375656C6C8C
:1039E9006573204C6976652D46656174757265004D
:1039F9000000412E4B726F6C696B6F77736B692C8A
:103A090020432E4B75727A2C000000000000000044
:103A190000000000492E4B7761736E696577736BFF
:103A2900692C204A2E2D4D2E204C6F6562656C0045
:103A39000000000000004B2E4B6974746C65722005
:103A4900756E64204D2E205269636874657200009A
:103A590000000000000000000211110B1E0C1E44A2
:103A690069737472696275746564204650474120B0
:103A79004E756D62657200000000000000000000D4
:103A8900004372756E6368696E6720466F722054D1
:103A99006865204D617373657300000000000000C4
:103AA900000000486F77207765206F627461696E46
:103AB900656420746865206571756976616C656EE9
:103AC9007400000000706F776572206F66206120B6
:103AD9004465657020437261636B20666F72206173
:103AE900000000000000006669737466756C206F41
:103AF9006620646F6C6C617273202D20616E642086
:103B0900686F772E2E2E00000046656C6978204478
:103B19006F6D6B65000000000000000000000000F0
:103B290000A10000000000000001000221110D00A9
:103B39000D1E4C79696E6720546F20546865204EBC
:103B490065696768626F75727300000000000000A4
:103B590000000000466965736520456666656B74FB
:103B690065206D697420747261636B65722D6C6573
:103B7900737300000000426974546F7272656E7449
:103B89000000000000000000000000000000A1008B
:103B9900000000000000010000000000000000001B
:103BA900000000000000000000000000000000000C
:103BB900A10000000000000001000000000000005A
:103BC90000000000000000000000000000000000EC
:103BD9000000A100000000000000010041737472A0
:103BE9006F0000000000000000000000000000005D
:103BF90000000000A10000000000000001000121F8
:103C0900110D2D0E0F4E6F64652E6A73206173209E
:103C190061206E6574776F726B696E6720746F6F60
:103C29006C0000000000000000000000000000001F
:103C3900000000000000000000000000000000A1DA
:103C4900000000000000000100000000000000006A
:103C5900000000000000000000000000000000005B
:103C690000A10000000000000001000000000000A9
:103C7900000000000000000000000000000000003B
:103C8900000000A100000000000000010000000089
:103C9900000000000000000000000000000000001B
:103CA9000000000000A10000000000000001004623
:103CB900656C69782047656973656E646F657266BE
:103CC90065720000000000A1000000000000000172
:103CD900000120110E1E0F004C6F67696B7363683A
:103CE900616C74756E67656E206F686E6520456CD2
:103CF900656B74726F6E696B00006C6F67697363D3
:103D0900686520536368616C74756E67656E206DB4
:103D1900697400000000000000000000506E657525
:103D29006D6174696B000000000000000000000074
:103D390000000000A10000000000000001000000D8
:103D4900000000000000000000000000000000006A
:103D5900000000000000A1000000000000000100B8
:103D6900000000000000000000000000000000004A
:103D79000000000000000000A10000000000000099
:103D89000100416570657800000000000000000036
:103D990000000000000000000000A1000000000079
:103DA90000000100013111100011004973207468ED
:103DB900652053534C697665727365206120736180
:103DC900666520706C6163653F00000000416E20EC
:103DD900757064617465206F6E20454646277320AF
:103DE90053534C0000000000000000000000004F89
:103DF900627365727661746F72792070726F6A6529
:103E090063740000000000A1000000000000000130
:103E19000000000000000000000000000000000099
:103E2900000000000000000000A1000000000000E8
:103E39000001000000000000000000000000000078
:103E49000000000000000000000000A100000000C8
:103E59000000000100000000000000000000000058
:103E690000000000000000000000000000A10000A8
:103E790000000000000100010011110F120F44653C
:103E890066656E7365206973206E6F742064656161
:103E9900640000000000A100000000000000010013
:103EA9005768792077652077696C6C206861766539
:103EB900206D6F726520736563757265000000007F
:103EC9000000636F6D707574657273202D20746FB7
:103ED9006D6F72726F7700000000A1000000000092
:103EE90000000100000000000000000000000000C8
:103EF900000000000000000000000000A100000018
:103F090000000000010000000000000000000000A7
:103F19000000000000000000000000000000A100F7
:103F29000000000000000100416E647265617320A9
:103F3900426F676B000000000000000000000000F5
:103F4900A1000000000000000100012011121E1351
:103F59001E4C697465726172697363686572204188
:103F690062656E640000000000A10000000000000E
:103F79000001000000000000000000000000000037
:103F89000000000000000000000000A10000000087
:103F99000000000100000000000000000000000017
:103FA90000000000000000000000000000A1000067
:103FB90000000000000100000000000000000000F7
:103FC900000000000000000000000000000000A147
:103FD90000000000000000010000000000000000D7
:103FE90000000000000000000000000000000000C8
:103FF90000A1000000000000000100416E6472652C
:104009006173204C65686E65722C206C6172730057
:10401900000000A1000000000000000100010311E0
:10402900152D162D416476656E7475726573206958
:104039006E204D617070696E67000000A10000007C
:1040490000000000010041666768616E6973746170
:104059006E20456C656374696F6E73000000A10082
:1040690000000000000001005468652073746F723D
:1040790079206F6620332055736861686964692007
:104089006D617070696E67000000616E6420726511
:10409900706F7274696E672070726F6A656374738A
:1040A9002E000000000000000000000000000000D9
:1040B90000000000000000000000000000000000F7
:1040C90000000000A1000000000000000100000045
:1040D90000000000000000000000000000000000D7
:1040E900000000000000A100000000000000010025
:1040F9000250111700000053656375726520636FE4
:104109006D6D756E69636174696F6E732062656C3C
:104119006F772074686500000068656172696E6771
:10412900207468726573686F6C6400000000000099
:1041390000A1000000000000000100496D70726FCD
:1041490076656420617070726F616368657320665B
:104159006F722061756469746976650000737465AE
:1041690067616E6F67726170687900000000000016
:104179000000000000A10000000000000001000094
:104189000000000000000000000000000000000026
:1041990000000000000000A1000000000000000174
:1041A900004D6172637573204E75747A696E676527
:1041B900722C205261696E657220506F6973656C4B
:1041C9000000000220210B1E0C1E4E65747A6D65DD
:1041D9006469656E72656368742C204C6F626279DC
:1041E90069736D757320756E640000004B6F727290
:1041F900757074696F6E0000000000000000000017
:1042090000000000A1000000000000000100576943
:1042190065207769726B7420646965204C6F6262EE
:104229007920766F6E000000000000000000000099
:104239004D656469656E6B6F6E7A65726E656E3F0A
:104249000000000000000000A100000000000000C4
:104259000100000000000000000000000000000054
:1042690000000000000000000000A10000000000A4
:104279000000010054686F6D6173204261727468B7
:10428900000000000000000000000000A100000084
:104299000000000001000259210C2D0D1E4C696718
:1042A90068746E696E672054616C6B73202D2044AD
:1042B9006179203200000000000000000000004B7E
:1042C9006F7272757074696F6E00000000000000F3
:1042D90000000000000000A1000000000000000133
:1042E9000034206D696E75746573206F6620666190
:1042F9006D6500000000000000A100000000000042
:1043090000010000000000000000000000000000A3
:104319000000000000000000000000A100000000F3
:104329000000000100000000000000000000000083
:1043390000000000000000000000000000A10000D3
:10434900000000000001005376656E204775636B1D
:10435900657300000000000000000000000000A1DB
:104369000000000000000001000106210E000F00FE
:104379004920436F6E74726F6C20596F75722043B8
:104389006F64650000000000A1000000000000004B
:10439900010041747461636B20566563746F7273B5
:1043A900205468726F75676820746865204579655F
:1043B900730000006F6620536F6674776172652D14
:1043C9006261736564204661756C740000000000C9
:1043D90000000000000049736F6C6174696F6E0022
:1043E9000000000000000000000000000000A10023
:1043F90000000000000001000000000000000000B3
:1044090000000000000000000000000000000000A3
:10441900A10000000000000001004D61746869619D
:1044290073205061796572000000000000000000EF
:104439000000A1000000000000000100012021107F
:10444900001100412073686F727420706F6C697479
:104459006963616C20686973746F7279206F660093
:10446900000000000061636F757374696373000075
:1044790000000000000000000000000000A1000092
:1044890000000000000100466F722077686F6D2CF4
:1044990020616E6420746F20646F20776861742CCA
:1044A900207468650000000000736369656E6365C8
:1044B900206F6620736F756E642077617320646561
:1044C90076656C6F70656400000000696E20746821
:1044D9006520313774682063656E747572790000E0
:1044E900000000A10000000000000001004F6F6EF5
:1044F90061204C6567616E6F76696300000000009A
:104509000000000000A100000000000000010002FE
:104519005021110F120F4461746120416E616C7951
:1045290073697320696E2054657261626974000051
:10453900000000000000000045746865726E657433
:104549002054726166666963000000000000000083
:10455900A1000000000000000100536F6C75746930
:104569006F6E7320666F72206D6F6E69746F7269FA
:104579006E6720616E640000000000006C61776660
:10458900756C20696E74657263657074696F6E20ED
:1045990077697468696E2061206C6F7400006F66BA
:1045A9002062697473000000000000000000000030
:1045B900000000000000A100000000000000010050
:1045C9004C617273205765696C65720000000000C8
:1045D9000000000000000000A10000000000000031
:1045E9000100022021121E131E546563686E696B57
:1045F900656E207A7572204964656E746966697A98
:10460900696572756E670000000000766F6E204E56
:1046190065747A7765726B2D50726F746F6B6F6CFE
:104629006C656E0000000000000000000000000042
:104639000000000000000000000000000000000071
:104649000000000000A100000000000000010000BF
:104659000000000000000000000000000000000051
:1046690000000000000000A100000000000000019F
:104679000000000000000000000000000000000031
:10468900000000000000000000A100000000000080
:10469900000100466C6F7269616E204164616D733F
:1046A9006B79000000000000000000A1000000007C
:1046B9000000000100024121152D162D436F6E7374
:1046C9006F6C65204861636B696E672032303130E9
:1046D90000000000A1000000000000000100506C73
:1046E900617973746174696F6E20332C2058626F1D
:1046F90078203336302C205769692C2000000000BF
:1047090044536900000000000000000000000000A0
:104719000000000000000000A100000000000000EF
:10472900010000000000000000000000000000007F
:1047390000000000000000000000A10000000000CF
:10474900000001000000000000000000000000005F
:10475900000000000000000000000000A1000000AF
:1047690000000000010062757368696E672C206D96
:10477900617263616E2C207376656E000000A10082
:1047890000000000000001000120020B1E0D1E4365
:1047990043432D4A6168726573727565636B626C18
:1047A90069636B20323031300000000000000000E6
:1047B90000000000000000000000000000000000F0
:1047C900000000000000000000A10000000000003F
:1047D90000010000000000000000000000000000CF
:1047E9000000000000000000000000A1000000001F
:1047F90000000001000000000000000000000000AF
:1048090000000000000000000000000000A10000FE
:1048190000000000000100412E426F676B2C20410F
:104829002E4D75656C6C65722D4D616775686E2CC2
:10483900000000000000000000432E4B75727A2C26
:1048490020462E526965676572000000000000006D
:1048590000A1000000000000000100010302110F87
:10486900130F4E65747A6E65757472616C69746143
:10487900657420756E6420516F53202D000000006F
:104889000000000065696E20576964657273707273
:104899007563683F0000000000000000A1000000EF
:1048A90000000000010046616B74656E2061756649
:1048B9002064656E20546973636800000000A100DC
:1048C90000000000000001000000000000000000DE
:1048D90000000000000000000000000000000000CF
:1048E900A10000000000000001000000000000001D
:1048F90000000000000000000000000000000000AF
:104909000000A100000000000000010041616E6488
:104919007265617320426F676B2C204D61726B75F4
:1049290073204265636B656461686C000000025323
:1049390002141E151E4368697020616E6420504977
:104949004E2069732042726F6B656E000000000093
:104959000000000000000056756C6E6572616269A6
:104969006C697469657320696E207468650000005C
:10497900000000000000000000454D562050726FF5
:10498900746F636F6C0000000000000000000000FD
:1049990000A100000000000000010000000000006C
:1049A90000000000000000000000000000000000FE
:1049B900000000A10000000000000001000000004C
:1049C90000000000000000000000000000000000DE
:1049D9000000000000A100000000000000010053D9
:1049E900746576656E204A2E204D7572646F636812
:1049F90000000000000000A100000000000000010C
:104A090000012002152D162D466E6F72642D4A6124
:104A190068726573727565636B626C69636B20326A
:104A290030313000000000000000766F6E204174C4
:104A39006F6D6175737374696567206269730000CE
:104A49000000A10000000000000001005A77616E1B
:104A59006773696E746567726174696F6E000000CF
:104A690000000000A100000000000000010000009B
:104A7900000000000000000000000000000000002D
:104A8900000000000000A10000000000000001007B
:104A9900000000000000000000000000000000000D
:104AA9000000000000000000A1000000000000005C
:104AB900010046656C697820766F6E204C656974D3
:104AC9006E65722C204672616E6B2052696567654E
:104AD90072000000015102170001004861636B6513
:104AE90072204A656F7061726479000000000000ED
:104AF900000000A10000000000000001004E756DDB
:104B0900626572206775657373696E6720666F7277
:104B1900206765656B73000000000000000000005D
:104B2900000000000000000000000000000000007C
:104B390000000000000000A10000000000000001CA
:104B4900000000000000000000000000000000005C
:104B5900000000000000000000A1000000000000AB
:104B6900000100000000000000000000000000003B
:104B79000000000000000000000000A1000000008B
:104B890000000001005261792C2053746566616E42
:104B9900202753656327205A65686C0000000000D0
:104BA900000000000000000105120B1E0C1E412030
:104BB900437269746963616C204F766572766965C1
:104BC90077206F66203130207965617273000000AB
:104BD9006F66205072697661637920456E68616EEF
:104BE90063696E6700000000A1000000000000007A
:104BF9000100546563686E6F6C6F676965730000C7
:104C090000000000000000000000A10000000000FA
:104C1900000001000000000000000000000000008A
:104C2900000000000000000000000000A1000000DA
:104C3900000000000100000000000000000000006A
:104C49000000000000000000000000000000A100BA
:104C590000000000000001007365646100000000AD
:104C6900000000000000000000000000000000003B
:104C7900A10000000000000001000350120D000D0A
:104C89001E416C6C436F6C6F75727341726542653E
:104C99006175746966756C00000000000000000011
:104CA900000000696E746572616374697665206CD1
:104CB9006967687420696E7374616C6C6174696F7B
:104CC9006E00000000696E73706972656420627914
:104CD90020626C696E6B656E6C696768747300003D
:104CE90000000000000000000000000000000000BB
:104CF900000000000000000000000000000000A10A
:104D09000000000000000001000000000000000099
:104D1900000000000000000000000000000000008A
:104D290000A10000000000000001004672616E7AD7
:104D390020506C65747A2C206C696C6166697363A8
:104D490068000000000000000000000000010112DE
:104D59000E1E0F0053495020686F6D6520676174FE
:104D6900657761797320756E64657220666972650D
:104D7900000000000000536F7572636520726F7543
:104D890074696E672061747461636B7320617070FC
:104D99006C69656400000000746F2053495000007D
:104DA90000000000000000000000000000000000FA
:104DB900A100000000000000010000000000000048
:104DC90000000000000000000000000000000000DA
:104DD9000000A10000000000000001000000000028
:104DE90000000000000000000000000000000000BA
:104DF90000000000A1000000000000000100576F42
:104E09006C6667616E67204265636B000000000095
:104E1900000000000000A1000000000000000100E7
:104E2900012012100011004449592073796E7468E9
:104E39006573697A65727320616E6420736F756E2C
:104E490064000000000000000067656E657261740F
:104E59006F727300000000000000000000000000F5
:104E690000A100000000000000010057686572659C
:104E790020646F65732074686520736F756E642094
:104E8900636F6D652066726F6D3F00000000000062
:104E99000000000000000000000000000000000009
:104EA9000000000000A10000000000000001000057
:104EB90000000000000000000000000000000000E9
:104EC90000000000000000A1000000000000000137
:104ED900007379736F0000000000000000000000FB
:104EE900000000000000000000A100000000000018
:104EF900000100023012121E131E494E444543544C
:104F0900202D00000000000000000000000000004B
:104F19000000A1000000000000000100616E2045B2
:104F2900552D5375727665696C6C616E6365205099
:104F3900726F6A65637400000000000000000000E1
:104F49000000000000000000000000000000000058
:104F5900000000000000A1000000000000000100A6
:104F69000000000000000000000000000000000038
:104F79000000000000000000A10000000000000087
:104F89000100000000000000000000000000000017
:104F990000000000000000000000A1000000000067
:104FA9000000010053796C766961204A6F686E6967
:104FB900676B00000000000000000000A100000075
:104FC900000000000100025012141E151E446967FA
:104FD9006974616C65205370616C74756E672070BB
:104FE90065722047657365747A000000000000440B
:104FF900617320496E7465726E657420756E6420E4
:105009006765736368616666656E65000000000028
:1050190000736F7A69616C6520556E676C656963A9
:10502900686865697420696D20416C6C74616700FA
:10503900000000766F6E20457277657262736C6F3F
:1050490073656E0000000000000000A10000000070
:1050590000000001004265746A6520536368776146
:10506900727A2C20446F726973204765726269678E
:105079002C0000000000004B61746872696E2045C5
:105089006E676C657274000000000000000000A1EA
:10509900000000000000000100015112152D162D1D
:1050A900546572726F72697374732057696E202D1B
:1050B900204578706C6F6974696E670000000000A4
:1050C900000054656C65636F6D6D756E696361741D
:1050D900696F6E7320446174610000000000000074
:1050E90000000000526574656E74696F6E3F0000C0
:1050F900000000000000000000000000A100000006
:105109000000000001000000000000000000000095
:105119000000000000000000000000000000A100E5
:1051290000000000000001004B61792048616D61B9
:1051390063686572000000000000000000000000C4
:10514900A100000000000000010053746566616E53
:10515900204B61747A656E626569737365720000CC
:105169000000A10000000000000001000340121728
:1051790000000046726F7A656E43616368650000DE
:105189000000000000000000000000A10000000075
:1051990000000001004D697469676174696E6720D8
:1051A900636F6C642D626F6F742061747461636BDB
:1051B9007320666F72000046756C6C2D4469736BC1
:1051C9002D456E6372797074696F6E20736F6674A2
:1051D9007761726500000000000000000000000017
:1051E90000000000000000000000000000000000B6
:1051F90000A1000000000000000100000000000004
:105209000000000000000000000000000000000095
:10521900000000A10000000000000001004A7565BF
:105229007267656E20506162656C000000000000C5
:105239000000000000A100000000000000010001C2
:1052490020220C2D0D2D4C696768746E696E6720DC
:1052590054616C6B73202D2054616720330000006A
:10526900000000000000000077686572652069731E
:10527900206D7920636F6D6D756E6974793F0000DB
:105289000000000000000000000000000000000015
:105299000000000000000000000000000000000005
:1052A9000000A10000000000000001000000000053
:1052B90000000000000000000000000000000000E5
:1052C90000000000A1000000000000000100000033
:1052D90000000000000000000000000000000000C5
:1052E900000000000000A100000000000000010013
:1052F9005376656E204775636B6573000000000087
:105309000000000000000000A100000000000000F3
:1053190001000106220E000F004275696C64696E76
:105329006720746865205A6F6D626965476F746399
:105339006861000000000000000000486F772074D9
:105349006F2065617420667269656E647320616E91
:1053590064000000000000000000000000696E66A3
:105369006C75656E63652070656F706C652E0000E5
:105379000000000000A10000000000000001000082
:105389000000000000000000000000000000000014
:1053990000000000000000A1000000000000000162
:1053A90000000000000000000000000000000000F4
:1053B900000000000000000000A100000000000043
:1053C900000100456C6920536B6970702C20547280
:1053D9006176697320476F6F647370656564000057
:1053E90000000000000130221000110053616665C1
:1053F9007479206F6E20746865204F70656E205334
:105409006561000000000000000000000000536119
:105419006665206E617669676174696F6E20776968
:1054290074682074686520616964206F66000000F3
:10543900616E206F70656E207365612063686172AB
:10544900742E000000000000A10000000000000010
:105459000100000000000000000000000000000042
:1054690000000000000000000000A1000000000092
:105479000000010000000000000000000000000022
:10548900000000000000000000000000A100000072
:105499000000000001000000000000000000000002
:1054A9000000000000000000000000000000A10052
:1054B9000000000000000100014022110F120F41FD
:1054C9006E64726F69642067656F6C6F636174697C
:1054D9006F6E207573696E670000000000000000A0
:1054E9000047534D206E6574776F726B00000000A2
:1054F900000000000000000000A100000000000002
:105509000001002257686572652077617320576131
:105519006C64726F69643F220000000000000000A3
:105529000000000000000000000000000000000072
:1055390000000000000000000000000000A10000C1
:105549000000000000010000000000000000000051
:10555900000000000000000000000000000000A1A1
:1055690000000000000000010052656E61756420B2
:105579004C6966636869747A0000000000000000E5
:1055890000A1000000000000000100022022121EFC
:10559900131E596F757220496E6672617374727544
:1055A90063747572652057696C6C00000000000017
:1055B900000000004B696C6C20596F7500000000F9
:1055C900000000000000000000000000A100000031
:1055D90000000000010000000000000000000000C1
:1055E9000000000000000000000000000000A10011
:1055F90000000000000001000000000000000000A1
:105609000000000000000000000000000000000091
:10561900A1000000000000000100000000000000DF
:105629000000000000000000000000000000000071
:105639000000A100000000000000010000000000BF
:105649000000000000000000000000000000000051
:1056590000000000A100000000000000010002504D
:1056690022170000002253706F696C6572732C2039
:105679005265766572736520477265656E2C000008
:1056890000000000000000444543454C2122206FE2
:1056990072202257686174277320697420646F69C6
:1056A9006E67000000000000006E6F773F22000067
:1056B90000000000000000000000000000000000E1
:1056C90000A100000000000000010054686F756728
:1056D900687473206F6E20746865204175746F6DEE
:1056E9006174696F6E20616E6400000000697473F3
:1056F9002048756D616E20496E74657266616365D7
:1057090073206F6E000000000000000000000041DF
:105719006972706C616E6573207C204265726E647B
:10572900205369656B6572000000000000000000ED
:10573900000340030B1E0C1E4F4D472057544620B3
:105749005044460000000000000000000000000076
:10575900A100000000000000010057686174207971
:105769006F75206469646E2774206B6E6F77206192
:10577900626F757400000000000000004163726FE1
:1057890062617400000000000000000000000000D9
:1057990000000000A100000000000000010000005E
:1057A90000000000000000000000000000000000F0
:1057B900000000000000A10000000000000001003E
:1057C90000000000000000000000000000000000D0
:1057D9000000000000000000A1000000000000001F
:1057E90001004A756C696120576F6C660000000002
:1057F90000000000000000000000A10000000000FF
:10580900000001000120030C2D0D2D496368207350
:10581900656865206E696368742C20646173732000
:10582900776972206E69636874000000007A757385
:1058390074696D6D656E2077657264656E00000030
:105849000000000000A10000000000000001004469
:10585900696520537072616368652064657320709F
:105869006F6C697469736368656E000000000000FD
:10587900005665727261747320756E642073656970
:105889006E657220526563687466657274692D006D
:1058990000000067756E670000000000000000004E
:1058A9000000000000000000000000A1000000004E
:1058B90000000001006D6168612F4D617274696EAD
:1058C90020486161736500000000000000A100002C
:1058D900000000000001000251030E000F0054688F
:1058E900726565206A6F62732074686174206A6FDB
:1058F90075726E616C6973747300000000000000BA
:1059090077696C6C20646F20696E20323035300005
:105919000000000000000000A100000000000000DD
:10592900010057687920667574757265206D656424
:105939006961206D6179206265206D6F7265000073
:1059490000000000706F77657266756C2028616EC3
:1059590064206D6F726520737562766572736976FE
:105969006529000000007468616E20657665722003
:105979006265666F72650000000000000000A1000A
:105989000000000000000100416E6E616C65652039
:105999004E657769747A000000000000000000007D
:1059A900A1000000000000000100025003100011D6
:1059B90000486F772074686520696E7465726E653A
:1059C90074207365657320796F750000000000000D
:1059D90000000064656D6F6E7374726174696E673F
:1059E9002077686174206163746976697469657385
:1059F90000000000006D6F737420495350732073C9
:105A0900656520796F7520646F696E67206F6E20F8
:105A190074686500000000696E7465726E657400D3
:105A2900000000000000000000000000000000A1CC
:105A3900000000000000000100000000000000005C
:105A4900000000000000000000000000000000004D
:105A590000A100000000000000010000000000009B
:105A6900000000000000000000000000000000002D
:105A7900000000A100000000000000010001500327
:105A8900110F120F5365637572697479204E696736
:105A990068746D617265730000000000A100000068
:105AA90000000000010000000000000000000000EC
:105AB9000000000000000000000000000000A1003C
:105AC90000000000000001000000000000000000CC
:105AD90000000000000000000000000000000000BD
:105AE900A10000000000000001000000000000000B
:105AF900000000000000000000000000000000009D
:105B09000000A100000000000000010000000000EA
:105B1900000000000000000000000000000000007C
:105B290000000000A1000000000000000100467212
:105B3900616E6B205269656765722C20526F6E0029
:105B4900000000000000A1000000000000000100AA
:105B5900010103121E131E41627363686C7573732E
:105B6900766572616E7374616C74756E670000009E
:105B7900000000000000000000000000000000001C
:105B8900000000000000000000000000000000000C
:105B990000A100000000000000010000000000005A
:105BA90000000000000000000000000000000000EC
:105BB900000000A10000000000000001000000003A
:105BC90000000000000000000000000000000000CC
:105BD9000000000000A1000000000000000100001A
:105BE90000000000000000000000000000000000AC
:105BF90000000000000000A10000000000000001FA
:105C0900000000000000000000000000000000008B
:105C1900000000000000000000A1000000000000DA
:105C29000001000100130B1E0C1E546F72206973D2
:105C39002050656163652C20536F667477617265C6
:105C49002046726565646F6D00000000697320531A
:105C59006C61766572792C2057696B697065646926
:105C690061206973205472757468000000005468DB
:105C79006520706F6C69746963616C207068696C08
:105C89006F736F706879206F662074686500000013
:105C9900496E7465726E65740000000000000000B2
:105CA9000000000000000000A1000000000000004A
:105CB90001000000000000000000000000000000DA
:105CC90000000000000000000000A100000000002A
:105CD900000001004164616D000000000000000047
:105CE900000000000000000000000000A10000000A
:105CF9000000000001000250130D000D1E437962DF
:105D090065726E657469637320666F722074686565
:105D1900204D617373657300000000000000006985
:105D29006D706C616E74732C2073656E736F72790C
:105D390020657874656E73696F6E20616E6400000A
:105D49000073696C69636F6E202D20616C6C20662D
:105D59006F7220796F7521000000000000000000BB
:105D6900000000000000000000000000000000002A
:105D79000000000000000000000000A10000000079
:105D89000000000100000000000000000000000009
:105D990000000000000000000000000000A1000059
:105DA90000000000000100000000000000000000E9
:105DB900000000000000000000000000000000A139
:105DC9000000000000000001000120130D2D0E0F3E
:105DD9004861636B65727320616E6420436F6D70F7
:105DE9007574657220536369656E63650000000010
:105DF900000000000000000000000000000000009A
:105E090000000000000000000000A10000000000E8
:105E19000000010000000000000000000000000078
:105E2900000000000000000000000000A1000000C8
:105E39000000000001000000000000000000000058
:105E49000000000000000000000000000000A100A8
:105E59000000000000000100000000000000000038
:105E69000000000000000000000000000000000029
:105E7900A100000000000000010053657267657908
:105E89002042726174757300000000000000000078
:105E99000000A10000000000000001000120130E15
:105EA9001E0F0041206672616D65776F726B206607
:105EB9006F72206175746F6D617465640000000014
:105EC900000000000061726368697465637475722B
:105ED900652D696E646570656E64656E7400000099
:105EE9000000000000000067616467657420736545
:105EF900617263680000000000000000000000A15A
:105F0900000000000000000100434343206564696C
:105F190074696F6E000000000000000000000000BE
:105F290000A10000000000000001000000000000C6
:105F39000000000000000000000000000000000058
:105F4900000000A10000000000000001006B6F725A
:105F59006E617500000000000000000000000000F4
:105F69000000000000A10000000000000001000383
:105F79002013110F12004E657773204B657920525B
:105F890065636F766572792041747461636B732000
:105F99006F6E0000000000005243342F5745500037
:105FA90000000000000000000000000000000000E8
:105FB900A100000000000000010000000000000036
:105FC90000000000000000000000000000000000C8
:105FD9000000A10000000000000001000000000016
:105FE90000000000000000000000000000000000A8
:105FF90000000000A10000000000000001000000F6
:106009000000000000000000000000000000000087
:10601900000000000000A1000000000000000100D5
:106029004D617274696E20567561676E6F7578007F
:106039000000000000000000A100000000000000B6
:1060490001000220230B1E0C1E41206861636B6551
:106059007227732076696577206F6E206D6F746F74
:106069007200000000000000000000636F6E74728F
:106079006F6C20616E6420726F626F746963730064
:10608900000000A100000000000000010000000065
:1060990000000000000000000000000000000000F7
:1060A9000000000000A10000000000000001000045
:1060B90000000000000000000000000000000000D7
:1060C90000000000000000A1000000000000000125
:1060D90000000000000000000000000000000000B7
:1060E900000000000000000000A100000000000006
:1060F9000001000000000000000000000000000096
:106109000000000000000000000000A100000000E5
:1061190000000001000230230C2D0D2D4C69676829
:10612900746E696E672054616C6B73202D20446115
:1061390079203400000000000000000000007768AA
:10614900657265206973206D7920636F6D6D756E59
:106159006974793F000000000000000000000000A1
:106169000000000000000000000000000000000026
:106179000000000000000000A10000000000000075
:106189000100000000000000000000000000000005
:1061990000000000000000000000A1000000000055
:1061A90000000100000000000000000000000000E5
:1061B900000000000000000000000000A100000035
:1061C9000000000001005376656E204775636B651A
:1061D9007300000000000000000000000000A100A2
:1061E9000000000000000100010623110F12004801
:1061F9006176696E672066756E20776974682052CA
:1062090054500000000000A100000000000000013F
:10621900002257686F20697320737065616B696E1E
:10622900673F3F3F2200000000000000000000001F
:106239000000000000000000000000000000000055
:106249000000000000000000000000A100000000A4
:106259000000000100000000000000000000000034
:1062690000000000000000000000000000A1000084
:106279000000000000010000000000000000000014
:10628900000000000000000000000000000000A164
:106299000000000000000001006B6170656A6F6416
:1062A90000000000000000000000000000000000E5
:1062B90000A10000000000000001000120FF000013
:1062C90000000000000000000000000000000000C5
:1062D90000000000000000000000A1000000000014
:1062E90000000100000000000000000000000000A4
:1062F900000000000000000000000000A1000000F4
:106309000000000001000000000000000000000083
:106319000000000000000000000000000000A100D3
:106329000000000000000100000000000000000063
:106339000000000000000000000000000000000054
:10634900A1000000000000000100000000000000A2
:106359000000000000000000000000000000000034
:106369000000A10000000000000001000000000082
:106379000000000000000000000000000000000014
:1063890000000000A1000000000000000100000062
:1063990000005E000000005E00000005010501002C
:1063A90003000300147F147F14147F147F140E2E2E
:1063B9007F3A38242A6B2A12172D775A7422152A04
:1063C90054226859546B50304E4910700000070030
:1063D90000000003000000005D220000003E4100B3
:1063E90000225D000000413E000028383E382808A0
:1063F900281E280808083E080808083E0808C0E0C2
:10640900000000806000000000080808000008087B
:1064190008000040000000006060000020001C002F
:106429000240300806017F7F5D7F7F3E4149413E42
:1064390000437F400000427F4000476371594F424B
:1064490061514946636349697F22414949360812C6
:10645900117E10101C127F10474F4979794F494915
:1064690049307F7F49797936494949300141791F56
:10647900070161310D033F7F497F3F7649494976DD
:106489004F4F49737F464949493E00440000000087
:106499006666000000C4E000000086660000081C73
:1064A90036220000081422001414141414141414AD
:1064B90014140022361C0800221408000303590F83
:1064C9000F06015109065D36556A6D3E4955551E3F
:1064D9007F0909097F7E0909097E7F4949417F7F33
:1064E900494949367F634163633E414141227F41C6
:1064F90041225D7F4141413E7F6B4941083E494907
:1065090049417F0B0109007E090901017F63496B3C
:10651900733E4149493A7F0808087F7F0808087F88
:1065290000417F410000417F4100706040607F3041
:106539004040403F7F282254217F101C23407F4048
:106549004040407F404040407E0F040F7E7F020C58
:10655900027F7F0A14287F7F0608307F7F634163AB
:106569007F3E4141413E7F09090F0F7F0909090615
:106579007F6361335F3E4151617E7F19295F2F7FC0
:10658900091929466F6F497B7B264949493201011F
:106599007F010101017F01017F6040607F3F404031
:1065A900403F0B2C302C0B071860180727083408BC
:1065B900271F7008701F412A142A416314081463A5
:1065C900030A740A030304780403436355432162ED
:1065D90051494563007F414100007F41410002006C
:1065E9001C002001060830400041417F0000414164
:1065F9007F00000201020004020102044040404001
:1066090040404040404000000300000000010200FB
:106619007470543C7C20545454787F28446C7C7F9B
:10662900444444387C6C446C6C38444444287C6C45
:1066390044287F384444447F7C7C541C4C3854544F
:10664900541804047F050000047E0505BC3CA4D849
:10665900EC18A4A4A47C7F08040C7C7F04040478AF
:1066690000007D000000407D4000C0C0FD000040EA
:10667900807D00007F381044007F102828440001E5
:106689007E604000013F40407C0C7C0C7C7C04789F
:1066990004787C08040C7C7C040404787C6C446CCD
:1066A9007C3844444438FC18243C3CFC24242418F9
:1066B9003C3C2418FC18242424FC7C08040C047C8D
:1066C900040404081C5C547470485454542404048D
:1066D9007F644400043F44407C6040607C3C40400F
:1066E900403C00281028000C1060100C2C586058F1
:1066F9002C1C6010601C28103810284428102844CD
:10670900BC30A0D0FC1CA0A0A07C24546C544844EC
:1067190064544C440008007F000000083641000022
:106729007F000000007F0000007F0008004136085C
:0267390000005E
:016D6100052C
:10139200A2AFE433FAC2AF750900750A04E4F50B93
:1013A20090FB0975F000C002121FF4D0027B00EB23
:1013B20075F0D3A4249BF582742635F0F583E4936B
:1013C200FCBCFF02805A53040FBC010B90FB0AE0E5
:1013D200700590FB0AEBF0EB75F0D3A4249BF58229
:1013E200742635F0F583E493FC53040FBC020B9092
:1013F200FB0BE0700590FB0BEBF0EB75F0D3A42434
:101402009BF582742635F0F583E493FC53040FBCFC
:10141200030B90FB0CE0700590FB0CEBF00B808F44
:1014220090FB14EBF090FB0CE0FCEBC39C90FB10E8
:10143200F090FB0BE0FBECC39B90FB0FF090FB0AE0
:10144200E0FCEBC39C90FB0EF090FB0DECF090FBEC
:1014520011E4F090FB12F090FB137401F090FB1575
:10146200E4F0EA24FF92AF22A2AFE433FAC2AFC0A3
:1014720002120700AB82D002BB2F02803EBB3103B7
:1014820002172DBB320302173EBB330302174FBBB9
:101492003403021760BB3C0302163CBB3E03021539
:1014A2004CBB5E028059BB7003021771BB71030211
:1014B2001791BB90030217B20217C590FB12E0FB13
:1014C2007C000BBB00010C90FB14E0FD8D09750A3A
:1014D200008B828C83C0021222B9AB82D00290FBB5
:1014E20012EBF0E075F0D3A4249BFB742635F0FCDC
:1014F2008B828C83A3E493FB90FB15F00217C590BB
:10150200FB12E0FB7C0090FB14E0FD7E002BFBEE67
:101512003CFCEB24FFF582EC34FFF5838D098E0A47
:10152200C0021222B9AB82D00290FB12EBF0E0753E
:10153200F0D3A4249BFB742635F0FC8B828C83A30E
:10154200E493FB90FB15F00217C590FB12E0FB75CC
:10155200F0D3A4249BF582742635F0F583E493C47A
:10156200540FFC53040F7D008C828D83A3750903F5
:10157200E4F50AC002C0031222B9AC82D003D00241
:101582007D000BBB00010D90FB14E0FE7F008E0975
:101592008F0A8B828D83C002C004C006C00712224C
:1015A200B9AB82AD83D007D006D004D002EB75F080
:1015B200D3A4249BF582742635F0F583E493C454B6
:1015C2000FFDB5040280288B0578008D828883A3E5
:1015D2008E098F0AC002C004C006C0071222B9AD2C
:1015E20082A883D007D006D004D0028D0380BEEB40
:1015F20075F0D3A4249BFC742635F0FD8C828D8378
:10160200A3E493FC90FB15E0FDC3EC9D50248B04F6
:101612007D008C828D83A38E098F0AC002C006C012
:10162200071222B9AC82AD83D007D006D0028C0358
:1016320080BD90FB12EBF00217C590FB12E0FB7528
:10164200F0D3A4249BF582742635F0F583E493C489
:10165200540FFC53040F7D008C828D83A3A3750964
:1016620003E4F50AC002C0031222B9AC82D003D04F
:10167200027D000BBB00010D90FB14E0FE7F008E8B
:10168200098F0A8B828D83C002C004C006C0071274
:1016920022B9AB82AD83D007D006D004D002EB755D
:1016A200F0D3A4249BF582742635F0F583E493C429
:1016B200540FFDB5040280288B0578008D82888343
:1016C200A38E098F0AC002C004C006C0071222B945
:1016D200AD82A883D007D006D004D0028D0380BE8D
:1016E200EB75F0D3A4249BFC742635F0FD8C828D1F
:1016F20083A3E493FC90FB15E0FDC3EC9D50248B87
:10170200047D008C828D83A38E098F0AC002C006DD
:10171200C0071222B9AC82AD83D007D006D0028CAA
:101722000380BD90FB12EBF00217C590FB09E0FBB2
