:040000000200633265
:01000B0032C2
:0100130032BA
:01001B0032B2
:0100230032AA
:01002B0032A2
:01003300329A
:01003B003292
:030043000208D2DE
:01004B003282
:01005300327A
:03005B00020A7422
:0300C80002005ED5
:05005E001200CB80FE42
:1000CB00A2AFE433F528C2AF751200751304E4F543
:1000DB001490F00075F0001214BC7523009020559D
:1000EB00E493F5267D00ED75F0D3A42454F58274CA
:1000FB002035F0F583E493FEBEFF02805A53060FC2
:10010B00BE010B90F001E0700590F001EDF0ED7584
:10011B00F0D3A42454F582742035F0F583E493FED8
:10012B0053060FBE020B90F002E0700590F002ED4B
:10013B00F0ED75F0D3A42454F582742035F0F583DB
:10014B00E493FE53060FBE030B90F003E070059093
:10015B00F003EDF00D808F7525018D27752400E5DB
:10016B002824FF92AF120F337582001210997582FB
:10017B00001210A6120CF6AE82A2AFE433F528C221
:10018B00AFBE2F028038BE31030203BEBE32030264
:10019B0003C9BE33030203D4BE34030203DFBE3CE8
:1001AB00030202F8BE3E03020232BE5E02803DBE77
:1001BB0070030203EABE71030203FF020413AE24B1
:1001CB007A008E828A83A3852712751300121C4A2C
:1001DB00E582F52475F0D3A42454FA742035F0FE8F
:1001EB008A828E83A3E493F526020413AA247E004D
:1001FB00AD277B00ED2AFAEB3EFEEA24FFF582EEFB
:10020B0034FFF5838D128B13121C4AE582F524758E
:10021B00F0D3A42454FA742035F0FB8A828B83A389
:10022B00E493F526020413E52475F0D3A42454F5C6
:10023B0082742035F0F583E493C4540FFA53020F04
:10024B007B008A828B83A3751203E4F513121C4A7D
:10025B00AA828A29AB247D008B828D83A3AD277B59
:10026B00008D128B13C003C005121C4AAE82AA83E9
:10027B00D005D003EE75F0D3A42454F58274203549
:10028B00F0F583E493C4540FFAB5290280208E0253
:10029B007C008A828C83A38D128B13C003C0051242
:1002AB001C4AAA82AC83D005D0038A0680C6EE75A1
:1002BB00F0D3A42454FA742035F0FC8A828C83A3E7
:1002CB00E493FAC3952650208E027C008A828C839D
:1002DB00A38D128B13C003C005121C4AAA82AC83D8
:1002EB00D005D0038A0680C68E24020413E524753C
:1002FB00F0D3A42454F582742035F0F583E493C431
:10030B00540FFA53020F7B008A828B83A3A37512BF
:10031B0003E4F513121C4AAA828A2AAB247C008BB5
:10032B00828C83A3AD277B008D128B13C003C0057A
:10033B00121C4AAC82AE83D005D003EC75F0D3A46B
:10034B002454F582742035F0F583E493C4540FFEE6
:10035B00B52A0280208C067A008E828A83A38D12A6
:10036B008B13C003C005121C4AAA82AE83D005D0E2
:10037B00038A0480C6EC75F0D3A42454FA74203598
:10038B00F0FE8A828E83A3E493FAC3952650208CC9
:10039B00027E008A828E83A38D128B13C003C0054D
:1003AB00121C4AAA82AE83D005D0038A0480C68C65
:1003BB0024805590F000E0F524752300804A90F0DE
:1003CB0001E0F524752301803F90F002E0F52475E0
:1003DB002302803490F003E0F5247523038029E594
:1003EB0023045403F5232400F582E434F0F583E071
:1003FB00F5248014740325235403F5232400F5827C
:10040B00E434F0F583E0F524E52824FF92AFA2AFA6
:10041B00E433F528C2AFE524B52503020841758204
:10042B00001210B37582001211F275120075820062
:10043B001211D8E52475F0D3A4FAABF02454F5824D
:10044B00EB3420F583E493FC53040F7D000CBC00CC
:10045B00010DC002C003C004C00574BCC0E0741C15
:10046B00C0E07480C0E0121668E58124FBF581754D
:10047B00120075826A1211D8D003D002EA2454F507
:10048B0082EB3420F583E493C4540FFC53040F7DAB
:10049B00000CBC00010DC002C003C004C00574C336
:1004AB00C0E0741CC0E07480C0E0121668E58124C3
:1004BB00FBF5817582011211F275120075821F1204
:1004CB0011D8D003D002EA2454FCEB3420FD8C82EB
:1004DB008D83A3A3A3A3E493FE8E427543008C826A
:1004EB008D83A3A3A3E493FE8E447545008C828D6C
:1004FB0083A3A3E493FE7F008C828D83A3E493FC00
:10050B007D00C002C003C042C043C044C045C0060A
:10051B00C007C004C00574CBC0E0741CC0E074807D
:10052B00C0E0121668E58124F5F581758200121181
:10053B00F2D003D002EA2454F544EB3420F5457491
:10054B00052544FEE43545FF7C808E308F318C329F
:10055B0074272544FCE43545FD7E808C338D348E29
:10056B003574492544FCE43545FD7E808C368D374A
:10057B008E38746B2544FCE43545FD7E808C398DBB
:10058B003A8E3B748D2544FCE43545FD7E808C3CD6
:10059B008D3D8E3E74AF2544FCE43545FD7E808C4D
:1005AB003F8D408E4174D12544F582E43545F5836A
:1005BB00E493F52B752C0074FA252C500302067A64
:1005CB00C3E52C952B505AE52C75F003A42430F879
:1005DB00860608860708860418188E828F838CF08F
:1005EB00C002C003121C16AC82E583CC25E0CC33D1
:1005FB00CC25E0CC33FE3395E0FFFD7484C39CFC2B
:10060B00E49EFEE49FFFE49DA2E713EF13EE13ECD1
:10061B0013F582E52C04F5121211D8D003D0028009
:10062B0013E52C04F512758200C002C0031211D819
:10063B00D003D002E52C75F003A42430F88604080F
:10064B0086050886061818C002C003C004C005C082
:10065B000674DFC0E0741CC0E07480C0E012166842
:10066B00E58124FAF581D003D002052C0205C27571
:10067B001207758200C002C0031211D8D003D0023A
:10068B00EA2454FCEB3420FD74D22CF582E43DF5C6
:10069B0083E493C313FC74075C75F009A424E2FC98
:1006AB00E4341FFD7E80C002C003C004C005C00639
:1006BB0074DFC0E0741CC0E07480C0E0121668E503
:1006CB008124FAF5817512077582241211D874E210
:1006DB00C0E0741CC0E07480C0E012166815811570
:1006EB00811581D003D002EA2454FCEB3420FD7435
:1006FB00D22CF582E43DF583E4935401C40354F802
:10070B0024D2FCE4341FFD8C2D8D2E752F80852D6E
:10071B0082852E83852FF0C002C003121C16AF8278
:10072B00E583CF25E0CF33CF25E0CF33FC7424C353
:10073B009FF582E49CF583751202E4F513121C807D
:10074B00AC82742C2CF5827512071211D8C02DC0F7
:10075B002EC02F74DFC0E0741CC0E07480C0E012A8
:10076B001668E58124FAF58175120775825412110A
:10077B00D874E2C0E0741CC0E07480C0E01216684C
:10078B00158115811581D003D002EA2454FAEB347C
:10079B0020FB74D22AF582E43BF583E493C4540F17
:1007AB00FA74075A75F00AA42418FAE43420FB8A69
:1007BB002D8B2E752F80852D82852E83852FF01204
:1007CB001C16E582FA2A25E0FA7427C39A245CF5F5
:1007DB00827512071211D8C02DC02EC02F74DFC026
:1007EB00E0741CC0E07480C0E0121668E58124FA46
:1007FB00F5817553027582081211A5E52BC40354BC
:10080B00F8FA2408F582755301C0021211A5D00223
:10081B0074092AF582755302C0021211A5D0027415
:10082B000A2AF5827553011211A575530275823987
:10083B001211A5852425E52824FF92AF90001912EB
:05084B0008A802017F76
:101CBC00444159202575005341414C202575002580
:101CCC003032753A253032752D253032753A253043
:081CDC003275002573007C0045
:0C00BC00754600754700754800754C0043
:100850008582C1E58630E1FB5386FD225380FB2271
:1008600043800422AA82743F5AF5F0744045F0F5A3
:1008700082020850AA82740F5AF5F074B045F0F560
:1008800082020850AA82AB838B04740F5CF5F0746B
:100890001045F0F582C002C003120850D003D00208
:1008A00053020F8A82020850AA82AB838A048B0506
:1008B0001ABAFF011BEC4D60187C007D007EB07FF2
:1008C000040CBC00010D1EBEFF011FEE4F70F28034
:1008D000DB22C022C0E0C0F0C082C083C002C003DF
:1008E000C004C005C006C007C000C001C0D075D09C
:1008F00000A2AFE433F54BC2AF53C0FEE5D130E008
:100900006153D1FE90FADEE0FBFD7C0090FADFE05F
:10091000FEFF7A004CF549EA4DF54A90FADCE0FA20
:10092000A3E0FCFD620390FADEEBF07B00EE6202D6
:10093000EB620490FADFEAF043D60190FAFEE0FAA7
:10094000A3E0FB4A601C7462C0E07409C0E090FA46
:10095000FEE0C0E0A3E0C0E0854982854A83854B84
:10096000F022E5D120E103020A5153D1FD12085CC7
:10097000AA467B000ABA00010BEB3395E0FCFD753B
:100980001209E4F513F514F5158A828B838CF0EDCA
:100990001215F5AA828A4690FAE6E0FB7A0090FAF0
:1009A000E7E0FC7D004AF549ED4BF54AE546703D30
:1009B000AA47FB8A828B83A3751203E4F513121CEA
:1009C0004AAA828A477582001208647A047BF08AF8
:1009D000498B4AE547602FE4FCFD74842AFAE43B26
:1009E000FBE43CFCE43DFD8A498B4A8019AA49ABF3
:1009F0004AE4FCFD74082AFA74013BFBE43CFCE485
:100A00003DFD8A498B4AAA4A90FAE6EAF0AA499043
:100A1000FAE7EAF07582A41208508546821208743B
:100A2000854682120874900000120884900000121B
:100A3000088412086043D6027A007B007C6E7D0039
:100A40000ABA00010B1CBCFF011DEC4D70F243D72C
:100A500002E54B24FF92AFD0D0D001D000D007D018
:100A600006D005D004D003D002D083D082D0F0D0FD
:100A7000E0D02232C0E0C082C083C0D075D008531D
:100A8000C0F7E5D820E003020CED53D8FE43D701B0
:100A9000AA4C054CEA6003020CEDA2AFE433FAC2A3
:100AA000AF53FE03438002E590F4FB530BFC90FA36
:100AB000F6E0FC90FAEEE0FDEB6D420C90FAF6ECFD
:100AC000F090FAEEEBF0EB0303543FF4FC43FD022D
:100AD0005380FDAD907E00EDF4FDEEF4530DFCE48B
:100AE000A2E713CD13CDA2E713CD13CDFEE580F41D
:100AF000FF530FC07800EF420DE8420E8C0F7800D4
:100B0000EF520DE8520E8D0B90FAF7E0FD90FAEFE0
:100B1000E0FEEB6E420D90FAF7EDF090FAEFEBF09D
:100B200053FDFD43FE045390FBAD907E00EDF4FDBC
:100B3000EEF4530DF8E4A2E713CD13CDA2E713CDE5
:100B400013CDFEE580F4FF530FC07800EF420DE8AF
:100B5000420E7F00EC520DEF520E8D0B90FAF8E032
:100B6000FD90FAF0E0FEEB6E420D90FAF8EDF09099
:100B7000FAF0EBF053FEFB43FE085390F7AD907E86
:100B800000EDF4FDEEF4530DF0E4A2E713CD13CD28
:100B9000A2E713CD13CDFEE580F4F85308C0790029
:100BA000E8420DE9420EEC520DEF520E8D0B90FA19
:100BB000F9E0FD90FAF1E0FEEB6E420D90FAF9EDEE
:100BC000F090FAF1EBF053FEF743FE105390EFADC7
:100BD000907E00EDF4FDEEF4530DE0E4A2E713CDBA
:100BE00013CDA2E713CD13CDFEE580F4F85308C072
:100BF0007900E8420DE9420EEC520DEF520E8D0BDA
:100C000090FAFAE0FD90FAF2E0FEEB6E420D90FAF7
:100C1000FAEDF090FAF2EBF053FEEF43FE20539022
:100C2000DFAD907E00EDF4FDEEF4530DC0E4A2E7DD
:100C300013CD13CDA2E713CD13CDFEE580F4F85309
:100C400008C07900E8420DE9420EEC520DEF520E59
:100C50008D0B90FAFBE0FD90FAF3E0FEEB6E420D97
:100C600090FAFBEDF090FAF3EBF053FEDF43FE4019
:100C70005390BFAD907E00EDF4FDEEF4530D80E493
:100C8000A2E713CD13CDA2E713CD13CDFEE580F47B
:100C9000F85308C07900E8420DE9420EED520CEE1F
:100CA000520F8C0B90FAFCE0FC90FAF4E0FDEB6D37
:100CB000420C90FAFCECF090FAF4EBF053FEBF43D8
:100CC000FE8053907FE580F4FC74C05CFB90FAFDDD
:100CD000E0FC90FAF5E0FDEB6D420C90FAFDECF0D3
:100CE00090FAF5EBF053FE7FEA24FF92AFD0D0D01C
:100CF00083D082D0E03290FAFBE0FA90FAF3E0F48D
:100D00005A5420F51290FAFAE0FB90FAF2E0F45B04
:100D10005408F513A2AFE433FCC2AF7D007E00BEE1
:100D200008004003020DE6EE24EEF582E434FAF505
:100D300083E0FFEE24F6F582E434FAF583E0F8521E
:100D400007EF7003020DE0C3E49FF85207BE0506EB
:100D5000BF2003020DE0BE0406BF0803020DE0ED54
:100D600024F6F8E434FAF9ED24F6F582E434FAF5E1
:100D700083E0FBEFF4520388828983EBF090FAFB67
:100D8000E0FA5302DF90FAFBEAF090FAFAE0FA5345
:100D900002F790FAFAEAF0EDC40354F8FAEF75F0AE
:100DA0001DA4FFE5F0FBC403CFC40354076FCF5469
:100DB00007CF6FCF30E20244F85307077B00EF2ADA
:100DC000FAE512600674402AFA8008E5136004749C
:100DD000802AFAEC24FF92AFEA901CE493F5822279
:100DE0000E8E05020D1FEC24FF92AF75820022AA21
:100DF00082758200C002120864D0027B008B047DE1
:100E0000007E007F00C3EC9409ED9400EE9400EFA7
:100E1000648094805042C002C00312085CD0038BEF
:100E200082C003120874900000120884120860D077
:100E300003D0027C847D008A82C002C003C004C04B
:100E400005120850D005D004D003D0021CBCFF010D
:100E50001DEC4D70E20B80A5225390FD9000011215
:100E600008A84390029000011208A812085C75823D
:100E7000A21208507582A11208507582C012085043
:100E800075822412085075828112085075822212D0
:100E9000085075822F1208507582AF120850758263
:100EA000A41208507582A6020850AA83E58290FA1F
:100EB000FEF0A3EAF0227A247BF47C007D848A820F
:100EC0008B838CF074FF1214DBA3AA82AB83DDEE5C
:100ED0007D848A828B838CF0E41214DBA3AA82AB1C
:100EE00083DDEF7D848A828B838CF0E41214DBA394
:100EF000AA82AB83DDEF7D848A828B838CF074FFC2
:100F00001214DBA3AA82AB83DDEE7D848A828B83FD
:100F10008CF074FF1214DBA3AA82AB83DDEE7D8418
:100F20008A828B838CF074FF1214DBA3AA82AB83BA
:100F3000DDEE22C2AF90FB02E0F54D754EA4754F79
:100F40001D75508053BEFBE5BE30E6FB53C680E501
:100F5000C620E6FB43BE0443B809751200751308AA
:100F6000E4F51490FAEE75F0001214BC75120075D9
:100F70001308E4F51490FAF675F0001214BC75F33A
:100F80002875F40143FD1443FE0343FF1853FD3D50
:100F900075EB1075EC2475ED8075CB9A75CDCB751E
:100FA000120075139075140190F94C75F00012142D
:100FB000BC7A4C7BF97C147DFA90FADCEC6AF0ED9B
:100FC0006BA3F07A4C7BF98B0290FADEEAF07A4C54
:100FD0007BF990FADFEAF090FAE074DFF090FAE142
:100FE00074EDF090FAE2E4F090FAE374C8F090FA4D
:100FF000E4E4F090FAE57449F07ADE7BFA8BD57A76
:10100000DE7BFA8AD453D1FE43D60175860075C2C1
:101010003B75C5305380EF120E59758200120DEFEB
:1010200075120075134875140990F00475F00012DC
:1010300014BC7A047BF08B0290FAE6EAF07A047B27
:10104000F090FAE7EAF090FAE874DFF090FAE974C9
:10105000C1F090FAEAE4F090FAEB7484F090FAECC4
:10106000740FF090FAED7448F07AE67BFA8BD37A3D
:10107000E67BFA8AD253D1FD12085C758200120811
:1010800064758200120874900000120884120860CF
:1010900043D60243D702D2AF22E582FA600453A0BE
:1010A000F72243A00822E582FA600453A0EF22430E
:1010B000A01022AA82A2AFE433FBC2AF8A1275133A
:1010C0004875140990F00475F000C0031214BCD0E8
:1010D00003EB24FF92AF22AA82A2AFE433FBC2AF9C
:1010E000E551C423541FFC8C127513007514007550
:1010F0001500900108E4F5F0C002C003121511AC10
:1011000082AD83FFD003D002EC2404FCED34F0FD6B
:10111000EA2CFAE43DFE7C0074075551F5F005F029
:101120007401800225E0D5F0FBFDE55230E0198A1C
:10113000828E838CF0121C2EFFED42078A828E83F2
:101140008CF0EF1214DB80198A828E838CF0121CD3
:101150002EFFEDF4F852078A828E838CF0EF121482
:10116000DB74842AFAE43EFEE55230E1198A828E6D
:10117000838CF0121C2EFFED42078A828E838CF046
:10118000EF1214DB80198A828E838CF0121C2EFFE2
:10119000EDF4FD52078A828E838CF0EF1214DBEBA4
:1011A00024FF92AF22AA827B008B047D007E007F09
:1011B00000C3EC9484ED9400EE9400EF648094807E
:1011C00050158A518553528B82C002C0031210D72A
:1011D000D003D0020B80D222AA82A2AFE433FBC29A
:1011E000AF90FB00E512F090FB01EAF0EB24FF92D8
:1011F000AF22AA82A2AFE433FBC2AFBA00028005DD
:10120000BA0124801190FB02E0F54D754EA4754F94
:101210001D755080802090FB03E0F54D754E527592
:101220004F5D755080800F90FB02E0F54D754EA428
:10123000754F1D755080EB24FF92AF22858254A21A
:10124000AFE433F559C2AF90FB00E0FC8C1275138C
:1012500000751400751500900108E4F5F0C0041243
:101260001511AD82AE83F8D004ED2404FDEE34F008
:10127000FE90FB01E0FF2DFDE43EFE8D558E567580
:1012800057007420B5540BE54D0490FB012FF0027C
:101290001432740DB5540890FB01E4F0021432745A
:1012A0000AB5540E90FB01E4F090FB00EC04F00250
:1012B0001432C374A08554F063F08095F0400302AB
:1012C0001432C3E554648094FF4003021432C00416
:1012D000755800854D5C755D00A95CE55DFB339537
:1012E000E0FAFD7484C399F9E49BFBE49AFAE49D67
:1012F000FD7E0078007C00C3EF99EE9BE89AEC64D9
:10130000808DF063F08095F0D004400E90FB01E4F6
:10131000F090FB00EC04F075580190FB00E0FA241B
:10132000F8500890FB00E4F0755801E558603790DC
:10133000FB00E0FA8A127513007514007515009011
:101340000108E4F5F0121511AA82AB83FDEA24042A
:10135000FAEB34F0FB90FB01E0FC2AFAE43BFB8A59
:10136000558B56755700E554FA3395E0FBEA24DFB8
:10137000F582EB34FFF583E54D75F002A4F5128597
:10138000F0131214F485825A85835B7C00C3EC95BC
:101390004D5036EC2555FDE43556FEAF578C00799F
:1013A00000E8255AF8E9355BF9E8254EF8E9354FAC
:1013B000F9AA50888289838AF0121C2EF88D828EB9
:1013C000838FF01214DB0C80C47A00C3EA954D5071
:1013D000528A037C008B05ECFE3395E0FFF87484A1
:1013E0002DFDE43EFEE43FE438ED2555FDEE355697
:1013F000FEAF57EB255AFBEC355BFCE55C2BFBE5C0
:101400005D3CFCEB254EFBEC354FFCA8508B828CF1
:101410008388F0121C2EFB8D828E838FF01214DBDA
:101420000A80A8E54D04FA90FB01E0FB90FB01EA7D
:091430002BF0E55924FF92AF22D4
:101CE4000000906F706D6E6B796788633E2C3C20AA
:101CF4000071757769747265000068616A6664735F
:101D04000000760062787A800000820008818400F6
:101D140000002F005EA0000000000A006C0000001C
:101D24000000002B3D2E2122245F0039003F0020BB
:101D3400003126322D23403300003A343B5C3635E3
:101D4400000028002938370000000000000030009F
:101D54000000000000000000000000002700000058
:101D64000000004F504D4E4B5947004300000020E7
:101D74000051555749545245000048414A4644537E
:101D84000000560042585A00000000000000000005
:101D94000000000000000000000000004C000000F3
:0460FF00000000009D
:101DA40000B80000B80018001818001850F850F8CF
:101DB40050F840D81070F870A870A8C82098402037
:101DC4004040204000180000180070708800F88817
:101DD40088707088F8004070406030602070202067
:101DE400702080400000C00020202020202000809F
:101DF40000008000A07028C02018708870F888F84F
:101E040088F88090F880D8A8D8E8A8B8D8A87088AE
:101E1400A8F81820D83820F8B8A848B8A8E870A8B6
:101E240048F8A8E8A87828C8281850A850F8A8F8AE
:101E340050A870B8A8F8005000005000805000006E
:101E4400D00070D80020500050505050505000D84E
:101E54007000502010E81008A838F898F8F8A8B8CE
:101E6400F028F0F828F8F8A870F8A8F8708850F866
:101E740088D8F88870F888F8708850F8A8D8F828B6
:101E840000F82828708840F8A8F8F820F8F820F816
:101E940000F80000F800408078C080F8F810C8F816
:101EA4006098F88080788080F028F0F810F8F0507E
:101EB40078F820F8708870F888F8F02810F8283836
:101EC400704830F888F8F008D0F868B850A850B8CE
:101ED400A8E808F80808F808788078F880F8C0308E
:101EE400C038C03878A078F840F8A850A8D820D8CE
:101EF40028D02818E01820D820C8A89800F888000E
:101F0400F8882870A01820C088F80088F8001808FD
:101F1400181008108080808080800008100018004D
:101F2400F028F0F828F8F8A870F8A8F8708850F8A5
:101F340088D8F88870F888F8708850F8A8D8F828F5
:101F440000F82828708840F8A8F8F820F8F820F855
:101F540000F80000F800408078C080F8F810C8F855
:101F64006098F88080788080F028F0F810F8F050BD
:101F740078F820F8708870F888F8F02810F8283875
:101F8400704830F888F8F008D0F868B850A850B80D
:101F9400A8E808F80808F808788078F880F8C030CD
:101FA400C038C03878A078F840F8A850A8D820D80D
:101FB40028D02818E01820D820C8A89800708820B5
:0E1FC400D80000F80000F80088700000D82057
:016103000398
:101FD200656E676C697368006765726D616E00009B
:101FE2006C6563747572650000706F6469756D006D
:101FF2000000636F6E7465737400006C746E6774B6
:10200200616C6B00776F726B73686F70006F7468CE
:10201200657200000000636F6D6D756E6974790002
:1020220063756C747572650000006861636B696E3C
:10203200670000006D616B696E67000000007363EA
:1020420069656E6365000000736F6369657479008A
:102052000000000B1E0C1E32374333204B65796E95
:102062006F7465000000000000000000000000A185
:10207200000000000000000100576520636F6D65DD
:1020820020696E2050656163650000000000000059
:1020920000A100000000000000010000000000009C
:1020A200000000000000000000000000000000002E
:1020B200000000A10000000000000001000000007C
:1020C200000000000000000000000000000000000E
:1020D2000000000000A1000000000000000100005C
:1020E20000000000000000000000000000000000EE
:1020F20000000000000000A100000000000000013C
:1021020000000000000000000000000000000000CD
:10211200000000000000000000A10000000000001C
:102122000001000150000C2D0D2D436F7079726972
:1021320067687420456E666F7263656D656E7420A4
:1021420056732E0000000000000000004672656514
:10215200646F6D73000000000000000000000000CA
:1021620000000000A1000000000000000100414347
:1021720054412C2049505245443320616E64206FF3
:1021820074686572207570636F6D696E6700000018
:10219200626174746C6573206F6620746865206375
:1021A20072757361646520616761696E73740000A2
:1021B200000073686172696E670000000000000031
:1021C20000000000000000000000A100000000006C
:1021D200000001004A6572656D6965205A696D6D7E
:1021E20065726D616E6E000000000000A1000000CB
:1021F2000000000001000250000E000F00566F6E3A
:10220200205A656E73757273756C6120C3BC62650A
:10221200722043656E73696C69610000000000689A
:10222200696E207A756D204B696E6465726E657495
:1022320000000000000000A10000000000000001FA
:10224200004A616872657372C3BC636B626C6963D6
:102252006B2072756E6420756D20496E7465726EA6
:102262006574005370657272656E2C2053656E64DE
:10227200657A65697462656772656E7A756E67659F
:102282006E00000000696D20496E7465726E65749F
:1022920020756E64207665726D65696E746C696313
:1022A20068656E000000004A7567656E6473636856
:1022B20075747A207C20416C76617220432E482E00
:1022C200467265756465000000025100100011003D
:1022D20057686973746C65626C6F77696E6700002A
:1022E2000000000000000000A1000000000000004B
:1022F20001004C6963687420696E732044756E6BCB
:10230200656C2100000000000000A1000000000038
:1023120000000100000000000000000000000000BA
:10232200000000000000000000000000A10000000A
:10233200000000000100000000000000000000009A
:102342000000000000000000000000000000A100EA
:10235200000000000000010000000000000000007A
:10236200000000000000000000000000000000006B
:10237200A1000000000000000100000000000000B9
:10238200000000000000000000000000000000004B
:102392000000A10000000000000001000151001433
:1023A2001E151E4461746120526574656E74696FF6
:1023B2006E20696E207468652045552066697665D1
:1023C20000000000007965617273206166746572B5
:1023D20020746865204469726563746976650000DB
:1023E20000000000000000576879207468652074BE
:1023F200696D65206973206E6F7720746F20676541
:1024020074000000000000000061637469766500DA
:1024120000000000000000000000000000000000BA
:1024220000A10000000000000001004B6174617215
:102432007A796E6120537A796D69656C6577696323
:102442007A2C205061747269636B000000427265DD
:102452007965722C2052616C662042656E647261ED
:102462007468000000A100000000000000010002EA
:102472005000000F010F50656E74616E6577732016
:1024820047616D652053686F770000000000A1006E
:102492000000000000000100596F7572206F70701B
:1024A2006F6E656E74732077696C6C206265207242
:1024B2006964646C65640000000061732077656C78
:1024C2006C0000000000000000000000000000009E
:1024D2000000A10000000000000001000000000058
:1024E20000000000000000000000000000000000EA
:1024F20000000000A1000000000000000100000038
:1025020000000000000000000000000000000000C9
:10251200000000000000A100000000000000010017
:10252200416C69656E382C20417374726F00000033
:102532000000000000000000A100000000000000F8
:102542000100010A100C2D0D2D436F646520646596
:102552006F62667573636174696F6E2062790000E1
:1025620000A10000000000000001006F7074696D9E
:10257200697A6174696F6E0000000000000000005B
:10258200000000A1000000000000000100000000A7
:102592000000000000000000000000000000000039
:1025A2000000000000A10000000000000001000087
:1025B2000000000000000000000000000000000019
:1025C20000000000000000A1000000000000000167
:1025D20000000000000000000000000000000000F9
:1025E200000000000000000000A100000000000048
:1025F2000001004272616E6B6F20537061736F6AEB
:102602006576696300000000000000A10000000080
:1026120000000001000220100E000F00436F6E74D4
:10262200656D706F726172792050726F66696C6944
:102632006E67206F662057656200000000005573C8
:10264200657273000000000000000000000000003E
:10265200000000000000A1000000000000000100D6
:102662004F6E205573696E6720416E6F6E796D698A
:102672007A65727320616E64205374696C6C000019
:102682000000476574204675636B656400000000B6
:1026920000000000000000000000A1000000000097
:1026A2000000010000000000000000000000000027
:1026B200000000000000000000000000A100000077
:1026C200000000000100446F6D696E696B2048656F
:1026D20072726D616E6E2C206C657869000000006C
:1026E2000000000000000000022010100011004550
:1026F200696E732C207A7765692C20647265692073
:102702002D20616C6C652073696E6400000000000E
:1027120000646162656900000000000000000000C2
:10272200000000000000000000A100000000000006
:10273200000100566F6E2064657220566F6C6B73D9
:102742007AC3A4686C756E67207A756D2042756EC7
:102752006465732D006D656C646572656769737479
:1027620065720000000000000000000000A10000EF
:102772000000000000010000000000000000000056
:10278200000000000000000000000000000000A1A6
:102792000000000000000001004F6C6976657220A5
:1027A20022556E69636F726E22204B6E61707000EB
:1027B2000000000000000000000000025110110F94
:1027C200120F46726965646520736569206D6974CC
:1027D20020457572656E20446174656E00000000CC
:1027E2000000000045696E20646174656E73636861
:1027F20075747A72656368746C6963686572204186
:1028020075732D000000666C756720696E2065691E
:102812006E206B697263686C69636865732000007F
:102822000000000000000000506172616C6C656C79
:10283200756E6976657273756D202D00000000005B
:10284200A1000000000000000100000000000000E4
:102852000000000000000000000000000000000076
:102862000000A10000000000000001004A6F636840
:10287200696D2053656C7A657200000000000000EB
:1028820000000000A1000000000000000100015152
:1028920010121E131E6861636B696E6720736D618F
:1028A20072742070686F6E657300000000A10000F2
:1028B20000000000000100657870616E64696E6757
:1028C200207468652061747461636B20737572662D
:1028D20061636520616E6400007468656E20736FC9
:1028E2006D65000000000000000000000000000014
:1028F20000A1000000000000000100000000000034
:1029020000000000000000000000000000000000C5
:10291200000000A100000000000000010000000013
:1029220000000000000000000000000000000000A5
:102932000000000000A100000000000000010000F3
:102942000000000000000000000000000000000085
:1029520000000000000000A10000000000000001D3
:1029620000012010141E151E4465736B746F7020D5
:102972006F6E20746865204C696E75782E2E2E005D
:102982000000000000000000000028616E64204288
:1029920053442C206F6620636F75727365290000A3
:1029A2000000A1000000000000000100796F7527FF
:1029B200726520646F696E6720697420636F6E664A
:1029C200757365643F2077656972643F00007374B4
:1029D20072616E67653F2077726F6E673F0000001D
:1029E200000000000000A100000000000000010043
:1029F20000000000000000000000000000000000D5
:102A02000000000000000000A10000000000000023
:102A120001000000000000000000000000000000B3
:102A220000000000000000000000A1000000000003
:102A320000000100020010152D162D526563656E0F
:102A42007420616476616E63657320696E204950FB
:102A520076360000000000000000000000696E737E
:102A62006563757269746965730000000000000097
:102A72000000000000A100000000000000010000B2
:102A82000000000000000000000000000000000044
:102A920000000000000000A1000000000000000192
:102AA2000000000000000000000000000000000024
:102AB200000000000000000000A100000000000073
:102AC2000001000000000000000000000000000003
:102AD2000000000000000000000000A10000000053
:102AE200000000010076616E486175736572000036
:102AF20000000000000000000000000000A1000033
:102B020000000000000100022010170000005370B6
:102B1200696E6E696E672074686520656C656374A2
:102B2200726F6E6963000000000000000000000088
:102B3200576865656C00000000000000000000009E
:102B42000000000000000000A100000000000000E2
:102B520001005374696C6C20746865206269637942
:102B6200636C657320666F722074686520323174FD
:102B72006800000063656E747572790000000000E1
:102B8200000000000000000000000000A1000000A2
:102B92000000000001000000000000000000000032
:102BA2000000000000000000000000000000A10082
:102BB2000000000000000100000000000000000012
:102BC2000000000000000000000000000000000003
:102BD200A10000000000000001000231200C2D0DB8
:102BE2002D46726F6D20726F626F7420746F207247
:102BF2006F626F740000000000A10000000000007E
:102C0200000100526573746F72696E6720637265AA
:102C12006174697669747920696E207363686F6F75
:102C22006C00000000707570696C73207573696EBA
:102C32006720726F626F74696373000000A1000005
:102C42000000000000010000000000000000000081
:102C5200000000000000000000000000000000A1D1
:102C62000000000000000001000000000000000061
:102C72000000000000000000000000000000000052
:102C820000A10000000000000001000000000000A0
:102C92000000000000000000000000000000000032
:102CA200000000A10000000000000001000150200F
:102CB2000E000F004A5441472F53657269616C2F11
:102CC200464C4153482F50434220456D626564642F
:102CD2006564000000005265766572736520456E7A
:102CE20067696E656572696E6720546F6F6C7320D9
:102CF200616E640000000000546563686E6971755E
:102D020065730000000000000000000000000000E9
:102D1200A1000000000000000100612064756D70D8
:102D2200206F662073696D706C6520746F6F6C73B1
:102D320020666F7220656D2D00000000626564647C
:102D4200656420616E616C79736973206174206DB2
:102D5200616E79206C617965727300000000000079
:102D62000000000000000000000000000000000061
:102D7200000000000000A1000000000000000100AF
:102D8200032020100011004175746F6D6174696336
:102D9200204964656E74696669636174696F6E2047
:102DA2006F660000000000000043727970746F6764
:102DB200726170686963205072696D6974697665C1
:102DC2007320696E00000000000000536F66747784
:102DD20061726500000000000000000000000000B9
:102DE200000000A10000000000000001000000003F
:102DF20000000000000000000000000000000000D1
:102E02000000000000A1000000000000000100001E
:102E120000000000000000000000000000000000B0
:102E220000000000000000A10000000000000001FE
:102E32000046656C69782047726F6562657274003E
:102E4200000000000000000000A1000000000000DF
:102E5200000100032020110F120F55534220616E12
:102E620064206C696275736220666F722066756E8B
:102E720020616E64000000000000000070726F6646
:102E82006974000000000000000000000000000063
:102E920000000000A10000000000000001005553E6
:102EA200423A20536F206D756368206D6F72652002
:102EB2007468616E20612073657269616C00000044
:102EC200706F7274207769746820706F7765720012
:102ED2000000000000000000A1000000000000004F
:102EE20001000000000000000000000000000000DF
:102EF20000000000000000000000A100000000002F
:102F02000000010050657465722053747567650096
:102F1200000000000000000000000000A10000000E
:102F2200000000000100023020152D162D436F67AE
:102F32006E69746976652050737963686F6C6F6728
:102F42007920666F72000000000000000000004857
:102F520061636B65727300000000000000000000F6
:102F620000000000000000A10000000000000001BD
:102F720000427567732C206578706C6F6974732CCE
:102F820020616E64206F63636173696F6E616C00B0
:102F92000000007061746368657300000000000047
:102FA2000000000000000000000000A1000000007E
:102FB200000000010000000000000000000000000E
:102FC20000000000000000000000000000A100005E
:102FD20000000000000100536169000000000000D1
:102FE200000000000000000000000000000000A13E
:102FF2000000000000000001000240010B1E0C1E38
:1030020046696C65202D3E205072696E74202D3EFB
:1030120020456C656374726F6E6963730000000013
:10302200000041206E6577206369726375697420C0
:10303200626F617264207072696E74657220776962
:103042006C6C00006C6962657261746520796F75E1
:103052002066726F6D207468652041726475696EB6
:103062006F2D00000000496E647573747269616CA3
:1030720020436F6D706C6578000000000000A100B5
:10308200000000000000010000000000000000003D
:10309200000000000000000000000000000000002E
:1030A200A10000000000000001004A65666620479A
:1030B2006F7567680000000000000000000000005B
:1030C2000000A10000000000000001000130011218
:1030D2001E131E54686520436F6E63657274000090
:1030E2000000000000000000000000A1000000003D
:1030F20000000001006120646973636F6E63657292
:1031020074696E67206D6F6D656E7420666F7220D4
:103112006672656500000063756C74757265000007
:10312200000000000000000000000000000000A1FC
:10313200000000000000000100000000000000008C
:10314200000000000000000000000000000000007D
:1031520000A10000000000000001000000000000CB
:10316200000000000000000000000000000000005D
:10317200000000A1000000000000000100436F7287
:103182006579204365726F7673656B2C204A756C86
:1031920069656E205175656E74696E0000000001EC
:1031A2001A01141E151E486967682D7370656564DF
:1031B20020686967682D73656375726974790000A8
:1031C200000000000000000063727970746F677283
:1031D200617068793A000000000000000000000001
:1031E200A1000000000000000100656E63727970AA
:1031F20074696E6720616E642061757468656E74AF
:1032020069636174696E670000000000746865207C
:1032120077686F6C6520496E7465726E6574000024
:1032220000000000A10000000000000001000000FA
:10323200000000000000000000000000000000008C
:10324200000000000000A1000000000000000100DA
:1032520044616E69656C204A2E204265726E7374F9
:1032620065696E0000000000A1000000000000007F
:1032720001000220011700000054686520696D708A
:103282006F7274616E6365206F6620726573697315
:1032920074696E6700000000000000457863657382
:1032A2007369766520476F7665726E6D656E740020
:1032B200000000A100000000000000010053757230
:1032C2007665696C6C616E63650000000000000049
:1032D2000000000000A10000000000000001004A00
:1032E2006F696E206D6520696E206578706F7369F5
:1032F2006E6720616E64206368616C2D00000000BF
:10330200006C656E67696E672074686520636F6E16
:103312007374616E742076696F6C6174696F6E7319
:103322000000006F66206F757220726967687420F2
:10333200746F20707269766163790000000000008A
:103342000000000000035001000F010F5374616E72
:1033520069736C6177204C656D000000000000000D
:1033620000000000A1000000000000000100446510
:103372007220656E7474C3A4757363687465205794
:10338200656C74766572626573736572657200004E
:1033920045696E20617564696F76697375656C6CD9
:1033A2006573204C6976652D46656174757265009A
:1033B2000000412E4B726F6C696B6F77736B692CD7
:1033C20020432E4B75727A2C000000000000000092
:1033D20000000000492E4B7761736E696577736B4D
:1033E200692C204A2E2D4D2E204C6F6562656C0093
:1033F2000000000000004B2E4B6974746C65722053
:10340200756E64204D2E20526963687465720000E7
:1034120000000000000000000211110B1E0C1E44EF
:1034220069737472696275746564204650474120FD
:103432004E756D6265720000000000000000000021
:10344200004372756E6368696E6720466F7220541E
:103452006865204D61737365730000000000000011
:10346200000000486F77207765206F627461696E93
:10347200656420746865206571756976616C656E36
:103482007400000000706F776572206F6620612003
:103492004465657020437261636B20666F722061C0
:1034A200000000000000006669737466756C206F8E
:1034B2006620646F6C6C617273202D20616E6420D3
:1034C200686F772E2E2E00000046656C69782044C6
:1034D2006F6D6B650000000000000000000000003E
:1034E20000A10000000000000001000221110D00F7
:1034F2000D1E4C79696E6720546F20546865204E0A
:1035020065696768626F75727300000000000000F1
:1035120000000000466965736520456666656B7448
:1035220065206D697420747261636B65722D6C65C0
:10353200737300000000426974546F7272656E7496
:103542000000000000000000000000000000A100D8
:103552000000000000000100000000000000000068
:103562000000000000000000000000000000000059
:10357200A1000000000000000100000000000000A7
:103582000000000000000000000000000000000039
:103592000000A100000000000000010041737472ED
:1035A2006F000000000000000000000000000000AA
:1035B20000000000A1000000000000000100012145
:1035C200110D2D0E0F4E6F64652E6A7320617320EC
:1035D20061206E6574776F726B696E6720746F6FAE
:1035E2006C0000000000000000000000000000006D
:1035F200000000000000000000000000000000A128
:1036020000000000000000010000000000000000B7
:1036120000000000000000000000000000000000A8
:1036220000A10000000000000001000000000000F6
:103632000000000000000000000000000000000088
:10364200000000A1000000000000000100000000D6
:103652000000000000000000000000000000000068
:103662000000000000A10000000000000001004670
:10367200656C69782047656973656E646F6572660B
:1036820065720000000000A10000000000000001BF
:10369200000120110E1E0F004C6F67696B73636887
:1036A200616C74756E67656E206F686E6520456C1F
:1036B200656B74726F6E696B00006C6F6769736320
:1036C200686520536368616C74756E67656E206D02
:1036D200697400000000000000000000506E657573
:1036E2006D6174696B0000000000000000000000C2
:1036F20000000000A1000000000000000100000026
:1037020000000000000000000000000000000000B7
:10371200000000000000A100000000000000010005
:103722000000000000000000000000000000000097
:103732000000000000000000A100000000000000E6
:103742000100416570657800000000000000000083
:1037520000000000000000000000A10000000000C6
:10376200000001000131111000110049732074683A
:10377200652053534C6976657273652061207361CD
:10378200666520706C6163653F00000000416E2039
:10379200757064617465206F6E20454646277320FC
:1037A20053534C0000000000000000000000004FD6
:1037B200627365727661746F72792070726F6A6576
:1037C20063740000000000A100000000000000017E
:1037D20000000000000000000000000000000000E7
:1037E200000000000000000000A100000000000036
:1037F20000010000000000000000000000000000C6
:103802000000000000000000000000A10000000015
:1038120000000001000000000000000000000000A5
:1038220000000000000000000000000000A10000F5
:1038320000000000000100010011110F120F446589
:1038420066656E7365206973206E6F7420646561AE
:10385200640000000000A100000000000000010060
:103862005768792077652077696C6C206861766586
:10387200206D6F72652073656375726500000000CC
:103882000000636F6D707574657273202D20746F04
:103892006D6F72726F7700000000A10000000000DF
:1038A2000000010000000000000000000000000015
:1038B200000000000000000000000000A100000065
:1038C20000000000010000000000000000000000F5
:1038D2000000000000000000000000000000A10045
:1038E2000000000000000100416E647265617320F7
:1038F200426F676B00000000000000000000000043
:10390200A1000000000000000100012011121E139E
:103912001E4C6974657261726973636865722041D5
:1039220062656E640000000000A10000000000005B
:103932000001000000000000000000000000000084
:103942000000000000000000000000A100000000D4
:103952000000000100000000000000000000000064
:1039620000000000000000000000000000A10000B4
:103972000000000000010000000000000000000044
:10398200000000000000000000000000000000A194
:103992000000000000000001000000000000000024
:1039A2000000000000000000000000000000000015
:1039B20000A1000000000000000100416E64726579
:1039C2006173204C65686E65722C206C61727300A5
:1039D200000000A10000000000000001000103112E
:1039E200152D162D416476656E74757265732069A6
:1039F2006E204D617070696E67000000A1000000CA
:103A020000000000010041666768616E69737461BD
:103A12006E20456C656374696F6E73000000A100CF
:103A220000000000000001005468652073746F728A
:103A320079206F6620332055736861686964692054
:103A42006D617070696E67000000616E642072655E
:103A5200706F7274696E672070726F6A65637473D7
:103A62002E00000000000000000000000000000026
:103A72000000000000000000000000000000000044
:103A820000000000A1000000000000000100000092
:103A92000000000000000000000000000000000024
:103AA200000000000000A100000000000000010072
:103AB2000250111700000053656375726520636F31
:103AC2006D6D756E69636174696F6E732062656C8A
:103AD2006F772074686500000068656172696E67BF
:103AE200207468726573686F6C64000000000000E7
:103AF20000A1000000000000000100496D70726F1B
:103B020076656420617070726F61636865732066A8
:103B12006F722061756469746976650000737465FB
:103B220067616E6F67726170687900000000000063
:103B32000000000000A100000000000000010000E1
:103B42000000000000000000000000000000000073
:103B520000000000000000A10000000000000001C1
:103B6200004D6172637573204E75747A696E676574
:103B7200722C205261696E657220506F6973656C98
:103B82000000000220210B1E0C1E4E65747A6D652A
:103B92006469656E72656368742C204C6F62627929
:103BA20069736D757320756E640000004B6F7272DD
:103BB200757074696F6E0000000000000000000064
:103BC20000000000A1000000000000000100576991
:103BD20065207769726B7420646965204C6F62623C
:103BE2007920766F6E0000000000000000000000E7
:103BF2004D656469656E6B6F6E7A65726E656E3F58
:103C02000000000000000000A10000000000000011
:103C120001000000000000000000000000000000A1
:103C220000000000000000000000A10000000000F1
:103C32000000010054686F6D617320426172746804
:103C4200000000000000000000000000A1000000D1
:103C52000000000001000259210C2D0D1E4C696765
:103C620068746E696E672054616C6B73202D2044FA
:103C72006179203200000000000000000000004BCB
:103C82006F7272757074696F6E0000000000000040
:103C920000000000000000A1000000000000000180
:103CA2000034206D696E75746573206F66206661DD
:103CB2006D6500000000000000A10000000000008F
:103CC20000010000000000000000000000000000F1
:103CD2000000000000000000000000A10000000041
:103CE20000000001000000000000000000000000D1
:103CF20000000000000000000000000000A1000021
:103D0200000000000001005376656E204775636B6A
:103D1200657300000000000000000000000000A128
:103D22000000000000000001000106210E000F004B
:103D32004920436F6E74726F6C20596F7572204305
:103D42006F64650000000000A10000000000000098
:103D5200010041747461636B20566563746F727302
:103D6200205468726F7567682074686520457965AC
:103D7200730000006F6620536F6674776172652D61
:103D82006261736564204661756C74000000000016
:103D920000000000000049736F6C6174696F6E006F
:103DA2000000000000000000000000000000A10070
:103DB2000000000000000100000000000000000000
:103DC20000000000000000000000000000000000F1
:103DD200A10000000000000001004D6174686961EB
:103DE200732050617965720000000000000000003D
:103DF2000000A100000000000000010001202110CD
:103E0200001100412073686F727420706F6C6974C6
:103E12006963616C20686973746F7279206F6600E0
:103E2200000000000061636F7573746963730000C2
:103E320000000000000000000000000000A10000DF
:103E420000000000000100466F722077686F6D2C41
:103E520020616E6420746F20646F20776861742C17
:103E6200207468650000000000736369656E636515
:103E7200206F6620736F756E6420776173206465AE
:103E820076656C6F70656400000000696E2074686E
:103E92006520313774682063656E7475727900002D
:103EA200000000A10000000000000001004F6F6E42
:103EB20061204C6567616E6F7669630000000000E7
:103EC2000000000000A1000000000000000100024C
:103ED2005021110F120F4461746120416E616C799F
:103EE20073697320696E205465726162697400009F
:103EF200000000000000000045746865726E657481
:103F020020547261666669630000000000000000D0
:103F1200A1000000000000000100536F6C7574697D
:103F22006F6E7320666F72206D6F6E69746F726947
:103F32006E6720616E640000000000006C617766AD
:103F4200756C20696E74657263657074696F6E203A
:103F520077697468696E2061206C6F7400006F6607
:103F6200206269747300000000000000000000007D
:103F7200000000000000A10000000000000001009D
:103F82004C617273205765696C6572000000000015
:103F92000000000000000000A1000000000000007E
:103FA2000100022021121E131E546563686E696BA4
:103FB200656E207A7572204964656E746966697AE5
:103FC200696572756E670000000000766F6E204EA4
:103FD20065747A7765726B2D50726F746F6B6F6C4C
:103FE2006C656E0000000000000000000000000090
:103FF20000000000000000000000000000000000BF
:104002000000000000A1000000000000000100000C
:10401200000000000000000000000000000000009E
:1040220000000000000000A10000000000000001EC
:10403200000000000000000000000000000000007E
:10404200000000000000000000A1000000000000CD
:10405200000100466C6F7269616E204164616D738C
:104062006B79000000000000000000A100000000C9
:104072000000000100024121152D162D436F6E73C1
:104082006F6C65204861636B696E67203230313036
:1040920000000000A1000000000000000100506CC0
:1040A200617973746174696F6E20332C2058626F6A
:1040B20078203336302C205769692C20000000000C
:1040C20044536900000000000000000000000000EE
:1040D2000000000000000000A1000000000000003D
:1040E20001000000000000000000000000000000CD
:1040F20000000000000000000000A100000000001D
:1041020000000100000000000000000000000000AC
:10411200000000000000000000000000A1000000FC
:1041220000000000010062757368696E672C206DE3
:10413200617263616E2C207376656E000000A100CF
:1041420000000000000001000120020B1E0D1E43B2
:1041520043432D4A6168726573727565636B626C65
:1041620069636B2032303130000000000000000033
:10417200000000000000000000000000000000003D
:10418200000000000000000000A10000000000008C
:10419200000100000000000000000000000000001C
:1041A2000000000000000000000000A1000000006C
:1041B20000000001000000000000000000000000FC
:1041C20000000000000000000000000000A100004C
:1041D20000000000000100412E426F676B2C20415D
:1041E2002E4D75656C6C65722D4D616775686E2C10
:1041F200000000000000000000432E4B75727A2C74
:1042020020462E52696567657200000000000000BA
:1042120000A1000000000000000100010302110FD4
:10422200130F4E65747A6E65757472616C69746190
:10423200657420756E6420516F53202D00000000BC
:104242000000000065696E205769646572737072C0
:104252007563683F0000000000000000A10000003C
:1042620000000000010046616B74656E2061756696
:104272002064656E20546973636800000000A10029
:10428200000000000000010000000000000000002B
:10429200000000000000000000000000000000001C
:1042A200A10000000000000001000000000000006A
:1042B20000000000000000000000000000000000FC
:1042C2000000A100000000000000010041616E64D6
:1042D2007265617320426F676B2C204D61726B7542
:1042E20073204265636B656461686C000000025371
:1042F20002141E151E4368697020616E64205049C5
:104302004E2069732042726F6B656E0000000000E0
:104312000000000000000056756C6E6572616269F3
:104322006C697469657320696E20746865000000A9
:10433200000000000000000000454D562050726F42
:10434200746F636F6C00000000000000000000004A
:1043520000A10000000000000001000000000000B9
:10436200000000000000000000000000000000004B
:10437200000000A100000000000000010000000099
:10438200000000000000000000000000000000002B
:104392000000000000A10000000000000001005326
:1043A200746576656E204A2E204D7572646F63685F
:1043B20000000000000000A1000000000000000159
:1043C20000012002152D162D466E6F72642D4A6172
:1043D20068726573727565636B626C69636B2032B8
:1043E20030313000000000000000766F6E20417412
:1043F2006F6D61757373746965672062697300001C
:104402000000A10000000000000001005A77616E68
:104412006773696E746567726174696F6E0000001C
:1044220000000000A10000000000000001000000E8
:10443200000000000000000000000000000000007A
:10444200000000000000A1000000000000000100C8
:10445200000000000000000000000000000000005A
:104462000000000000000000A100000000000000A9
:10447200010046656C697820766F6E204C65697420
:104482006E65722C204672616E6B2052696567659B
:1044920072000000015102170001004861636B6560
:1044A20072204A656F70617264790000000000003A
:1044B200000000A10000000000000001004E756D28
:1044C200626572206775657373696E6720666F72C5
:1044D200206765656B7300000000000000000000AB
:1044E20000000000000000000000000000000000CA
:1044F20000000000000000A1000000000000000118
:1045020000000000000000000000000000000000A9
:10451200000000000000000000A1000000000000F8
:104522000001000000000000000000000000000088
:104532000000000000000000000000A100000000D8
:1045420000000001005261792C2053746566616E8F
:10455200202753656327205A65686C00000000001D
:10456200000000000000000105120B1E0C1E41207D
:10457200437269746963616C204F7665727669650E
:1045820077206F66203130207965617273000000F8
:104592006F66205072697661637920456E68616E3C
:1045A20063696E6700000000A100000000000000C7
:1045B2000100546563686E6F6C6F67696573000014
:1045C20000000000000000000000A1000000000048
:1045D20000000100000000000000000000000000D8
:1045E200000000000000000000000000A100000028
:1045F20000000000010000000000000000000000B8
:104602000000000000000000000000000000A10007
:1046120000000000000001007365646100000000FA
:104622000000000000000000000000000000000088
:10463200A10000000000000001000350120D000D57
:104642001E416C6C436F6C6F75727341726542658B
:104652006175746966756C0000000000000000005E
:10466200000000696E746572616374697665206C1E
:104672006967687420696E7374616C6C6174696FC8
:104682006E00000000696E73706972656420627961
:1046920020626C696E6B656E6C696768747300008A
:1046A2000000000000000000000000000000000008
:1046B200000000000000000000000000000000A157
:1046C20000000000000000010000000000000000E7
:1046D20000000000000000000000000000000000D8
:1046E20000A10000000000000001004672616E7A25
:1046F20020506C65747A2C206C696C6166697363F6
:10470200680000000000000000000000000101122B
:104712000E1E0F0053495020686F6D65206761744B
:10472200657761797320756E64657220666972655A
:10473200000000000000536F7572636520726F7590
:1047420074696E672061747461636B732061707049
:104752006C69656400000000746F205349500000CA
:104762000000000000000000000000000000000047
:10477200A100000000000000010000000000000095
:104782000000000000000000000000000000000027
:104792000000A10000000000000001000000000075
:1047A2000000000000000000000000000000000007
:1047B20000000000A1000000000000000100576F8F
:1047C2006C6667616E67204265636B0000000000E3
:1047D200000000000000A100000000000000010035
:1047E200012012100011004449592073796E746837
:1047F2006573697A65727320616E6420736F756E7A
:1048020064000000000000000067656E657261745C
:104812006F72730000000000000000000000000042
:1048220000A10000000000000001005768657265E9
:1048320020646F65732074686520736F756E6420E1
:10484200636F6D652066726F6D3F000000000000AF
:104852000000000000000000000000000000000056
:104862000000000000A100000000000000010000A4
:104872000000000000000000000000000000000036
:1048820000000000000000A1000000000000000184
:10489200007379736F000000000000000000000048
:1048A200000000000000000000A100000000000065
:1048B200000100023012121E131E494E4445435499
:1048C200202D000000000000000000000000000099
:1048D2000000A1000000000000000100616E204500
:1048E200552D5375727665696C6C616E63652050E7
:1048F200726F6A656374000000000000000000002F
:1049020000000000000000000000000000000000A5
:10491200000000000000A1000000000000000100F3
:104922000000000000000000000000000000000085
:104932000000000000000000A100000000000000D4
:104942000100000000000000000000000000000064
:1049520000000000000000000000A10000000000B4
:104962000000010053796C766961204A6F686E69B4
:10497200676B00000000000000000000A1000000C2
:10498200000000000100025012141E151E44696747
:104992006974616C65205370616C74756E67207008
:1049A20065722047657365747A0000000000004458
:1049B200617320496E7465726E657420756E642031
:1049C2006765736368616666656E65000000000076
:1049D20000736F7A69616C6520556E676C656963F7
:1049E200686865697420696D20416C6C7461670048
:1049F200000000766F6E20457277657262736C6F8D
:104A020073656E0000000000000000A100000000BD
:104A120000000001004265746A6520536368776193
:104A2200727A2C20446F72697320476572626967DB
:104A32002C0000000000004B61746872696E204512
:104A42006E676C657274000000000000000000A137
:104A5200000000000000000100015112152D162D6A
:104A6200546572726F72697374732057696E202D68
:104A7200204578706C6F6974696E670000000000F1
:104A8200000054656C65636F6D6D756E696361746A
:104A9200696F6E73204461746100000000000000C1
:104AA20000000000526574656E74696F6E3F00000D
:104AB200000000000000000000000000A100000053
:104AC20000000000010000000000000000000000E3
:104AD2000000000000000000000000000000A10033
:104AE20000000000000001004B61792048616D6107
:104AF2006368657200000000000000000000000012
:104B0200A100000000000000010053746566616EA0
:104B1200204B61747A656E62656973736572000019
:104B22000000A10000000000000001000340121775
:104B320000000046726F7A656E436163686500002B
:104B42000000000000000000000000A100000000C2
:104B520000000001004D697469676174696E672025
:104B6200636F6C642D626F6F742061747461636B28
:104B72007320666F72000046756C6C2D4469736B0E
:104B82002D456E6372797074696F6E20736F6674EF
:104B92007761726500000000000000000000000064
:104BA2000000000000000000000000000000000003
:104BB20000A1000000000000000100000000000051
:104BC20000000000000000000000000000000000E3
:104BD200000000A10000000000000001004A75650D
:104BE2007267656E20506162656C00000000000013
:104BF2000000000000A10000000000000001000110
:104C020020220C2D0D2D4C696768746E696E672029
:104C120054616C6B73202D205461672033000000B7
:104C2200000000000000000077686572652069736B
:104C3200206D7920636F6D6D756E6974793F000028
:104C42000000000000000000000000000000000062
:104C52000000000000000000000000000000000052
:104C62000000A100000000000000010000000000A0
:104C72000000000000000000000000000000000032
:104C820000000000A1000000000000000100000080
:104C92000000000000000000000000000000000012
:104CA200000000000000A100000000000000010060
:104CB2005376656E204775636B65730000000000D4
:104CC2000000000000000000A10000000000000041
:104CD20001000106220E000F004275696C64696EC4
:104CE2006720746865205A6F6D626965476F7463E7
:104CF2006861000000000000000000486F77207427
:104D02006F2065617420667269656E647320616EDE
:104D120064000000000000000000000000696E66F0
:104D22006C75656E63652070656F706C652E000032
:104D32000000000000A100000000000000010000CF
:104D42000000000000000000000000000000000061
:104D520000000000000000A10000000000000001AF
:104D62000000000000000000000000000000000041
:104D7200000000000000000000A100000000000090
:104D8200000100456C6920536B6970702C205472CD
:104D92006176697320476F6F6473706565640000A4
:104DA200000000000001302210001100536166650E
:104DB2007479206F6E20746865204F70656E205381
:104DC2006561000000000000000000000000536167
:104DD2006665206E617669676174696F6E207769B6
:104DE20074682074686520616964206F6600000041
:104DF200616E206F70656E207365612063686172F9
:104E0200742E000000000000A1000000000000005D
:104E1200010000000000000000000000000000008F
:104E220000000000000000000000A10000000000DF
:104E3200000001000000000000000000000000006F
:104E4200000000000000000000000000A1000000BF
:104E5200000000000100000000000000000000004F
:104E62000000000000000000000000000000A1009F
:104E72000000000000000100014022110F120F414A
:104E82006E64726F69642067656F6C6F63617469C9
:104E92006F6E207573696E670000000000000000ED
:104EA2000047534D206E6574776F726B00000000EF
:104EB200000000000000000000A10000000000004F
:104EC200000100225768657265207761732057617F
:104ED2006C64726F69643F220000000000000000F1
:104EE20000000000000000000000000000000000C0
:104EF20000000000000000000000000000A100000F
:104F0200000000000001000000000000000000009E
:104F1200000000000000000000000000000000A1EE
:104F220000000000000000010052656E61756420FF
:104F32004C6966636869747A000000000000000032
:104F420000A1000000000000000100022022121E49
:104F5200131E596F757220496E6672617374727591
:104F620063747572652057696C6C00000000000064
:104F7200000000004B696C6C20596F750000000046
:104F8200000000000000000000000000A10000007E
:104F9200000000000100000000000000000000000E
:104FA2000000000000000000000000000000A1005E
:104FB20000000000000001000000000000000000EE
:104FC20000000000000000000000000000000000DF
:104FD200A10000000000000001000000000000002D
:104FE20000000000000000000000000000000000BF
:104FF2000000A1000000000000000100000000000D
:10500200000000000000000000000000000000009E
:1050120000000000A100000000000000010002509A
:1050220022170000002253706F696C6572732C2086
:105032005265766572736520477265656E2C000055
:1050420000000000000000444543454C2122206F2F
:1050520072202257686174277320697420646F6913
:105062006E67000000000000006E6F773F220000B4
:10507200000000000000000000000000000000002E
:1050820000A100000000000000010054686F756775
:10509200687473206F6E20746865204175746F6D3B
:1050A2006174696F6E20616E640000000069747340
:1050B2002048756D616E20496E7465726661636524
:1050C20073206F6E0000000000000000000000412D
:1050D2006972706C616E6573207C204265726E64C9
:1050E200205369656B65720000000000000000003B
:1050F200000340030B1E0C1E4F4D47205754462001
:1051020050444600000000000000000000000000C3
:10511200A1000000000000000100576861742079BE
:105122006F75206469646E2774206B6E6F772061DF
:10513200626F757400000000000000004163726F2E
:105142006261740000000000000000000000000026
:1051520000000000A10000000000000001000000AB
:10516200000000000000000000000000000000003D
:10517200000000000000A10000000000000001008B
:10518200000000000000000000000000000000001D
:105192000000000000000000A1000000000000006C
:1051A20001004A756C696120576F6C66000000004F
:1051B20000000000000000000000A100000000004C
:1051C200000001000120030C2D0D2D49636820739E
:1051D200656865206E696368742C2064617373204E
:1051E200776972206E69636874000000007A7573D3
:1051F20074696D6D656E2077657264656E0000007E
:105202000000000000A100000000000000010044B6
:1052120069652053707261636865206465732070EC
:105222006F6C697469736368656E0000000000004A
:10523200005665727261747320756E6420736569BD
:105242006E657220526563687466657274692D00BA
:1052520000000067756E670000000000000000009B
:105262000000000000000000000000A1000000009B
:1052720000000001006D6168612F4D617274696EFA
:1052820020486161736500000000000000A1000079
:10529200000000000001000251030E000F005468DC
:1052A200726565206A6F62732074686174206A6F28
:1052B20075726E616C697374730000000000000007
:1052C20077696C6C20646F20696E20323035300053
:1052D2000000000000000000A1000000000000002B
:1052E200010057687920667574757265206D656472
:1052F2006961206D6179206265206D6F72650000C1
:1053020000000000706F77657266756C2028616E10
:1053120064206D6F7265207375627665727369764B
:105322006529000000007468616E20657665722050
:105332006265666F72650000000000000000A10057
:105342000000000000000100416E6E616C65652086
:105352004E657769747A00000000000000000000CA
:10536200A100000000000000010002500310001123
:1053720000486F772074686520696E7465726E6587
:1053820074207365657320796F750000000000005A
:1053920000000064656D6F6E7374726174696E678C
:1053A20020776861742061637469766974696573D2
:1053B20000000000006D6F73742049535073207316
:1053C200656520796F7520646F696E67206F6E2046
:1053D20074686500000000696E7465726E65740021
:1053E200000000000000000000000000000000A11A
:1053F20000000000000000010000000000000000AA
:10540200000000000000000000000000000000009A
:1054120000A10000000000000001000000000000E8
:10542200000000000000000000000000000000007A
:10543200000000A100000000000000010001500374
:10544200110F120F5365637572697479204E696783
:1054520068746D617265730000000000A1000000B5
:105462000000000001000000000000000000000039
:105472000000000000000000000000000000A10089
:105482000000000000000100000000000000000019
:10549200000000000000000000000000000000000A
:1054A200A100000000000000010000000000000058
:1054B20000000000000000000000000000000000EA
:1054C2000000A10000000000000001000000000038
:1054D20000000000000000000000000000000000CA
:1054E20000000000A1000000000000000100467260
:1054F200616E6B205269656765722C20526F6E0077
:10550200000000000000A1000000000000000100F7
:10551200010103121E131E41627363686C7573737B
:10552200766572616E7374616C74756E67000000EB
:105532000000000000000000000000000000000069
:105542000000000000000000000000000000000059
:1055520000A10000000000000001000000000000A7
:105562000000000000000000000000000000000039
:10557200000000A100000000000000010000000087
:105582000000000000000000000000000000000019
:105592000000000000A10000000000000001000067
:1055A20000000000000000000000000000000000F9
:1055B20000000000000000A1000000000000000147
:1055C20000000000000000000000000000000000D9
:1055D200000000000000000000A100000000000028
:1055E2000001000100130B1E0C1E546F7220697320
:1055F2002050656163652C20536F66747761726514
:105602002046726565646F6D000000006973205367
:105612006C61766572792C2057696B697065646973
:105622006120697320547275746800000000546828
:105632006520706F6C69746963616C207068696C55
:105642006F736F706879206F662074686500000060
:10565200496E7465726E65740000000000000000FF
:105662000000000000000000A10000000000000097
:105672000100000000000000000000000000000027
:1056820000000000000000000000A1000000000077
:10569200000001004164616D000000000000000094
:1056A200000000000000000000000000A100000057
:1056B2000000000001000250130D000D1E4379622C
:1056C20065726E657469637320666F7220746865B3
:1056D200204D6173736573000000000000000069D3
:1056E2006D706C616E74732C2073656E736F72795A
:1056F20020657874656E73696F6E20616E64000058
:105702000073696C69636F6E202D20616C6C20667A
:105712006F7220796F752100000000000000000008
:105722000000000000000000000000000000000077
:105732000000000000000000000000A100000000C6
:105742000000000100000000000000000000000056
:1057520000000000000000000000000000A10000A6
:105762000000000000010000000000000000000036
:10577200000000000000000000000000000000A186
:105782000000000000000001000120130D2D0E0F8B
:105792004861636B65727320616E6420436F6D7044
:1057A2007574657220536369656E6365000000005D
:1057B20000000000000000000000000000000000E7
:1057C20000000000000000000000A1000000000036
:1057D20000000100000000000000000000000000C6
:1057E200000000000000000000000000A100000016
:1057F20000000000010000000000000000000000A6
:105802000000000000000000000000000000A100F5
:105812000000000000000100000000000000000085
:105822000000000000000000000000000000000076
:10583200A100000000000000010053657267657955
:1058420020427261747573000000000000000000C5
:105852000000A10000000000000001000120130E62
:105862001E0F0041206672616D65776F726B206654
:105872006F72206175746F6D617465640000000061
:105882000000000000617263686974656374757278
:10589200652D696E646570656E64656E74000000E6
:1058A2000000000000000067616467657420736592
:1058B200617263680000000000000000000000A1A7
:1058C20000000000000000010043434320656469BA
:1058D20074696F6E0000000000000000000000000C
:1058E20000A1000000000000000100000000000014
:1058F20000000000000000000000000000000000A6
:10590200000000A10000000000000001006B6F72A7
:105912006E61750000000000000000000000000041
:105922000000000000A100000000000000010003D0
:105932002013110F12004E657773204B65792052A8
:1059420065636F766572792041747461636B73204D
:105952006F6E0000000000005243342F5745500084
:105962000000000000000000000000000000000035
:10597200A100000000000000010000000000000083
:105982000000000000000000000000000000000015
:105992000000A10000000000000001000000000063
:1059A20000000000000000000000000000000000F5
:1059B20000000000A1000000000000000100000043
:1059C20000000000000000000000000000000000D5
:1059D200000000000000A100000000000000010023
:1059E2004D617274696E20567561676E6F757800CD
:1059F2000000000000000000A10000000000000004
:105A020001000220230B1E0C1E41206861636B659E
:105A12007227732076696577206F6E206D6F746FC1
:105A22007200000000000000000000636F6E7472DC
:105A32006F6C20616E6420726F626F7469637300B1
:105A4200000000A1000000000000000100000000B2
:105A52000000000000000000000000000000000044
:105A62000000000000A10000000000000001000092
:105A72000000000000000000000000000000000024
:105A820000000000000000A1000000000000000172
:105A92000000000000000000000000000000000004
:105AA200000000000000000000A100000000000053
:105AB20000010000000000000000000000000000E3
:105AC2000000000000000000000000A10000000033
:105AD20000000001000230230C2D0D2D4C69676877
:105AE200746E696E672054616C6B73202D20446163
:105AF20079203400000000000000000000007768F8
:105B0200657265206973206D7920636F6D6D756EA6
:105B12006974793F000000000000000000000000EE
:105B22000000000000000000000000000000000073
:105B32000000000000000000A100000000000000C2
:105B42000100000000000000000000000000000052
:105B520000000000000000000000A10000000000A2
:105B62000000010000000000000000000000000032
:105B7200000000000000000000000000A100000082
:105B82000000000001005376656E204775636B6567
:105B92007300000000000000000000000000A100EF
:105BA2000000000000000100010623110F1200484E
:105BB2006176696E672066756E2077697468205217
:105BC20054500000000000A100000000000000018D
:105BD200002257686F20697320737065616B696E6C
:105BE200673F3F3F2200000000000000000000006D
:105BF20000000000000000000000000000000000A3
:105C02000000000000000000000000A100000000F1
:105C12000000000100000000000000000000000081
:105C220000000000000000000000000000A10000D1
:105C32000000000000010000000000000000000061
:105C4200000000000000000000000000000000A1B1
:105C52000000000000000001006B6170656A6F6463
:105C62000000000000000000000000000000000032
:105C720000A10000000000000001000120FF000060
:105C82000000000000000000000000000000000012
:105C920000000000000000000000A1000000000061
:105CA20000000100000000000000000000000000F1
:105CB200000000000000000000000000A100000041
:105CC20000000000010000000000000000000000D1
:105CD2000000000000000000000000000000A10021
:105CE20000000000000001000000000000000000B1
:105CF20000000000000000000000000000000000A2
:105D0200A1000000000000000100000000000000EF
:105D12000000000000000000000000000000000081
:105D22000000A100000000000000010000000000CF
:105D32000000000000000000000000000000000061
:105D420000000000A10000000000000001000000AF
:105D520000005E000000005E000000050105010079
:105D620003000300147F147F14147F147F140E2E7B
:105D72007F3A38242A6B2A12172D775A7422152A51
:105D820054226859546B50304E491070000007007D
:105D920000000003000000005D220000003E410000
:105DA20000225D000000413E000028383E382808ED
:105DB200281E280808083E080808083E0808C0E00F
:105DC20000000080600000000008080800000808C9
:105DD20008000040000000006060000020001C007D
:105DE2000240300806017F7F5D7F7F3E4149413E90
:105DF20000437F400000427F4000476371594F4299
:105E020061514946636349697F2241494936081213
:105E1200117E10101C127F10474F4979794F494962
:105E220049307F7F49797936494949300141791FA3
:105E3200070161310D033F7F497F3F76494949762A
:105E42004F4F49737F464949493E004400000000D4
:105E52006666000000C4E000000086660000081CC0
:105E620036220000081422001414141414141414FA
:105E720014140022361C0800221408000303590FD0
:105E82000F06015109065D36556A6D3E4955551E8C
:105E92007F0909097F7E0909097E7F4949417F7F80
:105EA200494949367F634163633E414141227F4113
:105EB20041225D7F4141413E7F6B4941083E494954
:105EC20049417F0B0109007E090901017F63496B8A
:105ED200733E4149493A7F0808087F7F0808087FD6
:105EE20000417F410000417F4100706040607F308F
:105EF2004040403F7F282254217F101C23407F4096
:105F02004040407F404040407E0F040F7E7F020CA5
:105F1200027F7F0A14287F7F0608307F7F634163F8
:105F22007F3E4141413E7F09090F0F7F0909090662
:105F32007F6361335F3E4151617E7F19295F2F7F0D
:105F4200091929466F6F497B7B264949493201016C
:105F52007F010101017F01017F6040607F3F40407E
:105F6200403F0B2C302C0B07186018072708340809
:105F7200271F7008701F412A142A416314081463F2
:105F8200030A740A0303047804034363554321623A
:105F920051494563007F414100007F4141000200B9
:105FA2001C002001060830400041417F00004141B1
:105FB2007F0000020102000402010204404040404E
:105FC2004040404040400000030000000001020049
:105FD2007470543C7C20545454787F28446C7C7FE9
:105FE200444444387C6C446C6C38444444287C6C93
:105FF20044287F384444447F7C7C541C4C3854549D
:10600200541804047F050000047E0505BC3CA4D896
:10601200EC18A4A4A47C7F08040C7C7F04040478FC
:1060220000007D000000407D4000C0C0FD00004037
:10603200807D00007F381044007F10282844000132
:106042007E604000013F40407C0C7C0C7C7C0478EC
:1060520004787C08040C7C7C040404787C6C446C1A
:106062007C3844444438FC18243C3CFC2424241846
:106072003C3C2418FC18242424FC7C08040C047CDA
:10608200040404081C5C54747048545454240404DA
:106092007F644400043F44407C6040607C3C40405C
:1060A200403C00281028000C1060100C2C5860583E
:1060B2002C1C6010601C281038102844281028441A
:1060C200BC30A0D0FC1CA0A0A07C24546C5448443A
:1060D20064544C440008007F000000083641000070
:1060E2007F000000007F0000007F000800413608AA
:0260F2000000AC
:016104000595
:10143900F9E51245134514451560777800C308E5A9
:101449001520E73BE51225E0F512E51333F513E521
:101459001433F514E51533F515E5829512E58395F1
:1014690013E5F09514E9951550D4C3E51513F51551
:10147900E51413F514E51313F513E51213F512E545
:10148900829512FCE5839513FDE5F09514FEE99527
:10149900154007F98EF08D838C82C3E51513F51578
:1014A900E51413F514E51313F513E51213F512D822
:0314B900CEE92257
:06009200E478FFF6D8FD42
:1014BC00AC82AD83AE13AF14BE0004EF600C1F0FF3
:0F14CC00E5121214DBA3DEFADFF88C828D832287
:100070007906E94400601B7A019060FF78FE759371
:10008000FAE493F2A308B800020593D9F4DAF27502
:0200900093FFDC
:1014DB0020F71030F6118883A88220F507F6A88331
:1014EB0075830022F280F7F022E5828512F0A4C505
:1014FB0082C0F08513F0A4D0F025F0C5838512F0DF
:10150B00A42583F58322AAF0FBE5828512F0A4FCC7
:10151B00ADF0E5838512F0A42DFDE435F0FEE582F8
:10152B008513F0A42DFDE5F03EFEE433FFEA8512B2
:10153B00F0A42EFEE5F03FFFE5838513F0A42EFE0D
:10154B00E5F03FFFE5828514F0A42EFEE5F03FFFAA
:10155B00EB8512F0A42FFFEA8513F0A42FFFE58390
:10156B008514F0A42FFFE5828515F0A42F8EF08D46
:10157B00838C8222E512451360467A01E51225E041
:10158B00F512E513334012F513E5829512E58395B9
:10159B001340030A80E6C3E51313F513E51213F5A5
:1015AB0012C3E5829512F5F0E58395134005F5839B
:1015BB0085F082C3E51313F513E51213F512DAE187
:0115CB0022FD
:100098007800E84400600A79007593F0E4F309D821
:1000A800FC78FEE8440A600C790B90F000E4F0A3B9
:0400B800D8FCD9FA9D
:1015CC007A10E4FBFCE58225E0F582E58333F583B4
:1015DC00EB33FBEC33FCEB9512F5F0EC951340067A
:1015EC00FCABF0438201DADD22F9C2D530E715D22B
:1015FC00D5E4C39582F582E49583F583E495F0F503
:10160C00F0E499F9E51530E715E4C39512F512E409
:10161C009513F513E49514F514E49515F515E912E5
:10162C00143930D512E4C39582F582E49583F583A1
:10163C00E495F0F5F0E49922C01185811112123C69
:10164C00D0112285826D85836E85F06FE4F56AF585
:10165C006BF56C851070901644021728C0118581AB
:10166C0011E51124FBF570E4F56AF56BF56CE511E9
:10167C0024FBF8866D08866E08866F901644121748
:10168C0028D01122AA82C060C061C06274A7C0E0D9
