:040000000200833245
:01000B0032C2
:0100130032BA
:01001B0032B2
:0100230032AA
:01002B0032A2
:01003300329A
:01003B003292
:0300430002017641
:01004B003282
:01005300327A
:03005B0002044557
:01006300326A
:01006B003262
:01007300325A
:03007B000206EC8E
:0300E80002007E95
:05007E001200EB80FE02
:0900EB001208CB12139202200E40
:0C00DC00752100752200752300752900B5
:1000F4008582C1E58630E1FB5386FD225380FB22D5
:1001040043800422AA82743F5AF5F0744045F0F506
:10011400820200F4AA82740F5AF5F074B045F0F527
:10012400820200F4AA82AB838B04740F5CF5F07432
:100134001045F0F582C002C0031200F4D003D002CF
:1001440053020F8A820200F4AA82AB838A048B05CD
:100154001ABAFF011BEC4D60187C007D007EB07F55
:10016400040CBC00010D1EBEFF011FEE4F70F28097
:10017400DB22C020C0E0C0F0C082C083C002C00344
:10018400C004C005C006C007C000C001C0D075D0FF
:1001940000A2AFE433F526C2AF53C0FEE5D130E090
:1001A4006753D1FE90FADAE0FBFD7C0090FADBE0C5
:1001B400FEFF7A004CF524EA4DF52590FAD8E0FAD2
:1001C400A3E0FCFD620390FADAEBF07B00EE62023E
:1001D400EB620490FADBEAF043D60190FB26E0FAE6
:1001E400A3E0FB4A70030203007409C0E07402C078
:1001F400E090FB26E0C0E0A3E0C0E08524828525F2
:10020400838526F022020300E5D120E1030202FDEA
:1002140053D1FD120100AA217B000ABA00010BEBA5
:100224003395E0FCFD750B09E4F50CF50DF50E8A2C
:10023400828B838CF0ED1222E4AA828A2190FAE266
:10024400E0FB7A0090FAE3E0FC7D004AF524ED4BF4
:10025400F525E521703DAA22FB8A828B83A3750BC9
:1002640003E4F50C122367AA828A22758200120124
:10027400087A007BF08A248B25E522602FE4FCFDBC
:1002840074842AFAE43BFBE43CFCE43DFD8A248BC1
:10029400258019AA24AB25E4FCFD74082AFA74010C
:1002A4003BFBE43CFCE43DFD8A248B25AA2590FA23
:1002B400E2EAF0AA2490FAE3EAF07582A41200F4C8
:1002C40085218212011885218212011890000012E2
:1002D400012890000012012812010443D6027A007A
:1002E4007B007C6E7D000ABA00010B1CBCFF011D63
:1002F400EC4D70F243D702800375D100E52624FF4C
:1003040092AFD0D0D001D000D007D006D005D00411
:10031400D003D002D083D082D0F0D0E0D020328578
:10032400D52785D42890FAEA7407F090FAEB74077D
:10033400F090FAEC7407F090FAED7407F090FAEE8E
:100344007407F090FAEF7407F090FAF07404F090E8
:10035400FAF1E4F090FAF2F090FAF374DFF090FA24
:10036400F474BEF090FAF5E4F090FAF67407F090A5
:10037400FAF77420F090FAF87442F0A2AFE433FA7A
:10038400C2AF758200C002120A4B9001F412014CF4
:100394001201007582AC1200F47582AE1200F4757D
:1003A40082A51200F4120104D00253BEFBE5BE3054
:1003B400E5FBABC674F85BF5F0744445F0F5C6E5AF
:1003C400C630E6FB43BE0453B8F6758A0053E8F71B
:1003D400438D40439A10438C02D2AF85D52785D4F0
:1003E4002843D6817BEA7CFA8C0390FAF1EBF07B0C
:1003F400EA7CFA90FAF2EBF07BF17CFA8CD57BF193
:100404007CFA8BD475D60143C70243BE07000000B3
:10041400E5BE5403700302042575D7010043870128
:100424000053C7FD8527D58528D475D601E5BE3090
:10043400E5FBC2AFC0021208CBD002EA24FF92AFA0
:1004440022C0E0C082C083C002C003C004C005C093
:1004540006C007C000C001C0D075D00053C0F7E586
:10046400D820E0030206D053D8FE43D701AA2905B9
:1004740029EA60030206D3A2AFE433FAC2AF53FE03
:1004840003438002E590F4FB5303FC90FB01E0FC82
:1004940090FAF9E0FDEB6D420490FB01ECF090FA68
:1004A400F9EBF0EB0303543FF4FC43FD025380FDEE
:1004B400AD907E00EDF4FDEEF45305FCE4A2E713E9
:1004C400CD13CDA2E713CD13CDFEE580F4FF530782
:1004D400C07800EF4205E842068C077800EF520529
:1004E400E852068D0390FB02E0FD90FAFAE0FEEB81
:1004F4006E420590FB02EDF090FAFAEBF053FDFD2D
:1005040043FE045390FBAD907E00EDF4FDEEF453F6
:1005140005F8E4A2E713CD13CDA2E713CD13CDFE66
:10052400E580F4FF5307C07800EF4205E842067FF8
:1005340000EC5205EF52068D0390FB03E0FD90FAA8
:10054400FBE0FEEB6E420590FB03EDF090FAFBEB53
:10055400F053FEFB43FE085390F7AD907E00EDF49C
:10056400FDEEF45305F0E4A2E713CD13CDA2E71397
:10057400CD13CDFEE580F4F85300C07900E84205C0
:10058400E94206EC5205EF52068D0390FB04E0FDB0
:1005940090FAFCE0FEEB6E420590FB04EDF090FA5D
:1005A400FCEBF053FEF743FE105390EFAD907E004A
:1005B400EDF4FDEEF45305E0E4A2E713CD13CDA270
:1005C400E713CD13CDFEE580F4F85300C07900E8BD
:1005D4004205E94206EC5205EF52068D0390FB05F5
:1005E400E0FD90FAFDE0FEEB6E420590FB05EDF0B8
:1005F40090FAFDEBF053FEEF43FE205390DFAD90F5
:100604007E00EDF4FDEEF45305C0E4A2E713CD1330
:10061400CDA2E713CD13CDFEE580F4F85300C079E5
:1006240000E84205E94206EC5205EF52068D0390BC
:10063400FB06E0FD90FAFEE0FEEB6E420590FB0641
:10064400EDF090FAFEEBF053FEDF43FE405390BF13
:10065400AD907E00EDF4FDEEF4530580E4A2E713C3
:10066400CD13CDA2E713CD13CDFEE580F4F85300EE
:10067400C07900E84205E94206ED5204EE52078CC7
:100684000390FB07E0FC90FAFFE0FDEB6D42049061
:10069400FB07ECF090FAFFEBF053FEBF43FE8053F0
:1006A400907FE580F4FC74C05CFB90FB08E0FC9058
:1006B400FB00E0FDEB6D420490FB08ECF090FB00C6
:1006C400EBF053FE7FEA24FF92AF800375D800D08D
:1006D400D0D001D000D007D006D005D004D003D0AC
:1006E40002D083D082D0E032C0E0C002538ABF532C
:1006F400E8F7E5BEF452BED002D0E03290FB06E04B
:10070400FA90FAFEE0F45A5420F52A90FB05E0FB37
:1007140090FAFDE0F45B5408F52BA2AFE433FCC27D
:10072400AF7D007E00BE080040030207FBEE24F903
:10073400F582E434FAF583E0FFEE2401F582E43433
:10074400FBF583E0F85207EF70030207F5C3E49F5B
:10075400F85207BE0506BF20030207F5BE0406BF14
:1007640008030207F5ED2401F8E434FBF9ED240154
:10077400F582E434FBF583E0FBEFF45203888289CD
:1007840083EBF090FB06E0FA5302DF90FB06EAF0FD
:1007940090FB05E0FA5302F790FB05EAF0EDC40381
:1007A40054F8FAEF75F01DA4FFE5F0FBC403CFC4C1
:1007B4000354076FCF5407CF6FCF30E20244F8538E
:1007C40007077B00EF2AFAE52A600674402AFA80BC
:1007D40008E52B600474802AFAEC24FF92AFEA90B7
:1007E40023D993FABA9007C002120323D0028A8253
:1007F400220E8E05020729EC24FF92AF7582002297
:10080400AA82758200C002120108D0027B008B0408
:100814007D007E007F00C3EC9409ED9400EE94000B
:10082400EF648094805042C002C003120100D003E0
:100834008B82C003120118900000120128120104D7
:10084400D003D0027C847D008A82C002C003C0042D
:10085400C0051200F4D005D004D003D0021CBCFFA4
:10086400011DEC4D70E20B80A5225390FD90000118
:1008740012014C43900290000112014C12010075C8
:1008840082A21200F47582A11200F47582C01200D3
:10089400F47582241200F47582811200F4758222A8
:1008A4001200F475822F1200F47582AF1200F475F1
:1008B40082A41200F47582A60200F4AA83E5829051
:1008C400FB26F0A3EAF022C2AF90FB2AE0F52C75D8
:1008D4002D99752E24752F8053BEFBE5BE30E6FBA3
:1008E40053C680E5C620E6FB43BE0443B809750B36
:1008F40000750C08E4F50D90FAF975F0001220A2C9
:10090400750B00750C08E4F50D90FB0175F00012F1
:1009140020A275F32875F40143FD1443FE0343FF3D
:100924001853FD3D75EB1075EC2475ED8075CB9A6D
:1009340075CDCB750B00750C90750D0190F948754C
:10094400F0001220A27A487BF97C107DFA90FAD844
:10095400EC6AF0ED6BA3F07A487BF98B0290FADA3B
:10096400EAF07A487BF990FADBEAF090FADC74DF7B
:10097400F090FADD74EDF090FADEE4F090FADF74B2
:10098400C8F090FAE0E4F090FAE17449F07ADA7B86
:10099400FA8BD57ADA7BFA8AD453D1FE43D6017521
:1009A400860075C23B75C5305380EF12086E7582A0
:1009B40000120804750B00750C48750D0990F000C1
:1009C40075F0001220A27A007BF08B0290FAE2EA22
:1009D400F07A007BF090FAE3EAF090FAE474DFF046
:1009E40090FAE574C1F090FAE6E4F090FAE77484C2
:1009F400F090FAE8740FF090FAE97448F07AE27B28
:100A0400FA8BD37AE27BFA8AD253D1FD12010075B4
:100A14008200120108758200120118900000120170
:100A24002812010443D60243D702D2AF22E582FA48
:100A3400600453A0F72243A00822E582FA6004531D
:100A4400A0EF2243A01022AA82A2AFE433FBC2AFDC
:100A54008A0B750C48750D0990F00075F000C00301
:100A64001220A2D003EB24FF92AF22AA82A2AFE409
:100A740033FBC2AFE530C423541FFC8C0B750C0050
:100A8400750D00750E00900108E4F5F0C002C00376
:100A940012224DAC82AD83AEF0FFD003D002EC2421
:100AA40000FCED34F0FDEA2CFCE43DFA740755300B
:100AB400F5F005F07401800225E0D5F0FBFDE53189
:100AC40030E0118C828A83E0FEED42068C828A83B8
:100AD400EEF080118C828A83E0FEEDF4FF52068CE6
:100AE400828A83EEF074842CFCE43AFAE53130E136
:100AF400118C828A83E0FEED42068C828A83EEF0BA
:100B040080118C828A83E0FEEDF4FD52068C828A89
:100B140083EEF0EB24FF92AF22AA827B008B047D4C
:100B2400007E007F00C3EC9484ED9400EE9400EF0B
:100B34006480948050158A308532318B82C002C023
:100B440003120A6FD003D0020B80D222AA82A2AF72
:100B5400E433FBC2AF90FB28E50BF090FB29EAF0ED
:100B6400EB24FF92AF22AA82A2AFE433FBC2AFBA56
:100B740000028005BA0124801190FB2AE0F52C754F
:100B84002D99752E24752F80802090FB2BE0F52C59
:100B9400752D74752E63752F80800F90FB2AE0F5F8
:100BA4002C752D99752E24752F80EB24FF92AF227E
:100BB400858233A2AFE433F537C2AF90FB28E0FC63
:100BC4008C0B750C00750D00750E00900108E4F592
:100BD400F0C00412224DAD82AE83F8D004ED24009F
:100BE400FDEE34F0FE90FB29E0FF2DF534E43EF5F4
:100BF400357420B5330BE52C0490FB292FF0020D3E
:100C040095740DB5330890FB29E4F0020D95740A30
:100C1400B5330E90FB29E4F090FB28EC04F0020DB0
:100C240095C374A08533F063F08095F04003020D02
:100C340095C3E533648094FF4003020D95C00475A9
:100C44003600852C3A753B00A93AE53BF83395E02C
:100C5400FBFA7484C399F9E498F8E49BFBE49AFAE8
:100C64007D007E007C00C3EF99ED98EE9BEC6480E0
:100C74008AF063F08095F0D004400E90FB29E4F0F4
:100C840090FB28EC04F075360190FB28E0FA24F878
:100C9400500890FB28E4F0753601E536603290FB8D
:100CA40028E0FA8A0B750C00750D00750E00900192
:100CB40008E4F5F012224DAA82AB83FDEA2400FA7F
:100CC400EB34F0FB90FB29E0FC2AF534E43BF535EA
:100CD400E533FA3395E0FBEA24DFF582EB34FFF5E4
:100CE40083E52C75F002A4F50B85F00C1221E38545
:100CF40082388583397C00C3EC952C5030EC253444
:100D0400FDE43535FE8C077800EF2538FFE83539EA
:100D1400F8EF252DFFE8352EF8A92F8F82888389D7
:100D2400F012234BFF8D828E83F00C80CA7C00C3AB
:100D3400EC952C504D8C057E008D07EEF83395E034
:100D4400F9FA74842FFFE438F8E439F9E43AEF252A
:100D540034FFE83535F8ED2538FDEE3539FEE53A52
:100D64002DFDE53B3EFEED252DFDEE352EFEAA2F95
:100D74008D828E838AF012234BFD8F828883F00C40
:100D840080ADE52C04FA90FB29E0FB90FB29EA2BCB
:100D9400F0E53724FF92AF22858240A2AFE433F519
:100DA40046C2AF7484C39540FCC3953D50028C3D4C
:100DB400AD3D7E007408C39DF54474019EF545AFB6
:100DC4003C7441C39FFCC3953E50028C3E74075F44
:100DD400FC8CF005F07401800225E0D5F0FB14FFD3
:100DE4007408C39CF8C3E53E98501AE53E2CF5F010
:100DF40005F07401800225E0D5F0FB14F4F94207F4
:100E0400753E008006E53EC398F53EE53EC4235496
:100E14001FF543E53CC423541FF9890B750C007579
:100E24000D00750E00900108E4F5F0C00712224D84
:100E3400A982AB83D007E92400F9EB34F0FBE54049
:100E440029FAE43BFB74842AF541E43BF542EFF4D0
:100E5400F8E53F52008A478B4885414985424A79E3
:100E640000C3E9953D5036854782854883E0FDEF10
:100E74005D48854782854883F0A3858247858348FA
:100E8400854982854A83E0FDEF5D48FD8549828579
:100E94004A83F0A385824985834A0980C4E54425B1
:100EA40047FAE5453548FBE5442549F541E545352F
:100EB4004AF5427D00C3ED954350488A068B008570
:100EC400414985424A7900C3E9953D501F8E828885
:100ED40083E53FF0A3AE82A883854982854A83E5F2
:100EE4003FF0A385824985834A0980DBE5442EFAD5
:100EF400E54538FBE5442549F541E545354AF542E4
:100F04000D80B27407553EFC604B8CF005F0740103
:100F1400800225E0D5F0FB14FFF4FCEF553FFDAE55
:100F240041AF427800C3E8953D502A8A828B83E022
:100F3400F9EC594D8A828B83F0A3AA82AB838E820B
:100F44008F83E0F9EC594DF98E828F83F0A3AE8242
:100F5400AF830880D0E54624FF92AF2285824FAB51
:100F64004CAC4D8B828C83E493FDFE7F008E00EFAE
:100F7400C825E0C833F9EE28F55DEF39F55EA2AF78
:100F8400E433F561C2AF8D567484C3954FF8C395AD
:100F940056500288568556657566007408C3956573
:100FA400F55F74019566F560E55DC39565F55DE5EE
:100FB4005E9566F55E8B828C83A3E493F55774414A
:100FC400C3954BF8C39557500288577407554BF592
:100FD4005B7408C3955BF56785675CC3E5579567E4
:100FE40050057557008007E557C39567F557E557D2
:100FF400C423541FF558E55754076002055874027A
:101004002BF550E43CF551ED2550F552E43551F5FE
:1010140053ED2552F554E43553F555E54BC42354AB
:101024001FFD8D0B750C00750D00750E00900108E9
:10103400E4F5F012224DAD82AA83AEF0ED2400FD5A
:10104400EA34F0FAE54F2DFBE43AFA74842BFCE41D
:101054003AFD855BF005F07401800225E0D5F0FBD4
:10106400FE14F56785506885516985526A85536B0E
:1010740085546C85556D8B6E8A6F8C708D71755A25
:1010840000C3E55A95564003021133E54E602385AB
:101094006882856983E493FFA38582688583698573
:1010A4005BF005F0EF800225E0D5F0FBFFF4F5627C
:1010B4008003856762856E82856F83E0FFE56252F7
:1010C40007856A82856B83E493F9A385826A8583A5
:1010D4006B855BF005F0E9800225E0D5F0FB420763
:1010E400856E82856F83EFF0A385826E85836F851D
:1010F4007082857183E0FFE5625207856C82856D9D
:1011040083E493F9A385826C85836D855BF005F098
:10111400E9800225E0D5F0FBF942078570828571EC
:1011240083EFF0A3858270858371055A021085E5EB
:1011340068C39565F550E5699566F551E56AC3950B
:1011440065F552E56B9566F553E56CC39565F55405
:10115400E56D9566F555E55F256EFBE560356FFA3F
:10116400E55F2570FCE5603571FD1EEEF4FF8E67CA
:10117400755900C3E5599558400302138B85507087
:1011840085517185526E85536F85546C85556D8B71
:101194006A8A6B8C688D69755A00C3E55A95564006
:1011A4000302124BE54E6023857082857183E493BC
:1011B400F9A3858270858371855CF005F0E980026E
:1011C400C313D5F0FBF9F4F56380028F63856A825B
:1011D400856B83E0F9E5635201856E82856F83E454
:1011E40093F8A385826E85836F855CF005F0E880B3
:1011F40002C313D5F0FB4201856A82856B83E9F053
:10120400A385826A85836B856882856983E0F8E5B6
:10121400635200856C82856D83E493F9A385826CA7
:1012240085836D855CF005F0E98002C313D5F0FB7E
:10123400F94200856882856983E8F0A38582688520
:101244008369055A02119EE55D2570F550E55E350A
:1012540071F551E55D256EF552E55E356FF553E5A3
:101264005D256CF554E55E356DF555E56AC3956508
:10127400FBE56B9566FAE568C39565FCE5699566DB
:10128400FDA850A95185527085537185546E8555BA
:101294006F8B6C8A6D8C6A8D6B755A00C3E55A9599
:1012A40056400302134DE54E601F88828983E49300
:1012B400FEA3A882A983855BF005F0EE800225E0F9
:1012C400D5F0FBFEF4F5648003856764C007856C84
:1012D40082856D83E0FEE5645206857082857183A4
:1012E400E493FFA3858270858371855BF005F0EF3D
:1012F400800225E0D5F0FB4206856C82856D83EE85
:10130400F0A385826C85836D856A82856B83E0FE9C
:10131400E5645206856E82856F83E493FFA385821C
:101324006E85836F855BF005F0EF800225E0D5F0D4
:10133400FB4206856A82856B83EEF0A385826A850B
:10134400836B055AD0070212A0E8C39565F550E9EE
:101354009566F551E570C39565F552E5719566F5A9
:1013640053E56EC39565F554E56F9566F555E55FF0
:10137400256CFBE560356DFAE55F256AFCE56035B3
:0E1384006BFD0559021177E56124FF92AF223F
:1023D9000000906F706D6E6B796788633E2C3C20AE
:1023E9000071757769747265000068616A66647363
:1023F9000000760062787A800000820008818400FB
:1024090000002F005EA0000000000A006C00000020
:102419000000002B3D2E2122245F0039003F0020BF
:10242900003126322D23403300003A343B5C3635E7
:1024390000002800293837000000000000003000A3
:10244900000000000000000000000000270000005C
:102459000000004F504D4E4B5947004300000020EB
:102469000051555749545245000048414A46445382
:102479000000560042585A00000000000000000009
:102489000000000000000000000000004C000000F7
:066D35000801000000004F
:1024990000B80000B80018001818001850F850F8D3
:1024A90050F840D81070F870A870A8C8209840203B
:1024B9004040204000180000180070708800F8881B
:1024C90088707088F800407040603060207020206B
:1024D900702080400000C0002020202020200080A3
:1024E90000008000A07028C02018708870F888F853
:1024F90088F88090F880D8A8D8E8A8B8D8A87088B3
:10250900A8F81820D83820F8B8A848B8A8E870A8BA
:1025190048F8A8E8A87828C8281850A850F8A8F8B2
:1025290050A870B8A8F80050000050008050000072
:10253900D00070D80020500050505050505000D852
:102549007000502010E81008A838F898F8F8A8B8D2
:10255900F028F0F828F8F8A870F8A8F8708850F86A
:1025690088D8F88870F888F8708850F8A8D8F828BA
:1025790000F82828708840F8A8F8F820F8F820F81A
:1025890000F80000F800408078C080F8F810C8F81A
:102599006098F88080788080F028F0F810F8F05082
:1025A90078F820F8708870F888F8F02810F828383A
:1025B900704830F888F8F008D0F868B850A850B8D2
:1025C900A8E808F80808F808788078F880F8C03092
:1025D900C038C03878A078F840F8A850A8D820D8D2
:1025E90028D02818E01820D820C8A89800F8880012
:1025F900F8882870A01820C088F80088F800180802
:102609001810081080808080808000081000180051
:10261900F028F0F828F8F8A870F8A8F8708850F8A9
:1026290088D8F88870F888F8708850F8A8D8F828F9
:1026390000F82828708840F8A8F8F820F8F820F859
:1026490000F80000F800408078C080F8F810C8F859
:102659006098F88080788080F028F0F810F8F050C1
:1026690078F820F8708870F888F8F02810F8283879
:10267900704830F888F8F008D0F868B850A850B811
:10268900A8E808F80808F808788078F880F8C030D1
:10269900C038C03878A078F840F8A850A8D820D811
:1026A90028D02818E01820D820C8A89800708820B9
:0E26B900D80000F80000F80088700000D8205B
:016D3B000354
:1026C700656E676C697368006765726D616E00009F
:1026D7006C6563747572650000706F6469756D0071
:1026E7000000636F6E7465737400006C746E6774BA
:1026F700616C6B00776F726B73686F70006F7468D3
:10270700657200000000636F6D6D756E6974790006
:1027170063756C747572650000006861636B696E40
:10272700670000006D616B696E67000000007363EE
:1027370069656E6365000000736F6369657479008E
:102747000000000B1E0C1E32374333204B65796E99
:102757006F7465000000000000000000000000A189
:10276700000000000000000100576520636F6D65E1
:1027770020696E205065616365000000000000005D
:1027870000A10000000000000001000000000000A0
:102797000000000000000000000000000000000032
:1027A700000000A100000000000000010000000080
:1027B7000000000000000000000000000000000012
:1027C7000000000000A10000000000000001000060
:1027D70000000000000000000000000000000000F2
:1027E70000000000000000A1000000000000000140
:1027F70000000000000000000000000000000000D2
:10280700000000000000000000A100000000000020
:102817000001000150000C2D0D2D436F7079726976
:1028270067687420456E666F7263656D656E7420A8
:1028370056732E0000000000000000004672656518
:10284700646F6D73000000000000000000000000CE
:1028570000000000A100000000000000010041434B
:1028670054412C2049505245443320616E64206FF7
:1028770074686572207570636F6D696E670000001C
:10288700626174746C6573206F6620746865206379
:1028970072757361646520616761696E73740000A6
:1028A700000073686172696E670000000000000035
:1028B70000000000000000000000A1000000000070
:1028C700000001004A6572656D6965205A696D6D82
:1028D70065726D616E6E000000000000A1000000CF
:1028E7000000000001000250000E000F00566F6E3E
:1028F700205A656E73757273756C612075656265B4
:10290700722043656E73696C69610000000000689E
:10291700696E207A756D204B696E6465726E657499
:1029270000000000000000A10000000000000001FE
:10293700004A61687265737275636B626C69636B79
:102947002072756E6420756D20496E7465726E65B0
:102957007400005370657272656E2C2053656E6447
:10296700657A65697462656772656E7A756E6765A3
:102977006E00000000696D20496E7465726E6574A3
:1029870020756E64207665726D65696E746C696317
:1029970068656E000000004A7567656E647363685A
:1029A70075747A207C20416C76617220432E482E04
:1029B7004672657564650000000251001000110041
:1029C70057686973746C65626C6F77696E6700002E
:1029D7000000000000000000A1000000000000004F
:1029E70001004C6963687420696E732044756E6BCF
:1029F700656C2100000000000000A100000000003D
:102A070000000100000000000000000000000000BE
:102A1700000000000000000000000000A10000000E
:102A2700000000000100000000000000000000009E
:102A37000000000000000000000000000000A100EE
:102A4700000000000000010000000000000000007E
:102A5700000000000000000000000000000000006F
:102A6700A1000000000000000100000000000000BD
:102A7700000000000000000000000000000000004F
:102A87000000A10000000000000001000151001437
:102A97001E151E4461746120526574656E74696FFA
:102AA7006E20696E207468652045552066697665D5
:102AB70000000000007965617273206166746572B9
:102AC70020746865204469726563746976650000DF
:102AD70000000000000000576879207468652074C2
:102AE700696D65206973206E6F7720746F20676545
:102AF70074000000000000000061637469766500DF
:102B070000000000000000000000000000000000BE
:102B170000A10000000000000001004B6174617219
:102B27007A796E6120537A796D69656C6577696327
:102B37007A2C205061747269636B000000427265E1
:102B47007965722C2052616C662042656E647261F1
:102B570074682C206178656C00000000000000029A
:102B67005000000F010F50656E74616E657773201A
:102B770047616D652053686F770000000000A10072
:102B87000000000000000100596F7572206F70701F
:102B97006F6E656E74732077696C6C206265207246
:102BA7006964646C65640000000061732077656C7C
:102BB7006C000000000000000000000000000000A2
:102BC7000000A1000000000000000100000000005C
:102BD70000000000000000000000000000000000EE
:102BE70000000000A100000000000000010000003C
:102BF70000000000000000000000000000000000CE
:102C0700000000000000A10000000000000001001B
:102C1700416C69656E382C20417374726F00000037
:102C27000000000000000000A100000000000000FC
:102C37000100010A100C2D0D2D436F64652064659A
:102C47006F62667573636174696F6E2062790000E5
:102C570000A10000000000000001006F7074696DA2
:102C6700697A6174696F6E0000000000000000005F
:102C7700000000A1000000000000000100000000AB
:102C8700000000000000000000000000000000003D
:102C97000000000000A1000000000000000100008B
:102CA700000000000000000000000000000000001D
:102CB70000000000000000A100000000000000016B
:102CC70000000000000000000000000000000000FD
:102CD700000000000000000000A10000000000004C
:102CE7000001004272616E6B6F20537061736F6AEF
:102CF7006576696300000000000000A10000000085
:102D070000000001000220100E000F00436F6E74D8
:102D1700656D706F726172792050726F66696C6948
:102D27006E67206F662057656200000000005573CC
:102D37006572730000000000000000000000000042
:102D4700000000000000A1000000000000000100DA
:102D57004F6E205573696E6720416E6F6E796D698E
:102D67007A65727320616E64205374696C6C00001D
:102D77000000476574204675636B656400000000BA
:102D870000000000000000000000A100000000009B
:102D9700000001000000000000000000000000002B
:102DA700000000000000000000000000A10000007B
:102DB700000000000100446F6D696E696B20486573
:102DC70072726D616E6E2C206C6578690000000070
:102DD7000000000000000000022010100011004554
:102DE700696E732C207A7765692C20647265692077
:102DF7002D20616C6C652073696E64000000000013
:102E070000646162656900000000000000000000C6
:102E1700000000000000000000A10000000000000A
:102E2700000100566F6E2064657220566F6C6B73DD
:102E37007A6165686C756E67207A756D2042756E6C
:102E47006465732D006D656C64657265676973747D
:102E570065720000000000000000000000A10000F3
:102E6700000000000001000000000000000000005A
:102E7700000000000000000000000000000000A1AA
:102E87000000000000000001004F6C6976657220A9
:102E970022556E69636F726E22204B6E61707000EF
:102EA7000000000000000000000000025110110F98
:102EB700120F46726965646520736569206D6974D0
:102EC70020457572656E20446174656E00000000D0
:102ED7000000000045696E20646174656E73636865
:102EE70075747A72656368746C696368657220418A
:102EF70075732D000000666C756720696E20656923
:102F07006E206B697263686C696368657320000083
:102F17000000000000000000506172616C6C656C7D
:102F2700756E6976657273756D202D00000000005F
:102F3700A1000000000000000100000000000000E8
:102F4700000000000000000000000000000000007A
:102F57000000A10000000000000001004A6F636844
:102F6700696D2053656C7A657200000000000000EF
:102F770000000000A1000000000000000100015156
:102F870010121E131E6861636B696E6720736D6193
:102F970072742070686F6E657300000000A10000F6
:102FA70000000000000100657870616E64696E675B
:102FB700207468652061747461636B207375726631
:102FC70061636520616E6400007468656E20736FCD
:102FD7006D65000000000000000000000000000018
:102FE70000A1000000000000000100000000000038
:102FF70000000000000000000000000000000000CA
:10300700000000A100000000000000010000000017
:1030170000000000000000000000000000000000A9
:103027000000000000A100000000000000010049AE
:103037006C6A612076616E20537072756E64656C80
:1030470000000000000000A10000000000000001D7
:1030570000012010141E151E4465736B746F7020D9
:103067006F6E20746865204C696E75782E2E2E0061
:103077000000000000000000000028616E6420428C
:1030870053442C206F6620636F75727365290000A7
:103097000000A1000000000000000100796F752703
:1030A700726520646F696E6720697420636F6E664E
:1030B700757365643F2077656972643F00007374B8
:1030C70072616E67653F2077726F6E673F00000021
:1030D700000000000000A100000000000000010047
:1030E70000000000000000000000000000000000D9
:1030F7000000000000000000A10000000000000028
:103107000100646174656E776F6C660000000000F3
:1031170000000000000000000000A1000000000007
:1031270000000100020010152D162D526563656E13
:103137007420616476616E63657320696E204950FF
:1031470076360000000000000000000000696E7382
:10315700656375726974696573000000000000009B
:103167000000000000A100000000000000010000B6
:103177000000000000000000000000000000000048
:1031870000000000000000A1000000000000000196
:103197000000000000000000000000000000000028
:1031A700000000000000000000A100000000000077
:1031B7000001000000000000000000000000000007
:1031C7000000000000000000000000A10000000057
:1031D700000000010076616E48617573657200003A
:1031E70000000000000000000000000000A1000037
:1031F70000000000000100022010170000005370BB
:10320700696E6E696E672074686520656C656374A6
:10321700726F6E696300000000000000000000008C
:10322700576865656C0000000000000000000000A2
:103237000000000000000000A100000000000000E6
:1032470001005374696C6C20746865206269637946
:10325700636C657320666F72207468652032317401
:103267006800000063656E747572790000000000E5
:10327700000000000000000000000000A1000000A6
:103287000000000001000000000000000000000036
:103297000000000000000000000000000000A10086
:1032A7000000000000000100000000000000000016
:1032B7000000000000000000000000000000000007
:1032C700A10000000000000001000231200C2D0DBC
:1032D7002D46726F6D20726F626F7420746F20724B
:1032E7006F626F740000000000A100000000000082
:1032F700000100526573746F72696E6720637265AF
:103307006174697669747920696E207363686F6F79
:103317006C00000000707570696C73207573696EBE
:103327006720726F626F74696373000000A1000009
:103337000000000000010000000000000000000085
:10334700000000000000000000000000000000A1D5
:103357000000000000000001000000000000000065
:103367000000000000000000000000000000000056
:1033770000A10000000000000001000000000000A4
:103387000000000000000000000000000000000036
:10339700000000A100000000000000010001502013
:1033A7000E000F004A5441472F53657269616C2F15
:1033B700464C4153482F50434220456D6265646433
:1033C7006564000000005265766572736520456E7E
:1033D70067696E656572696E6720546F6F6C7320DD
:1033E700616E640000000000546563686E69717562
:1033F70065730000000000000000000000000000EE
:10340700A1000000000000000100612064756D70DC
:10341700206F662073696D706C6520746F6F6C73B5
:1034270020666F7220656D2D000000006265646480
:10343700656420616E616C79736973206174206DB6
:10344700616E79206C61796572730000000000007D
:103457000000000000000000000000000000000065
:10346700000000000000A1000000000000000100B3
:10347700032020100011004175746F6D617469633A
:10348700204964656E74696669636174696F6E204B
:103497006F660000000000000043727970746F6768
:1034A700726170686963205072696D6974697665C5
:1034B7007320696E00000000000000536F66747788
:1034C70061726500000000000000000000000000BD
:1034D700000000A100000000000000010000000043
:1034E70000000000000000000000000000000000D5
:1034F7000000000000A10000000000000001000023
:1035070000000000000000000000000000000000B4
:1035170000000000000000A1000000000000000102
:103527000046656C69782047726F65626572740042
:10353700000000000000000000A1000000000000E3
:10354700000100032020110F120F55534220616E16
:1035570064206C696275736220666F722066756E8F
:1035670020616E64000000000000000070726F664A
:103577006974000000000000000000000000000067
:1035870000000000A10000000000000001005553EA
:10359700423A20536F206D756368206D6F72652006
:1035A7007468616E20612073657269616C00000048
:1035B700706F7274207769746820706F7765720016
:1035C7000000000000000000A10000000000000053
:1035D70001000000000000000000000000000000E3
:1035E70000000000000000000000A1000000000033
:1035F700000001005065746572205374756765009B
:10360700000000000000000000000000A100000012
:10361700000000000100023020152D162D436F67B2
:103627006E69746976652050737963686F6C6F672C
:103637007920666F7200000000000000000000485B
:1036470061636B65727300000000000000000000FA
:1036570000000000000000A10000000000000001C1
:1036670000427567732C206578706C6F6974732CD2
:1036770020616E64206F63636173696F6E616C00B4
:10368700000000706174636865730000000000004B
:103697000000000000000000000000A10000000082
:1036A7000000000100000000000000000000000012
:1036B70000000000000000000000000000A1000062
:1036C70000000000000100536169000000000000D5
:1036D700000000000000000000000000000000A142
:1036E7000000000000000001000240010B1E0C1E3C
:1036F70046696C65202D3E205072696E74202D3E00
:1037070020456C656374726F6E6963730000000017
:10371700000041206E6577206369726375697420C4
:10372700626F617264207072696E74657220776966
:103737006C6C00006C6962657261746520796F75E5
:103747002066726F6D207468652041726475696EBA
:103757006F2D00000000496E647573747269616CA7
:1037670020436F6D706C6578000000000000A100B9
:103777000000000000000100000000000000000041
:103787000000000000000000000000000000000032
:10379700A10000000000000001004A65666620479E
:1037A7006F7567680000000000000000000000005F
:1037B7000000A1000000000000000100013001121C
:1037C7001E131E54686520436F6E63657274000094
:1037D7000000000000000000000000A10000000041
:1037E70000000001006120646973636F6E63657296
:1037F70074696E67206D6F6D656E7420666F7220D9
:103807006672656500000063756C7475726500000B
:10381700000000000000000000000000000000A100
:103827000000000000000001000000000000000090
:103837000000000000000000000000000000000081
:1038470000A10000000000000001000000000000CF
:103857000000000000000000000000000000000061
:10386700000000A1000000000000000100436F728B
:103877006579204365726F7673656B2C204A756C8A
:1038870069656E205175656E74696E0000000001F0
:103897001A01141E151E486967682D7370656564E3
:1038A70020686967682D73656375726974790000AC
:1038B700000000000000000063727970746F677287
:1038C700617068793A000000000000000000000005
:1038D700A1000000000000000100656E63727970AE
:1038E70074696E6720616E642061757468656E74B3
:1038F70069636174696E6700000000007468652081
:1039070077686F6C6520496E7465726E6574000028
:1039170000000000A10000000000000001000000FE
:103927000000000000000000000000000000000090
:10393700000000000000A1000000000000000100DE
:1039470044616E69656C204A2E204265726E7374FD
:1039570065696E0000000000A10000000000000083
:103967000100022001152D162D446566656E7365ED
:10397700206973206E6F7420646561640000000025
:1039870000A10000000000000001005768792077BF
:10399700652077696C6C2068617665206D6F72654C
:1039A70020736563757265000000000000636F6D2A
:1039B700707574657273202D20746F6D6F72726FDE
:1039C7007700000000A100000000000000010000D7
:1039D70000000000000000000000000000000000E0
:1039E70000000000000000A100000000000000012E
:1039F70000000000000000000000000000000000C0
:103A0700000000000000000000A10000000000000E
:103A1700000100416E647265617320426F676B003D
:103A27000000000000000000000000A100000000EE
:103A37000000000100012001170000005468652004
:103A4700696D706F7274616E6365206F6620726551
:103A570073697374696E67000000000000004578A1
:103A67006365737369766520476F7665726E6D65FA
:103A77006E7400000000A1000000000000000100BB
:103A87005375727665696C6C616E63650000000042
:103A97000000000000000000A1000000000000007E
:103AA70001004A6F696E206D6520696E2065787028
:103AB7006F73696E6720616E64206368616C2D00A7
:103AC700000000006C656E67696E6720746865208A
:103AD700636F6E7374616E742076696F6C6174695D
:103AE7006F6E730000006F66206F757220726967D2
:103AF700687420746F2070726976616379000000C2
:103B07000000000000000000035001000F010F53E8
:103B170074616E69736C6177204C656D00000000FD
:103B270000000000000000A10000000000000001EC
:103B37000044657220656E7474C3A47573636874FA
:103B4700652057656C747665726265737365726517
:103B570072000045696E20617564696F76697375D7
:103B6700656C6C6573204C6976652D466561747567
:103B77007265000000412E4B726F6C696B6F777333
:103B87006B692C20432E4B75727A2C0000000000C5
:103B970000000000000000492E4B7761736E6965D5
:103BA70077736B692C204A2E2D4D2E204C6F656242
:103BB700656C000000000000004B2E4B6974746CAC
:103BC700657220756E64204D2E2052696368746596
:103BD70072000000000000000000000211110B1E1F
:103BE7000C1E44697374726962757465642046506B
:103BF7004741204E756D62657200000000000000AD
:103C0700000000004372756E6368696E6720466F37
:103C17007220546865204D6173736573000000005E
:103C2700000000000000486F77207765206F6274FE
:103C370061696E6564207468652065717569766170
:103C47006C656E7400000000706F776572206F6698
:103C57002061204465657020437261636B20666F45
:103C670072206100000000000000666973746675C9
:103C77006C206F6620646F6C6C617273202D2061FD
:103C87006E6420686F772E2E2E00000046656C69E3
:103C97007820446F6D6B6500000000000000000095
:103CA70000000000A1000000000000000100022148
:103CB700110D000D1E4C79696E6720546F205468F2
:103CC70065204E65696768626F7572730000000052
:103CD70000000000000000466965736520456666C0
:103CE700656B7465206D697420747261636B6572AE
:103CF7002D6C65737300000000426974546F727213
:103D0700656E740000000000000000000000000065
:103D170000A10000000000000001000000000000FA
:103D2700000000000000000000000000000000008C
:103D3700000000A1000000000000000100000000DA
:103D4700000000000000000000000000000000006C
:103D57000000000000A10000000000000001004179
:103D67007374726F00000000000000000000000084
:103D770000000000000000A100000000000000019A
:103D8700000121110D2D0E0F4E6F64652E6A7320F1
:103D970061732061206E6574776F726B696E67203F
:103DA700746F6F6C0000000000000000000000004E
:103DB70000000000000000000000000000000000FC
:103DC7000000A1000000000000000100000000004A
:103DD70000000000000000000000000000000000DC
:103DE70000000000A100000000000000010000002A
:103DF70000000000000000000000000000000000BC
:103E0700000000000000A100000000000000010009
:103E1700000000000000000000000000000000009B
:103E27000000000000000000A100000000000000EA
:103E3700010046656C69782047656973656E646F34
:103E470065726665720000000000A10000000000B6
:103E5700000001000120110E1E0F004C6F67696BF7
:103E6700736368616C74756E67656E206F686E65E5
:103E770020456C656B74726F6E696B00006C6F67C1
:103E8700697363686520536368616C74756E6765F1
:103E97006E206D69740000000000000000000050F3
:103EA7006E65756D6174696B0000000000000000AD
:103EB70000000000000000A1000000000000000159
:103EC70000000000000000000000000000000000EB
:103ED700000000000000000000A10000000000003A
:103EE70000010000000000000000000000000000CA
:103EF7000000000000000000000000A1000000001A
:103F0700000000010041657065782C207869660023
:103F170000000000000000000000000000A10000F9
:103F27000000000000010001311110001100497369
:103F3700207468652053534C6976657273652061F8
:103F4700207361666520706C6163653F0000000047
:103F5700416E20757064617465206F6E204546461A
:103F670027732053534C000000000000000000009E
:103F770000004F627365727661746F727920707298
:103F87006F6A6563740000000000A1000000000074
:103F97000000010000000000000000000000000019
:103FA700000000000000000000000000A100000069
:103FB70000000000010000000000000000000000F9
:103FC7000000000000000000000000000000A10049
:103FD70000000000000001000000000000000000D9
:103FE70000000000000000000000000000000000CA
:103FF700A1000000000000000100010011121E13C3
:104007001E4C6974657261726973636865722041D9
:1040170062656E640000000000A10000000000005F
:104027000001000000000000000000000000000088
:104037000000000000000000000000A100000000D8
:104047000000000100000000000000000000000068
:1040570000000000000000000000000000A10000B8
:104067000000000000010000000000000000000048
:10407700000000000000000000000000000000A198
:104087000000000000000001000000000000000028
:104097000000000000000000000000000000000019
:1040A70000A1000000000000000100416E6472657D
:1040B7006173204C65686E65722C2044722E206CEB
:1040C700617273000000000000000000000103118E
:1040D700152D162D416476656E74757265732069AA
:1040E7006E204D617070696E67000000A1000000CE
:1040F70000000000010041666768616E69737461C2
:104107006E20456C656374696F6E73000000A100D3
:1041170000000000000001005468652073746F728E
:1041270079206F6620332055736861686964692058
:104137006D617070696E67000000616E6420726562
:10414700706F7274696E672070726F6A65637473DB
:104157002E0000000000000000000000000000002A
:104167000000000000000000000000000000000048
:1041770000000000A1000000000000000100000096
:104187000000000000000000000000000000000028
:10419700000000000000A100000000000000010076
:1041A7000250111700000053656375726520636F35
:1041B7006D6D756E69636174696F6E732062656C8E
:1041C7006F772074686500000068656172696E67C3
:1041D700207468726573686F6C64000000000000EB
:1041E70000A1000000000000000100496D70726F1F
:1041F70076656420617070726F61636865732066AD
:104207006F722061756469746976650000737465FF
:1042170067616E6F67726170687900000000000067
:104227000000000000A100000000000000010000E5
:104237000000000000000000000000000000000077
:1042470000000000000000A10000000000000001C5
:10425700004D6172637573204E75747A696E676578
:10426700722C205261696E657220506F6973656C9C
:104277000000000220210B1E0C1E4E65747A6D652E
:104287006469656E72656368742C204C6F6262792D
:1042970069736D757320756E640000004B6F7272E1
:1042A700757074696F6E0000000000000000000068
:1042B70000000000A1000000000000000100576995
:1042C70065207769726B7420646965204C6F626240
:1042D7007920766F6E0000000000000000000000EB
:1042E7004D656469656E6B6F6E7A65726E656E3F5C
:1042F7000000000000000000A10000000000000016
:1043070001000000000000000000000000000000A5
:1043170000000000000000000000A10000000000F5
:104327000000010054686F6D617320426172746808
:10433700000000000000000000000000A1000000D5
:104347000000000001000259210C2D0D1E4C696769
:1043570068746E696E672054616C6B73202D2044FE
:104367006179203200000000000000000000004BCF
:104377006F7272757074696F6E0000000000000044
:1043870000000000000000A1000000000000000184
:104397000034206D696E75746573206F66206661E1
:1043A7006D6500000000000000A100000000000093
:1043B70000010000000000000000000000000000F5
:1043C7000000000000000000000000A10000000045
:1043D70000000001000000000000000000000000D5
:1043E70000000000000000000000000000A1000025
:1043F700000000000001005376656E204775636B6F
:10440700657300000000000000000000000000A12C
:104417000000000000000001000106210E000F004F
:104427004920436F6E74726F6C20596F7572204309
:104437006F64650000000000A1000000000000009C
:10444700010041747461636B20566563746F727306
:10445700205468726F7567682074686520457965B0
:10446700730000006F6620536F6674776172652D65
:104477006261736564204661756C7400000000001A
:1044870000000000000049736F6C6174696F6E0073
:104497000000000000000000000000000000A10074
:1044A7000000000000000100000000000000000004
:1044B70000000000000000000000000000000000F5
:1044C700A10000000000000001004D6174686961EF
:1044D7007320506179657200000000000000000041
:1044E7000000A100000000000000010001202110D1
:1044F700001100412073686F727420706F6C6974CB
:104507006963616C20686973746F7279206F6600E4
:10451700000000000061636F7573746963730000C6
:1045270000000000000000000000000000A10000E3
:1045370000000000000100466F722077686F6D2C45
:1045470020616E6420746F20646F20776861742C1B
:10455700207468650000000000736369656E636519
:10456700206F6620736F756E6420776173206465B2
:1045770076656C6F70656400000000696E20746872
:104587006520313774682063656E74757279000031
:10459700000000A10000000000000001004F6F6E46
:1045A70061204C6567616E6F7669630000000000EB
:1045B7000000000000A10000000000000001000250
:1045C7005021110F120F4461746120416E616C79A3
:1045D70073697320696E20546572616269740000A3
:1045E700000000000000000045746865726E657485
:1045F70020547261666669630000000000000000D5
:10460700A1000000000000000100536F6C75746981
:104617006F6E7320666F72206D6F6E69746F72694B
:104627006E6720616E640000000000006C617766B1
:10463700756C20696E74657263657074696F6E203E
:1046470077697468696E2061206C6F7400006F660B
:104657002062697473000000000000000000000081
:10466700000000000000A1000000000000000100A1
:104677004C617273205765696C6572000000000019
:104687000000000000000000A10000000000000082
:104697000100022021121E131E546563686E696BA8
:1046A700656E207A7572204964656E746966697AE9
:1046B700696572756E670000000000766F6E204EA8
:1046C70065747A7765726B2D50726F746F6B6F6C50
:1046D7006C656E0000000000000000000000000094
:1046E70000000000000000000000000000000000C3
:1046F7000000000000A10000000000000001000011
:1047070000000000000000000000000000000000A2
:1047170000000000000000A10000000000000001F0
:104727000000000000000000000000000000000082
:10473700000000000000000000A1000000000000D1
:10474700000100466C6F7269616E204164616D7390
:104757006B79000000000000000000A100000000CD
:104767000000000100024121152D162D436F6E73C5
:104777006F6C65204861636B696E6720323031303A
:1047870000000000A1000000000000000100506CC4
:10479700617973746174696F6E20332C2058626F6E
:1047A70078203336302C205769692C200000000010
:1047B70044536900000000000000000000000000F2
:1047C7000000000000000000A10000000000000041
:1047D70001000000000000000000000000000000D1
:1047E70000000000000000000000A1000000000021
:1047F70000000100000000000000000000000000B1
:10480700000000000000000000000000A100000000
:1048170000000000010062757368696E672C206DE7
:10482700617263616E2C207376656E000000A100D3
:1048370000000000000001000120020B1E0D1E43B6
:1048470043432D4A6168726573727565636B626C69
:1048570069636B2032303130000000000000000037
:104867000000000000000000000000000000000041
:10487700000000000000000000A100000000000090
:104887000001000000000000000000000000000020
:104897000000000000000000000000A10000000070
:1048A7000000000100000000000000000000000000
:1048B70000000000000000000000000000A1000050
:1048C70000000000000100412E426F676B2C204161
:1048D7002E4D75656C6C65722D4D616775686E2C14
:1048E700000000000000000000432E4B75727A2C78
:1048F70020462E52696567657200000000000000BF
:1049070000A1000000000000000100010302110FD8
:10491700130F4E65747A6E65757472616C69746194
:10492700657420756E6420516F53202D00000000C0
:104937000000000065696E205769646572737072C4
:104947007563683F0000000000000000A100000040
:1049570000000000010046616B74656E206175669A
:104967002064656E20546973636800000000A1002D
:10497700000000000000010000000000000000002F
:104987000000000000000000000000000000000020
:10499700A10000000000000001000000000000006E
:1049A7000000000000000000000000000000000000
:1049B7000000A100000000000000010041616E64DA
:1049C7007265617320426F676B2C204D61726B7546
:1049D70073204265636B656461686C000000025375
:1049E70002141E151E4368697020616E64205049C9
:1049F7004E2069732042726F6B656E0000000000E5
:104A07000000000000000056756C6E6572616269F7
:104A17006C697469657320696E20746865000000AD
:104A2700000000000000000000454D562050726F46
:104A3700746F636F6C00000000000000000000004E
:104A470000A10000000000000001000000000000BD
:104A5700000000000000000000000000000000004F
:104A6700000000A10000000000000001000000009D
:104A7700000000000000000000000000000000002F
:104A87000000000000A1000000000000000100532A
:104A9700746576656E204A2E204D7572646F636863
:104AA70000000000000000A100000000000000015D
:104AB70000012002152D162D466E6F72642D4A6176
:104AC70068726573727565636B626C69636B2032BC
:104AD70030313000000000000000766F6E20417416
:104AE7006F6D617573737469656720626973000020
:104AF7000000A10000000000000001005A77616E6D
:104B07006773696E746567726174696F6E00000020
:104B170000000000A10000000000000001000000EC
:104B2700000000000000000000000000000000007E
:104B3700000000000000A1000000000000000100CC
:104B4700000000000000000000000000000000005E
:104B57000000000000000000A100000000000000AD
:104B6700010046656C697820766F6E204C65697424
:104B77006E65722C204672616E6B2052696567659F
:104B870072000000015102170001004861636B6564
:104B970072204A656F70617264790000000000003E
:104BA700000000A10000000000000001004E756D2C
:104BB700626572206775657373696E6720666F72C9
:104BC700206765656B7300000000000000000000AF
:104BD70000000000000000000000000000000000CE
:104BE70000000000000000A100000000000000011C
:104BF70000000000000000000000000000000000AE
:104C0700000000000000000000A1000000000000FC
:104C1700000100000000000000000000000000008C
:104C27000000000000000000000000A100000000DC
:104C370000000001005261792C2053746566616E93
:104C4700202753656327205A65686C000000000021
:104C5700000000000000000105120B1E0C1E412081
:104C6700437269746963616C204F76657276696512
:104C770077206F66203130207965617273000000FC
:104C87006F66205072697661637920456E68616E40
:104C970063696E6700000000A100000000000000CB
:104CA7000100546563686E6F6C6F67696573000018
:104CB70000000000000000000000A100000000004C
:104CC70000000100000000000000000000000000DC
:104CD700000000000000000000000000A10000002C
:104CE70000000000010000000000000000000000BC
:104CF7000000000000000000000000000000A1000C
:104D070000000000000001007365646100000000FE
:104D1700000000000000000000000000000000008C
:104D2700A10000000000000001000350120D000D5B
:104D37001E416C6C436F6C6F75727341726542658F
:104D47006175746966756C00000000000000000062
:104D5700000000696E746572616374697665206C22
:104D67006967687420696E7374616C6C6174696FCC
:104D77006E00000000696E73706972656420627965
:104D870020626C696E6B656E6C696768747300008E
:104D9700000000000000000000000000000000000C
:104DA700000000000000000000000000000000A15B
:104DB70000000000000000010000000000000000EB
:104DC70000000000000000000000000000000000DC
:104DD70000A10000000000000001004672616E7A29
:104DE70020506C65747A2C206C696C6166697363FA
:104DF7006800000000000000000000000001011230
:104E07000E1E0F0053495020686F6D65206761744F
:104E1700657761797320756E64657220666972655E
:104E2700000000000000536F7572636520726F7594
:104E370074696E672061747461636B73206170704D
:104E47006C69656400000000746F205349500000CE
:104E5700000000000000000000000000000000004B
:104E6700A100000000000000010000000000000099
:104E7700000000000000000000000000000000002B
:104E87000000A10000000000000001000000000079
:104E9700000000000000000000000000000000000B
:104EA70000000000A1000000000000000100576F93
:104EB7006C6667616E67204265636B0000000000E7
:104EC700000000000000A100000000000000010039
:104ED700012012100011004449592073796E74683B
:104EE7006573697A65727320616E6420736F756E7E
:104EF70064000000000000000067656E6572617461
:104F07006F72730000000000000000000000000046
:104F170000A10000000000000001005768657265ED
:104F270020646F65732074686520736F756E6420E5
:104F3700636F6D652066726F6D3F000000000000B3
:104F4700000000000000000000000000000000005A
:104F57000000000000A100000000000000010000A8
:104F6700000000000000000000000000000000003A
:104F770000000000000000A1000000000000000188
:104F87000053796C77657374657220532E000000A7
:104F9700000000000000000000A100000000000069
:104FA700000100023012121E131E494E444543549D
:104FB700202D00000000000000000000000000009D
:104FC7000000A1000000000000000100616E204504
:104FD700552D5375727665696C6C616E63652050EB
:104FE700726F6A6563740000000000000000000033
:104FF70000000000000000000000000000000000AA
:10500700000000000000A1000000000000000100F7
:105017000000000000000000000000000000000089
:105027000000000000000000A100000000000000D8
:105037000100000000000000000000000000000068
:1050470000000000000000000000A10000000000B8
:105057000000010053796C766961204A6F686E69B8
:10506700676B00000000000000000000A1000000C6
:10507700000000000100025012141E151E4469674B
:105087006974616C65205370616C74756E6720700C
:1050970065722047657365747A000000000000445C
:1050A700617320496E7465726E657420756E642035
:1050B7006765736368616666656E6500000000007A
:1050C70000736F7A69616C6520556E676C656963FB
:1050D700686865697420696D20416C6C746167004C
:1050E700000000766F6E20457277657262736C6F91
:1050F70073656E0000000000000000A100000000C2
:1051070000000001004265746A6520536368776197
:10511700727A2C20446F72697320476572626967DF
:105127002C0000000000004B61746872696E204516
:105137006E676C657274000000000000000000A13B
:10514700000000000000000100015112152D162D6E
:10515700546572726F72697374732057696E202D6C
:10516700204578706C6F6974696E670000000000F5
:10517700000054656C65636F6D6D756E696361746E
:10518700696F6E73204461746100000000000000C5
:1051970000000000526574656E74696F6E3F000011
:1051A700000000000000000000000000A100000057
:1051B70000000000010000000000000000000000E7
:1051C7000000000000000000000000000000A10037
:1051D70000000000000001004B61792048616D610B
:1051E7006368657200000000000000000000000016
:1051F700A100000000000000010053746566616EA5
:10520700204B61747A656E6265697373657200001D
:105217000000A10000000000000001000340121779
:1052270000000046726F7A656E436163686500002F
:105237000000000000000000000000A100000000C6
:1052470000000001004D697469676174696E672029
:10525700636F6C642D626F6F742061747461636B2C
:105267007320666F72000046756C6C2D4469736B12
:105277002D456E6372797074696F6E20736F6674F3
:105287007761726500000000000000000000000068
:105297000000000000000000000000000000000007
:1052A70000A1000000000000000100000000000055
:1052B70000000000000000000000000000000000E7
:1052C700000000A10000000000000001004A756511
:1052D7007267656E20506162656C00000000000017
:1052E7000000000000A10000000000000001000114
:1052F70020220C2D0D2D4C696768746E696E67202E
:1053070054616C6B73202D205461672033000000BB
:10531700000000000000000077686572652069736F
:10532700206D7920636F6D6D756E6974793F00002C
:105337000000000000000000000000000000000066
:105347000000000000000000000000000000000056
:105357000000A100000000000000010000000000A4
:105367000000000000000000000000000000000036
:1053770000000000A1000000000000000100000084
:105387000000000000000000000000000000000016
:10539700000000000000A100000000000000010064
:1053A7005376656E204775636B65730000000000D8
:1053B7000000000000000000A10000000000000045
:1053C70001000106221000110053616665747920FF
:1053D7006F6E20746865204F70656E20536561009D
:1053E7000000000000000000000000536166652017
:1053F7006E617669676174696F6E2077697468207A
:1054070074686520616964206F66000000616E2022
:105417006F70656E207365612063686172742E001A
:105427000000000000A100000000000000010000D3
:105437000000000000000000000000000000000065
:1054470000000000000000A10000000000000001B3
:105457000000000000000000000000000000000045
:10546700000000000000000000A100000000000094
:105477000001004265726E68617264204669736359
:105487006865720000000000000000A10000000035
:105497000000000100014022110F120F416E6472DB
:1054A7006F69642067656F6C6F636174696F6E20E5
:1054B7007573696E67000000000000000000475325
:1054C7004D206E6574776F726B000000000000005E
:1054D700000000000000A100000000000000010023
:1054E700225768657265207761732057616C647213
:1054F7006F69643F22000000000000000000000008
:105507000000000000000000000000000000000094
:1055170000000000000000000000A10000000000E3
:105527000000010000000000000000000000000073
:10553700000000000000000000000000A1000000C3
:1055470000000000010052656E617564204C6966B9
:10555700636869747A000000000000000000A10081
:105567000000000000000100022022121E131E5935
:105577006F757220496E66726173747275637475A4
:1055870072652057696C6C00000000000000000085
:10559700004B696C6C20596F75000000000000001B
:1055A700000000000000000000A100000000000053
:1055B70000010000000000000000000000000000E3
:1055C7000000000000000000000000A10000000033
:1055D70000000001000000000000000000000000C3
:1055E70000000000000000000000000000A1000013
:1055F70000000000000100000000000000000000A3
:10560700000000000000000000000000000000A1F2
:105617000000000000000001000000000000000082
:105627000000000000000000000000000000000073
:1056370000A1000000000000000100025022170036
:1056470000002253706F696C6572732C2052657667
:105657006572736520477265656E2C000000000057
:1056670000000000444543454C2122206F72202250
:1056770057686174277320697420646F696E6700C7
:105687000000000000006E6F773F2200000000005E
:105697000000000000000000000000000000A10062
:1056A700000000000000010054686F75676874739C
:1056B700206F6E20746865204175746F6D61746921
:1056C7006F6E20616E640000000069747320487576
:1056D7006D616E20496E7465726661636573206FD4
:1056E7006E000000000000000000000041697270B9
:1056F7006C616E6573207C204265726E642053690D
:10570700656B6572000000000000000000000340A8
:10571700030B1E0C1E4F4D4720575446205044463E
:1057270000000000000000000000000000A10000D1
:10573700000000000001005768617420796F752030
:105747006469646E2774206B6E6F772061626F7572
:105757007400000000000000004163726F62617412
:105767000000000000000000000000000000000032
:1057770000A1000000000000000100000000000080
:105787000000000000000000000000000000000012
:10579700000000A100000000000000010000000060
:1057A70000000000000000000000000000000000F2
:1057B7000000000000A10000000000000001004AF6
:1057C700756C696120576F6C66000000000000006F
:1057D70000000000000000A1000000000000000120
:1057E700000120030C2D0D2D496368207365686542
:1057F700206E696368742C20646173732077697203
:10580700206E69636874000000007A757374696DAF
:105817006D656E2077657264656E0000000000009C
:105827000000A1000000000000000100446965209D
:10583700537072616368652064657320706F6C696B
:105847007469736368656E000000000000005665A8
:10585700727261747320756E64207365696E657208
:1058670020526563687466657274692D00000000D4
:1058770067756E6700000000000000000000000070
:105887000000000000000000A10000000000000070
:1058970001006D6168612F4D617274696E20486106
:1058A70061736500000000000000A1000000000017
:1058B700000001000251030E000F00546872656575
:1058C700206A6F62732074686174206A6F75726EE4
:1058D700616C697374730000000000000077696CE5
:1058E7006C20646F20696E20323035300000000074
:1058F7000000000000A100000000000000010057A8
:10590700687920667574757265206D6564696120B4
:105917006D6179206265206D6F726500000000007F
:1059270000706F77657266756C2028616E64206DF4
:105937006F72652073756276657273697665290083
:105947000000007468616E20657665722062656686
:105957006F72650000000000000000A10000000059
:105967000000000100416E6E616C6565204E657731
:1059770069747A00000000000000000000A1000028
:105987000000000000010002500310001100486FE2
:10599700772074686520696E7465726E657420730C
:1059A70065657320796F7500000000000000000036
:1059B70064656D6F6E7374726174696E6720776862
:1059C70061742061637469766974696573000000A6
:1059D70000006D6F73742049535073207365652001
:1059E700796F7520646F696E67206F6E20746865C4
:1059F70000000000696E7465726E65740000000037
:105A0700000000000000000000000000A1000000EE
:105A1700000000000100000000000000000000007E
:105A27000000000000000000000000000000A100CE
:105A370000000000000001004A65726F656E204D8E
:105A47006173736172000000000000000000000035
:105A5700A1000000000000000100015003110F1217
:105A67000F5365637572697479204E696768746D41
:105A7700617265730000000000A1000000000000D3
:105A8700000100000000000000000000000000000E
:105A97000000000000000000000000A1000000005E
:105AA70000000001000000000000000000000000EE
:105AB70000000000000000000000000000A100003E
:105AC70000000000000100000000000000000000CE
:105AD700000000000000000000000000000000A11E
:105AE70000000000000000010000000000000000AE
:105AF700000000000000000000000000000000009F
:105B070000A10000000000000001004672616E6BFA
:105B1700205269656765722C20526F6E0000000085
:105B2700000000A1000000000000000100010103C7
:105B3700121E131E41627363686C75737376657208
:105B4700616E7374616C74756E670000000000000D
:105B5700000000000000000000000000000000003E
:105B67000000000000000000000000000000A1008D
:105B7700000000000000010000000000000000001D
:105B8700000000000000000000000000000000000E
:105B9700A10000000000000001000000000000005C
:105BA70000000000000000000000000000000000EE
:105BB7000000A1000000000000000100000000003C
:105BC70000000000000000000000000000000000CE
:105BD70000000000A100000000000000010000001C
:105BE70000000000000000000000000000000000AE
:105BF700000000000000A1000000000000000100FC
:105C07000100130B1E0C1E546F7220697320506520
:105C17006163652C20536F667477617265204672E5
:105C27006565646F6D00000000697320536C6176D1
:105C37006572792C2057696B6970656469612069A1
:105C470073205472757468000000005468652070F2
:105C57006F6C69746963616C207068696C6F736FCE
:105C6700706879206F6620746865000000496E745B
:105C770065726E65740000000000000000000000FF
:105C87000000000000A1000000000000000100006B
:105C970000000000000000000000000000000000FD
:105CA70000000000000000A100000000000000014B
:105CB700004164616D00000000000000000000006A
:105CC700000000000000000000A10000000000002C
:105CD7000001000250130D000D1E43796265726EBC
:105CE700657469637320666F7220746865204D61FF
:105CF700737365730000000000000000696D706C2D
:105D0700616E74732C2073656E736F72792065787A
:105D170074656E73696F6E20616E6400000073694D
:105D27006C69636F6E202D20616C6C20666F72202A
:105D3700796F7521000000000000000000000000DE
:105D4700000000000000000000000000000000004C
:105D57000000000000000000A1000000000000009B
:105D6700010000000000000000000000000000002B
:105D770000000000000000000000A100000000007B
:105D8700000001000000000000000000000000000B
:105D9700000000000000000000000000A10000005B
:105DA7000000000001000120130D2D0E0F48616354
:105DB7006B65727320616E6420436F6D70757465D7
:105DC7007220536369656E63650000000000000080
:105DD70000000000000000000000000000000000BC
:105DE70000000000000000A100000000000000010A
:105DF700000000000000000000000000000000009C
:105E0700000000000000000000A1000000000000EA
:105E1700000100000000000000000000000000007A
:105E27000000000000000000000000A100000000CA
:105E3700000000010000000000000000000000005A
:105E470000000000000000000000000000A10000AA
:105E570000000000000100536572676579204272F7
:105E6700617475730000000000000000000000A1CD
:105E77000000000000000001000120130E1E0F00AB
:105E870041206672616D65776F726B20666F722055
:105E97006175746F6D617465640000000000000037
:105EA70000006172636869746563747572652D6952
:105EB7006E646570656E64656E74000000000000B6
:105EC7000000000067616467657420736561726331
:105ED700680000000000000000000000A1000000B2
:105EE7000000000001004343432065646974696F43
:105EF7006E00000000000000000000000000A1008C
:105F07000000000000000100000000000000000089
:105F1700000000000000000000000000000000007A
:105F2700A10000000000000001006B6F726E617538
:105F3700000000000000000000000000000000005A
:105F47000000A10000000000000001000320131062
:105F5700001100496E7465726E6174696F6E616CD1
:105F6700204379626572204A757269736469637444
:105F7700696F6E00004B696C6C20537769746368B6
:105F8700696E6720437962657273706163652C205F
:105F9700437962657200004372696D696E616C20B6
:105FA70050726F7365637574696F6E202600000009
:105FB7000000000000000000004A75726973646900
:105FC7006374696F6E20486F7070696E67000000B8
:105FD70000A1000000000000000100000000000018
:105FE70000000000000000000000000000000000AA
:105FF700000000A1000000000000000100546966D5
:1060070066616E79526164000000000000000000C4
:106017000000000000A100000000000000010001D6
:106027002013110F12004E657773204B65792052AC
:1060370065636F766572792041747461636B732051
:106047006F6E0000000000005243342F5745500088
:106057000000000000000000000000000000000039
:10606700A100000000000000010000000000000087
:106077000000000000000000000000000000000019
:106087000000A10000000000000001000000000067
:1060970000000000000000000000000000000000F9
:1060A70000000000A1000000000000000100000047
:1060B70000000000000000000000000000000000D9
:1060C700000000000000A100000000000000010027
:1060D7004D617274696E20567561676E6F757800D1
:1060E7000000000000000000A10000000000000008
:1060F70001000220230C2D0D2D4C696768746E6911
:106107006E672054616C6B73202D204461792034B5
:10611700000000000000000000000077686572655D
:10612700206973206D7920636F6D6D756E69747961
:106137003F00000000000000000000000000000019
:106147000000000000000000000000000000000048
:106157000000000000A10000000000000001000096
:106167000000000000000000000000000000000028
:1061770000000000000000A1000000000000000176
:106187000000000000000000000000000000000008
:10619700000000000000000000A100000000000057
:1061A7000001005376656E204775636B65730000C9
:1061B7000000000000000000000000A10000000037
:1061C7000000000100010623110F120048617669E3
:1061D7006E672066756E2077697468205254500088
:1061E70000000000A100000000000000010022578D
:1061F700686F20697320737065616B696E673F3FD5
:106207003F22000000000000000000000000000026
:106217000000000000000000000000000000000077
:106227000000000000000000A100000000000000C6
:106237000100000000000000000000000000000056
:1062470000000000000000000000A10000000000A6
:106257000000010000000000000000000000000036
:10626700000000000000000000000000A100000086
:106277000000000001006B6170656A6F6400000038
:106287000000000000000000000000000000A10066
:1062970000000000000001000120FF0000000000D6
:1062A70000000000000000000000000000000000E7
:1062B70000000000000000A1000000000000000135
:1062C70000000000000000000000000000000000C7
:1062D700000000000000000000A100000000000016
:1062E70000010000000000000000000000000000A6
:1062F7000000000000000000000000A100000000F6
:106307000000000100000000000000000000000085
:1063170000000000000000000000000000A10000D5
:106327000000000000010000000000000000000065
:10633700000000000000000000000000000000A1B5
:106347000000000000000001000000000000000045
:106357000000000000000000000000000000000036
:1063670000A1000000000000000100000000005E26
:10637700000000005E0000000501050100030003A6
:1063870000147F147F14147F147F140E2E7F3A3865
:10639700242A6B2A12172D775A7422152A54226839
:1063A70059546B50304E4910700000070000000030
:1063B70003000000005D220000003E410000225D56
:1063C700000000413E000028383E382808281E28D3
:1063D7000808083E080808083E0808C0E000000052
:1063E7008060000000000808080000080808000096
:1063F70040000000006060000020001C00024030E8
:106407000806017F7F5D7F7F3E4149413E00437F14
:10641700400000427F4000476371594F4261514934
:1064270046636349697F22414949360812117E1044
:10643700101C127F10474F4979794F494949307FDE
:106447007F49797936494949300141791F07016107
:10645700310D033F7F497F3F76494949764F4F4981
:10646700737F464949493E004400000000666600C4
:106477000000C4E000000086660000081C36220009
:1064870000081422001414141414141414141400FF
:1064970022361C0800221408000303590F0F0601B7
:1064A7005109065D36556A6D3E4955551E7F0909E6
:1064B700097F7E0909097E7F4949417F7F4949490B
:1064C700367F634163633E414141227F4141225D03
:1064D7007F4141413E7F6B4941083E494949417FE0
:1064E7000B0109007E090901017F63496B733E4176
:1064F70049493A7F0808087F7F0808087F00417FDD
:10650700410000417F4100706040607F3040404063
:106517003F7F282254217F101C23407F404040406A
:106527007F404040407E0F040F7E7F020C027F7F3A
:106537000A14287F7F0608307F7F6341637F3E41CF
:1065470041413E7F09090F0F7F090909067F6361F2
:10655700335F3E4151617E7F19295F2F7F091929DA
:10656700466F6F497B7B264949493201017F01010B
:1065770001017F01017F6040607F3F4040403F0B4A
:106587002C302C0B071860180727083408271F70B2
:1065970008701F412A142A416314081463030A74FC
:1065A7000A030304780403436355432162514945B1
:1065B70063007F414100007F41410002001C002031
:1065C70001060830400041417F000041417F000043
:1065D70002010200040201020440404040404040E2
:1065E70040404000000300000000010200747054A6
:1065F7003C7C20545454787F28446C7C7F4444442A
:10660700387C6C446C6C38444444287C6C44287F48
:10661700384444447F7C7C541C4C385454541804EC
:10662700047F050000047E0505BC3CA4D8EC18A433
:10663700A4A47C7F08040C7C7F0404047800007DFC
:10664700000000407D4000C0C0FD000040807D008C
:10665700007F381044007F1028284400017E6040E6
:1066670000013F40407C0C7C0C7C7C047804787CE7
:1066770008040C7C7C040404787C6C446C7C3844EF
:10668700444438FC18243C3CFC242424183C3C2477
:1066970018FC18242424FC7C08040C047C0404043F
:1066A700081C5C547470485454542404047F644494
:1066B70000043F44407C6040607C3C4040403C00DC
:1066C700281028000C1060100C2C5860582C1C60E7
:1066D70010601C28103810284428102844BC30A00B
:1066E700D0FC1CA0A0A07C24546C54484464544C97
:1066F700440008007F00000008364100007F0000CA
:0F67070000007F0000007F0008004136080000FE
:016D3C000551
:10139200A2AFE433FAC2AF750B00750C04E4F50D8D
:1013A20090FB0975F000C0021220A2D0027B00EB74
:1013B20075F0D3A42449F582742735F0F583E493BC
:1013C200FCBCFF02805A53040FBC010B90FB0AE0E5
:1013D200700590FB0AEBF0EB75F0D3A42449F5827B
:1013E200742735F0F583E493FC53040FBC020B9091
:1013F200FB0BE0700590FB0BEBF0EB75F0D3A42434
:1014020049F582742735F0F583E493FC53040FBC4D
:10141200030B90FB0CE0700590FB0CEBF00B808F44
:1014220090FB14EBF090FB0CE0FCEBC39C90FB10E8
:10143200F090FB0BE0FBECC39B90FB0FF090FB0AE0
:10144200E0FCEBC39C90FB0EF090FB0DECF090FBEC
:1014520011E4F090FB12F090FB137401F090FB1575
:10146200E4F0EA24FF92AF22A2AFE433FAC2AFC0A3
:1014720002120700AB82D002BB2F02803EBB3103B7
:101482000217DBBB32030217ECBB33030217FDBBAF
:10149200340302180EBB3C030216A1BB3E03021525
:1014A20068BB5E028067BB700302181FBB71030238
:1014B200183FBB900302186002187390FB12E0FB06
:1014C2007C000BBB00010C90FB14E0FD8D0B750C36
:1014D200008B828C83C002122367AB82D00290FB06
:1014E20012EBF0E075F0D3A42449FB742735F0FC2D
:1014F2008B828C83A3E493FD90FB15F08B828C830B
:10150200E493FB90FB11740F5BF002187390FB12D3
:10151200E0FB7C0090FB14E0FD7E002BFBEE3CFC2C
:10152200EB24FFF582EC34FFF5838D0B8E0CC002A9
:10153200122367AB82D00290FB12EBF0E075F0D37E
:10154200A42449FB742735F0FC8B828C83A3E4939B
:10155200FD90FB15F08B828C83E493FB90FB11745E
:101562000F5BF002187390FB12E0FB75F0D3A4241A
:1015720049F582742735F0F583E493C4540FFC5384
:10158200040F7D008C828D83A3750B03E4F50CC0E0
:1015920002C003122367AC82D003D0027D0090FB0D
:1015A20011E0FE2409F582E434FBF583E0FFF879CB
:1015B20000EBC398FBED99FD0BBB00010DEE240D72
:1015C200F582E434FBF583E0FE8E08750900850898
:1015D2000B85090C8B828D83C002C004C007C0003A
:1015E200C001122367AB82AD83D001D000D007D0F7
:1015F20004D002EF2BFBEB75F0D3A42449F58274DF
:101602002735F0F583E493C4540FFDB50402803608
:101612008B057E00EDC398FDEE99FE8D828E83A32D
:1016220085080B85090CC002C004C007C000C001B8
:10163200122367AD82AE83D001D000D007D004D090
:1016420002EF2DFB80B0EB75F0D3A42449FC742784
:1016520035F0FD8C828D83A3E493FC90FB15E0FDB5
:10166200C3EC9D50328B047D00ECC398FCED99FDD8
:101672008C828D83A385080B85090CC002C007C02C
:1016820000C001122367AC82AD83D001D000D00725
:10169200D002EF2CFB80AF90FB12EBF0021873909C
:1016A200FB12E0FB75F0D3A42449F582742735F0D0
:1016B200F583E493C4540FFC53040F7D008C828D98
:1016C20083A3A3750B03E4F50CC002C003122367C6
:1016D200AC82D003D0027D0090FB11E0FE2409F51C
:1016E20082E434FBF583E0FFF87900EBC398FBED6D
:1016F20099FD0BBB00010DEE240DF582E434FBF5E0
:1017020083E0FE8E0875090085080B85090C8B8223
:101712008D83C002C004C007C000C001122367ABA2
:1017220082AD83D001D000D007D004D002EF2BFBD2
:10173200EB75F0D3A42449F582742735F0F583E4E0
:1017420093C4540FFDB5040280368B057E00EDC3B1
:1017520098FDEE99FE8D828E83A385080B85090C78
:10176200C002C004C007C000C001122367AD82AE30
:1017720083D001D000D007D004D002EF2DFB80B07F
:10178200EB75F0D3A42449FC742735F0FD8C828DCF
:1017920083A3E493FC90FB15E0FDC3EC9D50328BD8
:1017A200047D00ECC398FCED99FD8C828D83A385AA
:1017B200080B85090CC002C007C000C001122367D4
:1017C200AC82AD83D001D000D007D002EF2CFB80D9
:1017D200AF90FB12EBF002187390FB09E0FB90FB59
:1017E20012F090FB11E4F002187390FB0AE0FB90F8
:1017F200FB12F090FB117401F0807690FB0BE0FB82
