:040000000200833245
:01000B0032C2
:0100130032BA
:01001B0032B2
:0100230032AA
:01002B0032A2
:01003300329A
:01003B003292
:0300430002096847
:01004B003282
:01005300327A
:03005B00020C375D
:01006300326A
:01006B003262
:01007300325A
:03007B00020EDE94
:0300E80002007E95
:05007E001200EB80FE02
:1000EB00A2AFE433F527C2AF750A00750B04E4F534
:1000FB000C90F00075F0001216C375230090282F9A
:10010B00E493F5257D00ED75F0D3A4242EF58274D0
:10011B002835F0F583E493FEBEFF02805A53060F99
:10012B00BE010B90F001E0700590F001EDF0ED7564
:10013B00F0D3A4242EF582742835F0F583E493FED6
:10014B0053060FBE020B90F002E0700590F002ED2B
:10015B00F0ED75F0D3A4242EF582742835F0F583D9
:10016B00E493FE53060FBE030B90F003E070059073
:10017B00F003EDF00D808F7E018D26752400E527B1
:10018B0024FF92AFC00612113A7582001212A075AD
:10019B0082001212ADD006C006120EF2AD82D0064E
:1001AB00A2AFE433F527C2AFBD2F02803EBD3103B2
:1001BB00020423BD320302042EBD3303020439BDF6
:1001CB003403020444BD3C03020348BD3E03020258
:1001DB006DBD5E028048BD700302044FBD7103020A
:1001EB000464BD900302047A020488AD247A008D66
:1001FB00828A83A385260A750B00C006121E51AA9C
:10020B0082D006EAF52475F0D3A4242EFA7428358F
:10021B00F0FD8A828D83A3E493F525020488C00642
:10022B00AA247D00AB267E00EB2AFAEE3DFDEA24E4
:10023B00FFF582ED34FFF5838B0A8E0BC006121E81
:10024B0051AA82D006EAF52475F0D3A4242EFA74B1
:10025B002835F0FB8A828B83A3E493F525D0060225
:10026B000488E52475F0D3A4242EF582742835F088
:10027B00F583E493C4540FFA53020F7B008A828BED
:10028B0083A3750A03E4F50BC006121E51AA82D094
:10029B00068A29AB247D008B828D83A3AD267B0040
:1002AB008D0A8B0BC003C005C006121E51AA82AC6F
:1002BB0083D006D005D0038A28E52875F0D3A42473
:1002CB002EF582742835F0F583E493C4540FFCB5F6
:1002DB0029028024AC287A008C828A83A38D0A8B16
:1002EB000BC003C005C006121E51AA82AC83D006F8
:1002FB00D005D0038A2880C1E52875F0D3A4242E1D
:10030B00FA742835F0FC8A828C83A3E493FAC395A4
:10031B00255024AA287C008A828C83A38D0A8B0B00
:10032B00C003C005C006121E51AA82AC83D006D0F2
:10033B0005D0038A2880C1852824020488E524750A
:10034B00F0D3A4242EF582742835F0F583E493C4FE
:10035B00540FFA53020F7B008A828B83A3A3750A77
:10036B0003E4F50BC006121E51AA82D0068A2BABF2
:10037B00247C008B828C83A3AD267B008D0A8B0B98
:10038B00C003C005C006121E51AC82AA83D006D092
:10039B0005D0038C2AE52A75F0D3A4242EF582749C
:1003AB002835F0F583E493C4540FFAB52B0280245F
:1003BB00AA2A7C008A828C83A38D0A8B0BC003C074
:1003CB0005C006121E51AA82AC83D006D005D003FD
:1003DB008A2A80C1E52A75F0D3A4242EFA74283515
:1003EB00F0FC8A828C83A3E493FAC395255024AC4A
:1003FB002A7A008C828A83A38D0A8B0BC003C005DB
:10040B00C006121E51AA82AC83D006D005D0038A37
:10041B002A80C1852A24806590F000E0F52475239D
:10042B0000805A90F001E0F524752301804F90F085
:10043B0002E0F524752302804490F003E0F5247567
:10044B0023038039E523045403F5232400F582E4C8
:10045B0034F0F583E0F5248024740325235403F54D
:10046B00232400F582E434F0F583E0F524800EE5D7
:10047B002404FE9001F4C00612093ED006E52724A1
:10048B00FF92AFA2AFE433F527C2AFEEB524030260
:10049B0008D37582001212BA7582001213F9750A0D
:1004AB00007582001213DFE52475F0D3A4FAABF0CC
:1004BB00242EF582EB3428F583E493FC53040F7D53
:1004CB00000CBC00010DC002C003C004C005749633
:1004DB00C0E07424C0E07480C0E012186FE5812482
:1004EB00FBF581750A0075826A1213DFD003D00207
:1004FB00EA242EF582EB3428F583E493C4540FFCE5
:10050B0053040F7D000CBC00010DC002C003C004DE
:10051B00C005749DC0E07424C0E07480C0E0121864
:10052B006FE58124FBF5817582011213F9750A00C1
:10053B0075821F1213DFD003D002EA242EF543EB92
:10054B003428F544854382854483A3A3A3A3E49372
:10055B00FF8F45754600854382854483A3A3A3E49F
:10056B0093FD8D47754800854382854483A3A3E49F
:10057B0093FF8F49754A00854382854483A3E49397
:10058B00FD7C00C002C003C045C046C047C048C088
:10059B0049C04AC005C00474A5C0E07424C0E0740F
:1005AB0080C0E012186FE58124F5F5817582001289
:1005BB0013F9D003D002EA242EF549EB3428F54A7F
:1005CB0074052549FFE4354AFC7D808F318C328DD3
:1005DB003374272549FCE4354AFD7F808C348D35F7
:1005EB008F3674492549FCE4354AFD7F808C378D65
:1005FB00388F39746B2549FCE4354AFD7F808C3A82
:10060B008D3B8F3C748D2549FCE4354AFD7F808CF6
:10061B003D8D3E8F3F74AF2549FCE4354AFD7F800D
:10062B008C408D418F4274D12549F582E4354AF5D2
:10063B0083E493F52C752D0074FA252D50030207D6
:10064B000DC3E52D952C506CC002C003E52D75F044
:10065B0003A42431F8860708860408860518188F2A
:10066B00828C838DF0C002C003121E1DAC82AD8341
:10067B00D003D002EDCC25E0CC33CC25E0CC33FD40
:10068B003395E0FFFA7484C39CFCE49DFDE49FFF6B
:10069B00E49AA2E713FAEF13ED13EC13F582E52DB1
:1006AB0004F50AC002C0031213DFD003D002D0033B
:1006BB00D0028013E52D04F50A758200C002C00339
:1006CB001213DFD003D002E52D75F003A42431F80B
:1006DB0086040886050886071818C002C003C004E4
:1006EB00C005C00774B9C0E07424C0E07480C0E0DA
:1006FB0012186FE58124FAF581D003D002052D0283
:10070B000643750A07758200C002C0031213DFD0BF
:10071B0003D002EA242EFCEB3428FD74D22CF58294
:10072B00E43DF583E493C313FC74075C75F009A4F3
:10073B0024BCFCE43427FD7F80C002C003C004C08E
:10074B0005C00774B9C0E07424C0E07480C0E01227
:10075B00186FE58124FAF581750A07758224121347
:10076B00DF74BCC0E07424C0E07480C0E012186F6A
:10077B00158115811581D003D002EA242EFCEB34B0
:10078B0028FD74D22CF582E43DF583E4935401C427
:10079B000354F824ACFCE43427FD8C2E8D2F7530DC
:1007AB0080852E82852F838530F0C002C003121EF8
:1007BB001DAC82E583CC25E0CC33CC25E0CC33FDDE
:1007CB007424C39CF582E49DF583750A02E4F50B52
:1007DB00121E87AC82742C2CF582750A071213DF5C
:1007EB00C02EC02FC03074B9C0E07424C0E0748038
:1007FB00C0E012186FE58124FAF581750A0775823E
:10080B00541213DF74BCC0E07424C0E07480C0E0E9
:10081B0012186F158115811581D003D002EA242E91
:10082B00FAEB3428FB74D22AF582E43BF583E4938C
:10083B00C4540FFA74075A75F00AA424F2FAE4347C
:10084B0027FB8A2E8B2F753080852E82852F8385F3
:10085B0030F0121E1DE582FA2A25E0FA7427C39A9E
:10086B00245CF582750A071213DFC02EC02FC0302F
:10087B0074B9C0E07424C0E07480C0E012186FE556
:10088B008124FAF581755C027582081213ACE52C94
:10089B00C40354F8FA2408F582755C01C0021213E4
:1008AB00ACD00274092AF582755C02C0021213AC3B
:1008BB00D002740A2AF582755C011213AC755C02C6
:1008CB007582391213ACAE24E52724FF92AF90004A
:0B08DB0019C00612093ED0060201A25F
:101EC300000000000000000000000000000000000F
:101ED30000000000000000000000000000000000FF
:101EE3000000000000008000C02000B08028F05CEB
:101EF300381E1A0E0C0C0C050929C54921015484FE
:101F03000CE600F058020100000000000000000091
:101F130000000000000000000000000000000000BE
:101F230000000000000000000000000000008080AE
:101F3300C0E06030D0082004000400020202020660
:101F4300060A06C6E6E2F2F2F8FCFC040000000012
:101F5300000000000000000000000000000000007E
:101F6300000000000000000000000000000000006E
:101F7300000000008080C0E0E0F0F0F8F8FCFCFE18
:101F8300FEFEFEFEFEFFFFFFFFFFFFFFFEFEFEFE67
:101F9300FCFC5C02010000000000000000000000E7
:101FA300000000000000000000000000000000002E
:101FB3000000008040E030D02C46A9401AE0D4AEA7
:101FC300DB8822474E8C0C8C088C008C860E834356
:101FD300BBE6DFF8F7FCFF7F0B000000000000000A
:101FE30000000000000000000000000000000000EE
:101FF300000000000000000000000080C0E0F8F8CE
:10200300FCFEFFFF7F3F11043F7DF8F0F0F0F0F09E
:10201300F0F8F0F8F07CBCC4F9FFFFFFFFFF3F07C7
:1020230000000000000000000000000000000000AD
:10203300000000000000000000000000000000009D
:102043000080C0E0F0F8FCFEFFFFFFFFFFFFFFFF93
:10205300FFFFFFFFFFFFFFFFFFFFFFFFFFFFFFFF8D
:10206300FFFFFFFFFF7F0F000000000000000000E4
:1020730000000000000000000000000000008000DD
:1020830080006080F0583825FA85BA2699CE41EA57
:10209300F5D6FBFBD5FFEDFAFFEDFEFEFEFEFAFEE5
:1020A300FEFFFFFEFFFFFF7F1F1F03020000000074
:1020B300000000000000000000000000000000001D
:1020C30000000000000080C0C0C0E0E0F0FCFE7F24
:1020D3007F7FFFFFFFFFF7FBF9FCFCFEFEFFFFFE28
:1020E300FEFDFDFDFDFDFDFDFCFEFFFFFFFF7F3F50
:1020F3000F070100000000000000000000000000C6
:102103000000000000000000000000008080C0C04C
:10211300E0E0F0F8FCFFFFFFFFFFFFFFFFFFFFFF23
:10212300FFFFFFFFFFFFFFFFFFFFFFFFFFFFFFFFBC
:10213300FFFFFFFFFF7F3F1F0703000000000000BA
:102143000000000000000000804080403098249090
:102153000499C284C3E0E3FCF5F6FAFBFFFDFCFE41
:10216300FEFFFFFFFFFFFFFFFFFFFFFFFFFFFFFF7D
:10217300FFFFFF3F3F3F0F0F070701010000000074
:10218300000000000000000000000000000000004C
:1021930080C0E0E0F0F8FCFEFEFFFFFFFFFFF3FB73
:1021A300F9FDFCFCFEFFFFFFFFFFFFFFFFFFFFFF4B
:1021B300FFFFFFFFFFFFFFFFFF7F7F3F1F1F0F0794
:1021C3000301000000000000000000000000000008
:1021D30000000000000080C0C0E0F0F8FCFCFEFF3F
:1021E300FFFFFFFFFFFFFFFFFFFFFFFFFFFFFFFFFC
:1021F300FFFFFFFFFFFFFFFFFFFFFFFFFFFFFFFFEC
:10220300FF7F3F3F1F0F0707010100000000000091
:1022130000000000000000008040BC92E7E1F8F0FD
:10222300FEF83E7E1F3E0F1F0F070F07070F0F1FFE
:102233003F7F7FFFFFFFFFFFFFFFFFFFFFFFBF1793
:102243000707030301010000000000000000000075
:10225300000000000000000000000000000000007B
:1022630080C0ECFEFFFFFFFF7F7F3F3F1F1F0F0F6D
:102273000F070707071F3F7FFFFFFFFFFFFFFFFF5B
:10228300FFFFFFFFFF7F0F070303010100000000B3
:10229300000000000000000000000000000000003B
:1022A30000000000000080C0FCFEFFFFFFFFFFFFF7
:1022B3007F7F3F3F1F1F0F0F0F07070F1F3F7FFF3B
:1022C300FFFFFFFFFFFFFFFFFFFFFFFFFF1F0707EB
:1022D30003030101000000000000000000000000F3
:1022E30000000000000000000038183E1F3F1F0FD1
:1022F3000F070303000000000000000000000000BF
:102303000000000080A0AFFFFFFFFFFFFFFFFF7F84
:102313000F0F02000000000000000000000000009A
:1023230000000000000000000000000000000000AA
:10233300103C3C3E1F0F0F07030301010000000088
:10234300000000000000000000000000C0F0FFFFDC
:10235300FFFFFFFFFF7F3F1F07010000000000009A
:10236300000000000000000000000000000000006A
:1023730000000000000000383C3E3F3F1F0F0F07E6
:102383000303010000000000000000000000000043
:10239300000080E0FFFFFFFFFFFFFFFFFF7F1F0F36
:1023A3000300000000000000000000000000000027
:1023B300000000000000000000000000000000001A
:1023C300000000000000000000000000000000000A
:1023D30000000000000000020102020303030303E4
:1023E30003010100000000000000000000000000E5
:1023F30000000000000000000000000000000000DA
:1024030000000000000000000000000000000000C9
:1024130000000000000000000000000000000002B7
:10242300030303030303030303000000000000008E
:102433000000000000000000000000000000000099
:102443000000000000000000000000000000000089
:102453000000000000000000000000000000000079
:102463000000000000020303030303030303030349
:102473000100000000000000000000000000000058
:102483000000000000000000000000000000000049
:10249300000000444159202575005341414C20253B
:1024A3007500253032753A253032752D2530327559
:0B24B3003A25303275002573007C00D4
:0268D900473244
:0C00DC00754B00754C00754D007553000D
:1008E6008582C1E58630E1FB5386FD225380FB22DB
:1008F60043800422AA82743F5AF5F0744045F0F50D
:10090600820208E6AA82740F5AF5F074B045F0F533
:10091600820208E6AA82AB838B04740F5CF5F0743E
:100926001045F0F582C002C0031208E6D003D002DB
:1009360053020F8A820208E6AA82AB838A048B05D9
:100946001ABAFF011BEC4D60187C007D007EB07F5B
:10095600040CBC00010D1EBEFF011FEE4F70F2809D
:10096600DB22C022C0E0C0F0C082C083C002C00348
:10097600C004C005C006C007C000C001C0D075D005
:1009860000A2AFE433F550C2AF53C0FEE5D130E06C
:100996006753D1FE90FADEE0FBFD7C0090FADFE0C3
:1009A600FEFF7A004CF54EEA4DF54F90FADCE0FA80
:1009B600A3E0FCFD620390FADEEBF07B00EE620240
:1009C600EB620490FADFEAF043D60190FB0FE0FAFF
:1009D600A3E0FB4A7003020AF274FBC0E07409C08C
:1009E600E090FB0FE0C0E0A3E0C0E0854E82854FBB
:1009F600838550F022020AF2E5D120E103020AEFD4
:100A060053D1FD1208F2AA4B7B000ABA00010BEB88
:100A16003395E0FCFD750A09E4F50BF50CF50D8A36
:100A2600828B838CF0ED1217FCAA828A4B90FAE631
:100A3600E0FB7A0090FAE7E0FC7D004AF54EED4BCC
:100A4600F54FE54B703DAA4CFB8A828B83A3750A52
:100A560003E4F50B121E51AA828A4C758200120815
:100A6600FA7A047BF08A4E8B4FE54C602FE4FCFD4E
:100A760074842AFAE43BFBE43CFCE43DFD8A4E8B9D
:100A86004F8019AA4EAB4FE4FCFD74082AFA740194
:100A96003BFBE43CFCE43DFD8A4E8B4FAA4F90FAAB
:100AA600E6EAF0AA4E90FAE7EAF07582A41208E6A2
:100AB600854B8212090A854B8212090A90000012A0
:100AC600091A90000012091A1208F643D6027A0093
:100AD6007B007C6E7D000ABA00010B1CBCFF011D69
:100AE600EC4D70F243D702800375D100E55024FF28
:100AF60092AFD0D0D001D000D007D006D005D00418
:100B0600D003D002D083D082D0F0D0E0D02232857C
:100B1600D55185D45290FAEE7407F090FAEF740727
:100B2600F090FAF07407F090FAF17407F090FAF288
:100B36007407F090FAF37407F090FAF47404F090E6
:100B4600FAF5E4F090FAF6F090FAF774DFF090FA1E
:100B5600F874BEF090FAF9E4F090FAFA7407F0909F
:100B6600FAFB7420F090FAFC7442F0A2AFE433FA78
:100B7600C2AF758200C0021212BA9001F412093E89
:100B86001208F27582AC1208E67582AE1208E67596
:100B960082A51208E61208F6D00253BEFBE5BE3067
:100BA600E5FBABC674F85BF5F0744445F0F5C6E5B5
:100BB600C630E6FB43BE0453B8F6758A0053E8F721
:100BC600438D40439A10438C02D2AF85D55185D4CC
:100BD6005243D6817BEE7CFA8C0390FAF5EBF07BE0
:100BE600EE7CFA90FAF6EBF07BF57CFA8CD57BF589
:100BF6007CFA8BD475D60143C70243BE07000000BA
:100C0600E5BE54037003020C1775D7010043870134
:100C16000053C7FD8551D58552D475D601E5BE3042
:100C2600E5FBC2AFC00212113AD002EA24FF92AF2E
:100C360022C0E0C082C083C002C003C004C005C099
:100C460006C007C000C001C0D075D00053C0F7E58C
:100C5600D820E003020EC253D8FE43D701AA53059B
:100C660053EA6003020EC5A2AFE433FAC2AF53FEE5
:100C760003438002E590F4FB5303FC90FB05E0FC84
:100C860090FAFDE0FDEB6D420490FB05ECF090FA66
:100C9600FDEBF0EB0303543FF4FC43FD025380FDF0
:100CA600AD907E00EDF4FDEEF45305FCE4A2E713EF
:100CB600CD13CDA2E713CD13CDFEE580F4FF530788
:100CC600C07800EF4205E842068C077800EF52052F
:100CD600E852068D0390FB06E0FD90FAFEE0FEEB7F
:100CE6006E420590FB06EDF090FAFEEBF053FDFD2B
:100CF60043FE045390FBAD907E00EDF4FDEEF453FD
:100D060005F8E4A2E713CD13CDA2E713CD13CDFE6C
:100D1600E580F4FF5307C07800EF4205E842067FFE
:100D260000EC5205EF52068D0390FB07E0FD90FAAA
:100D3600FFE0FEEB6E420590FB07EDF090FAFFEB4D
:100D4600F053FEFB43FE085390F7AD907E00EDF4A2
:100D5600FDEEF45305F0E4A2E713CD13CDA2E7139D
:100D6600CD13CDFEE580F4F85300C07900E84205C6
:100D7600E94206EC5205EF52068D0390FB08E0FDB2
:100D860090FB00E0FEEB6E420590FB08EDF090FB59
:100D960000EBF053FEF743FE105390EFAD907E004C
:100DA600EDF4FDEEF45305E0E4A2E713CD13CDA276
:100DB600E713CD13CDFEE580F4F85300C07900E8C3
:100DC6004205E94206EC5205EF52068D0390FB09F7
:100DD600E0FD90FB01E0FEEB6E420590FB09EDF0B5
:100DE60090FB01EBF053FEEF43FE205390DFAD90F6
:100DF6007E00EDF4FDEEF45305C0E4A2E713CD1337
:100E0600CDA2E713CD13CDFEE580F4F85300C079EB
:100E160000E84205E94206EC5205EF52068D0390C2
:100E2600FB0AE0FD90FB02E0FEEB6E420590FB0A3A
:100E3600EDF090FB02EBF053FEDF43FE405390BF14
:100E4600AD907E00EDF4FDEEF4530580E4A2E713C9
:100E5600CD13CDA2E713CD13CDFEE580F4F85300F4
:100E6600C07900E84205E94206ED5204EE52078CCD
:100E76000390FB0BE0FC90FB03E0FDEB6D4204905E
:100E8600FB0BECF090FB03EBF053FEBF43FE8053ED
:100E9600907FE580F4FC74C05CFB90FB0CE0FC905A
:100EA600FB04E0FDEB6D420490FB0CECF090FB04C0
:100EB600EBF053FE7FEA24FF92AF800375D800D093
:100EC600D0D001D000D007D006D005D004D003D0B2
:100ED60002D083D082D0E032C0E0C002538ABF5332
:100EE600E8F7E5BEF452BED002D0E03290FB0AE04D
:100EF600FA90FB02E0F45A5420F55490FB09E0FB0B
:100F060090FB01E0F45B5408F555A2AFE433FCC254
:100F1600AF7D007E00BE08004003020FEDEE24FD0B
:100F2600F582E434FAF583E0FFEE2405F582E43435
:100F3600FBF583E0F85207EF7003020FE7C3E49F67
:100F4600F85207BE0506BF2003020FE7BE0406BF20
:100F56000803020FE7ED2405F8E434FBF9ED240558
:100F6600F582E434FBF583E0FBEFF45203888289D3
:100F760083EBF090FB0AE0FA5302DF90FB0AEAF0FB
:100F860090FB09E0FA5302F790FB09EAF0EDC4037F
:100F960054F8FAEF75F01DA4FFE5F0FBC403CFC4C7
:100FA6000354076FCF5407CF6FCF30E20244F85394
:100FB60007077B00EF2AFAE554600674402AFA8098
:100FC60008E555600474802AFAEC24FF92AFEA9093
:100FD60024BE93FABA9007C002120B15D0028A8279
:100FE600220E8E05020F1BEC24FF92AF75820022A3
:100FF600AA82758200C0021208FAD0027B008B0416
:101006007D007E007F00C3EC9409ED9400EE940011
:10101600EF648094805042C002C0031208F2D003ED
:101026008B82C00312090A90000012091A1208F6F0
:10103600D003D0027C847D008A82C002C003C00433
:10104600C0051208E6D005D004D003D0021CBCFFB0
:10105600011DEC4D70E20B80A5225390FD9000011E
:1010660012093E43900290000112093E1208F275E1
:1010760082A21208E67582A11208E67582C01208DD
:10108600E67582241208E67582811208E6758222C8
:101096001208E675822F1208E67582AF1208E67509
:1010A60082A41208E67582A60208E6AA83E5829063
:1010B600FB0FF0A3EAF0227A247BF47C007D848A7D
:1010C600828B838CF074FF1216E2A3AA82AB83DDB7
:1010D600EE7D848A828B838CF0E41216E2A3AA82C8
:1010E600AB83DDEF7D848A828B838CF0E41216E27B
:1010F600A3AA82AB83DDEF7D848A828B838CF07416
:10110600FF1216E2A3AA82AB83DDEE7D848A828B70
:10111600838CF074FF1216E2A3AA82AB83DDEE7D08
:10112600848A828B838CF074FF1216E2A3AA82ABA8
:1011360083DDEE22C2AF90FB13E0F55675577E7540
:10114600582575598053BEFBE5BE30E6FB53C68075
:10115600E5C620E6FB43BE0443B809750A00750BD5
:1011660008E4F50C90FAFD75F0001216C3750A0036
:10117600750B08E4F50C90FB0575F0001216C375A7
:10118600F32875F40143FD1443FE0343FF1853FD92
:101196003D75EB1075EC2475ED8075CB9A75CDCB4E
:1011A600750A00750B90750C0190F94C75F00012DC
:1011B60016C37A4C7BF97C147DFA90FADCEC6AF063
:1011C600ED6BA3F07A4C7BF98B0290FADEEAF07AAB
:1011D6004C7BF990FADFEAF090FAE074DFF090FACF
:1011E600E174EDF090FAE2E4F090FAE374C8F0905E
:1011F600FAE4E4F090FAE57449F07ADE7BFA8BD5EE
:101206007ADE7BFA8AD453D1FE43D6017586007501
:10121600C23B75C5305380EF121060758200120F05
:10122600F6750A00750B48750C0990F00475F00008
:101236001216C37A047BF08B0290FAE6EAF07A047F
:101246007BF090FAE7EAF090FAE874DFF090FAE9BA
:1012560074C1F090FAEAE4F090FAEB7484F090FA34
:10126600EC740FF090FAED7448F07AE67BFA8BD3C3
:101276007AE67BFA8AD253D1FD1208F27582001201
:1012860008FA75820012090A90000012091A12085B
:10129600F643D60243D702D2AF22E582FA60045360
:1012A600A0F72243A00822E582FA600453A0EF22A9
:1012B60043A01022AA82A2AFE433FBC2AF8A0A750A
:1012C6000B48750C0990F00475F000C0031216C3A4
:1012D600D003EB24FF92AF22AA82A2AFE433FBC273
:1012E600AFE55AC423541FFC8C0A750B00750C001D
:1012F600750D00900108E4F5F0C002C0031217183E
:10130600AC82AD83FFD003D002EC2404FCED34F0B4
:10131600FDEA2CFAE43DFE7C007407555AF5F0050B
:10132600F07401800225E0D5F0FBFDE55B30E019A5
:101336008A828E838CF0121E35FFED42078A828EDA
:10134600838CF0EF1216E280198A828E838CF0125B
:101356001E35FFEDF4F852078A828E838CF0EF1269
:1013660016E274842AFAE43EFEE55B30E1198A82CD
:101376008E838CF0121E35FFED42078A828E838C97
:10138600F0EF1216E280198A828E838CF0121E35D7
:10139600FFEDF4FD52078A828E838CF0EF1216E27F
:1013A600EB24FF92AF22AA827B008B047D007E0095
:1013B6007F00C3EC9484ED9400EE9400EF64809477
:1013C6008050158A5A855C5B8B82C002C00312125C
:1013D600DED003D0020B80D222AA82A2AFE433FB76
:1013E600C2AF90FB11E50AF090FB12EAF0EB24FF86
:1013F60092AF22AA82A2AFE433FBC2AFBA00028048
:1014060005BA0124801190FB13E0F55675577E75D9
:101416005825755980802090FB14E0F55675572C99
:10142600755865755980800F90FB13E0F556755712
:101436007E755825755980EB24FF92AF2285825D13
:10144600A2AFE433F562C2AF90FB11E0FC8C0A75E3
:101456000B00750C00750D00900108E4F5F0C00452
:10146600121718AD82AE83F8D004ED2404FDEE34D5
:10147600F0FE90FB12E0FF2DFDE43EFE8D5E8E5FDA
:101486007560007420B55D0BE5560490FB122FF0D5
:10149600021639740DB55D0890FB12E4F002163998
:1014A600740AB55D0E90FB12E4F090FB11EC04F0AB
:1014B600021639C374A0855DF063F08095F0400391
:1014C600021639C3E55D648094FF4003021639C0F5
:1014D60004756100855665756600A965E566FB338A
:1014E60095E0FAFD7484C399F9E49BFBE49AFAE467
:1014F6009DFD7E0078007C00C3EF99EE9BE89AEC98
:1015060064808DF063F08095F0D004400E90FB125D
:10151600E4F090FB11EC04F075610190FB11E0FA28
:1015260024F8500890FB11E4F0756101E56160371D
:1015360090FB11E0FA8A0A750B00750C00750D0018
:10154600900108E4F5F0121718AA82AB83FDEA248D
:1015560004FAEB34F0FB90FB12E0FC2AFAE43BFBC6
:101566008A5E8B5F756000E55DFA3395E0FBEA24E1
:10157600DFF582EB34FFF583E55675F002A4F50A34
:1015860085F00B1216FB8582638583647C00C3ECB1
:1015960095565036EC255EFDE4355FFEAF608C0057
:1015A6007900E82563F8E93564F9E82557F8E9355F
:1015B60058F9AA59888289838AF0121E35F88D82D5
:1015C6008E838FF01216E20C80C47A00C3EA955619
:1015D60050528A037C008B05ECFE3395E0FFF874CD
:1015E600842DFDE43EFEE43FE438ED255EFDEE3558
:1015F6005FFEAF60EB2563FBEC3564FCE5652BFB1A
:10160600E5663CFCEB2557FBEC3558FCA8598B826C
:101616008C8388F0121E35FB8D828E838FF0121616
:10162600E20A80A8E55604FA90FB12E0FB90FB1252
:0A163600EA2BF0E56224FF92AF22D8
:1024BE000000906F706D6E6B796788633E2C3C20C8
:1024CE000071757769747265000068616A6664737D
:1024DE000000760062787A80000082000881840015
:1024EE0000002F005EA0000000000A006C0000003B
:1024FE000000002B3D2E2122245F0039003F0020DA
:10250E00003126322D23403300003A343B5C363501
:10251E0000002800293837000000000000003000BD
:10252E000000000000000000000000002700000076
:10253E000000004F504D4E4B594700430000002005
:10254E000051555749545245000048414A4644539C
:10255E000000560042585A00000000000000000023
:10256E000000000000000000000000004C00000011
:0468DB0000000000B9
:10257E0000B80000B80018001818001850F850F8ED
:10258E0050F840D81070F870A870A8C82098402055
:10259E004040204000180000180070708800F88835
:1025AE0088707088F8004070406030602070202085
:1025BE00702080400000C0002020202020200080BD
:1025CE0000008000A07028C02018708870F888F86D
:1025DE0088F88090F880D8A8D8E8A8B8D8A87088CD
:1025EE00A8F81820D83820F8B8A848B8A8E870A8D5
:1025FE0048F8A8E8A87828C8281850A850F8A8F8CD
:10260E0050A870B8A8F8005000005000805000008C
:10261E00D00070D80020500050505050505000D86C
:10262E007000502010E81008A838F898F8F8A8B8EC
:10263E00F028F0F828F8F8A870F8A8F8708850F884
:10264E0088D8F88870F888F8708850F8A8D8F828D4
:10265E0000F82828708840F8A8F8F820F8F820F834
:10266E0000F80000F800408078C080F8F810C8F834
:10267E006098F88080788080F028F0F810F8F0509C
:10268E0078F820F8708870F888F8F02810F8283854
:10269E00704830F888F8F008D0F868B850A850B8EC
:1026AE00A8E808F80808F808788078F880F8C030AC
:1026BE00C038C03878A078F840F8A850A8D820D8EC
:1026CE0028D02818E01820D820C8A89800F888002C
:1026DE00F8882870A01820C088F80088F80018081C
:1026EE00181008108080808080800008100018006C
:1026FE00F028F0F828F8F8A870F8A8F8708850F8C4
:10270E0088D8F88870F888F8708850F8A8D8F82813
:10271E0000F82828708840F8A8F8F820F8F820F873
:10272E0000F80000F800408078C080F8F810C8F873
:10273E006098F88080788080F028F0F810F8F050DB
:10274E0078F820F8708870F888F8F02810F8283893
:10275E00704830F888F8F008D0F868B850A850B82B
:10276E00A8E808F80808F808788078F880F8C030EB
:10277E00C038C03878A078F840F8A850A8D820D82B
:10278E0028D02818E01820D820C8A89800708820D3
:0E279E00D80000F80000F80088700000D82075
:0168DF0003B5
:1027AC00656E676C697368006765726D616E0000B9
:1027BC006C6563747572650000706F6469756D008B
:1027CC000000636F6E7465737400006C746E6774D4
:1027DC00616C6B00776F726B73686F70006F7468ED
:1027EC00657200000000636F6D6D756E6974790021
:1027FC0063756C747572650000006861636B696E5B
:10280C00670000006D616B696E6700000000736308
:10281C0069656E6365000000736F636965747900A8
:10282C000000000B1E0C1E32374333204B65796EB3
:10283C006F7465000000000000000000000000A1A3
:10284C00000000000000000100576520636F6D65FB
:10285C0020696E2050656163650000000000000077
:10286C0000A10000000000000001000000000000BA
:10287C00000000000000000000000000000000004C
:10288C00000000A10000000000000001000000009A
:10289C00000000000000000000000000000000002C
:1028AC000000000000A1000000000000000100007A
:1028BC00000000000000000000000000000000000C
:1028CC0000000000000000A100000000000000015A
:1028DC0000000000000000000000000000000000EC
:1028EC00000000000000000000A10000000000003B
:1028FC000001000150000C2D0D2D436F7079726991
:10290C0067687420456E666F7263656D656E7420C2
:10291C0056732E0000000000000000004672656532
:10292C00646F6D73000000000000000000000000E8
:10293C0000000000A1000000000000000100414365
:10294C0054412C2049505245443320616E64206F11
:10295C0074686572207570636F6D696E6700000036
:10296C00626174746C6573206F6620746865206393
:10297C0072757361646520616761696E73740000C0
:10298C00000073686172696E67000000000000004F
:10299C0000000000000000000000A100000000008A
:1029AC00000001004A6572656D6965205A696D6D9C
:1029BC0065726D616E6E000000000000A1000000E9
:1029CC000000000001000250000E000F00566F6E58
:1029DC00205A656E73757273756C6120C3BC626529
:1029EC00722043656E73696C6961000000000068B9
:1029FC00696E207A756D204B696E6465726E6574B4
:102A0C0000000000000000A1000000000000000118
:102A1C00004A616872657372C3BC636B626C6963F4
:102A2C006B2072756E6420756D20496E7465726EC4
:102A3C006574005370657272656E2C2053656E64FC
:102A4C00657A65697462656772656E7A756E6765BD
:102A5C006E00000000696D20496E7465726E6574BD
:102A6C0020756E64207665726D65696E746C696331
:102A7C0068656E000000004A7567656E6473636874
:102A8C0075747A207C20416C76617220432E482E1E
:102A9C00467265756465000000025100100011005B
:102AAC0057686973746C65626C6F77696E67000048
:102ABC000000000000000000A10000000000000069
:102ACC0001004C6963687420696E732044756E6BE9
:102ADC00656C2100000000000000A1000000000057
:102AEC0000000100000000000000000000000000D9
:102AFC00000000000000000000000000A100000029
:102B0C0000000000010000000000000000000000B8
:102B1C000000000000000000000000000000A10008
:102B2C000000000000000100000000000000000098
:102B3C000000000000000000000000000000000089
:102B4C00A1000000000000000100000000000000D7
:102B5C000000000000000000000000000000000069
:102B6C000000A10000000000000001000151001451
:102B7C001E151E4461746120526574656E74696F14
:102B8C006E20696E207468652045552066697665EF
:102B9C0000000000007965617273206166746572D3
:102BAC0020746865204469726563746976650000F9
:102BBC0000000000000000576879207468652074DC
:102BCC00696D65206973206E6F7720746F2067655F
:102BDC0074000000000000000061637469766500F9
:102BEC0000000000000000000000000000000000D9
:102BFC0000A10000000000000001004B6174617234
:102C0C007A796E6120537A796D69656C6577696341
:102C1C007A2C205061747269636B000000427265FB
:102C2C007965722C2052616C662042656E6472610B
:102C3C007468000000A10000000000000001000208
:102C4C005000000F010F50656E74616E6577732034
:102C5C0047616D652053686F770000000000A1008C
:102C6C000000000000000100596F7572206F707039
:102C7C006F6E656E74732077696C6C206265207260
:102C8C006964646C65640000000061732077656C96
:102C9C006C000000000000000000000000000000BC
:102CAC000000A10000000000000001000000000076
:102CBC000000000000000000000000000000000008
:102CCC0000000000A1000000000000000100000056
:102CDC0000000000000000000000000000000000E8
:102CEC00000000000000A100000000000000010036
:102CFC00416C69656E382C20417374726F00000052
:102D0C000000000000000000A10000000000000016
:102D1C000100010A100C2D0D2D436F6465206465B4
:102D2C006F62667573636174696F6E2062790000FF
:102D3C0000A10000000000000001006F7074696DBC
:102D4C00697A6174696F6E00000000000000000079
:102D5C00000000A1000000000000000100000000C5
:102D6C000000000000000000000000000000000057
:102D7C000000000000A100000000000000010000A5
:102D8C000000000000000000000000000000000037
:102D9C0000000000000000A1000000000000000185
:102DAC000000000000000000000000000000000017
:102DBC00000000000000000000A100000000000066
:102DCC000001004272616E6B6F20537061736F6A09
:102DDC006576696300000000000000A1000000009F
:102DEC0000000001000220100E000F00436F6E74F3
:102DFC00656D706F726172792050726F66696C6963
:102E0C006E67206F662057656200000000005573E6
:102E1C00657273000000000000000000000000005C
:102E2C00000000000000A1000000000000000100F4
:102E3C004F6E205573696E6720416E6F6E796D69A8
:102E4C007A65727320616E64205374696C6C000037
:102E5C000000476574204675636B656400000000D4
:102E6C0000000000000000000000A10000000000B5
:102E7C000000010000000000000000000000000045
:102E8C00000000000000000000000000A100000095
:102E9C00000000000100446F6D696E696B2048658D
:102EAC0072726D616E6E2C206C657869000000008A
:102EBC00000000000000000002201010001100456E
:102ECC00696E732C207A7765692C20647265692091
:102EDC002D20616C6C652073696E6400000000002D
:102EEC0000646162656900000000000000000000E1
:102EFC00000000000000000000A100000000000025
:102F0C00000100566F6E2064657220566F6C6B73F7
:102F1C007AC3A4686C756E67207A756D2042756EE5
:102F2C006465732D006D656C646572656769737497
:102F3C0065720000000000000000000000A100000D
:102F4C000000000000010000000000000000000074
:102F5C00000000000000000000000000000000A1C4
:102F6C000000000000000001004F6C6976657220C3
:102F7C0022556E69636F726E22204B6E6170700009
:102F8C000000000000000000000000025110110FB2
:102F9C00120F46726965646520736569206D6974EA
:102FAC0020457572656E20446174656E00000000EA
:102FBC000000000045696E20646174656E7363687F
:102FCC0075747A72656368746C69636865722041A4
:102FDC0075732D000000666C756720696E2065693D
:102FEC006E206B697263686C69636865732000009E
:102FFC000000000000000000506172616C6C656C98
:10300C00756E6976657273756D202D000000000079
:10301C00A100000000000000010000000000000002
:10302C000000000000000000000000000000000094
:10303C000000A10000000000000001004A6F63685E
:10304C00696D2053656C7A65720000000000000009
:10305C0000000000A1000000000000000100015170
:10306C0010121E131E6861636B696E6720736D61AD
:10307C0072742070686F6E657300000000A1000010
:10308C0000000000000100657870616E64696E6775
:10309C00207468652061747461636B20737572664B
:1030AC0061636520616E6400007468656E20736FE7
:1030BC006D65000000000000000000000000000032
:1030CC0000A1000000000000000100000000000052
:1030DC0000000000000000000000000000000000E4
:1030EC00000000A100000000000000010000000032
:1030FC0000000000000000000000000000000000C4
:10310C000000000000A10000000000000001000011
:10311C0000000000000000000000000000000000A3
:10312C0000000000000000A10000000000000001F1
:10313C0000012010141E151E4465736B746F7020F3
:10314C006F6E20746865204C696E75782E2E2E007B
:10315C000000000000000000000028616E642042A6
:10316C0053442C206F6620636F75727365290000C1
:10317C000000A1000000000000000100796F75271D
:10318C00726520646F696E6720697420636F6E6668
:10319C00757365643F2077656972643F00007374D2
:1031AC0072616E67653F2077726F6E673F0000003B
:1031BC00000000000000A100000000000000010061
:1031CC0000000000000000000000000000000000F3
:1031DC000000000000000000A10000000000000042
:1031EC0001000000000000000000000000000000D2
:1031FC0000000000000000000000A1000000000022
:10320C0000000100020010152D162D526563656E2D
:10321C007420616476616E63657320696E20495019
:10322C0076360000000000000000000000696E739C
:10323C0065637572697469657300000000000000B5
:10324C000000000000A100000000000000010000D0
:10325C000000000000000000000000000000000062
:10326C0000000000000000A10000000000000001B0
:10327C000000000000000000000000000000000042
:10328C00000000000000000000A100000000000091
:10329C000001000000000000000000000000000021
:1032AC000000000000000000000000A10000000071
:1032BC00000000010076616E486175736572000054
:1032CC0000000000000000000000000000A1000051
:1032DC0000000000000100022010170000005370D5
:1032EC00696E6E696E672074686520656C656374C1
:1032FC00726F6E69630000000000000000000000A7
:10330C00576865656C0000000000000000000000BC
:10331C000000000000000000A10000000000000000
:10332C0001005374696C6C20746865206269637960
:10333C00636C657320666F7220746865203231741B
:10334C006800000063656E747572790000000000FF
:10335C00000000000000000000000000A1000000C0
:10336C000000000001000000000000000000000050
:10337C000000000000000000000000000000A100A0
:10338C000000000000000100000000000000000030
:10339C000000000000000000000000000000000021
:1033AC00A10000000000000001000231200C2D0DD6
:1033BC002D46726F6D20726F626F7420746F207265
:1033CC006F626F740000000000A10000000000009C
:1033DC00000100526573746F72696E6720637265C9
:1033EC006174697669747920696E207363686F6F94
:1033FC006C00000000707570696C73207573696ED9
:10340C006720726F626F74696373000000A1000023
:10341C00000000000001000000000000000000009F
:10342C00000000000000000000000000000000A1EF
:10343C00000000000000000100000000000000007F
:10344C000000000000000000000000000000000070
:10345C0000A10000000000000001000000000000BE
:10346C000000000000000000000000000000000050
:10347C00000000A10000000000000001000150202D
:10348C000E000F004A5441472F53657269616C2F2F
:10349C00464C4153482F50434220456D626564644D
:1034AC006564000000005265766572736520456E98
:1034BC0067696E656572696E6720546F6F6C7320F7
:1034CC00616E640000000000546563686E6971757C
:1034DC006573000000000000000000000000000008
:1034EC00A1000000000000000100612064756D70F7
:1034FC00206F662073696D706C6520746F6F6C73D0
:10350C0020666F7220656D2D00000000626564649A
:10351C00656420616E616C79736973206174206DD0
:10352C00616E79206C617965727300000000000097
:10353C00000000000000000000000000000000007F
:10354C00000000000000A1000000000000000100CD
:10355C00032020100011004175746F6D6174696354
:10356C00204964656E74696669636174696F6E2065
:10357C006F660000000000000043727970746F6782
:10358C00726170686963205072696D6974697665DF
:10359C007320696E00000000000000536F667477A2
:1035AC0061726500000000000000000000000000D7
:1035BC00000000A10000000000000001000000005D
:1035CC0000000000000000000000000000000000EF
:1035DC000000000000A1000000000000000100003D
:1035EC0000000000000000000000000000000000CF
:1035FC0000000000000000A100000000000000011D
:10360C000046656C69782047726F6562657274005C
:10361C00000000000000000000A1000000000000FD
:10362C00000100032020110F120F55534220616E30
:10363C0064206C696275736220666F722066756EA9
:10364C0020616E64000000000000000070726F6664
:10365C006974000000000000000000000000000081
:10366C0000000000A1000000000000000100555304
:10367C00423A20536F206D756368206D6F72652020
:10368C007468616E20612073657269616C00000062
:10369C00706F7274207769746820706F7765720030
:1036AC000000000000000000A1000000000000006D
:1036BC0001000000000000000000000000000000FD
:1036CC0000000000000000000000A100000000004D
:1036DC0000000100506574657220537475676500B5
:1036EC00000000000000000000000000A10000002D
:1036FC00000000000100023020152D162D436F67CD
:10370C006E69746976652050737963686F6C6F6746
:10371C007920666F72000000000000000000004875
:10372C0061636B6572730000000000000000000014
:10373C0000000000000000A10000000000000001DB
:10374C0000427567732C206578706C6F6974732CEC
:10375C0020616E64206F63636173696F6E616C00CE
:10376C000000007061746368657300000000000065
:10377C000000000000000000000000A1000000009C
:10378C00000000010000000000000000000000002C
:10379C0000000000000000000000000000A100007C
:1037AC0000000000000100536169000000000000EF
:1037BC00000000000000000000000000000000A15C
:1037CC000000000000000001000240010B1E0C1E56
:1037DC0046696C65202D3E205072696E74202D3E1A
:1037EC0020456C656374726F6E6963730000000032
:1037FC00000041206E6577206369726375697420DF
:10380C00626F617264207072696E74657220776980
:10381C006C6C00006C6962657261746520796F75FF
:10382C002066726F6D207468652041726475696ED4
:10383C006F2D00000000496E647573747269616CC1
:10384C0020436F6D706C6578000000000000A100D3
:10385C00000000000000010000000000000000005B
:10386C00000000000000000000000000000000004C
:10387C00A10000000000000001004A6566662047B8
:10388C006F75676800000000000000000000000079
:10389C000000A10000000000000001000130011236
:1038AC001E131E54686520436F6E636572740000AE
:1038BC000000000000000000000000A1000000005B
:1038CC0000000001006120646973636F6E636572B0
:1038DC0074696E67206D6F6D656E7420666F7220F3
:1038EC006672656500000063756C74757265000026
:1038FC00000000000000000000000000000000A11B
:10390C0000000000000000010000000000000000AA
:10391C00000000000000000000000000000000009B
:10392C0000A10000000000000001000000000000E9
:10393C00000000000000000000000000000000007B
:10394C00000000A1000000000000000100436F72A5
:10395C006579204365726F7673656B2C204A756CA4
:10396C0069656E205175656E74696E00000000010A
:10397C001A01141E151E486967682D7370656564FD
:10398C0020686967682D73656375726974790000C6
:10399C00000000000000000063727970746F6772A1
:1039AC00617068793A00000000000000000000001F
:1039BC00A1000000000000000100656E63727970C8
:1039CC0074696E6720616E642061757468656E74CD
:1039DC0069636174696E670000000000746865209B
:1039EC0077686F6C6520496E7465726E6574000043
:1039FC0000000000A1000000000000000100000019
:103A0C0000000000000000000000000000000000AA
:103A1C00000000000000A1000000000000000100F8
:103A2C0044616E69656C204A2E204265726E737417
:103A3C0065696E0000000000A1000000000000009D
:103A4C0001000220011700000054686520696D70A8
:103A5C006F7274616E6365206F6620726573697333
:103A6C0074696E67000000000000004578636573A0
:103A7C007369766520476F7665726E6D656E74003E
:103A8C00000000A10000000000000001005375724E
:103A9C007665696C6C616E63650000000000000067
:103AAC000000000000A10000000000000001004A1E
:103ABC006F696E206D6520696E206578706F736913
:103ACC006E6720616E64206368616C2D00000000DD
:103ADC00006C656E67696E672074686520636F6E35
:103AEC007374616E742076696F6C6174696F6E7338
:103AFC000000006F66206F75722072696768742011
:103B0C00746F2070726976616379000000000000A8
:103B1C000000000000035001000F010F5374616E90
:103B2C0069736C6177204C656D000000000000002B
:103B3C0000000000A100000000000000010044652E
:103B4C007220656E7474C3A47573636874652057B2
:103B5C00656C74766572626573736572657200006C
:103B6C0045696E20617564696F76697375656C6CF7
:103B7C006573204C6976652D4665617475726500B8
:103B8C000000412E4B726F6C696B6F77736B692CF5
:103B9C0020432E4B75727A2C0000000000000000B0
:103BAC0000000000492E4B7761736E696577736B6B
:103BBC00692C204A2E2D4D2E204C6F6562656C00B1
:103BCC000000000000004B2E4B6974746C65722071
:103BDC00756E64204D2E2052696368746572000006
:103BEC0000000000000000000211110B1E0C1E440E
:103BFC00697374726962757465642046504741201C
:103C0C004E756D626572000000000000000000003F
:103C1C00004372756E6368696E6720466F7220543C
:103C2C006865204D6173736573000000000000002F
:103C3C00000000486F77207765206F627461696EB1
:103C4C00656420746865206571756976616C656E54
:103C5C007400000000706F776572206F6620612021
:103C6C004465657020437261636B20666F722061DE
:103C7C00000000000000006669737466756C206FAC
:103C8C006620646F6C6C617273202D20616E6420F1
:103C9C00686F772E2E2E00000046656C69782044E4
:103CAC006F6D6B650000000000000000000000005C
:103CBC0000A10000000000000001000221110D0015
:103CCC000D1E4C79696E6720546F20546865204E28
:103CDC0065696768626F7572730000000000000010
:103CEC0000000000466965736520456666656B7467
:103CFC0065206D697420747261636B65722D6C65DF
:103D0C00737300000000426974546F7272656E74B4
:103D1C000000000000000000000000000000A100F6
:103D2C000000000000000100000000000000000086
:103D3C000000000000000000000000000000000077
:103D4C00A1000000000000000100000000000000C5
:103D5C000000000000000000000000000000000057
:103D6C000000A1000000000000000100417374720B
:103D7C006F000000000000000000000000000000C8
:103D8C0000000000A1000000000000000100012163
:103D9C00110D2D0E0F4E6F64652E6A73206173200A
:103DAC0061206E6574776F726B696E6720746F6FCC
:103DBC006C0000000000000000000000000000008B
:103DCC00000000000000000000000000000000A146
:103DDC0000000000000000010000000000000000D6
:103DEC0000000000000000000000000000000000C7
:103DFC0000A1000000000000000100000000000015
:103E0C0000000000000000000000000000000000A6
:103E1C00000000A1000000000000000100000000F4
:103E2C000000000000000000000000000000000086
:103E3C000000000000A1000000000000000100468E
:103E4C00656C69782047656973656E646F65726629
:103E5C0065720000000000A10000000000000001DD
:103E6C00000120110E1E0F004C6F67696B736368A5
:103E7C00616C74756E67656E206F686E6520456C3D
:103E8C00656B74726F6E696B00006C6F676973633E
:103E9C00686520536368616C74756E67656E206D20
:103EAC00697400000000000000000000506E657591
:103EBC006D6174696B0000000000000000000000E0
:103ECC0000000000A1000000000000000100000044
:103EDC0000000000000000000000000000000000D6
:103EEC00000000000000A100000000000000010024
:103EFC0000000000000000000000000000000000B6
:103F0C000000000000000000A10000000000000004
:103F1C0001004165706578000000000000000000A1
:103F2C0000000000000000000000A10000000000E4
:103F3C000000010001311110001100497320746858
:103F4C00652053534C6976657273652061207361EB
:103F5C00666520706C6163653F00000000416E2057
:103F6C00757064617465206F6E204546462773201A
:103F7C0053534C0000000000000000000000004FF4
:103F8C00627365727661746F72792070726F6A6594
:103F9C0063740000000000A100000000000000019C
:103FAC000000000000000000000000000000000005
:103FBC00000000000000000000A100000000000054
:103FCC0000010000000000000000000000000000E4
:103FDC000000000000000000000000A10000000034
:103FEC0000000001000000000000000000000000C4
:103FFC0000000000000000000000000000A1000014
:10400C0000000000000100010011110F120F4465A7
:10401C0066656E7365206973206E6F7420646561CC
:10402C00640000000000A10000000000000001007E
:10403C005768792077652077696C6C2068617665A4
:10404C00206D6F72652073656375726500000000EA
:10405C000000636F6D707574657273202D20746F22
:10406C006D6F72726F7700000000A10000000000FD
:10407C000000010000000000000000000000000033
:10408C00000000000000000000000000A100000083
:10409C000000000001000000000000000000000013
:1040AC000000000000000000000000000000A10063
:1040BC000000000000000100416E64726561732015
:1040CC00426F676B00000000000000000000000061
:1040DC00A1000000000000000100012011121E13BD
:1040EC001E4C6974657261726973636865722041F4
:1040FC0062656E640000000000A10000000000007A
:10410C0000010000000000000000000000000000A2
:10411C000000000000000000000000A100000000F2
:10412C000000000100000000000000000000000082
:10413C0000000000000000000000000000A10000D2
:10414C000000000000010000000000000000000062
:10415C00000000000000000000000000000000A1B2
:10416C000000000000000001000000000000000042
:10417C000000000000000000000000000000000033
:10418C0000A1000000000000000100416E64726597
:10419C006173204C65686E65722C206C61727300C3
:1041AC00000000A10000000000000001000103114C
:1041BC00152D162D416476656E74757265732069C4
:1041CC006E204D617070696E67000000A1000000E8
:1041DC0000000000010041666768616E69737461DC
:1041EC006E20456C656374696F6E73000000A100EE
:1041FC0000000000000001005468652073746F72A9
:10420C0079206F6620332055736861686964692072
:10421C006D617070696E67000000616E642072657C
:10422C00706F7274696E672070726F6A65637473F5
:10423C002E00000000000000000000000000000044
:10424C000000000000000000000000000000000062
:10425C0000000000A10000000000000001000000B0
:10426C000000000000000000000000000000000042
:10427C00000000000000A100000000000000010090
:10428C000250111700000053656375726520636F4F
:10429C006D6D756E69636174696F6E732062656CA8
:1042AC006F772074686500000068656172696E67DD
:1042BC00207468726573686F6C6400000000000005
:1042CC0000A1000000000000000100496D70726F39
:1042DC0076656420617070726F61636865732066C7
:1042EC006F7220617564697469766500007374651A
:1042FC0067616E6F67726170687900000000000082
:10430C000000000000A100000000000000010000FF
:10431C000000000000000000000000000000000091
:10432C0000000000000000A10000000000000001DF
:10433C00004D6172637573204E75747A696E676592
:10434C00722C205261696E657220506F6973656CB6
:10435C000000000220210B1E0C1E4E65747A6D6548
:10436C006469656E72656368742C204C6F62627947
:10437C0069736D757320756E640000004B6F7272FB
:10438C00757074696F6E0000000000000000000082
:10439C0000000000A10000000000000001005769AF
:1043AC0065207769726B7420646965204C6F62625A
:1043BC007920766F6E000000000000000000000005
:1043CC004D656469656E6B6F6E7A65726E656E3F76
:1043DC000000000000000000A10000000000000030
:1043EC0001000000000000000000000000000000C0
:1043FC0000000000000000000000A1000000000010
:10440C000000010054686F6D617320426172746822
:10441C00000000000000000000000000A1000000EF
:10442C000000000001000259210C2D0D1E4C696783
:10443C0068746E696E672054616C6B73202D204418
:10444C006179203200000000000000000000004BE9
:10445C006F7272757074696F6E000000000000005E
:10446C0000000000000000A100000000000000019E
:10447C000034206D696E75746573206F66206661FB
:10448C006D6500000000000000A1000000000000AD
:10449C00000100000000000000000000000000000F
:1044AC000000000000000000000000A1000000005F
:1044BC0000000001000000000000000000000000EF
:1044CC0000000000000000000000000000A100003F
:1044DC00000000000001005376656E204775636B89
:1044EC00657300000000000000000000000000A147
:1044FC000000000000000001000106210E000F006A
:10450C004920436F6E74726F6C20596F7572204323
:10451C006F64650000000000A100000000000000B6
:10452C00010041747461636B20566563746F727320
:10453C00205468726F7567682074686520457965CA
:10454C00730000006F6620536F6674776172652D7F
:10455C006261736564204661756C74000000000034
:10456C0000000000000049736F6C6174696F6E008D
:10457C000000000000000000000000000000A1008E
:10458C00000000000000010000000000000000001E
:10459C00000000000000000000000000000000000F
:1045AC00A10000000000000001004D617468696109
:1045BC00732050617965720000000000000000005B
:1045CC000000A100000000000000010001202110EB
:1045DC00001100412073686F727420706F6C6974E5
:1045EC006963616C20686973746F7279206F6600FF
:1045FC00000000000061636F7573746963730000E1
:10460C0000000000000000000000000000A10000FD
:10461C0000000000000100466F722077686F6D2C5F
:10462C0020616E6420746F20646F20776861742C35
:10463C00207468650000000000736369656E636533
:10464C00206F6620736F756E6420776173206465CC
:10465C0076656C6F70656400000000696E2074688C
:10466C006520313774682063656E7475727900004B
:10467C00000000A10000000000000001004F6F6E60
:10468C0061204C6567616E6F766963000000000005
:10469C000000000000A1000000000000000100026A
:1046AC005021110F120F4461746120416E616C79BD
:1046BC0073697320696E20546572616269740000BD
:1046CC00000000000000000045746865726E65749F
:1046DC0020547261666669630000000000000000EF
:1046EC00A1000000000000000100536F6C7574699C
:1046FC006F6E7320666F72206D6F6E69746F726966
:10470C006E6720616E640000000000006C617766CB
:10471C00756C20696E74657263657074696F6E2058
:10472C0077697468696E2061206C6F7400006F6625
:10473C00206269747300000000000000000000009B
:10474C00000000000000A1000000000000000100BB
:10475C004C617273205765696C6572000000000033
:10476C000000000000000000A1000000000000009C
:10477C000100022021121E131E546563686E696BC2
:10478C00656E207A7572204964656E746966697A03
:10479C00696572756E670000000000766F6E204EC2
:1047AC0065747A7765726B2D50726F746F6B6F6C6A
:1047BC006C656E00000000000000000000000000AE
:1047CC0000000000000000000000000000000000DD
:1047DC000000000000A1000000000000000100002B
:1047EC0000000000000000000000000000000000BD
:1047FC0000000000000000A100000000000000010B
:10480C00000000000000000000000000000000009C
:10481C00000000000000000000A1000000000000EB
:10482C00000100466C6F7269616E204164616D73AA
:10483C006B79000000000000000000A100000000E7
:10484C000000000100024121152D162D436F6E73DF
:10485C006F6C65204861636B696E67203230313054
:10486C0000000000A1000000000000000100506CDE
:10487C00617973746174696F6E20332C2058626F88
:10488C0078203336302C205769692C20000000002A
:10489C00445369000000000000000000000000000C
:1048AC000000000000000000A1000000000000005B
:1048BC0001000000000000000000000000000000EB
:1048CC0000000000000000000000A100000000003B
:1048DC0000000100000000000000000000000000CB
:1048EC00000000000000000000000000A10000001B
:1048FC0000000000010062757368696E672C206D02
:10490C00617263616E2C207376656E000000A100ED
:10491C0000000000000001000120020B1E0D1E43D0
:10492C0043432D4A6168726573727565636B626C83
:10493C0069636B2032303130000000000000000051
:10494C00000000000000000000000000000000005B
:10495C00000000000000000000A1000000000000AA
:10496C00000100000000000000000000000000003A
:10497C000000000000000000000000A1000000008A
:10498C00000000010000000000000000000000001A
:10499C0000000000000000000000000000A100006A
:1049AC0000000000000100412E426F676B2C20417B
:1049BC002E4D75656C6C65722D4D616775686E2C2E
:1049CC00000000000000000000432E4B75727A2C92
:1049DC0020462E52696567657200000000000000D9
:1049EC0000A1000000000000000100010302110FF3
:1049FC00130F4E65747A6E65757472616C697461AF
:104A0C00657420756E6420516F53202D00000000DA
:104A1C000000000065696E205769646572737072DE
:104A2C007563683F0000000000000000A10000005A
:104A3C0000000000010046616B74656E20617566B4
:104A4C002064656E20546973636800000000A10047
:104A5C000000000000000100000000000000000049
:104A6C00000000000000000000000000000000003A
:104A7C00A100000000000000010000000000000088
:104A8C00000000000000000000000000000000001A
:104A9C000000A100000000000000010041616E64F4
:104AAC007265617320426F676B2C204D61726B7560
:104ABC0073204265636B656461686C00000002538F
:104ACC0002141E151E4368697020616E64205049E3
:104ADC004E2069732042726F6B656E0000000000FF
:104AEC000000000000000056756C6E657261626912
:104AFC006C697469657320696E20746865000000C8
:104B0C00000000000000000000454D562050726F60
:104B1C00746F636F6C000000000000000000000068
:104B2C0000A10000000000000001000000000000D7
:104B3C000000000000000000000000000000000069
:104B4C00000000A1000000000000000100000000B7
:104B5C000000000000000000000000000000000049
:104B6C000000000000A10000000000000001005344
:104B7C00746576656E204A2E204D7572646F63687D
:104B8C0000000000000000A1000000000000000177
:104B9C0000012002152D162D466E6F72642D4A6190
:104BAC0068726573727565636B626C69636B2032D6
:104BBC0030313000000000000000766F6E20417430
:104BCC006F6D61757373746965672062697300003A
:104BDC000000A10000000000000001005A77616E87
:104BEC006773696E746567726174696F6E0000003B
:104BFC0000000000A1000000000000000100000007
:104C0C000000000000000000000000000000000098
:104C1C00000000000000A1000000000000000100E6
:104C2C000000000000000000000000000000000078
:104C3C000000000000000000A100000000000000C7
:104C4C00010046656C697820766F6E204C6569743E
:104C5C006E65722C204672616E6B205269656765B9
:104C6C0072000000015102170001004861636B657E
:104C7C0072204A656F706172647900000000000058
:104C8C00000000A10000000000000001004E756D46
:104C9C00626572206775657373696E6720666F72E3
:104CAC00206765656B7300000000000000000000C9
:104CBC0000000000000000000000000000000000E8
:104CCC0000000000000000A1000000000000000136
:104CDC0000000000000000000000000000000000C8
:104CEC00000000000000000000A100000000000017
:104CFC0000010000000000000000000000000000A7
:104D0C000000000000000000000000A100000000F6
:104D1C0000000001005261792C2053746566616EAD
:104D2C00202753656327205A65686C00000000003B
:104D3C00000000000000000105120B1E0C1E41209B
:104D4C00437269746963616C204F7665727669652C
:104D5C0077206F6620313020796561727300000016
:104D6C006F66205072697661637920456E68616E5A
:104D7C0063696E6700000000A100000000000000E5
:104D8C000100546563686E6F6C6F67696573000032
:104D9C0000000000000000000000A1000000000066
:104DAC0000000100000000000000000000000000F6
:104DBC00000000000000000000000000A100000046
:104DCC0000000000010000000000000000000000D6
:104DDC000000000000000000000000000000A10026
:104DEC000000000000000100736564610000000019
:104DFC0000000000000000000000000000000000A7
:104E0C00A10000000000000001000350120D000D75
:104E1C001E416C6C436F6C6F7572734172654265A9
:104E2C006175746966756C0000000000000000007C
:104E3C00000000696E746572616374697665206C3C
:104E4C006967687420696E7374616C6C6174696FE6
:104E5C006E00000000696E7370697265642062797F
:104E6C0020626C696E6B656E6C69676874730000A8
:104E7C000000000000000000000000000000000026
:104E8C00000000000000000000000000000000A175
:104E9C000000000000000001000000000000000005
:104EAC0000000000000000000000000000000000F6
:104EBC0000A10000000000000001004672616E7A43
:104ECC0020506C65747A2C206C696C616669736314
:104EDC00680000000000000000000000000101124A
:104EEC000E1E0F0053495020686F6D65206761746A
:104EFC00657761797320756E646572206669726579
:104F0C00000000000000536F7572636520726F75AE
:104F1C0074696E672061747461636B732061707067
:104F2C006C69656400000000746F205349500000E8
:104F3C000000000000000000000000000000000065
:104F4C00A1000000000000000100000000000000B3
:104F5C000000000000000000000000000000000045
:104F6C000000A10000000000000001000000000093
:104F7C000000000000000000000000000000000025
:104F8C0000000000A1000000000000000100576FAD
:104F9C006C6667616E67204265636B000000000001
:104FAC00000000000000A100000000000000010053
:104FBC00012012100011004449592073796E746855
:104FCC006573697A65727320616E6420736F756E98
:104FDC0064000000000000000067656E657261747B
:104FEC006F72730000000000000000000000000061
:104FFC0000A1000000000000000100576865726508
:10500C0020646F65732074686520736F756E6420FF
:10501C00636F6D652066726F6D3F000000000000CD
:10502C000000000000000000000000000000000074
:10503C000000000000A100000000000000010000C2
:10504C000000000000000000000000000000000054
:10505C0000000000000000A10000000000000001A2
:10506C00007379736F000000000000000000000066
:10507C00000000000000000000A100000000000083
:10508C00000100023012121E131E494E44454354B7
:10509C00202D0000000000000000000000000000B7
:1050AC000000A1000000000000000100616E20451E
:1050BC00552D5375727665696C6C616E6365205005
:1050CC00726F6A656374000000000000000000004D
:1050DC0000000000000000000000000000000000C4
:1050EC00000000000000A100000000000000010012
:1050FC0000000000000000000000000000000000A4
:10510C000000000000000000A100000000000000F2
:10511C000100000000000000000000000000000082
:10512C0000000000000000000000A10000000000D2
:10513C000000010053796C766961204A6F686E69D2
:10514C00676B00000000000000000000A1000000E0
:10515C00000000000100025012141E151E44696765
:10516C006974616C65205370616C74756E67207026
:10517C0065722047657365747A0000000000004476
:10518C00617320496E7465726E657420756E64204F
:10519C006765736368616666656E65000000000094
:1051AC0000736F7A69616C6520556E676C65696315
:1051BC00686865697420696D20416C6C7461670066
:1051CC00000000766F6E20457277657262736C6FAB
:1051DC0073656E0000000000000000A100000000DC
:1051EC0000000001004265746A65205363687761B2
:1051FC00727A2C20446F72697320476572626967FA
:10520C002C0000000000004B61746872696E204530
:10521C006E676C657274000000000000000000A155
:10522C00000000000000000100015112152D162D88
:10523C00546572726F72697374732057696E202D86
:10524C00204578706C6F6974696E6700000000000F
:10525C00000054656C65636F6D6D756E6963617488
:10526C00696F6E73204461746100000000000000DF
:10527C0000000000526574656E74696F6E3F00002B
:10528C00000000000000000000000000A100000071
:10529C000000000001000000000000000000000001
:1052AC000000000000000000000000000000A10051
:1052BC0000000000000001004B61792048616D6125
:1052CC006368657200000000000000000000000030
:1052DC00A100000000000000010053746566616EBF
:1052EC00204B61747A656E62656973736572000038
:1052FC000000A10000000000000001000340121794
:10530C0000000046726F7A656E4361636865000049
:10531C000000000000000000000000A100000000E0
:10532C0000000001004D697469676174696E672043
:10533C00636F6C642D626F6F742061747461636B46
:10534C007320666F72000046756C6C2D4469736B2C
:10535C002D456E6372797074696F6E20736F66740D
:10536C007761726500000000000000000000000082
:10537C000000000000000000000000000000000021
:10538C0000A100000000000000010000000000006F
:10539C000000000000000000000000000000000001
:1053AC00000000A10000000000000001004A75652B
:1053BC007267656E20506162656C00000000000031
:1053CC000000000000A1000000000000000100012E
:1053DC0020220C2D0D2D4C696768746E696E672048
:1053EC0054616C6B73202D205461672033000000D6
:1053FC00000000000000000077686572652069738A
:10540C00206D7920636F6D6D756E6974793F000046
:10541C000000000000000000000000000000000080
:10542C000000000000000000000000000000000070
:10543C000000A100000000000000010000000000BE
:10544C000000000000000000000000000000000050
:10545C0000000000A100000000000000010000009E
:10546C000000000000000000000000000000000030
:10547C00000000000000A10000000000000001007E
:10548C005376656E204775636B65730000000000F2
:10549C000000000000000000A1000000000000005F
:1054AC0001000106220E000F004275696C64696EE2
:1054BC006720746865205A6F6D626965476F746305
:1054CC006861000000000000000000486F77207445
:1054DC006F2065617420667269656E647320616EFD
:1054EC0064000000000000000000000000696E660F
:1054FC006C75656E63652070656F706C652E000051
:10550C000000000000A100000000000000010000ED
:10551C00000000000000000000000000000000007F
:10552C0000000000000000A10000000000000001CD
:10553C00000000000000000000000000000000005F
:10554C00000000000000000000A1000000000000AE
:10555C00000100456C6920536B6970702C205472EB
:10556C006176697320476F6F6473706565640000C2
:10557C00000000000001302210001100536166652C
:10558C007479206F6E20746865204F70656E20539F
:10559C006561000000000000000000000000536185
:1055AC006665206E617669676174696F6E207769D4
:1055BC0074682074686520616964206F660000005F
:1055CC00616E206F70656E20736561206368617217
:1055DC00742E000000000000A1000000000000007C
:1055EC0001000000000000000000000000000000AE
:1055FC0000000000000000000000A10000000000FE
:10560C00000001000000000000000000000000008D
:10561C00000000000000000000000000A1000000DD
:10562C00000000000100000000000000000000006D
:10563C000000000000000000000000000000A100BD
:10564C000000000000000100014022110F120F4168
:10565C006E64726F69642067656F6C6F63617469E7
:10566C006F6E207573696E6700000000000000000B
:10567C000047534D206E6574776F726B000000000D
:10568C00000000000000000000A10000000000006D
:10569C00000100225768657265207761732057619D
:1056AC006C64726F69643F2200000000000000000F
:1056BC0000000000000000000000000000000000DE
:1056CC0000000000000000000000000000A100002D
:1056DC0000000000000100000000000000000000BD
:1056EC00000000000000000000000000000000A10D
:1056FC0000000000000000010052656E617564201E
:10570C004C6966636869747A000000000000000050
:10571C0000A1000000000000000100022022121E67
:10572C00131E596F757220496E66726173747275AF
:10573C0063747572652057696C6C00000000000082
:10574C00000000004B696C6C20596F750000000064
:10575C00000000000000000000000000A10000009C
:10576C00000000000100000000000000000000002C
:10577C000000000000000000000000000000A1007C
:10578C00000000000000010000000000000000000C
:10579C0000000000000000000000000000000000FD
:1057AC00A10000000000000001000000000000004B
:1057BC0000000000000000000000000000000000DD
:1057CC000000A1000000000000000100000000002B
:1057DC0000000000000000000000000000000000BD
:1057EC0000000000A10000000000000001000250B9
:1057FC0022170000002253706F696C6572732C20A5
:10580C005265766572736520477265656E2C000073
:10581C0000000000000000444543454C2122206F4D
:10582C0072202257686174277320697420646F6931
:10583C006E67000000000000006E6F773F220000D2
:10584C00000000000000000000000000000000004C
:10585C0000A100000000000000010054686F756793
:10586C00687473206F6E20746865204175746F6D59
:10587C006174696F6E20616E64000000006974735E
:10588C002048756D616E20496E7465726661636542
:10589C0073206F6E0000000000000000000000414B
:1058AC006972706C616E6573207C204265726E64E7
:1058BC00205369656B657200000000000000000059
:1058CC00000340030B1E0C1E4F4D4720575446201F
:1058DC0050444600000000000000000000000000E2
:1058EC00A1000000000000000100576861742079DD
:1058FC006F75206469646E2774206B6E6F772061FE
:10590C00626F757400000000000000004163726F4C
:10591C006261740000000000000000000000000044
:10592C0000000000A10000000000000001000000C9
:10593C00000000000000000000000000000000005B
:10594C00000000000000A1000000000000000100A9
:10595C00000000000000000000000000000000003B
:10596C000000000000000000A1000000000000008A
:10597C0001004A756C696120576F6C66000000006D
:10598C0000000000000000000000A100000000006A
:10599C00000001000120030C2D0D2D4963682073BC
:1059AC00656865206E696368742C2064617373206C
:1059BC00776972206E69636874000000007A7573F1
:1059CC0074696D6D656E2077657264656E0000009C
:1059DC000000000000A100000000000000010044D5
:1059EC00696520537072616368652064657320700B
:1059FC006F6C697469736368656E00000000000069
:105A0C00005665727261747320756E6420736569DB
:105A1C006E657220526563687466657274692D00D8
:105A2C0000000067756E67000000000000000000B9
:105A3C000000000000000000000000A100000000B9
:105A4C0000000001006D6168612F4D617274696E18
:105A5C0020486161736500000000000000A1000097
:105A6C00000000000001000251030E000F005468FA
:105A7C00726565206A6F62732074686174206A6F46
:105A8C0075726E616C697374730000000000000025
:105A9C0077696C6C20646F20696E20323035300071
:105AAC000000000000000000A10000000000000049
:105ABC00010057687920667574757265206D656490
:105ACC006961206D6179206265206D6F72650000DF
:105ADC0000000000706F77657266756C2028616E2F
:105AEC0064206D6F7265207375627665727369766A
:105AFC006529000000007468616E2065766572206F
:105B0C006265666F72650000000000000000A10075
:105B1C000000000000000100416E6E616C656520A4
:105B2C004E657769747A00000000000000000000E8
:105B3C00A100000000000000010002500310001141
:105B4C0000486F772074686520696E7465726E65A5
:105B5C0074207365657320796F7500000000000078
:105B6C0000000064656D6F6E7374726174696E67AA
:105B7C0020776861742061637469766974696573F0
:105B8C0000000000006D6F73742049535073207334
:105B9C00656520796F7520646F696E67206F6E2064
:105BAC0074686500000000696E7465726E6574003F
:105BBC00000000000000000000000000000000A138
:105BCC0000000000000000010000000000000000C8
:105BDC0000000000000000000000000000000000B9
:105BEC0000A1000000000000000100000000000007
:105BFC000000000000000000000000000000000099
:105C0C00000000A100000000000000010001500392
:105C1C00110F120F5365637572697479204E6967A1
:105C2C0068746D617265730000000000A1000000D3
:105C3C000000000001000000000000000000000057
:105C4C000000000000000000000000000000A100A7
:105C5C000000000000000100000000000000000037
:105C6C000000000000000000000000000000000028
:105C7C00A100000000000000010000000000000076
:105C8C000000000000000000000000000000000008
:105C9C000000A10000000000000001000000000056
:105CAC0000000000000000000000000000000000E8
:105CBC0000000000A100000000000000010046727E
:105CCC00616E6B205269656765722C20526F6E0095
:105CDC00000000000000A100000000000000010016
:105CEC00010103121E131E41627363686C7573739A
:105CFC00766572616E7374616C74756E670000000A
:105D0C000000000000000000000000000000000087
:105D1C000000000000000000000000000000000077
:105D2C0000A10000000000000001000000000000C5
:105D3C000000000000000000000000000000000057
:105D4C00000000A1000000000000000100000000A5
:105D5C000000000000000000000000000000000037
:105D6C000000000000A10000000000000001000085
:105D7C000000000000000000000000000000000017
:105D8C0000000000000000A1000000000000000165
:105D9C0000000000000000000000000000000000F7
:105DAC00000000000000000000A100000000000046
:105DBC000001000100130B1E0C1E546F722069733E
:105DCC002050656163652C20536F66747761726532
:105DDC002046726565646F6D000000006973205386
:105DEC006C61766572792C2057696B697065646992
:105DFC006120697320547275746800000000546847
:105E0C006520706F6C69746963616C207068696C73
:105E1C006F736F706879206F66207468650000007E
:105E2C00496E7465726E657400000000000000001D
:105E3C000000000000000000A100000000000000B5
:105E4C000100000000000000000000000000000045
:105E5C0000000000000000000000A1000000000095
:105E6C00000001004164616D0000000000000000B2
:105E7C00000000000000000000000000A100000075
:105E8C000000000001000250130D000D1E4379624A
:105E9C0065726E657469637320666F7220746865D1
:105EAC00204D6173736573000000000000000069F1
:105EBC006D706C616E74732C2073656E736F727978
:105ECC0020657874656E73696F6E20616E64000076
:105EDC000073696C69636F6E202D20616C6C206699
:105EEC006F7220796F752100000000000000000027
:105EFC000000000000000000000000000000000096
:105F0C000000000000000000000000A100000000E4
:105F1C000000000100000000000000000000000074
:105F2C0000000000000000000000000000A10000C4
:105F3C000000000000010000000000000000000054
:105F4C00000000000000000000000000000000A1A4
:105F5C000000000000000001000120130D2D0E0FA9
:105F6C004861636B65727320616E6420436F6D7062
:105F7C007574657220536369656E6365000000007B
:105F8C000000000000000000000000000000000005
:105F9C0000000000000000000000A1000000000054
:105FAC0000000100000000000000000000000000E4
:105FBC00000000000000000000000000A100000034
:105FCC0000000000010000000000000000000000C4
:105FDC000000000000000000000000000000A10014
:105FEC0000000000000001000000000000000000A4
:105FFC000000000000000000000000000000000095
:10600C00A100000000000000010053657267657973
:10601C0020427261747573000000000000000000E3
:10602C000000A10000000000000001000120130E80
:10603C001E0F0041206672616D65776F726B206672
:10604C006F72206175746F6D61746564000000007F
:10605C000000000000617263686974656374757296
:10606C00652D696E646570656E64656E7400000004
:10607C0000000000000000676164676574207365B0
:10608C00617263680000000000000000000000A1C5
:10609C0000000000000000010043434320656469D8
:1060AC0074696F6E0000000000000000000000002A
:1060BC0000A1000000000000000100000000000032
:1060CC0000000000000000000000000000000000C4
:1060DC00000000A10000000000000001006B6F72C6
:1060EC006E61750000000000000000000000000060
:1060FC000000000000A100000000000000010003EF
:10610C002013110F12004E657773204B65792052C6
:10611C0065636F766572792041747461636B73206B
:10612C006F6E0000000000005243342F57455000A2
:10613C000000000000000000000000000000000053
:10614C00A1000000000000000100000000000000A1
:10615C000000000000000000000000000000000033
:10616C000000A10000000000000001000000000081
:10617C000000000000000000000000000000000013
:10618C0000000000A1000000000000000100000061
:10619C0000000000000000000000000000000000F3
:1061AC00000000000000A100000000000000010041
:1061BC004D617274696E20567561676E6F757800EB
:1061CC000000000000000000A10000000000000022
:1061DC0001000220230B1E0C1E41206861636B65BD
:1061EC007227732076696577206F6E206D6F746FE0
:1061FC007200000000000000000000636F6E7472FB
:10620C006F6C20616E6420726F626F7469637300CF
:10621C00000000A1000000000000000100000000D0
:10622C000000000000000000000000000000000062
:10623C000000000000A100000000000000010000B0
:10624C000000000000000000000000000000000042
:10625C0000000000000000A1000000000000000190
:10626C000000000000000000000000000000000022
:10627C00000000000000000000A100000000000071
:10628C000001000000000000000000000000000001
:10629C000000000000000000000000A10000000051
:1062AC0000000001000230230C2D0D2D4C69676895
:1062BC00746E696E672054616C6B73202D20446181
:1062CC007920340000000000000000000000776816
:1062DC00657265206973206D7920636F6D6D756EC5
:1062EC006974793F0000000000000000000000000D
:1062FC000000000000000000000000000000000092
:10630C000000000000000000A100000000000000E0
:10631C000100000000000000000000000000000070
:10632C0000000000000000000000A10000000000C0
:10633C000000010000000000000000000000000050
:10634C00000000000000000000000000A1000000A0
:10635C000000000001005376656E204775636B6585
:10636C007300000000000000000000000000A1000D
:10637C000000000000000100010623110F1200486C
:10638C006176696E672066756E2077697468205235
:10639C0054500000000000A10000000000000001AB
:1063AC00002257686F20697320737065616B696E8A
:1063BC00673F3F3F2200000000000000000000008B
