:040000000200833245
:01000B0032C2
:0100130032BA
:01001B0032B2
:0100230032AA
:01002B0032A2
:01003300329A
:01003B003292
:0300430002096847
:01004B003282
:01005300327A
:03005B00020C375D
:01006300326A
:01006B003262
:01007300325A
:03007B00020EDE94
:0300E80002007E95
:05007E001200EB80FE02
:1000EB00A2AFE433F527C2AF750A00750B04E4F534
:1000FB000C90F00075F0001216C375230090225C73
:10010B00E493F5257D00ED75F0D3A4245BF58274A3
:10011B002235F0F583E493FEBEFF02805A53060F9F
:10012B00BE010B90F001E0700590F001EDF0ED7564
:10013B00F0D3A4245BF582742235F0F583E493FEAF
:10014B0053060FBE020B90F002E0700590F002ED2B
:10015B00F0ED75F0D3A4245BF582742235F0F583B2
:10016B00E493FE53060FBE030B90F003E070059073
:10017B00F003EDF00D808F7E018D26752400E527B1
:10018B0024FF92AFC00612113A7582001212A075AD
:10019B0082001212ADD006C006120EF2AD82D0064E
:1001AB00A2AFE433F527C2AFBD2F02803EBD3103B2
:1001BB00020423BD320302042EBD3303020439BDF6
:1001CB003403020444BD3C03020348BD3E03020258
:1001DB006DBD5E028048BD700302044FBD7103020A
:1001EB000464BD900302047A020488AD247A008D66
:1001FB00828A83A385260A750B00C006121E51AA9C
:10020B0082D006EAF52475F0D3A4245BFA74223568
:10021B00F0FD8A828D83A3E493F525020488C00642
:10022B00AA247D00AB267E00EB2AFAEE3DFDEA24E4
:10023B00FFF582ED34FFF5838B0A8E0BC006121E81
:10024B0051AA82D006EAF52475F0D3A4245BFA7484
:10025B002235F0FB8A828B83A3E493F525D006022B
:10026B000488E52475F0D3A4245BF582742235F061
:10027B00F583E493C4540FFA53020F7B008A828BED
:10028B0083A3750A03E4F50BC006121E51AA82D094
:10029B00068A29AB247D008B828D83A3AD267B0040
:1002AB008D0A8B0BC003C005C006121E51AA82AC6F
:1002BB0083D006D005D0038A28E52875F0D3A42473
:1002CB005BF582742235F0F583E493C4540FFCB5CF
:1002DB0029028024AC287A008C828A83A38D0A8B16
:1002EB000BC003C005C006121E51AA82AC83D006F8
:1002FB00D005D0038A2880C1E52875F0D3A4245BF0
:10030B00FA742235F0FC8A828C83A3E493FAC395AA
:10031B00255024AA287C008A828C83A38D0A8B0B00
:10032B00C003C005C006121E51AA82AC83D006D0F2
:10033B0005D0038A2880C1852824020488E524750A
:10034B00F0D3A4245BF582742235F0F583E493C4D7
:10035B00540FFA53020F7B008A828B83A3A3750A77
:10036B0003E4F50BC006121E51AA82D0068A2BABF2
:10037B00247C008B828C83A3AD267B008D0A8B0B98
:10038B00C003C005C006121E51AC82AA83D006D092
:10039B0005D0038C2AE52A75F0D3A4245BF582746F
:1003AB002235F0F583E493C4540FFAB52B02802465
:1003BB00AA2A7C008A828C83A38D0A8B0BC003C074
:1003CB0005C006121E51AA82AC83D006D005D003FD
:1003DB008A2A80C1E52A75F0D3A4245BFA742235EE
:1003EB00F0FC8A828C83A3E493FAC395255024AC4A
:1003FB002A7A008C828A83A38D0A8B0BC003C005DB
:10040B00C006121E51AA82AC83D006D005D0038A37
:10041B002A80C1852A24806590F000E0F52475239D
:10042B0000805A90F001E0F524752301804F90F085
:10043B0002E0F524752302804490F003E0F5247567
:10044B0023038039E523045403F5232400F582E4C8
:10045B0034F0F583E0F5248024740325235403F54D
:10046B00232400F582E434F0F583E0F524800EE5D7
:10047B002404FE9001F4C00612093ED006E52724A1
:10048B00FF92AFA2AFE433F527C2AFEEB524030260
:10049B0008D37582001212BA7582001213F9750A0D
:1004AB00007582001213DFE52475F0D3A4FAABF0CC
:1004BB00245BF582EB3422F583E493FC53040F7D2C
:1004CB00000CBC00010DC002C003C004C00574C306
:1004DB00C0E0741EC0E07480C0E012186FE5812488
:1004EB00FBF581750A0075826A1213DFD003D00207
:1004FB00EA245BF582EB3422F583E493C4540FFCBE
:10050B0053040F7D000CBC00010DC002C003C004DE
:10051B00C00574CAC0E0741EC0E07480C0E012183D
:10052B006FE58124FBF5817582011213F9750A00C1
:10053B0075821F1213DFD003D002EA245BF543EB65
:10054B003422F544854382854483A3A3A3A3E49378
:10055B00FF8F45754600854382854483A3A3A3E49F
:10056B0093FD8D47754800854382854483A3A3E49F
:10057B0093FF8F49754A00854382854483A3E49397
:10058B00FD7C00C002C003C045C046C047C048C088
:10059B0049C04AC005C00474D2C0E0741EC0E074E8
:1005AB0080C0E012186FE58124F5F5817582001289
:1005BB0013F9D003D002EA245BF549EB3422F54A58
:1005CB0074052549FFE4354AFC7D808F318C328DD3
:1005DB003374272549FCE4354AFD7F808C348D35F7
:1005EB008F3674492549FCE4354AFD7F808C378D65
:1005FB00388F39746B2549FCE4354AFD7F808C3A82
:10060B008D3B8F3C748D2549FCE4354AFD7F808CF6
:10061B003D8D3E8F3F74AF2549FCE4354AFD7F800D
:10062B008C408D418F4274D12549F582E4354AF5D2
:10063B0083E493F52C752D0074FA252D50030207D6
:10064B000DC3E52D952C506CC002C003E52D75F044
:10065B0003A42431F8860708860408860518188F2A
:10066B00828C838DF0C002C003121E1DAC82AD8341
:10067B00D003D002EDCC25E0CC33CC25E0CC33FD40
:10068B003395E0FFFA7484C39CFCE49DFDE49FFF6B
:10069B00E49AA2E713FAEF13ED13EC13F582E52DB1
:1006AB0004F50AC002C0031213DFD003D002D0033B
:1006BB00D0028013E52D04F50A758200C002C00339
:1006CB001213DFD003D002E52D75F003A42431F80B
:1006DB0086040886050886071818C002C003C004E4
:1006EB00C005C00774E6C0E0741EC0E07480C0E0B3
:1006FB0012186FE58124FAF581D003D002052D0283
:10070B000643750A07758200C002C0031213DFD0BF
:10071B0003D002EA245BFCEB3422FD74D22CF5826D
:10072B00E43DF583E493C313FC74075C75F009A4F3
:10073B0024E9FCE43421FD7F80C002C003C004C067
:10074B0005C00774E6C0E0741EC0E07480C0E01200
:10075B00186FE58124FAF581750A07758224121347
:10076B00DF74E9C0E0741EC0E07480C0E012186F43
:10077B00158115811581D003D002EA245BFCEB3483
:10078B0022FD74D22CF582E43DF583E4935401C42D
:10079B000354F824D9FCE43421FD8C2E8D2F7530B5
:1007AB0080852E82852F838530F0C002C003121EF8
:1007BB001DAC82E583CC25E0CC33CC25E0CC33FDDE
:1007CB007424C39CF582E49DF583750A02E4F50B52
:1007DB00121E87AC82742C2CF582750A071213DF5C
:1007EB00C02EC02FC03074E6C0E0741EC0E0748011
:1007FB00C0E012186FE58124FAF581750A0775823E
:10080B00541213DF74E9C0E0741EC0E07480C0E0C2
:10081B0012186F158115811581D003D002EA245B64
:10082B00FAEB3422FB74D22AF582E43BF583E49392
:10083B00C4540FFA74075A75F00AA4241FFAE4344F
:10084B0022FB8A2E8B2F753080852E82852F8385F8
:10085B0030F0121E1DE582FA2A25E0FA7427C39A9E
:10086B00245CF582750A071213DFC02EC02FC0302F
:10087B0074E6C0E0741EC0E07480C0E012186FE52F
:10088B008124FAF581755C027582081213ACE52C94
:10089B00C40354F8FA2408F582755C01C0021213E4
:1008AB00ACD00274092AF582755C02C0021213AC3B
:1008BB00D002740A2AF582755C011213AC755C02C6
:1008CB007582391213ACAE24E52724FF92AF90004A
:0B08DB0019C00612093ED0060201A25F
:101EC300444159202575005341414C202575002577
:101ED3003032753A253032752D253032753A25303A
:081EE3003275002573007C003C
:0C00DC00754B00754C00754D007553000D
:1008E6008582C1E58630E1FB5386FD225380FB22DB
:1008F60043800422AA82743F5AF5F0744045F0F50D
:10090600820208E6AA82740F5AF5F074B045F0F533
:10091600820208E6AA82AB838B04740F5CF5F0743E
:100926001045F0F582C002C0031208E6D003D002DB
:1009360053020F8A820208E6AA82AB838A048B05D9
:100946001ABAFF011BEC4D60187C007D007EB07F5B
:10095600040CBC00010D1EBEFF011FEE4F70F2809D
:10096600DB22C022C0E0C0F0C082C083C002C00348
:10097600C004C005C006C007C000C001C0D075D005
:1009860000A2AFE433F550C2AF53C0FEE5D130E06C
:100996006753D1FE90FADEE0FBFD7C0090FADFE0C3
:1009A600FEFF7A004CF54EEA4DF54F90FADCE0FA80
:1009B600A3E0FCFD620390FADEEBF07B00EE620240
:1009C600EB620490FADFEAF043D60190FB0DE0FA01
:1009D600A3E0FB4A7003020AF274FBC0E07409C08C
:1009E600E090FB0DE0C0E0A3E0C0E0854E82854FBD
:1009F600838550F022020AF2E5D120E103020AEFD4
:100A060053D1FD1208F2AA4B7B000ABA00010BEB88
:100A16003395E0FCFD750A09E4F50BF50CF50D8A36
:100A2600828B838CF0ED1217FCAA828A4B90FAE631
:100A3600E0FB7A0090FAE7E0FC7D004AF54EED4BCC
:100A4600F54FE54B703DAA4CFB8A828B83A3750A52
:100A560003E4F50B121E51AA828A4C758200120815
:100A6600FA7A047BF08A4E8B4FE54C602FE4FCFD4E
:100A760074842AFAE43BFBE43CFCE43DFD8A4E8B9D
:100A86004F8019AA4EAB4FE4FCFD74082AFA740194
:100A96003BFBE43CFCE43DFD8A4E8B4FAA4F90FAAB
:100AA600E6EAF0AA4E90FAE7EAF07582A41208E6A2
:100AB600854B8212090A854B8212090A90000012A0
:100AC600091A90000012091A1208F643D6027A0093
:100AD6007B007C6E7D000ABA00010B1CBCFF011D69
:100AE600EC4D70F243D702800375D100E55024FF28
:100AF60092AFD0D0D001D000D007D006D005D00418
:100B0600D003D002D083D082D0F0D0E0D02232857C
:100B1600D55185D45290FAEE7407F090FAEF740727
:100B2600F090FAF07407F090FAF17407F090FAF288
:100B36007407F090FAF37407F090FAF47404F090E6
:100B4600FAF5E4F090FAF6F090FAF774DFF090FA1E
:100B5600F874BEF090FAF9E4F090FAFA7407F0909F
:100B6600FAFB7420F090FAFC7442F0A2AFE433FA78
:100B7600C2AF758200C0021212BA9001F412093E89
:100B86001208F27582AC1208E67582AE1208E67596
:100B960082A51208E61208F6D00253BEFBE5BE3067
:100BA600E5FBABC674F85BF5F0744445F0F5C6E5B5
:100BB600C630E6FB43BE0453B8F6758A0053E8F721
:100BC600438D40439A10438C02D2AF85D55185D4CC
:100BD6005243D6817BEE7CFA8C0390FAF5EBF07BE0
:100BE600EE7CFA90FAF6EBF07BF57CFA8CD57BF589
:100BF6007CFA8BD475D60143C70243BE07000000BA
:100C0600E5BE54037003020C1775D7010043870134
:100C16000053C7FD8551D58552D475D601E5BE3042
:100C2600E5FBC2AFC00212113AD002EA24FF92AF2E
:100C360022C0E0C082C083C002C003C004C005C099
:100C460006C007C000C001C0D075D00053C0F7E58C
:100C5600D820E003020EC253D8FE43D701AA53059B
:100C660053EA6003020EC5A2AFE433FAC2AF53FEE5
:100C760003438002E590F4FB5303FC90FB05E0FC84
:100C860090FAFDE0FDEB6D420490FB05ECF090FA66
:100C9600FDEBF0EB0303543FF4FC43FD025380FDF0
:100CA600AD907E00EDF4FDEEF45305FCE4A2E713EF
:100CB600CD13CDA2E713CD13CDFEE580F4FF530788
:100CC600C07800EF4205E842068C077800EF52052F
:100CD600E852068D0390FB06E0FD90FAFEE0FEEB7F
:100CE6006E420590FB06EDF090FAFEEBF053FDFD2B
:100CF60043FE045390FBAD907E00EDF4FDEEF453FD
:100D060005F8E4A2E713CD13CDA2E713CD13CDFE6C
:100D1600E580F4FF5307C07800EF4205E842067FFE
:100D260000EC5205EF52068D0390FB07E0FD90FAAA
:100D3600FFE0FEEB6E420590FB07EDF090FAFFEB4D
:100D4600F053FEFB43FE085390F7AD907E00EDF4A2
:100D5600FDEEF45305F0E4A2E713CD13CDA2E7139D
:100D6600CD13CDFEE580F4F85300C07900E84205C6
:100D7600E94206EC5205EF52068D0390FB08E0FDB2
:100D860090FB00E0FEEB6E420590FB08EDF090FB59
:100D960000EBF053FEF743FE105390EFAD907E004C
:100DA600EDF4FDEEF45305E0E4A2E713CD13CDA276
:100DB600E713CD13CDFEE580F4F85300C07900E8C3
:100DC6004205E94206EC5205EF52068D0390FB09F7
:100DD600E0FD90FB01E0FEEB6E420590FB09EDF0B5
:100DE60090FB01EBF053FEEF43FE205390DFAD90F6
:100DF6007E00EDF4FDEEF45305C0E4A2E713CD1337
:100E0600CDA2E713CD13CDFEE580F4F85300C079EB
:100E160000E84205E94206EC5205EF52068D0390C2
:100E2600FB0AE0FD90FB02E0FEEB6E420590FB0A3A
:100E3600EDF090FB02EBF053FEDF43FE405390BF14
:100E4600AD907E00EDF4FDEEF4530580E4A2E713C9
:100E5600CD13CDA2E713CD13CDFEE580F4F85300F4
:100E6600C07900E84205E94206ED5204EE52078CCD
:100E76000390FB0BE0FC90FB03E0FDEB6D4204905E
:100E8600FB0BECF090FB03EBF053FEBF43FE8053ED
:100E9600907FE580F4FC74C05CFB90FB0CE0FC905A
:100EA600FB04E0FDEB6D420490FB0CECF090FB04C0
:100EB600EBF053FE7FEA24FF92AF800375D800D093
:100EC600D0D001D000D007D006D005D004D003D0B2
:100ED60002D083D082D0E032C0E0C002538ABF5332
:100EE600E8F7E5BEF452BED002D0E03290FB0AE04D
:100EF600FA90FB02E0F45A5420F55490FB09E0FB0B
:100F060090FB01E0F45B5408F555A2AFE433FCC254
:100F1600AF7D007E00BE08004003020FEDEE24FD0B
:100F2600F582E434FAF583E0FFEE2405F582E43435
:100F3600FBF583E0F85207EF7003020FE7C3E49F67
:100F4600F85207BE0506BF2003020FE7BE0406BF20
:100F56000803020FE7ED2405F8E434FBF9ED240558
:100F6600F582E434FBF583E0FBEFF45203888289D3
:100F760083EBF090FB0AE0FA5302DF90FB0AEAF0FB
:100F860090FB09E0FA5302F790FB09EAF0EDC4037F
:100F960054F8FAEF75F01DA4FFE5F0FBC403CFC4C7
:100FA6000354076FCF5407CF6FCF30E20244F85394
:100FB60007077B00EF2AFAE554600674402AFA8098
:100FC60008E555600474802AFAEC24FF92AFEA9093
:100FD6001EEB93FABA9007C002120B15D0028A8252
:100FE600220E8E05020F1BEC24FF92AF75820022A3
:100FF600AA82758200C0021208FAD0027B008B0416
:101006007D007E007F00C3EC9409ED9400EE940011
:10101600EF648094805042C002C0031208F2D003ED
:101026008B82C00312090A90000012091A1208F6F0
:10103600D003D0027C847D008A82C002C003C00433
:10104600C0051208E6D005D004D003D0021CBCFFB0
:10105600011DEC4D70E20B80A5225390FD9000011E
:1010660012093E43900290000112093E1208F275E1
:1010760082A21208E67582A11208E67582C01208DD
:10108600E67582241208E67582811208E6758222C8
:101096001208E675822F1208E67582AF1208E67509
:1010A60082A41208E67582A60208E6AA83E5829063
:1010B600FB0DF0A3EAF0227A247BF47C007D848A7F
:1010C600828B838CF074FF1216E2A3AA82AB83DDB7
:1010D600EE7D848A828B838CF0E41216E2A3AA82C8
:1010E600AB83DDEF7D848A828B838CF0E41216E27B
:1010F600A3AA82AB83DDEF7D848A828B838CF07416
:10110600FF1216E2A3AA82AB83DDEE7D848A828B70
:10111600838CF074FF1216E2A3AA82AB83DDEE7D08
:10112600848A828B838CF074FF1216E2A3AA82ABA8
:1011360083DDEE22C2AF90FB11E0F5567557AB7515
:10114600581F75598053BEFBE5BE30E6FB53C6807B
:10115600E5C620E6FB43BE0443B809750A00750BD5
:1011660008E4F50C90FAFD75F0001216C3750A0036
:10117600750B08E4F50C90FB0575F0001216C375A7
:10118600F32875F40143FD1443FE0343FF1853FD92
:101196003D75EB1075EC2475ED8075CB9A75CDCB4E
:1011A600750A00750B90750C0190F94C75F00012DC
:1011B60016C37A4C7BF97C147DFA90FADCEC6AF063
:1011C600ED6BA3F07A4C7BF98B0290FADEEAF07AAB
:1011D6004C7BF990FADFEAF090FAE074DFF090FACF
:1011E600E174EDF090FAE2E4F090FAE374C8F0905E
:1011F600FAE4E4F090FAE57449F07ADE7BFA8BD5EE
:101206007ADE7BFA8AD453D1FE43D6017586007501
:10121600C23B75C5305380EF121060758200120F05
:10122600F6750A00750B48750C0990F00475F00008
:101236001216C37A047BF08B0290FAE6EAF07A047F
:101246007BF090FAE7EAF090FAE874DFF090FAE9BA
:1012560074C1F090FAEAE4F090FAEB7484F090FA34
:10126600EC740FF090FAED7448F07AE67BFA8BD3C3
:101276007AE67BFA8AD253D1FD1208F27582001201
:1012860008FA75820012090A90000012091A12085B
:10129600F643D60243D702D2AF22E582FA60045360
:1012A600A0F72243A00822E582FA600453A0EF22A9
:1012B60043A01022AA82A2AFE433FBC2AF8A0A750A
:1012C6000B48750C0990F00475F000C0031216C3A4
:1012D600D003EB24FF92AF22AA82A2AFE433FBC273
:1012E600AFE55AC423541FFC8C0A750B00750C001D
:1012F600750D00900108E4F5F0C002C0031217183E
:10130600AC82AD83FFD003D002EC2404FCED34F0B4
:10131600FDEA2CFAE43DFE7C007407555AF5F0050B
:10132600F07401800225E0D5F0FBFDE55B30E019A5
:101336008A828E838CF0121E35FFED42078A828EDA
:10134600838CF0EF1216E280198A828E838CF0125B
:101356001E35FFEDF4F852078A828E838CF0EF1269
:1013660016E274842AFAE43EFEE55B30E1198A82CD
:101376008E838CF0121E35FFED42078A828E838C97
:10138600F0EF1216E280198A828E838CF0121E35D7
:10139600FFEDF4FD52078A828E838CF0EF1216E27F
:1013A600EB24FF92AF22AA827B008B047D007E0095
:1013B6007F00C3EC9484ED9400EE9400EF64809477
:1013C6008050158A5A855C5B8B82C002C00312125C
:1013D600DED003D0020B80D222AA82A2AFE433FB76
:1013E600C2AF90FB0FE50AF090FB10EAF0EB24FF8A
:1013F60092AF22AA82A2AFE433FBC2AFBA00028048
:1014060005BA0124801190FB11E0F5567557AB75AE
:10141600581F755980802090FB12E0F55675575974
:1014260075585F755980800F90FB11E0F55675571A
:10143600AB75581F755980EB24FF92AF2285825DEC
:10144600A2AFE433F562C2AF90FB0FE0FC8C0A75E5
:101456000B00750C00750D00900108E4F5F0C00452
:10146600121718AD82AE83F8D004ED2404FDEE34D5
:10147600F0FE90FB10E0FF2DFDE43EFE8D5E8E5FDC
:101486007560007420B55D0BE5560490FB102FF0D7
:10149600021639740DB55D0890FB10E4F00216399A
:1014A600740AB55D0E90FB10E4F090FB0FEC04F0AF
:1014B600021639C374A0855DF063F08095F0400391
:1014C600021639C3E55D648094FF4003021639C0F5
:1014D60004756100855665756600A965E566FB338A
:1014E60095E0FAFD7484C399F9E49BFBE49AFAE467
:1014F6009DFD7E0078007C00C3EF99EE9BE89AEC98
:1015060064808DF063F08095F0D004400E90FB105F
:10151600E4F090FB0FEC04F075610190FB0FE0FA2C
:1015260024F8500890FB0FE4F0756101E56160371F
:1015360090FB0FE0FA8A0A750B00750C00750D001A
:10154600900108E4F5F0121718AA82AB83FDEA248D
:1015560004FAEB34F0FB90FB10E0FC2AFAE43BFBC8
:101566008A5E8B5F756000E55DFA3395E0FBEA24E1
:10157600DFF582EB34FFF583E55675F002A4F50A34
:1015860085F00B1216FB8582638583647C00C3ECB1
:1015960095565036EC255EFDE4355FFEAF608C0057
:1015A6007900E82563F8E93564F9E82557F8E9355F
:1015B60058F9AA59888289838AF0121E35F88D82D5
:1015C6008E838FF01216E20C80C47A00C3EA955619
:1015D60050528A037C008B05ECFE3395E0FFF874CD
:1015E600842DFDE43EFEE43FE438ED255EFDEE3558
:1015F6005FFEAF60EB2563FBEC3564FCE5652BFB1A
:10160600E5663CFCEB2557FBEC3558FCA8598B826C
:101616008C8388F0121E35FB8D828E838FF0121616
:10162600E20A80A8E55604FA90FB10E0FB90FB1056
:0A163600EA2BF0E56224FF92AF22D8
:101EEB000000906F706D6E6B796788633E2C3C20A1
:101EFB000071757769747265000068616A66647356
:101F0B000000760062787A800000820008818400ED
:101F1B0000002F005EA0000000000A006C00000013
:101F2B000000002B3D2E2122245F0039003F0020B2
:101F3B00003126322D23403300003A343B5C3635DA
:101F4B000000280029383700000000000000300096
:101F5B00000000000000000000000000270000004F
:101F6B000000004F504D4E4B5947004300000020DE
:101F7B000051555749545245000048414A46445375
:101F8B000000560042585A000000000000000000FC
:101F9B000000000000000000000000004C000000EA
:046306000000000093
:101FAB0000B80000B80018001818001850F850F8C6
:101FBB0050F840D81070F870A870A8C8209840202E
:101FCB004040204000180000180070708800F8880E
:101FDB0088707088F800407040603060207020205E
:101FEB00702080400000C000202020202020008096
:101FFB0000008000A07028C02018708870F888F846
:10200B0088F88090F880D8A8D8E8A8B8D8A87088A5
:10201B00A8F81820D83820F8B8A848B8A8E870A8AD
:10202B0048F8A8E8A87828C8281850A850F8A8F8A5
:10203B0050A870B8A8F80050000050008050000065
:10204B00D00070D80020500050505050505000D845
:10205B007000502010E81008A838F898F8F8A8B8C5
:10206B00F028F0F828F8F8A870F8A8F8708850F85D
:10207B0088D8F88870F888F8708850F8A8D8F828AD
:10208B0000F82828708840F8A8F8F820F8F820F80D
:10209B0000F80000F800408078C080F8F810C8F80D
:1020AB006098F88080788080F028F0F810F8F05075
:1020BB0078F820F8708870F888F8F02810F828382D
:1020CB00704830F888F8F008D0F868B850A850B8C5
:1020DB00A8E808F80808F808788078F880F8C03085
:1020EB00C038C03878A078F840F8A850A8D820D8C5
:1020FB0028D02818E01820D820C8A89800F8880005
:10210B00F8882870A01820C088F80088F8001808F4
:10211B001810081080808080808000081000180044
:10212B00F028F0F828F8F8A870F8A8F8708850F89C
:10213B0088D8F88870F888F8708850F8A8D8F828EC
:10214B0000F82828708840F8A8F8F820F8F820F84C
:10215B0000F80000F800408078C080F8F810C8F84C
:10216B006098F88080788080F028F0F810F8F050B4
:10217B0078F820F8708870F888F8F02810F828386C
:10218B00704830F888F8F008D0F868B850A850B804
:10219B00A8E808F80808F808788078F880F8C030C4
:1021AB00C038C03878A078F840F8A850A8D820D804
:1021BB0028D02818E01820D820C8A89800708820AC
:0E21CB00D80000F80000F80088700000D8204E
:01630A00038F
:1021D900656E676C697368006765726D616E000092
:1021E9006C6563747572650000706F6469756D0064
:1021F9000000636F6E7465737400006C746E6774AD
:10220900616C6B00776F726B73686F70006F7468C5
:10221900657200000000636F6D6D756E69747900F9
:1022290063756C747572650000006861636B696E33
:10223900670000006D616B696E67000000007363E1
:1022490069656E6365000000736F63696574790081
:102259000000000B1E0C1E32374333204B65796E8C
:102269006F7465000000000000000000000000A17C
:10227900000000000000000100576520636F6D65D4
:1022890020696E2050656163650000000000000050
:1022990000A1000000000000000100000000000093
:1022A9000000000000000000000000000000000025
:1022B900000000A100000000000000010000000073
:1022C9000000000000000000000000000000000005
:1022D9000000000000A10000000000000001000053
:1022E90000000000000000000000000000000000E5
:1022F90000000000000000A1000000000000000133
:1023090000000000000000000000000000000000C4
:10231900000000000000000000A100000000000013
:102329000001000150000C2D0D2D436F7079726969
:1023390067687420456E666F7263656D656E74209B
:1023490056732E000000000000000000467265650B
:10235900646F6D73000000000000000000000000C1
:1023690000000000A100000000000000010041433E
:1023790054412C2049505245443320616E64206FEA
:1023890074686572207570636F6D696E670000000F
:10239900626174746C6573206F662074686520636C
:1023A90072757361646520616761696E7374000099
:1023B900000073686172696E670000000000000028
:1023C90000000000000000000000A1000000000063
:1023D900000001004A6572656D6965205A696D6D75
:1023E90065726D616E6E000000000000A1000000C2
:1023F9000000000001000250000E000F00566F6E31
:10240900205A656E73757273756C6120C3BC626501
:10241900722043656E73696C696100000000006891
:10242900696E207A756D204B696E6465726E65748C
:1024390000000000000000A10000000000000001F1
:10244900004A616872657372C3BC636B626C6963CD
:102459006B2072756E6420756D20496E7465726E9D
:102469006574005370657272656E2C2053656E64D5
:10247900657A65697462656772656E7A756E676596
:102489006E00000000696D20496E7465726E657496
:1024990020756E64207665726D65696E746C69630A
:1024A90068656E000000004A7567656E647363684D
:1024B90075747A207C20416C76617220432E482EF7
:1024C9004672657564650000000251001000110034
:1024D90057686973746C65626C6F77696E67000021
:1024E9000000000000000000A10000000000000042
:1024F90001004C6963687420696E732044756E6BC2
:10250900656C2100000000000000A100000000002F
:1025190000000100000000000000000000000000B1
:10252900000000000000000000000000A100000001
:102539000000000001000000000000000000000091
:102549000000000000000000000000000000A100E1
:102559000000000000000100000000000000000071
:102569000000000000000000000000000000000062
:10257900A1000000000000000100000000000000B0
:102589000000000000000000000000000000000042
:102599000000A1000000000000000100015100142A
:1025A9001E151E4461746120526574656E74696FED
:1025B9006E20696E207468652045552066697665C8
:1025C90000000000007965617273206166746572AC
:1025D90020746865204469726563746976650000D2
:1025E90000000000000000576879207468652074B5
:1025F900696D65206973206E6F7720746F20676538
:1026090074000000000000000061637469766500D1
:1026190000000000000000000000000000000000B1
:1026290000A10000000000000001004B617461720C
:102639007A796E6120537A796D69656C657769631A
:102649007A2C205061747269636B000000427265D4
:102659007965722C2052616C662042656E647261E4
:102669007468000000A100000000000000010002E1
:102679005000000F010F50656E74616E657773200D
:1026890047616D652053686F770000000000A10065
:102699000000000000000100596F7572206F707012
:1026A9006F6E656E74732077696C6C206265207239
:1026B9006964646C65640000000061732077656C6F
:1026C9006C00000000000000000000000000000095
:1026D9000000A1000000000000000100000000004F
:1026E90000000000000000000000000000000000E1
:1026F90000000000A100000000000000010000002F
:1027090000000000000000000000000000000000C0
:10271900000000000000A10000000000000001000E
:10272900416C69656E382C20417374726F0000002A
:102739000000000000000000A100000000000000EF
:102749000100010A100C2D0D2D436F64652064658D
:102759006F62667573636174696F6E2062790000D8
:1027690000A10000000000000001006F7074696D95
:10277900697A6174696F6E00000000000000000052
:10278900000000A10000000000000001000000009E
:102799000000000000000000000000000000000030
:1027A9000000000000A1000000000000000100007E
:1027B9000000000000000000000000000000000010
:1027C90000000000000000A100000000000000015E
:1027D90000000000000000000000000000000000F0
:1027E900000000000000000000A10000000000003F
:1027F9000001004272616E6B6F20537061736F6AE2
:102809006576696300000000000000A10000000077
:1028190000000001000220100E000F00436F6E74CB
:10282900656D706F726172792050726F66696C693B
:102839006E67206F662057656200000000005573BF
:102849006572730000000000000000000000000035
:10285900000000000000A1000000000000000100CD
:102869004F6E205573696E6720416E6F6E796D6981
:102879007A65727320616E64205374696C6C000010
:102889000000476574204675636B656400000000AD
:1028990000000000000000000000A100000000008E
:1028A900000001000000000000000000000000001E
:1028B900000000000000000000000000A10000006E
:1028C900000000000100446F6D696E696B20486566
:1028D90072726D616E6E2C206C6578690000000063
:1028E9000000000000000000022010100011004547
:1028F900696E732C207A7765692C2064726569206A
:102909002D20616C6C652073696E64000000000005
:1029190000646162656900000000000000000000B9
:10292900000000000000000000A1000000000000FD
:10293900000100566F6E2064657220566F6C6B73D0
:102949007AC3A4686C756E67207A756D2042756EBE
:102959006465732D006D656C646572656769737470
:1029690065720000000000000000000000A10000E6
:10297900000000000001000000000000000000004D
:10298900000000000000000000000000000000A19D
:102999000000000000000001004F6C69766572209C
:1029A90022556E69636F726E22204B6E61707000E2
:1029B9000000000000000000000000025110110F8B
:1029C900120F46726965646520736569206D6974C3
:1029D90020457572656E20446174656E00000000C3
:1029E9000000000045696E20646174656E73636858
:1029F90075747A72656368746C696368657220417D
:102A090075732D000000666C756720696E20656915
:102A19006E206B697263686C696368657320000076
:102A29000000000000000000506172616C6C656C70
:102A3900756E6976657273756D202D000000000052
:102A4900A1000000000000000100000000000000DB
:102A5900000000000000000000000000000000006D
:102A69000000A10000000000000001004A6F636837
:102A7900696D2053656C7A657200000000000000E2
:102A890000000000A1000000000000000100015149
:102A990010121E131E6861636B696E6720736D6186
:102AA90072742070686F6E657300000000A10000E9
:102AB90000000000000100657870616E64696E674E
:102AC900207468652061747461636B207375726624
:102AD90061636520616E6400007468656E20736FC0
:102AE9006D6500000000000000000000000000000B
:102AF90000A100000000000000010000000000002B
:102B090000000000000000000000000000000000BC
:102B1900000000A10000000000000001000000000A
:102B2900000000000000000000000000000000009C
:102B39000000000000A100000000000000010000EA
:102B4900000000000000000000000000000000007C
:102B590000000000000000A10000000000000001CA
:102B690000012010141E151E4465736B746F7020CC
:102B79006F6E20746865204C696E75782E2E2E0054
:102B89000000000000000000000028616E6420427F
:102B990053442C206F6620636F757273652900009A
:102BA9000000A1000000000000000100796F7527F6
:102BB900726520646F696E6720697420636F6E6641
:102BC900757365643F2077656972643F00007374AB
:102BD90072616E67653F2077726F6E673F00000014
:102BE900000000000000A10000000000000001003A
:102BF90000000000000000000000000000000000CC
:102C09000000000000000000A1000000000000001A
:102C190001000000000000000000000000000000AA
:102C290000000000000000000000A10000000000FA
:102C390000000100020010152D162D526563656E06
:102C49007420616476616E63657320696E204950F2
:102C590076360000000000000000000000696E7375
:102C6900656375726974696573000000000000008E
:102C79000000000000A100000000000000010000A9
:102C8900000000000000000000000000000000003B
:102C990000000000000000A1000000000000000189
:102CA900000000000000000000000000000000001B
:102CB900000000000000000000A10000000000006A
:102CC90000010000000000000000000000000000FA
:102CD9000000000000000000000000A1000000004A
:102CE900000000010076616E48617573657200002D
:102CF90000000000000000000000000000A100002A
:102D090000000000000100022010170000005370AD
:102D1900696E6E696E672074686520656C65637499
:102D2900726F6E696300000000000000000000007F
:102D3900576865656C000000000000000000000095
:102D49000000000000000000A100000000000000D9
:102D590001005374696C6C20746865206269637939
:102D6900636C657320666F722074686520323174F4
:102D79006800000063656E747572790000000000D8
:102D8900000000000000000000000000A100000099
:102D99000000000001000000000000000000000029
:102DA9000000000000000000000000000000A10079
:102DB9000000000000000100000000000000000009
:102DC90000000000000000000000000000000000FA
:102DD900A10000000000000001000231200C2D0DAF
:102DE9002D46726F6D20726F626F7420746F20723E
:102DF9006F626F740000000000A100000000000075
:102E0900000100526573746F72696E6720637265A1
:102E19006174697669747920696E207363686F6F6C
:102E29006C00000000707570696C73207573696EB1
:102E39006720726F626F74696373000000A10000FC
:102E49000000000000010000000000000000000078
:102E5900000000000000000000000000000000A1C8
:102E69000000000000000001000000000000000058
:102E79000000000000000000000000000000000049
:102E890000A1000000000000000100000000000097
:102E99000000000000000000000000000000000029
:102EA900000000A100000000000000010001502006
:102EB9000E000F004A5441472F53657269616C2F08
:102EC900464C4153482F50434220456D6265646426
:102ED9006564000000005265766572736520456E71
:102EE90067696E656572696E6720546F6F6C7320D0
:102EF900616E640000000000546563686E69717555
:102F090065730000000000000000000000000000E0
:102F1900A1000000000000000100612064756D70CF
:102F2900206F662073696D706C6520746F6F6C73A8
:102F390020666F7220656D2D000000006265646473
:102F4900656420616E616C79736973206174206DA9
:102F5900616E79206C617965727300000000000070
:102F69000000000000000000000000000000000058
:102F7900000000000000A1000000000000000100A6
:102F8900032020100011004175746F6D617469632D
:102F9900204964656E74696669636174696F6E203E
:102FA9006F660000000000000043727970746F675B
:102FB900726170686963205072696D6974697665B8
:102FC9007320696E00000000000000536F6674777B
:102FD90061726500000000000000000000000000B0
:102FE900000000A100000000000000010000000036
:102FF90000000000000000000000000000000000C8
:103009000000000000A10000000000000001000015
:1030190000000000000000000000000000000000A7
:1030290000000000000000A10000000000000001F5
:103039000046656C69782047726F65626572740035
:10304900000000000000000000A1000000000000D6
:10305900000100032020110F120F55534220616E09
:1030690064206C696275736220666F722066756E82
:1030790020616E64000000000000000070726F663D
:10308900697400000000000000000000000000005A
:1030990000000000A10000000000000001005553DD
:1030A900423A20536F206D756368206D6F726520F9
:1030B9007468616E20612073657269616C0000003B
:1030C900706F7274207769746820706F7765720009
:1030D9000000000000000000A10000000000000046
:1030E90001000000000000000000000000000000D6
:1030F90000000000000000000000A1000000000026
:10310900000001005065746572205374756765008D
:10311900000000000000000000000000A100000005
:10312900000000000100023020152D162D436F67A5
:103139006E69746976652050737963686F6C6F671F
:103149007920666F7200000000000000000000484E
:1031590061636B65727300000000000000000000ED
:1031690000000000000000A10000000000000001B4
:1031790000427567732C206578706C6F6974732CC5
:1031890020616E64206F63636173696F6E616C00A7
:10319900000000706174636865730000000000003E
:1031A9000000000000000000000000A10000000075
:1031B9000000000100000000000000000000000005
:1031C90000000000000000000000000000A1000055
:1031D90000000000000100536169000000000000C8
:1031E900000000000000000000000000000000A135
:1031F9000000000000000001000240010B1E0C1E2F
:1032090046696C65202D3E205072696E74202D3EF2
:1032190020456C656374726F6E696373000000000A
:10322900000041206E6577206369726375697420B7
:10323900626F617264207072696E74657220776959
:103249006C6C00006C6962657261746520796F75D8
:103259002066726F6D207468652041726475696EAD
:103269006F2D00000000496E647573747269616C9A
:1032790020436F6D706C6578000000000000A100AC
:103289000000000000000100000000000000000034
:103299000000000000000000000000000000000025
:1032A900A10000000000000001004A656666204791
:1032B9006F75676800000000000000000000000052
:1032C9000000A1000000000000000100013001120F
:1032D9001E131E54686520436F6E63657274000087
:1032E9000000000000000000000000A10000000034
:1032F90000000001006120646973636F6E63657289
:1033090074696E67206D6F6D656E7420666F7220CB
:103319006672656500000063756C747572650000FE
:10332900000000000000000000000000000000A1F3
:103339000000000000000001000000000000000083
:103349000000000000000000000000000000000074
:1033590000A10000000000000001000000000000C2
:103369000000000000000000000000000000000054
:10337900000000A1000000000000000100436F727E
:103389006579204365726F7673656B2C204A756C7D
:1033990069656E205175656E74696E0000000001E3
:1033A9001A01141E151E486967682D7370656564D6
:1033B90020686967682D736563757269747900009F
:1033C900000000000000000063727970746F67727A
:1033D900617068793A0000000000000000000000F8
:1033E900A1000000000000000100656E63727970A1
:1033F90074696E6720616E642061757468656E74A6
:1034090069636174696E6700000000007468652073
:1034190077686F6C6520496E7465726E657400001B
:1034290000000000A10000000000000001000000F1
:103439000000000000000000000000000000000083
:10344900000000000000A1000000000000000100D1
:1034590044616E69656C204A2E204265726E7374F0
:1034690065696E0000000000A10000000000000076
:1034790001000220011700000054686520696D7081
:103489006F7274616E6365206F662072657369730C
:1034990074696E6700000000000000457863657379
:1034A9007369766520476F7665726E6D656E740017
:1034B900000000A100000000000000010053757227
:1034C9007665696C6C616E63650000000000000040
:1034D9000000000000A10000000000000001004AF7
:1034E9006F696E206D6520696E206578706F7369EC
:1034F9006E6720616E64206368616C2D00000000B6
:10350900006C656E67696E672074686520636F6E0D
:103519007374616E742076696F6C6174696F6E7310
:103529000000006F66206F757220726967687420E9
:10353900746F207072697661637900000000000081
:103549000000000000035001000F010F5374616E69
:1035590069736C6177204C656D0000000000000004
:1035690000000000A1000000000000000100446507
:103579007220656E7474C3A475736368746520578B
:10358900656C747665726265737365726572000045
:1035990045696E20617564696F76697375656C6CD0
:1035A9006573204C6976652D466561747572650091
:1035B9000000412E4B726F6C696B6F77736B692CCE
:1035C90020432E4B75727A2C000000000000000089
:1035D90000000000492E4B7761736E696577736B44
:1035E900692C204A2E2D4D2E204C6F6562656C008A
:1035F9000000000000004B2E4B6974746C6572204A
:10360900756E64204D2E20526963687465720000DE
:1036190000000000000000000211110B1E0C1E44E6
:1036290069737472696275746564204650474120F4
:103639004E756D6265720000000000000000000018
:10364900004372756E6368696E6720466F72205415
:103659006865204D61737365730000000000000008
:10366900000000486F77207765206F627461696E8A
:10367900656420746865206571756976616C656E2D
:103689007400000000706F776572206F66206120FA
:103699004465657020437261636B20666F722061B7
:1036A900000000000000006669737466756C206F85
:1036B9006620646F6C6C617273202D20616E6420CA
:1036C900686F772E2E2E00000046656C69782044BD
:1036D9006F6D6B6500000000000000000000000035
:1036E90000A10000000000000001000221110D00EE
:1036F9000D1E4C79696E6720546F20546865204E01
:1037090065696768626F75727300000000000000E8
:1037190000000000466965736520456666656B743F
:1037290065206D697420747261636B65722D6C65B7
:10373900737300000000426974546F7272656E748D
:103749000000000000000000000000000000A100CF
:10375900000000000000010000000000000000005F
:103769000000000000000000000000000000000050
:10377900A10000000000000001000000000000009E
:103789000000000000000000000000000000000030
:103799000000A100000000000000010041737472E4
:1037A9006F000000000000000000000000000000A1
:1037B90000000000A100000000000000010001213C
:1037C900110D2D0E0F4E6F64652E6A7320617320E3
:1037D90061206E6574776F726B696E6720746F6FA5
:1037E9006C00000000000000000000000000000064
:1037F900000000000000000000000000000000A11F
:1038090000000000000000010000000000000000AE
:10381900000000000000000000000000000000009F
:1038290000A10000000000000001000000000000ED
:10383900000000000000000000000000000000007F
:10384900000000A1000000000000000100000000CD
:10385900000000000000000000000000000000005F
:103869000000000000A10000000000000001004667
:10387900656C69782047656973656E646F65726602
:1038890065720000000000A10000000000000001B6
:10389900000120110E1E0F004C6F67696B7363687E
:1038A900616C74756E67656E206F686E6520456C16
:1038B900656B74726F6E696B00006C6F6769736317
:1038C900686520536368616C74756E67656E206DF9
:1038D900697400000000000000000000506E65756A
:1038E9006D6174696B0000000000000000000000B9
:1038F90000000000A100000000000000010000001D
:1039090000000000000000000000000000000000AE
:10391900000000000000A1000000000000000100FC
:10392900000000000000000000000000000000008E
:103939000000000000000000A100000000000000DD
:10394900010041657065780000000000000000007A
:1039590000000000000000000000A10000000000BD
:103969000000010001311110001100497320746831
:10397900652053534C6976657273652061207361C4
:10398900666520706C6163653F00000000416E2030
:10399900757064617465206F6E20454646277320F3
:1039A90053534C0000000000000000000000004FCD
:1039B900627365727661746F72792070726F6A656D
:1039C90063740000000000A1000000000000000175
:1039D90000000000000000000000000000000000DE
:1039E900000000000000000000A10000000000002D
:1039F90000010000000000000000000000000000BD
:103A09000000000000000000000000A1000000000C
:103A1900000000010000000000000000000000009C
:103A290000000000000000000000000000A10000EC
:103A390000000000000100010011110F120F446580
:103A490066656E7365206973206E6F7420646561A5
:103A5900640000000000A100000000000000010057
:103A69005768792077652077696C6C20686176657D
:103A7900206D6F72652073656375726500000000C3
:103A89000000636F6D707574657273202D20746FFB
:103A99006D6F72726F7700000000A10000000000D6
:103AA900000001000000000000000000000000000C
:103AB900000000000000000000000000A10000005C
:103AC90000000000010000000000000000000000EC
:103AD9000000000000000000000000000000A1003C
:103AE9000000000000000100416E647265617320EE
:103AF900426F676B0000000000000000000000003A
:103B0900A1000000000000000100012011121E1395
:103B19001E4C6974657261726973636865722041CC
:103B290062656E640000000000A100000000000052
:103B3900000100000000000000000000000000007B
:103B49000000000000000000000000A100000000CB
:103B5900000000010000000000000000000000005B
:103B690000000000000000000000000000A10000AB
:103B7900000000000001000000000000000000003B
:103B8900000000000000000000000000000000A18B
:103B9900000000000000000100000000000000001B
:103BA900000000000000000000000000000000000C
:103BB90000A1000000000000000100416E64726570
:103BC9006173204C65686E65722C206C617273009C
:103BD900000000A100000000000000010001031125
:103BE900152D162D416476656E747572657320699D
:103BF9006E204D617070696E67000000A1000000C1
:103C090000000000010041666768616E69737461B4
:103C19006E20456C656374696F6E73000000A100C6
:103C290000000000000001005468652073746F7281
:103C390079206F662033205573686168696469204B
:103C49006D617070696E67000000616E6420726555
:103C5900706F7274696E672070726F6A65637473CE
:103C69002E0000000000000000000000000000001D
:103C7900000000000000000000000000000000003B
:103C890000000000A1000000000000000100000089
:103C9900000000000000000000000000000000001B
:103CA900000000000000A100000000000000010069
:103CB9000250111700000053656375726520636F28
:103CC9006D6D756E69636174696F6E732062656C81
:103CD9006F772074686500000068656172696E67B6
:103CE900207468726573686F6C64000000000000DE
:103CF90000A1000000000000000100496D70726F12
:103D090076656420617070726F616368657320669F
:103D19006F722061756469746976650000737465F2
:103D290067616E6F6772617068790000000000005A
:103D39000000000000A100000000000000010000D8
:103D4900000000000000000000000000000000006A
:103D590000000000000000A10000000000000001B8
:103D6900004D6172637573204E75747A696E67656B
:103D7900722C205261696E657220506F6973656C8F
:103D89000000000220210B1E0C1E4E65747A6D6521
:103D99006469656E72656368742C204C6F62627920
:103DA90069736D757320756E640000004B6F7272D4
:103DB900757074696F6E000000000000000000005B
:103DC90000000000A1000000000000000100576988
:103DD90065207769726B7420646965204C6F626233
:103DE9007920766F6E0000000000000000000000DE
:103DF9004D656469656E6B6F6E7A65726E656E3F4F
:103E09000000000000000000A10000000000000008
:103E19000100000000000000000000000000000098
:103E290000000000000000000000A10000000000E8
:103E39000000010054686F6D6173204261727468FB
:103E4900000000000000000000000000A1000000C8
:103E59000000000001000259210C2D0D1E4C69675C
:103E690068746E696E672054616C6B73202D2044F1
:103E79006179203200000000000000000000004BC2
:103E89006F7272757074696F6E0000000000000037
:103E990000000000000000A1000000000000000177
:103EA9000034206D696E75746573206F66206661D4
:103EB9006D6500000000000000A100000000000086
:103EC90000010000000000000000000000000000E8
:103ED9000000000000000000000000A10000000038
:103EE90000000001000000000000000000000000C8
:103EF90000000000000000000000000000A1000018
:103F0900000000000001005376656E204775636B61
:103F1900657300000000000000000000000000A11F
:103F29000000000000000001000106210E000F0042
:103F39004920436F6E74726F6C20596F75722043FC
:103F49006F64650000000000A1000000000000008F
:103F5900010041747461636B20566563746F7273F9
:103F6900205468726F7567682074686520457965A3
:103F7900730000006F6620536F6674776172652D58
:103F89006261736564204661756C7400000000000D
:103F990000000000000049736F6C6174696F6E0066
:103FA9000000000000000000000000000000A10067
:103FB90000000000000001000000000000000000F7
:103FC90000000000000000000000000000000000E8
:103FD900A10000000000000001004D6174686961E2
:103FE9007320506179657200000000000000000034
:103FF9000000A100000000000000010001202110C4
:10400900001100412073686F727420706F6C6974BD
:104019006963616C20686973746F7279206F6600D7
:10402900000000000061636F7573746963730000B9
:1040390000000000000000000000000000A10000D6
:1040490000000000000100466F722077686F6D2C38
:1040590020616E6420746F20646F20776861742C0E
:10406900207468650000000000736369656E63650C
:10407900206F6620736F756E6420776173206465A5
:1040890076656C6F70656400000000696E20746865
:104099006520313774682063656E74757279000024
:1040A900000000A10000000000000001004F6F6E39
:1040B90061204C6567616E6F7669630000000000DE
:1040C9000000000000A10000000000000001000243
:1040D9005021110F120F4461746120416E616C7996
:1040E90073697320696E2054657261626974000096
:1040F900000000000000000045746865726E657478
:1041090020547261666669630000000000000000C7
:10411900A1000000000000000100536F6C75746974
:104129006F6E7320666F72206D6F6E69746F72693E
:104139006E6720616E640000000000006C617766A4
:10414900756C20696E74657263657074696F6E2031
:1041590077697468696E2061206C6F7400006F66FE
:104169002062697473000000000000000000000074
:10417900000000000000A100000000000000010094
:104189004C617273205765696C657200000000000C
:104199000000000000000000A10000000000000075
:1041A9000100022021121E131E546563686E696B9B
:1041B900656E207A7572204964656E746966697ADC
:1041C900696572756E670000000000766F6E204E9B
:1041D90065747A7765726B2D50726F746F6B6F6C43
:1041E9006C656E0000000000000000000000000087
:1041F90000000000000000000000000000000000B6
:104209000000000000A10000000000000001000003
:104219000000000000000000000000000000000095
:1042290000000000000000A10000000000000001E3
:104239000000000000000000000000000000000075
:10424900000000000000000000A1000000000000C4
:10425900000100466C6F7269616E204164616D7383
:104269006B79000000000000000000A100000000C0
:104279000000000100024121152D162D436F6E73B8
:104289006F6C65204861636B696E6720323031302D
:1042990000000000A1000000000000000100506CB7
:1042A900617973746174696F6E20332C2058626F61
:1042B90078203336302C205769692C200000000003
:1042C90044536900000000000000000000000000E5
:1042D9000000000000000000A10000000000000034
:1042E90001000000000000000000000000000000C4
:1042F90000000000000000000000A1000000000014
:1043090000000100000000000000000000000000A3
:10431900000000000000000000000000A1000000F3
:1043290000000000010062757368696E672C206DDA
:10433900617263616E2C207376656E000000A100C6
:1043490000000000000001000120020B1E0D1E43A9
:1043590043432D4A6168726573727565636B626C5C
:1043690069636B203230313000000000000000002A
:104379000000000000000000000000000000000034
:10438900000000000000000000A100000000000083
:104399000001000000000000000000000000000013
:1043A9000000000000000000000000A10000000063
:1043B90000000001000000000000000000000000F3
:1043C90000000000000000000000000000A1000043
:1043D90000000000000100412E426F676B2C204154
:1043E9002E4D75656C6C65722D4D616775686E2C07
:1043F900000000000000000000432E4B75727A2C6B
:1044090020462E52696567657200000000000000B1
:1044190000A1000000000000000100010302110FCB
:10442900130F4E65747A6E65757472616C69746187
:10443900657420756E6420516F53202D00000000B3
:104449000000000065696E205769646572737072B7
:104459007563683F0000000000000000A100000033
:1044690000000000010046616B74656E206175668D
:104479002064656E20546973636800000000A10020
:104489000000000000000100000000000000000022
:104499000000000000000000000000000000000013
:1044A900A100000000000000010000000000000061
:1044B90000000000000000000000000000000000F3
:1044C9000000A100000000000000010041616E64CD
:1044D9007265617320426F676B2C204D61726B7539
:1044E90073204265636B656461686C000000025368
:1044F90002141E151E4368697020616E64205049BC
:104509004E2069732042726F6B656E0000000000D7
:104519000000000000000056756C6E6572616269EA
:104529006C697469657320696E20746865000000A0
:10453900000000000000000000454D562050726F39
:10454900746F636F6C000000000000000000000041
:1045590000A10000000000000001000000000000B0
:104569000000000000000000000000000000000042
:10457900000000A100000000000000010000000090
:104589000000000000000000000000000000000022
:104599000000000000A1000000000000000100531D
:1045A900746576656E204A2E204D7572646F636856
:1045B90000000000000000A1000000000000000150
:1045C90000012002152D162D466E6F72642D4A6169
:1045D90068726573727565636B626C69636B2032AF
:1045E90030313000000000000000766F6E20417409
:1045F9006F6D617573737469656720626973000013
:104609000000A10000000000000001005A77616E5F
:104619006773696E746567726174696F6E00000013
:1046290000000000A10000000000000001000000DF
:104639000000000000000000000000000000000071
:10464900000000000000A1000000000000000100BF
:104659000000000000000000000000000000000051
:104669000000000000000000A100000000000000A0
:10467900010046656C697820766F6E204C65697417
:104689006E65722C204672616E6B20526965676592
:1046990072000000015102170001004861636B6557
:1046A90072204A656F706172647900000000000031
:1046B900000000A10000000000000001004E756D1F
:1046C900626572206775657373696E6720666F72BC
:1046D900206765656B7300000000000000000000A2
:1046E90000000000000000000000000000000000C1
:1046F90000000000000000A100000000000000010F
:1047090000000000000000000000000000000000A0
:10471900000000000000000000A1000000000000EF
:10472900000100000000000000000000000000007F
:104739000000000000000000000000A100000000CF
:1047490000000001005261792C2053746566616E86
:10475900202753656327205A65686C000000000014
:10476900000000000000000105120B1E0C1E412074
:10477900437269746963616C204F76657276696505
:1047890077206F66203130207965617273000000EF
:104799006F66205072697661637920456E68616E33
:1047A90063696E6700000000A100000000000000BE
:1047B9000100546563686E6F6C6F6769657300000B
:1047C90000000000000000000000A100000000003F
:1047D90000000100000000000000000000000000CF
:1047E900000000000000000000000000A10000001F
:1047F90000000000010000000000000000000000AF
:104809000000000000000000000000000000A100FE
:1048190000000000000001007365646100000000F1
:10482900000000000000000000000000000000007F
:10483900A10000000000000001000350120D000D4E
:104849001E416C6C436F6C6F757273417265426582
:104859006175746966756C00000000000000000055
:10486900000000696E746572616374697665206C15
:104879006967687420696E7374616C6C6174696FBF
:104889006E00000000696E73706972656420627958
:1048990020626C696E6B656E6C6967687473000081
:1048A90000000000000000000000000000000000FF
:1048B900000000000000000000000000000000A14E
:1048C90000000000000000010000000000000000DE
:1048D90000000000000000000000000000000000CF
:1048E90000A10000000000000001004672616E7A1C
:1048F90020506C65747A2C206C696C6166697363ED
:104909006800000000000000000000000001011222
:104919000E1E0F0053495020686F6D652067617442
:10492900657761797320756E646572206669726551
:10493900000000000000536F7572636520726F7587
:1049490074696E672061747461636B732061707040
:104959006C69656400000000746F205349500000C1
:10496900000000000000000000000000000000003E
:10497900A10000000000000001000000000000008C
:10498900000000000000000000000000000000001E
:104999000000A1000000000000000100000000006C
:1049A90000000000000000000000000000000000FE
:1049B90000000000A1000000000000000100576F86
:1049C9006C6667616E67204265636B0000000000DA
:1049D900000000000000A10000000000000001002C
:1049E900012012100011004449592073796E74682E
:1049F9006573697A65727320616E6420736F756E71
:104A090064000000000000000067656E6572617453
:104A19006F72730000000000000000000000000039
:104A290000A10000000000000001005768657265E0
:104A390020646F65732074686520736F756E6420D8
:104A4900636F6D652066726F6D3F000000000000A6
:104A5900000000000000000000000000000000004D
:104A69000000000000A1000000000000000100009B
:104A7900000000000000000000000000000000002D
:104A890000000000000000A100000000000000017B
:104A9900007379736F00000000000000000000003F
:104AA900000000000000000000A10000000000005C
:104AB900000100023012121E131E494E4445435490
:104AC900202D000000000000000000000000000090
:104AD9000000A1000000000000000100616E2045F7
:104AE900552D5375727665696C6C616E63652050DE
:104AF900726F6A6563740000000000000000000026
:104B0900000000000000000000000000000000009C
:104B1900000000000000A1000000000000000100EA
:104B2900000000000000000000000000000000007C
:104B39000000000000000000A100000000000000CB
:104B4900010000000000000000000000000000005B
:104B590000000000000000000000A10000000000AB
:104B69000000010053796C766961204A6F686E69AB
:104B7900676B00000000000000000000A1000000B9
:104B8900000000000100025012141E151E4469673E
:104B99006974616C65205370616C74756E672070FF
:104BA90065722047657365747A000000000000444F
:104BB900617320496E7465726E657420756E642028
:104BC9006765736368616666656E6500000000006D
:104BD90000736F7A69616C6520556E676C656963EE
:104BE900686865697420696D20416C6C746167003F
:104BF900000000766F6E20457277657262736C6F84
:104C090073656E0000000000000000A100000000B4
:104C190000000001004265746A652053636877618A
:104C2900727A2C20446F72697320476572626967D2
:104C39002C0000000000004B61746872696E204509
:104C49006E676C657274000000000000000000A12E
:104C5900000000000000000100015112152D162D61
:104C6900546572726F72697374732057696E202D5F
:104C7900204578706C6F6974696E670000000000E8
:104C8900000054656C65636F6D6D756E6963617461
:104C9900696F6E73204461746100000000000000B8
:104CA90000000000526574656E74696F6E3F000004
:104CB900000000000000000000000000A10000004A
:104CC90000000000010000000000000000000000DA
:104CD9000000000000000000000000000000A1002A
:104CE90000000000000001004B61792048616D61FE
:104CF9006368657200000000000000000000000009
:104D0900A100000000000000010053746566616E97
:104D1900204B61747A656E62656973736572000010
:104D29000000A1000000000000000100034012176C
:104D390000000046726F7A656E4361636865000022
:104D49000000000000000000000000A100000000B9
:104D590000000001004D697469676174696E67201C
:104D6900636F6C642D626F6F742061747461636B1F
:104D79007320666F72000046756C6C2D4469736B05
:104D89002D456E6372797074696F6E20736F6674E6
:104D9900776172650000000000000000000000005B
:104DA90000000000000000000000000000000000FA
:104DB90000A1000000000000000100000000000048
:104DC90000000000000000000000000000000000DA
:104DD900000000A10000000000000001004A756504
:104DE9007267656E20506162656C0000000000000A
:104DF9000000000000A10000000000000001000107
:104E090020220C2D0D2D4C696768746E696E672020
:104E190054616C6B73202D205461672033000000AE
:104E29000000000000000000776865726520697362
:104E3900206D7920636F6D6D756E6974793F00001F
:104E49000000000000000000000000000000000059
:104E59000000000000000000000000000000000049
:104E69000000A10000000000000001000000000097
:104E79000000000000000000000000000000000029
:104E890000000000A1000000000000000100000077
:104E99000000000000000000000000000000000009
:104EA900000000000000A100000000000000010057
:104EB9005376656E204775636B65730000000000CB
:104EC9000000000000000000A10000000000000038
:104ED90001000106220E000F004275696C64696EBB
:104EE9006720746865205A6F6D626965476F7463DE
:104EF9006861000000000000000000486F7720741E
:104F09006F2065617420667269656E647320616ED5
:104F190064000000000000000000000000696E66E7
:104F29006C75656E63652070656F706C652E000029
:104F39000000000000A100000000000000010000C6
:104F49000000000000000000000000000000000058
:104F590000000000000000A10000000000000001A6
:104F69000000000000000000000000000000000038
:104F7900000000000000000000A100000000000087
:104F8900000100456C6920536B6970702C205472C4
:104F99006176697320476F6F64737065656400009B
:104FA9000000000000013022100011005361666505
:104FB9007479206F6E20746865204F70656E205378
:104FC900656100000000000000000000000053615E
:104FD9006665206E617669676174696F6E207769AD
:104FE90074682074686520616964206F6600000038
:104FF900616E206F70656E207365612063686172F0
:10500900742E000000000000A10000000000000054
:105019000100000000000000000000000000000086
:1050290000000000000000000000A10000000000D6
:105039000000010000000000000000000000000066
:10504900000000000000000000000000A1000000B6
:105059000000000001000000000000000000000046
:105069000000000000000000000000000000A10096
:105079000000000000000100014022110F120F4141
:105089006E64726F69642067656F6C6F63617469C0
:105099006F6E207573696E670000000000000000E4
:1050A9000047534D206E6574776F726B00000000E6
:1050B900000000000000000000A100000000000046
:1050C9000001002257686572652077617320576176
:1050D9006C64726F69643F220000000000000000E8
:1050E90000000000000000000000000000000000B7
:1050F90000000000000000000000000000A1000006
:105109000000000000010000000000000000000095
:10511900000000000000000000000000000000A1E5
:1051290000000000000000010052656E61756420F6
:105139004C6966636869747A000000000000000029
:1051490000A1000000000000000100022022121E40
:10515900131E596F757220496E6672617374727588
:1051690063747572652057696C6C0000000000005B
:10517900000000004B696C6C20596F75000000003D
:10518900000000000000000000000000A100000075
:105199000000000001000000000000000000000005
:1051A9000000000000000000000000000000A10055
:1051B90000000000000001000000000000000000E5
:1051C90000000000000000000000000000000000D6
:1051D900A100000000000000010000000000000024
:1051E90000000000000000000000000000000000B6
:1051F9000000A10000000000000001000000000004
:105209000000000000000000000000000000000095
:1052190000000000A1000000000000000100025091
:1052290022170000002253706F696C6572732C207D
:105239005265766572736520477265656E2C00004C
:1052490000000000000000444543454C2122206F26
:1052590072202257686174277320697420646F690A
:105269006E67000000000000006E6F773F220000AB
:105279000000000000000000000000000000000025
:1052890000A100000000000000010054686F75676C
:10529900687473206F6E20746865204175746F6D32
:1052A9006174696F6E20616E640000000069747337
:1052B9002048756D616E20496E746572666163651B
:1052C90073206F6E00000000000000000000004124
:1052D9006972706C616E6573207C204265726E64C0
:1052E900205369656B657200000000000000000032
:1052F900000340030B1E0C1E4F4D472057544620F8
:1053090050444600000000000000000000000000BA
:10531900A1000000000000000100576861742079B5
:105329006F75206469646E2774206B6E6F772061D6
:10533900626F757400000000000000004163726F25
:10534900626174000000000000000000000000001D
:1053590000000000A10000000000000001000000A2
:105369000000000000000000000000000000000034
:10537900000000000000A100000000000000010082
:105389000000000000000000000000000000000014
:105399000000000000000000A10000000000000063
:1053A90001004A756C696120576F6C660000000046
:1053B90000000000000000000000A1000000000043
:1053C900000001000120030C2D0D2D496368207395
:1053D900656865206E696368742C20646173732045
:1053E900776972206E69636874000000007A7573CA
:1053F90074696D6D656E2077657264656E00000075
:105409000000000000A100000000000000010044AD
:1054190069652053707261636865206465732070E3
:105429006F6C697469736368656E00000000000041
:10543900005665727261747320756E6420736569B4
:105449006E657220526563687466657274692D00B1
:1054590000000067756E6700000000000000000092
:105469000000000000000000000000A10000000092
:1054790000000001006D6168612F4D617274696EF1
:1054890020486161736500000000000000A1000070
:10549900000000000001000251030E000F005468D3
:1054A900726565206A6F62732074686174206A6F1F
:1054B90075726E616C6973747300000000000000FE
:1054C90077696C6C20646F20696E2032303530004A
:1054D9000000000000000000A10000000000000022
:1054E900010057687920667574757265206D656469
:1054F9006961206D6179206265206D6F72650000B8
:1055090000000000706F77657266756C2028616E07
:1055190064206D6F72652073756276657273697642
:105529006529000000007468616E20657665722047
:105539006265666F72650000000000000000A1004E
:105549000000000000000100416E6E616C6565207D
:105559004E657769747A00000000000000000000C1
:10556900A10000000000000001000250031000111A
:1055790000486F772074686520696E7465726E657E
:1055890074207365657320796F7500000000000051
:1055990000000064656D6F6E7374726174696E6783
:1055A90020776861742061637469766974696573C9
:1055B90000000000006D6F7374204953507320730D
:1055C900656520796F7520646F696E67206F6E203D
:1055D90074686500000000696E7465726E65740018
:1055E900000000000000000000000000000000A111
:1055F90000000000000000010000000000000000A1
:105609000000000000000000000000000000000091
:1056190000A10000000000000001000000000000DF
:105629000000000000000000000000000000000071
:10563900000000A10000000000000001000150036B
:10564900110F120F5365637572697479204E69677A
:1056590068746D617265730000000000A1000000AC
:105669000000000001000000000000000000000030
:105679000000000000000000000000000000A10080
:105689000000000000000100000000000000000010
:105699000000000000000000000000000000000001
:1056A900A10000000000000001000000000000004F
:1056B90000000000000000000000000000000000E1
:1056C9000000A1000000000000000100000000002F
:1056D90000000000000000000000000000000000C1
:1056E90000000000A1000000000000000100467257
:1056F900616E6B205269656765722C20526F6E006E
:10570900000000000000A1000000000000000100EE
:10571900010103121E131E41627363686C75737372
:10572900766572616E7374616C74756E67000000E2
:105739000000000000000000000000000000000060
:105749000000000000000000000000000000000050
:1057590000A100000000000000010000000000009E
:105769000000000000000000000000000000000030
:10577900000000A10000000000000001000000007E
:105789000000000000000000000000000000000010
:105799000000000000A1000000000000000100005E
:1057A90000000000000000000000000000000000F0
:1057B90000000000000000A100000000000000013E
:1057C90000000000000000000000000000000000D0
:1057D900000000000000000000A10000000000001F
:1057E9000001000100130B1E0C1E546F7220697317
:1057F9002050656163652C20536F6674776172650B
:105809002046726565646F6D00000000697320535E
:105819006C61766572792C2057696B69706564696A
:10582900612069732054727574680000000054681F
:105839006520706F6C69746963616C207068696C4C
:105849006F736F706879206F662074686500000057
:10585900496E7465726E65740000000000000000F6
:105869000000000000000000A1000000000000008E
:10587900010000000000000000000000000000001E
:1058890000000000000000000000A100000000006E
:10589900000001004164616D00000000000000008B
:1058A900000000000000000000000000A10000004E
:1058B9000000000001000250130D000D1E43796223
:1058C90065726E657469637320666F7220746865AA
:1058D900204D6173736573000000000000000069CA
:1058E9006D706C616E74732C2073656E736F727951
:1058F90020657874656E73696F6E20616E6400004F
:105909000073696C69636F6E202D20616C6C206671
:105919006F7220796F7521000000000000000000FF
:10592900000000000000000000000000000000006E
:105939000000000000000000000000A100000000BD
:10594900000000010000000000000000000000004D
:1059590000000000000000000000000000A100009D
:10596900000000000001000000000000000000002D
:10597900000000000000000000000000000000A17D
:105989000000000000000001000120130D2D0E0F82
:105999004861636B65727320616E6420436F6D703B
:1059A9007574657220536369656E63650000000054
:1059B90000000000000000000000000000000000DE
:1059C90000000000000000000000A100000000002D
:1059D90000000100000000000000000000000000BD
:1059E900000000000000000000000000A10000000D
:1059F900000000000100000000000000000000009D
:105A09000000000000000000000000000000A100EC
:105A1900000000000000010000000000000000007C
:105A2900000000000000000000000000000000006D
:105A3900A10000000000000001005365726765794C
:105A490020427261747573000000000000000000BC
:105A59000000A10000000000000001000120130E59
:105A69001E0F0041206672616D65776F726B20664B
:105A79006F72206175746F6D617465640000000058
:105A8900000000000061726368697465637475726F
:105A9900652D696E646570656E64656E74000000DD
:105AA9000000000000000067616467657420736589
:105AB900617263680000000000000000000000A19E
:105AC90000000000000000010043434320656469B1
:105AD90074696F6E00000000000000000000000003
:105AE90000A100000000000000010000000000000B
:105AF900000000000000000000000000000000009D
:105B0900000000A10000000000000001006B6F729E
:105B19006E61750000000000000000000000000038
:105B29000000000000A100000000000000010003C7
:105B39002013110F12004E657773204B657920529F
:105B490065636F766572792041747461636B732044
:105B59006F6E0000000000005243342F574550007B
:105B6900000000000000000000000000000000002C
:105B7900A10000000000000001000000000000007A
:105B8900000000000000000000000000000000000C
:105B99000000A1000000000000000100000000005A
:105BA90000000000000000000000000000000000EC
:105BB90000000000A100000000000000010000003A
:105BC90000000000000000000000000000000000CC
:105BD900000000000000A10000000000000001001A
:105BE9004D617274696E20567561676E6F757800C4
:105BF9000000000000000000A100000000000000FB
:105C090001000220230B1E0C1E41206861636B6595
:105C19007227732076696577206F6E206D6F746FB8
:105C29007200000000000000000000636F6E7472D3
:105C39006F6C20616E6420726F626F7469637300A8
:105C4900000000A1000000000000000100000000A9
:105C5900000000000000000000000000000000003B
:105C69000000000000A10000000000000001000089
:105C7900000000000000000000000000000000001B
:105C890000000000000000A1000000000000000169
:105C990000000000000000000000000000000000FB
:105CA900000000000000000000A10000000000004A
:105CB90000010000000000000000000000000000DA
:105CC9000000000000000000000000A1000000002A
:105CD90000000001000230230C2D0D2D4C6967686E
:105CE900746E696E672054616C6B73202D2044615A
:105CF90079203400000000000000000000007768EF
:105D0900657265206973206D7920636F6D6D756E9D
:105D19006974793F000000000000000000000000E5
:105D2900000000000000000000000000000000006A
:105D39000000000000000000A100000000000000B9
:105D49000100000000000000000000000000000049
:105D590000000000000000000000A1000000000099
:105D69000000010000000000000000000000000029
:105D7900000000000000000000000000A100000079
:105D89000000000001005376656E204775636B655E
:105D99007300000000000000000000000000A100E6
:105DA9000000000000000100010623110F12004845
:105DB9006176696E672066756E207769746820520E
:105DC90054500000000000A1000000000000000184
:105DD900002257686F20697320737065616B696E63
:105DE900673F3F3F22000000000000000000000064
:105DF900000000000000000000000000000000009A
:105E09000000000000000000000000A100000000E8
:105E19000000000100000000000000000000000078
:105E290000000000000000000000000000A10000C8
:105E39000000000000010000000000000000000058
:105E4900000000000000000000000000000000A1A8
:105E59000000000000000001006B6170656A6F645A
:105E69000000000000000000000000000000000029
:105E790000A10000000000000001000120FF000057
:105E89000000000000000000000000000000000009
:105E990000000000000000000000A1000000000058
:105EA90000000100000000000000000000000000E8
:105EB900000000000000000000000000A100000038
:105EC90000000000010000000000000000000000C8
:105ED9000000000000000000000000000000A10018
:105EE90000000000000001000000000000000000A8
:105EF9000000000000000000000000000000000099
:105F0900A1000000000000000100000000000000E6
:105F19000000000000000000000000000000000078
:105F29000000A100000000000000010000000000C6
:105F39000000000000000000000000000000000058
:105F490000000000A10000000000000001000000A6
:105F590000005E000000005E000000050105010070
:105F690003000300147F147F14147F147F140E2E72
:105F79007F3A38242A6B2A12172D775A7422152A48
:105F890054226859546B50304E4910700000070074
:105F990000000003000000005D220000003E4100F7
:105FA90000225D000000413E000028383E382808E4
:105FB900281E280808083E080808083E0808C0E006
:105FC90000000080600000000008080800000808C0
:105FD90008000040000000006060000020001C0074
:105FE9000240300806017F7F5D7F7F3E4149413E87
:105FF90000437F400000427F4000476371594F4290
:1060090061514946636349697F224149493608120A
:10601900117E10101C127F10474F4979794F494959
:1060290049307F7F49797936494949300141791F9A
:10603900070161310D033F7F497F3F764949497621
:106049004F4F49737F464949493E004400000000CB
:106059006666000000C4E000000086660000081CB7
:1060690036220000081422001414141414141414F1
:1060790014140022361C0800221408000303590FC7
:106089000F06015109065D36556A6D3E4955551E83
:106099007F0909097F7E0909097E7F4949417F7F77
:1060A900494949367F634163633E414141227F410A
:1060B90041225D7F4141413E7F6B4941083E49494B
:1060C90049417F0B0109007E090901017F63496B81
:1060D900733E4149493A7F0808087F7F0808087FCD
:1060E90000417F410000417F4100706040607F3086
:1060F9004040403F7F282254217F101C23407F408D
:106109004040407F404040407E0F040F7E7F020C9C
:10611900027F7F0A14287F7F0608307F7F634163EF
:106129007F3E4141413E7F09090F0F7F0909090659
:106139007F6361335F3E4151617E7F19295F2F7F04
:10614900091929466F6F497B7B2649494932010163
:106159007F010101017F01017F6040607F3F404075
:10616900403F0B2C302C0B07186018072708340800
:10617900271F7008701F412A142A416314081463E9
:10618900030A740A03030478040343635543216231
:1061990051494563007F414100007F4141000200B0
:1061A9001C002001060830400041417F00004141A8
:1061B9007F00000201020004020102044040404045
:1061C9004040404040400000030000000001020040
:1061D9007470543C7C20545454787F28446C7C7FE0
:1061E900444444387C6C446C6C38444444287C6C8A
:1061F90044287F384444447F7C7C541C4C38545494
:10620900541804047F050000047E0505BC3CA4D88D
:10621900EC18A4A4A47C7F08040C7C7F04040478F3
:1062290000007D000000407D4000C0C0FD0000402E
:10623900807D00007F381044007F10282844000129
:106249007E604000013F40407C0C7C0C7C7C0478E3
:1062590004787C08040C7C7C040404787C6C446C11
:106269007C3844444438FC18243C3CFC242424183D
:106279003C3C2418FC18242424FC7C08040C047CD1
:10628900040404081C5C54747048545454240404D1
:106299007F644400043F44407C6040607C3C404053
:1062A900403C00281028000C1060100C2C58605835
:1062B9002C1C6010601C2810381028442810284411
:1062C900BC30A0D0FC1CA0A0A07C24546C54484431
:1062D90064544C440008007F000000083641000067
:1062E9007F000000007F0000007F000800413608A1
:0262F9000000A3
:01630B00058C
:10164000F9E50A450B450C450D60777800C308E5C0
:101650000D20E73BE50A25E0F50AE50B33F50BE540
:101660000C33F50CE50D33F50DE582950AE5839510
:101670000BE5F0950CE9950D50D4C3E50D13F50D70
:10168000E50C13F50CE50B13F50BE50A13F50AE56C
:1016900082950AFCE583950BFDE5F0950CFEE99536
:1016A0000D4007F98EF08D838C82C3E50D13F50D87
:1016B000E50C13F50CE50B13F50BE50A13F50AD849
:0316C000CEE9224E
:0600B200E478FFF6D8FD22
:1016C300AC82AD83AE0BAF0CBE0004EF600C1F0FFA
:0F16D300E50A1216E2A3DEFADFF88C828D83227D
:100090007906E94400601B7A01906306780D759338
